:020000040800F2
:10000000B80A0020F1500008391900083B1900080F
:100010003F190008431900084719000800000000B4
:100020000000000000000000000000004B19000864
:100030004D190008000000004F1900085119000870
:100040000B5100080B5100080B5100080B51000820
:100050000B5100080B5100080B5100080B51000810
:100060000B5100080B5100080B5100080B51000800
:100070000B5100080B5100080B5100080B510008F0
:100080000B5100080B5100080B5100080B510008E0
:100090000B5100080B5100080B5100080B510008D0
:1000A0000B5100080B5100080B5100080B510008C0
:1000B0000B5100080B5100080B5100080B510008B0
:1000C0000B5100080B5100080B5100080B510008A0
:1000D0000B510008D5160008F91600084B17000848
:1000E0000B5100080B5100080B5100080B51000880
:1000F0000B5100080B5100080B5100080B51000870
:100100000B5100080B5100080B5100080B5100085F
:10011000411800086718000861120008F50E000871
:100120000B5100080B5100080B5100080B5100083F
:1001300000F002F800F04DF80AA090E8000C8244AC
:100140008344AAF10107DA4501D100F042F8AFF289
:10015000090EBAE80F0013F0010F18BFFB1A43F0A5
:1001600001031847A0C50000C0C50000103A24BF15
:1001700078C878C1FAD8520724BF30C830C144BF0C
:1001800004680C607047000000230024002500264E
:10019000103A28BF78C1FBD8520728BF30C148BFEA
:1001A0000B607047662909F05284642906F0EE86D8
:1001B000632907F09282002070471FB507F09AFA72
:1001C00004000020002108F0B1FBE0601FBD10B565
:1001D00010BD07F093FB1146FFF7EFFF00F0E3F9C6
:1001E00007F0B1FB03B4FFF7F2FF03BC07F0F4FB29
:1001F0002DE9F04F87B0064616B907B0BDE8F08F7D
:1002000035460124612D05DB7A2D03DCA5F12000A4
:10021000C5B204E0412D02DB5A2D00DC0024FE486B
:10022000007808B1FD4800E0FD480746FA4800782C
:1002300008B1FC4800E0FC4882464FF000084FF04F
:10024000FA0908EB090000EBD0714FEA610B0A20B4
:1002500006904FF482700590A5F131002A2871D2E2
:10026000DFE800F0F5F4707070F37070707070700B
:1002700070707070893BF2A4F122F0EFEEEDEC5655
:10028000EBD7EAE9E8711670BE70E71570E600BFBB
:100290000020E6490860E6490860E6490860012058
:1002A000E54981F83C0278E15CB10020DF49086053
:1002B000DF4807600020DF490860DF4981F83C0221
:1002C0000AE00020D9490860D9490860D949086086
:1002D0000120D94981F83C025FE16CB10020D3498B
:1002E000086087F00040D24908600020D1490860CA
:1002F000D14981F83C020AE00020CC490860CC4991
:100300000860CC4908600120CB4981F83C0244E1F7
:1003100064B187F00040C54908600020C449086006
:10032000C4490860C44981F83C020AE00020BF4982
:100330000860BF490860BF4908600120BE4981F8D4
:100340003C022AE128E154B1B84807600020B849CE
:100350000860B8490860B84981F83C020AE000200A
:10036000B2490860B2490860B24908600120B24948
:1003700081F83C0211E16CB10020AC490860AC4945
:1003800008608AF00040AB4908600020AA4981F863
:100390003C020AE00020A5490860A5490860A5497B
:1003A00008600120A44981F83C02F6E064B1002015
:1003B0009E4908609E4908609E48C0F800A0002041
:1003C0009D4981F83C020AE000209849086098495C
:1003D0000860984908600120974981F83C02DCE0F8
:1003E0006CB1002040F6C412CDE900020290C8238F
:1003F000082201210390914804F0CBFC08E0002280
:1004000001218E4804F0FDFC01218C4804F09EFB84
:10041000C3E0ECB1002040F6C412CDE90002029026
:10042000C823024601210390844804F0B2FC18E07E
:1004300018E079E07DE043E03BE092E054E047E003
:1004400068E06CE061E080E05AE011E09FE099E054
:1004500000220121794804F0D4FC0121774804F0FE
:1004600075FB9AE000220121744804F0CAFC94E074
:1004700073A1754804F0ACF9002201216F4804F023
:10048000C0FC322006F017FD01216C4804F05EFB31
:10049000322006F010FD0121684804F070FB322084
:1004A00006F009FD002301221146644804F028FCEF
:1004B00073E024B1962065490880654908806CE0A6
:1004C0002CB14FF48C70614908806149088064E068
:1004D0004CB1604909880A3188B24A46414603F066
:1004E000B7FE5C49088058E04CB15A4909880A397E
:1004F00088B24A46414603F0ABFE564908804CE0BC
:1005000014B1FA205449088047E014B1FA20524946
:10051000088042E014B146204F4908803DE014B104
:10052000D2204D49088038E014B1B4204A490880EF
:1005300033E04CB1494909887D3188B2DDE90521B4
:1005400003F086FE4549088027E04CB143490988FD
:100550007D3988B2DDE9052103F07AFE3F49088044
:100560001BE074B16FF002003D49086000202F4984
:1005700008602F4908602F49086001202E4981F842
:100580003C020AE014B100202349087005E014B1D0
:1005900001202149087000E000BF00BF0020314960
:1005A000087000BF29E696B001F043FA06F046FC59
:1005B00004F0B2F901F0BEFA4FF4E13003F0B6FFF7
:1005C0004FF4165003F0FFFF4FF4165004F099F863
:1005D00002F072FF03F047FE02F0F0FC04F0F2FCC0
:1005E00003F049F802F018FE0023012211461348D7
:1005F00004F086FB04201C4908704FF4FA7006F0E2
:100600005AFC04F00BF9072006F055FC04F043F9FE
:100610004FF47A702AE000000500002000007042CC
:1006200000002041CDCC4C3F9A99993E0800002013
:100630000C00002010000020D000002000440040EA
:1006400052455345540D0A0000500040540000200C
:100650001400002056000020580000205A000020FE
:1006600000000020040000206200002006F023FCAF
:10067000FEE304200D9010200C90FE48806C099041
:1006800008F070FECDE90A0101460B98CDE9001093
:10069000F948B0F90020F9A10EA806F039FC0020B5
:1006A00010210EAACDE9002102900D984FF6E073BB
:1006B0001F2201460B90022002F052F9DDE90C10D6
:1006C00008440D90EB48406C099008F04BFE024640
:1006D0000B46CDE90A01EDA10EA806F019FC002099
:1006E00010210EAACDE9002102900D984FF6E0737B
:1006F0001F2201460B90022002F032F9DDE90C10B6
:1007000008440D90DB484068099008F02BFECDE9C5
:100710000A01CDE90001E048B0F90020DFA10EA8F0
:1007200006F0F6FB002010210EAACDE90021029070
:100730000D984FF6E0731F2201460B90022002F045
:100740000FF9DDE90C1008440D90CA4800680990C3
:1007500008F008FE02460B46CDE90A01D3A10EA817
:1007600006F0D6FB002010210EAACDE90021029050
:100770000D984FF6E0731F2201460B90022002F005
:10078000EFF8DDE90C1008440D90BA48D0F8D0001D
:10079000099008F0E7FDCDE90A0101460B98CDE983
:1007A0000010C548B0F90020C4A10EA806F0B0FBA7
:1007B000002010210EAACDE9002102900D984FF6DD
:1007C000E0731F2201460B90022002F0C9F8DDE918
:1007D0000C1008440D90A748D0F8CC00099008F000
:1007E000C1FD02460B46CDE90A01B8A10EA806F0EC
:1007F0008FFB002010210EAACDE9002102900D9858
:100800004FF6E0731F2201460B90022002F0A8F879
:10081000DDE90C1008440D909648D0F88C00099042
:1008200008F0A0FDCDE90A01CDE90001AA48B0F920
:100830000020AAA10EA806F06BFB002010210EAA32
:10084000CDE9002102900D984FF6E0731F2201467A
:100850000B90022002F084F8DDE90C1008440D90A2
:100860008448D0F88800099008F07CFD02460B46C9
:10087000CDE90A019DA10EA806F04AFB0020102137
:100880000EAACDE9002102900D984FF6E0731F22C9
:1008900001460B90022002F063F8DDE90C100844D9
:1008A0000D909548006808F05DFD02460B46CDE9C5
:1008B0000A0192A10EA806F02BFB002010210EAA1F
:1008C000CDE9002102900D984FF6E0731F220146FA
:1008D0000B90022002F044F86648D0F8100109900D
:1008E00008F040FD02460B46CDE90A0186A10EA89C
:1008F00006F00EFB002010210EAACDE90021029087
:100900000D984FF6E0731F2201460B90782002F0FD
:1009100027F8DDE90C1008440D905648D0F8400146
:10092000099008F01FFD02460B46CDE90A0178A1A7
:100930000EA806F0EDFA002010210EAACDE9002144
:1009400002900D984FF6E0731F2201460B90022093
:1009500002F006F84748D0F81401099008F002FDAB
:1009600002460B46CDE90A0167A10EA806F0D0FAAF
:10097000002010210EAACDE9002102900D9880B22E
:100980004FF6E0731F2201460B90782001F0E8FF3C
:10099000DDE90C1008440D903648D0F84401099068
:1009A00008F0E0FC02460B46CDE90A015BA10EA867
:1009B00006F0AEFA002010210EAACDE90021029027
:1009C0000D9880B24FF6E0731F2201460B90022073
:1009D00001F0C6FF2748D0F81801099008F0C2FCC2
:1009E00002460B46CDE90A014FA10EA806F090FA87
:1009F000002010210EAACDE9002102900D9880B2AE
:100A00004FF6E0731F2201460B90782001F0A8FFFB
:100A1000DDE90C1008440D901649D1F86001D1F8B9
:100A2000641102460B46CDE90A0141A10EA806F069
:100A30006FFA002010210EAACDE9002102900D9836
:100A400080B24FF6E0731F2201460B90022001F0A6
:100A500087FF0849D1F83001D1F8341102460B461E
:100A6000CDE90A0135A10EA806F052FA00201021A6
:100A70000EAA67E0D000002040000020565F464CE0
:100A80003A2564202C2566202000000054464C5F47
:100A9000563A25662020000042000020565F46524C
:100AA0003A2564202C256620200000005446525F21
:100AB000563A25662020000046000020565F42522C
:100AC0003A2564202C256620200000005442525F05
:100AD000563A25662020000044000020565F424C14
:100AE0003A2564202C2566202000000054424C5FEB
:100AF000563A256620200000480000205941573A08
:100B00002566202020000000543A25662020200081
:100B1000765F783A2566202020000000765F793ADB
:100B20002566202020000000543A256620000000A1
:100B30006E6F775F783A256620200000543A252EA4
:100B400032662000CDE9002102900D9880B24FF668
:100B5000E0731F2201460B90962001F001FFDDE9B2
:100B60000C1008440D90FE49D1F86801D1F86C11C1
:100B700002460B46CDE90A01FAA10EA806F0C8F913
:100B8000002010210EAACDE9002102900D9880B21C
:100B90004FF6E0731F2201460B90022001F0E0FEA9
:100BA000EF49D1F83801D1F83C1102460B46CDE9A6
:100BB0000A01AFF278010EA806F0AAF90020102170
:100BC0000EAACDE9002102900D9880B24FF6E07395
:100BD0001F2201460B90962001F0C2FEDDE90C10A9
:100BE00008440D90DE48D0F81C01099008F0BAFBCB
:100BF00002460B46CDE90A01DDA10EA806F088F9F0
:100C0000002010210EAACDE9002102900D9880B29B
:100C10004FF6E0731F2201460B90022001F0A0FE68
:100C2000DDE90C1008440D90D44800680A21B0FB9F
:100C3000F1F201FB12000B90D0480068B0FBF1F01C
:100C4000B0FBF1F201FB12000A90CC48016864206D
:100C5000B1FBF0F00A21B0FBF1F201FB12000990A8
:100C6000C64800684FF47A71B0FBF1F00A21B0FB7E
:100C7000F1F201FB12000890C048006842F21071C6
:100C8000B0FBF1F20A20B2FBF0F100FB112007905B
:100C9000BA480168BA48B1FBF0F00690DDE90823D4
:100CA000DDE90A10CDE90123CDE903100798009092
:100CB000B248069BB3A102680EA806F029F90020ED
:100CC00010210EAACDE9002102900D9880B24FF6B6
:100CD000E0731F2201460B90022001F041FEDDE986
:100CE0000C1008440D90002010210EAACDE900211F
:100CF00002900D9880B24FF6E0731F2201460B90D0
:100D0000022001F02DFEDDE90C1008440D90A448EE
:100D1000A4A102680EA806F0FBF8002010210EAA7C
:100D2000CDE9002102900D9880B24FF6E0731F22AA
:100D300001460B90022001F013FE002010210EAAA4
:100D4000CDE9002102900D9880B24FF6E0731F228A
:100D500001460B90502001F003FEDDE90C10084421
:100D60000D909348027893A10EA806F0D1F80020C8
:100D700010210EAACDE9002102900D9880B24FF605
:100D8000E0731F2201460B90022001F0E9FD8B4821
:100D900002788BA10EA806F0BBF8002010210EAA45
:100DA000CDE9002102900D9880B24FF6E0731F222A
:100DB00001460B902A2001F0D3FD8348027883A1DD
:100DC0000EA806F0A5F8002010210EAACDE90021FA
:100DD00002900D9880B24FF6E0731F2201460B90EF
:100DE000522001F0BDFD7B4802787BA10EA806F0E1
:100DF0008FF8002010210EAACDE9002102900D9855
:100E000080B24FF6E0731F2201460B907A2001F06A
:100E1000A7FD7348027873A10EA806F079F80020A8
:100E200010210EAACDE9002102900D9880B24FF654
:100E3000E0731F2201460B90A22001F091FDDDE935
:100E40000C1008440D906948007801281FD1DDE995
:100E50000C1008440D900020102165A2CDE900215E
:100E600002900D9880B24FF6E0731F22014600E019
:100E70003EE00B90022001F073FD02F0FCFB02F05B
:100E8000CBF90020364981F83C02584908705B488C
:100E90000078012820D1DDE90C1008440D900020D5
:100EA000102157A2CDE9002102900D9880B24FF693
:100EB000E0731F2201460B90022001F051FD2848EB
:100EC00090F83C0208B9012000E00020244981F894
:100ED0003C020020494908704C48006808B90120CC
:100EE00000E0002049490860012005F0E4FF00BF50
:100EF000FFF7BFBB1FB50121454805F086FD01285E
:100F00002CD144480068401C4249086008460068EB
:100F100041490968401A022807D348213F4805F093
:100F2000C5FE3C4800683C4908603A4800683C49B6
:100F30000968401A01280AD900203A4908603A494C
:100F400008603A4908600120054981F83C023848A8
:100F500000883849098888427ADA6DE07FE177E0D5
:100F6000D00000206E6F775F793A25662020200040
:100F7000765F773A25662020200000006800002078
:100F8000A086010051525F636F64653A25642C208E
:100F900025642564256425642564256420202000BB
:100FA000000000207461736B3A256420000000008B
:100FB0005C00002075313A25632000005D000020B0
:100FC00075323A25632000005E00002075333A2513
:100FD000632000005F00002075343A256320000084
:100FE0006000002075353A2563200000880000204D
:100FF0006B6579315F666C616700000089000020D5
:101000006B6579325F666C616700000094812142F4
:1010100000140040780000201C0000200050004018
:1010200018000020080000200C0000201000002004
:101030005400002014000020FE490988891C88B251
:101040004FF48C72962103F003F9FA49088019E0F5
:10105000F8480088F8490988884213DDF548008877
:10106000022804DDF3480088801E80B200E096204C
:1010700004464FF48C729621204603F0E9F8ED49BE
:10108000088000BFED480088ED49098888420FDAE2
:10109000EA4800880A30E949088008460088E8499B
:1010A0000988884218DDE6480088E449088013E092
:1010B000E2480088E249098888420DDDDF4800885F
:1010C0000A2805DDDD4800880A38DC49088003E08D
:1010D000DB480088D9490880DA480068C01C90B90C
:1010E00000204FF4FA72CDE9000202901346024646
:1010F00001210390D44803F04CFE0020D34908603E
:10110000801ED0490860CF480068801C68B9CF486D
:1011100000680A2809D34FF48C70C6490880002063
:10112000CA490860401EC7490860C6480068401C9C
:10113000B0B9C64800680A2812D3002042F6E0621F
:10114000CDE9000202904FF4FA73082201210390C6
:10115000BD4803F01EFE0020BC490860B949086084
:10116000B848006860B9B94800680A2808D3FA206E
:10117000B34908800020B54908600120B1490860E2
:10118000B0480068012816D1B04800680A2812D378
:1011900000204FF4FA72CDE9000202901346024695
:1011A00001210390A84803F0F4FD0020A74908603E
:1011B0000220A4490860A348006802280CD1A34873
:1011C00000680A2808D396209A49088000209F4981
:1011D000086003209B4908609A480068032817D1DB
:1011E0009A4800680A2813D3002040F6AC52CDE993
:1011F000000202904FF4FA730822012103909248F2
:1012000003F0C7FD00209149086004208D49086063
:101210008C48006804280BD18C4800680A2807D342
:1012200000208749088089490860052085490860B1
:1012300084480068052806D16FF063008149086082
:101240000120834908708348006808B9012000E044
:1012500000208049086001217F4805F0E7FB1FBDA1
:101260002DE9FC4701217D4805F0CFFB01287CD109
:101270007B4805F0B8FB00B27A4908807A4805F04F
:10128000B2FB404200B2794908804FF0804005F03F
:10129000AAFB00B276490880764805F0A4FB00B2AC
:1012A0007549088000214FF0804005F079FB00214E
:1012B000704805F075FB0021694805F071FB0021BD
:1012C000694805F06DFB02F023FB6C4802F081FBDE
:1012D0006A48443002F07DFB6848883002F079FBB0
:1012E0006648CC3002F075FB02F093FB584800785A
:1012F00068B1634800686149C1F814016148006839
:10130000C1F8180160480068C1F81C01D6E002F07D
:10131000CEFE5A48D0F81C0180F000405749C1F871
:101320001C010846D0F86021D0F86411104607F07F
:1013300013FB04465148D0F83021D0F83411104640
:1013400007F00AFB054622462946504802F0C3F939
:101350004A48D0F86821D0F86C11104607F0FCFA22
:1013600004464649D1F8382100E0B1E1D1F83C11FA
:10137000104607F0F1FA0546224629464348283030
:1013800002F0A9F93D48D0F8BC013C49C1F814016C
:101390000846D0F8E401C1F81801D1F81001002185
:1013A00008F03CF90BD13548D0F8E4013349C1F8D5
:1013B00018010846D0F8BC01C1F814017EE02F499D
:1013C000D1F81001324908F029F90DD12B48D0F895
:1013D000E40180F000402949C1F814010846D0F822
:1013E000BC01C1F8180169E02449D1F8100129496C
:1013F00008F014F90DD12148D0F8E4011F49C1F8D3
:1014000014010846D0F8BC0180F00040C1F8180172
:1014100054E01A49D1F810011F4908F0FFF806D02E
:101420001649D1F810011D4908F0F8F846D11348C3
:1014300036E0000054000020140000205600002078
:1014400058000020000000200044004078000020E8
:1014500006000020A481214200140040001000403A
:101460000008004042000020000C00404000002026
:10147000460000200004004044000020D00000206E
:10148000080000200C000020100000206C0200204A
:101490000000B4420000B4C200003443000034C372
:1014A000D0F8BC0180F00040FE49C1F814010846A4
:1014B000D0F8E40180F00040C1F81801F949D1F8F2
:1014C0001C0107F04FFF04460D46F649D1F8140100
:1014D00007F048FF06460F46F249D1F8180107F019
:1014E00041FF804632463B46CDE9004502F027FEEB
:1014F000EC48426801680C3002F040F9E948826C1F
:10150000416C503002F03AF9E648D0F88C20D0F81F
:101510008810943002F032F9E248D0F8D020D0F8A8
:10152000CC10D83002F02AF9DE4890F83C020128AD
:1015300007D10021DB4801634167C0F8B810C0F84B
:10154000FC10D849D84A486FD84903F017FA014629
:10155000D44841670146D44A086BD44903F00EFAD7
:10156000D0490863D04AD1F8B800D04903F006FA50
:101570000146CC48C0F8B8100146CB4AD1F8FC006F
:10158000CA4903F0FBF90146C648C0F8FC10014601
:10159000086B08F077F8C3498860486F08F072F864
:1015A000C049C864D1F8B80008F06CF8BD49C1F86A
:1015B0009000D1F8FC0008F065F8BA49C1F8D400F1
:1015C000C86C08F07BF80546B74AB84903F0D6F96D
:1015D000044608F057F8B349C864886808F06EF804
:1015E0000546B14AB14903F0C9F9044608F04AF882
:1015F000AC498860D1F8900008F060F80546AA4A26
:10160000AA4903F0BBF9044608F03CF8A549C1F823
:101610009000D1F8D40008F051F80546A24AA34939
:1016200003F0ACF9044608F02DF89E49C1F8D40047
:10163000002041F26F71CDE900109A484FF400622A
:101640009110C36C084602F0DEF8002041F26F7181
:10165000CDE9001093484FF48042911083684020F8
:1016600002F0D1F8002041F26F71CDE900108D48F1
:101670004FF400429110D0F89030481102F0C3F8B6
:10168000002041F26F71CDE9001086484FF480626E
:101690009110D0F8D430802002F0B5F8844800884A
:1016A00002F04FFE8348008802F06DFE82480088F9
:1016B00002F058FE03F0AFFC8048006808B9012032
:1016C00000E000207D49086001217D4805F0AEF969
:1016D000BDE8FC8710B540F225517A4805F06AFB59
:1016E00048B1784805F0E6FA7749087040F225518C
:1016F000744805F089FB10BD10B540F225517348C0
:1017000005F058FB00B3714805F0D4FA7049087031
:10171000084600786F49704A127888546E480078FD
:101720006E490978884205D101206D490870002072
:101730006949087068480078401C6749087040F2A1
:101740002551624805F060FB10BD2DE9F04140F2E3
:101750002551644805F02EFB00286FD0614805F044
:10176000A9FA61490870084600786049604A127811
:1017700088545F48007810B101281CD10BE05B4809
:101780005B490978405C552804D159480078401CD1
:101790005749087015E0554855490978405C52286A
:1017A00005D153480078401C5149087002E00020E0
:1017B0004F49087005E04E480078401C4C490870BD
:1017C00000BF00BF4A480078152831D14748407C07
:1017D0004649897C40EA012004B2204607F06EFFAA
:1017E00007464FF08E4107F057FE0646414907F085
:1017F000B1FF41490860084600682A49C1F848011C
:101800003A4880793949C97940EA012005B2284629
:1018100007F054FF07464FF08E4107F03DFE0646A5
:10182000364907F097FF36490860002030490870B4
:1018300040F225512B4805F0E7FA00BFBDE8F081E2
:1018400010B540F225512F4805F0B4FA012809D10E
:101850002C4805F02FFA2C49087040F225512948F0
:1018600005F0D2FA10BD10B540F22551274805F019
:10187000A1FA01285CD1254805F01CFA244908701A
:101880000846007823490870234800682349086007
:101890001F480078FEF7ACFC00201E4908701C4869
:1018A00001783DE0D00000200078BB450078BBC542
:1018B00054000020560000205A000020A081214240
:1018C00000100040003801405C000020004400404F
:1018D0005D00002060030020610000206200002005
:1018E00063000020004800405E000020A8000020A7
:1018F0002000002000003443480000200000FA448B
:101900004C000020004C00405F00002000500040D0
:101910006000002004000020780000201800002053
:10192000044805F0C3F940F22551024805F06CFA6D
:1019300010BD000000500040704700BFFEE700BF30
:10194000FEE700BFFEE700BFFEE770477047704745
:10195000704700000CB50020019000906C480068B2
:1019600040F480306A49086000BF6948006800F4AC
:10197000003000900198401C0190009818B901981F
:10198000B0F5A06FF1D16248006800F4003010B1EA
:101990000120009001E0002000900098012843D130
:1019A0005C48006840F010005A490860084600682A
:1019B00020F0030008600846006840F0020008605C
:1019C00053484068524948600846406848600846A5
:1019D000406840F4806048600846406820F47C100D
:1019E00048600846406840F4E810486008460068CF
:1019F00040F08070086000BF4548006800F000704B
:101A00000028F9D04248406820F00300404948606F
:101A10000846406840F00200486000BF3C4840680B
:101A200000F00C000828F9D10CBD10B5FFF792FFAB
:101A300010BD10B53648006840F001003449086018
:101A40000846406834490840314948600846006803
:101A5000324908402E4908600846006820F480207A
:101A600008600846406820F4FE0048604FF41F00FC
:101A70008860FFF7DAFF4FF000602949086010BD69
:101A800010B5002100200022214B5B6803F00C01FF
:101A900021B1042906D0082928D107E0214B224C86
:101AA000236027E01F4B204C236023E0184B5B682A
:101AB00003F47010164B5B6803F48032022303EBCF
:101AC000904022B9194B4343174C23600DE0104B53
:101AD0005B6803F4003323B1144B4343124C23607F
:101AE00003E0104B4343104C236003E00D4B0E4CBE
:101AF000236000BF00BF064B5B68C3F303130C4CAD
:101B0000E15C094B1B68CB40074C236010BD000013
:101B100000100240002002400000FFF8FFFFF6FE28
:101B200008ED00E000127A002400002000093D00CA
:101B30002800002000B587B00121084603F08FFE81
:101B40000121022003F08BFE0121042003F087FE17
:101B50000121082003F083FE0121042003F072FE1E
:101B60000121082003F06EFE0121084603F06AFE01
:101B700001219E4803F07BFC01219D4803F077FC86
:101B800028208DF81B0048F2C300ADF81800032090
:101B90008DF81A0006A9974803F098FBC820ADF805
:101BA000180006A9944803F091FB03A804F034FC44
:101BB0004FF6FF70ADF810000020ADF80C008DF866
:101BC000140003A94FF0804004F0FAF803A804F0D1
:101BD00023FC4FF6FF70ADF810000020ADF80C00AC
:101BE0008DF8140003A9854804F0EAF803A804F06E
:101BF00013FC4FF6FF70ADF810000020ADF80C009C
:101C00008DF8140003A97E4804F0DAF803A804F064
:101C100003FC4FF6FF70ADF810000020ADF80C008B
:101C20008DF8140003A9774804F0CAF8684604F058
:101C300006FC0020ADF800000F20ADF80800694652
:101C40004FF0804004F04FFB0420ADF800000F205F
:101C5000ADF8080069464FF0804004F044FB684648
:101C600004F0EDFB0020ADF800000F20ADF80800F7
:101C70006946624804F037FB0420ADF800000F20ED
:101C8000ADF8080069465D4804F02DFB684604F095
:101C9000D6FB0020ADF800000F20ADF80800694623
:101CA000574804F020FB0420ADF800000F20ADF8E9
:101CB00008006946524804F016FB684604F0BFFB72
:101CC0000020ADF800000F20ADF8080069464D482F
:101CD00004F009FB0420ADF800000F20ADF8080067
:101CE0006946484804F0FFFA00231A4603214FF0E2
:101CF000804004F074FC00231A4603213F4804F09E
:101D00006EFC00231A4603213D4804F068FC0023C2
:101D10001A4603213B4804F062FC0121880704F0C5
:101D2000ABFB0121354804F0A7FB0121344804F046
:101D3000A3FB0121334804F09FFB07B000BD00B5B1
:101D400087B00121042003F07DFD0121084603F046
:101D500086FD04208DF81B000C20ADF8180006A9A4
:101D6000244803F0B3FA03A804F056FB0020ADF8B2
:101D70001200ADF80E004FF6FF70ADF81000002015
:101D8000ADF80C0003A94FF0804004F019F80023CF
:101D90001A4603214FF0804004F021FC684604F00D
:101DA0004EFB0820ADF800000A20ADF80800694697
:101DB000400704F098FA0C20ADF800000A20ADF8B6
:101DC00008006946400704F08EFA01221146900788
:101DD00004F06DFB00214FF0804004F0E1FD012193
:101DE000880704F049FB07B000BD00000002300086
:101DF0000001180000080140000C014000040040F0
:101E000000080040000C004070B505460E46144620
:101E10003146284601F02AF8204600F0E8FF70BD60
:101E20002DE9F05F04460D4616461F46301B401C48
:101E30001FFA80FA781B401C1FFA80FB3B46324693
:101E40002946204600F0E8FF4FF000080FE04FF071
:101E5000000906E00A9800F0CAFF09F101001FFA24
:101E600080F9D145F6DB08F101001FFA80F8D8456A
:101E7000EDDBFE484088401E83B2FC480088401ECF
:101E800082B20021084600F0C7FFBDE8F09F2DE9AF
:101E9000FF4F85B081468A46002004900390079842
:101EA000A0EB09050898A0EB0A06CDF80890CDF83C
:101EB00004A0002D01DD012705E00DB9002702E097
:101EC0004FF0FF376D42002E02DD4FF0010806E0B3
:101ED00016B94FF0000802E04FF0FF387642B542E5
:101EE00001DD2C4600E034464FF0000B21E0019A62
:101EF00091B2029A90B200F0C3FF04982844049073
:101F00000398304403900498A04205DD0498001B18
:101F100004900298384402900398A04205DD03988B
:101F2000001B03900198404401900BF101001FFA3F
:101F300080FB601C8345DADD09B0BDE8F08F2DE938
:101F4000F04104460D4616461F462B4632462946AA
:101F50002046FFF79CFF3B46224629462046FFF7D6
:101F600096FF3B46324639462046FFF790FF3B46F8
:101F7000324629463046FFF78AFFBDE8F081F8B5C2
:101F800004460D4616461F46B94800883B46324671
:101F9000294600902046FFF743FFF8BD2DE9F041A8
:101FA00004460D4616461F46DDF81880EA1991B220
:101FB000A21990B24246FFF727FFEA1991B2A21B7D
:101FC00090B24246FFF720FFEA1B91B2A21990B2ED
:101FD0004246FFF719FFEA1B91B2A21B90B242469C
:101FE000FFF712FFAA1991B2E21990B24246FFF729
:101FF0000BFFAA1991B2E21B90B24246FFF704FF11
:10200000AA1B91B2E21990B24246FFF7FDFEAA1B4D
:1020100091B2E21B90B24246FFF7F6FEBDE8F081B6
:102020002DE9FF4F81B0824617469846DDF838B05B
:10203000002445464FEA4800C0F10306BBF1000FFB
:102040001FD01BE0A14608E04B46224600975046B1
:102050000299FFF7A3FF09F10109A945F4DD002E5C
:1020600004DA042000FB0460861D06E0601B0421E6
:1020700001FB006000F10A066D1E641CAC42E1DD4C
:1020800018E015E02B462246009750460299FFF7CC
:1020900085FF002E04DA042000FB0460861D06E0A4
:1020A000601B042101FB006000F10A066D1E641C28
:1020B000AC42E7DD05B0BDE8F08F2DE9F0470446FE
:1020C0000D4616461F46DDE908893B46324629463D
:1020D0002046FFF7DCFE4B46424639463046FFF7C6
:1020E000D6FE2B46224649464046FFF7D0FEBDE8C5
:1020F000F08702880B8803800A8070472DE9FF4F24
:1021000085B000260027BDF81800BDF820108842D1
:1021100007DD08A906A8FFF7ECFF07A905A8FFF748
:10212000E8FFBDF82000BDF84C10884207DD08A983
:1021300013A8FFF7DEFF07A912A8FFF7DAFFBDF823
:102140001800BDF82010884207DD08A906A8FFF78F
:10215000D0FF07A905A8FFF7CCFFBDF81800BDF810
:102160004C10884238D1BDF8140003900490BDF89B
:102170001C00BDF81010884203DABDF81C00049062
:1021800008E0BDF81C00BDF80C10884202DDBDF867
:102190001C000390BDF84800BDF81010884203DA17
:1021A000BDF84800049008E0BDF84800BDF80C10E8
:1021B000884202DDBDF8480003902D480088009059
:1021C000BDF81830BDF80C201946BDF81000FFF717
:1021D00027FE09B0BDE8F08FBDF81C00BDF8141053
:1021E000A0EB010BBDF82000BDF81810401A0290BA
:1021F000BDF84800BDF81410451ABDF84C00BDF8F4
:102200001810A0EB0109BDF84800BDF81C10A0EBA8
:10221000010ABDF84C00BDF82010401A0190BDF82D
:102220002000BDF84C10884202D1BDF8208004E0A7
:10223000BDF82000401E1FFA80F8BDF818402CE0C1
:10224000029896FBF0F0BDF81410084480B2049098
:1022500097FBF9F0BDF81410084480B203905E4477
:102260002F44BDF81000BDF80C1003E0BE000020A4
:1022700038000020884203DD03A904A8FFF739FFD6
:10228000FE48008823460090BDF80C202146BDF88A
:102290001000FFF7C5FD601C84B24445D0DDBDF8D9
:1022A0002000201A00FB0AF6BDF81800201A00FBD7
:1022B00005F727E0019896FBF0F0BDF81C100844E4
:1022C00080B2049097FBF9F0BDF81410084480B276
:1022D000039056442F44BDF81000BDF80C108842FE
:1022E00003DD03A904A8FFF704FFE44800882346A0
:1022F0000090BDF80C202146BDF81000FFF790FDBE
:10230000601C84B2BDF84C008442D3DD00BF60E79E
:102310002DE9FF4F83B081468A469346DDE910647C
:10232000D64800880290A6F12000C6B204EBD47013
:1023300009EB6000401E82B20AEB0400401E83B22B
:1023400051464846019400F067FD129850BB0025A5
:1023500025E00C2C07D106EB4600C94901EB8000B3
:1023600010F8058004E0C74800EB061010F805805F
:1023700000270DE008F0010018B1584600F037FDC5
:1023800002E0069800F033FD4FEA6808781CC7B2F7
:1023900004EBD471B7EB610FECDB681CC5B2A5424E
:1023A000D7DB2DE0002529E00C2C07D106EB4600F9
:1023B000B34901EB800010F8058004E0B14800EB60
:1023C000061010F80580002711E0AC48A0F800B016
:1023D00008F0010038B10AEB050291B209EB0702DF
:1023E00090B200F04DFD4FEA6808781CC7B204EBCC
:1023F000D471B7EB610FE8DB681CC5B2A542D3DB33
:102400009E4902980880A0484088401E83B29E489A
:102410000088401E82B20021084600F0FDFC07B093
:10242000BDE8F08F2DE9FE4306460F4615461C46D3
:10243000DDF828801DE094480088401EB04204DB8F
:1024400091484088401EB84201DABDE8FE832078FA
:102450008DE821018D480388884802883946304636
:10246000FFF756FF284605EBD07106EB61018EB2EF
:10247000641C20787E2802DC20782028DBDA00BF6C
:10248000E3E710B50246012000E050430B1EA1F126
:102490000104E1B2F9D110BD2DE9FF4F83B0074629
:1024A00091461E46109C4FF0000A002543E0701B29
:1024B000401EC1B20A20FFF7E4FFB9FBF0F00A2189
:1024C000B0FBF1F201FB1208BAF1000F1BD1701E34
:1024D000A84218DDB8F1000F13D100202021A34637
:1024E000CDE90014029004EBDB71491001FB05718A
:1024F00088B266490B8861490A880499FFF708FF8A
:1025000017E04FF0010A002108F13000C0B2A346E5
:10251000CDE90141009004EBDB71491001FB05712D
:1025200088B25A490B8855490A880499FFF7F0FE8A
:1025300000BF681CC5B2B542B9DB07B0BDE8F08F7B
:102540002DE9FC5F0546884691469A46DDF830B095
:1025500000953E20019000245FE004EB04104C49FC
:1025600011F810009BF80010884253D104EB0410BE
:10257000474901EB400040789BF80110884249D15F
:1025800008F10F0083B205F10F0082B241462846E0
:1025900000F042FC00263BE0002734E00D9890B9A3
:1025A00004EB04103A4901EB4000801C805D80215F
:1025B0003941084018B1484600F019FC21E0504666
:1025C00000F015FC1DE02D48A0F8009004EB04106D
:1025D0002F4901EB4000801C805D8021394108407B
:1025E00018B14146284600F04BFC681C85B20098A3
:1025F000281A102805D1009D08F101001FFA80F863
:1026000003E0781CC7B2082FC8DB00BF701CC6B23D
:10261000202EC1DB00BF601C84B2019884429CDB89
:1026200019484088401E83B217480088401E82B275
:102630000021084600F0F0FBBDE8FC9F2DE9FC5F9F
:102640000546884691469A46DDF830B00095072049
:102650000190002476E004EB840000EB44100D4967
:1026600011F810009BF80010884268D104EB840038
:1026700000EB4410074901EB40000DE0380000205A
:10268000429B0008B69F0008BE0000203A000020D0
:10269000A6A50008E2AD000840789BF8011088422A
:1026A0004DD108F1170083B205F1170082B24146FF
:1026B000284600F0B1FB00263FE0002738E00D98E7
:1026C000A0B904EB840000EB4410FB4901EB40008F
:1026D000801C805D80213941084018B1484600F0D7
:1026E00086FB23E0504600F082FB1FE0F348A0F891
:1026F000009004EB840000EB4410EF4901EB400034
:10270000801C805D80213941084018B1414628462F
:1027100000F0B6FB681C85B20098281A182805D16D
:10272000009D08F101001FFA80F803E0781CC7B291
:10273000082FC4DB00BF701CC6B2482EBDDB00BF33
:10274000601C84B20198844285DBDD484088401ECD
:1027500083B2DB480088401E82B20021084600F0A8
:102760005BFBBDE8FC9F2DE9FC5F05468846914672
:102770009A46DDF830B000950520019000245FE016
:1027800004EB8410CF4911F810009BF80010884228
:1027900053D104EB8410CB4901EB400040789BF807
:1027A0000110884249D108F11F0083B205F11F00D2
:1027B00082B24146284600F02FFB00263BE000276E
:1027C00034E00D9890B904EB8410BE4901EB400051
:1027D000801C805D80213941084018B1484600F0D6
:1027E00006FB21E0504600F002FB1DE0B348A0F8D4
:1027F000009004EB8410B34901EB4000801C805D25
:1028000080213941084018B14146284600F038FB84
:10281000681C85B20098281A202805D1009D08F16F
:1028200001001FFA80F803E0781CC7B2082FC8DB4C
:1028300000BF701CC6B2802EC1DB00BF601C84B21A
:10284000019884429CDB9E484088401E83B29C488D
:102850000088401E82B20021084600F0DDFABDE883
:10286000FC9F2DE9FC5F0546884691469A46DDF8B7
:1028700030B0009504200190002460E004EB0420B7
:10288000914911F810009BF80010884254D104EBD4
:1028900004208D4901EB400040789BF801108842EC
:1028A0004AD108F13F0083B205F13F0082B24146B0
:1028B000284600F0B1FA00263BE0002734E00D98EE
:1028C00090B904EB0420804901EB4000801C805D3E
:1028D00080213941084018B1484600F088FA21E0CB
:1028E000504600F084FA1DE07448A0F8009004EB14
:1028F0000420754901EB4000801C805D8021394136
:10290000084018B14146284600F0BAFA681C85B262
:102910000098281A402805D1009D08F101001FFAEF
:1029200080F803E0781C87B2082FC8DB00BF701C5A
:1029300086B2B6F5007FC0DB00BF601C84B2019890
:1029400084429BDB5E484088401E83B25C4800881E
:10295000401E82B20021084600F05EFABDE8FC9FEE
:102960002DE9FF4F83B0064688469146DDE91147C1
:10297000109DB2464FF0000B7BE0BBF1000F40D141
:1029800004EBD4714E4A1288A2EB6101B14204DB20
:102990004B494988091B414502DA07B0BDE8F08F71
:1029A0002878802802DD4FF0010B62E028780D289E
:1029B00006D108EB04001FFA80F856466D1C1EE095
:1029C000102C0DDD102128788DE883004A46414601
:1029D0003046069BFFF79CFC06F1080086B20EE02D
:1029E00028788DE891004A4641463046069BFFF71D
:1029F0008FFC204604EBD07106EB61018EB26D1C9A
:102A000037E02F480088001BB04204DB2C48408888
:102A1000001B404500DAC0E74FF0000B402C07D107
:102A2000CDE900574A4641463046069BFFF719FF5D
:102A3000202C08D1CDE900574A4641463046069B36
:102A4000FFF791FE12E0182C08D1CDE900574A4655
:102A500041463046069BFFF7F1FD07E0CDE9005700
:102A60004A4641463046069BFFF76AFDAD1C3019C9
:102A700086B22878002880D100BF8EE72DE9FE4F6E
:102A80000E4617469846DDE90D9A0C9C204604F048
:102A900040FB85B20A490988A1EBC50000EBD07163
:102AA000C1F34F0B43463A46314658468DE810066F
:102AB000FFF756FFBDE8FE8FE2AD000838000020AA
:102AC000BE000020E8AF000842BD00082DE9F04735
:102AD00006460F46154607F1270083B206F1270088
:102AE00082B23946304600F097F900240AE015F822
:102AF000149005EB440090F8018049EA082000F0AA
:102B000076F9641CB4F5C86FF1DB9B484088401E21
:102B100083B299480088401E82B20021084600F026
:102B20007BF9BDE8F0872DE9F05F04460F4690463B
:102B30009A46DDF828B0A14607F13F0083B204F1C0
:102B40003F0082B23946204600F066F900253AE09F
:102B5000002632E00B9890B90BEB0B20874901EB74
:102B60004000801C405D80213141084018B1404642
:102B700000F03DF91FE0504600F039F91BE08048B5
:102B8000A0F800800BEB0B207C4901EB4000801C7F
:102B9000405D80213141084018B13946204600F09F
:102BA0006FF9601C84B2A4EB0900402803D14C46A5
:102BB000781C87B203E0701C86B2082ECADB00BF07
:102BC00000BF681C85B2B5F5007FC1DB6A4840884C
:102BD000401E83B268480088401E82B20021084629
:102BE00000F01AF9BDE8F09F2DE9F05F04460F46AA
:102BF00090469A46DDF828B0A14607F14F0083B20F
:102C000004F1270082B23946204600F005F900257C
:102C10003CE0002634E00B9898B9C9200BFB00F08B
:102C2000584901EB4000801C415D8020304101404B
:102C300019B1404600F0DBF820E0504600F0D7F82C
:102C40001CE04F48A0F80080C9200BFB00F04D4964
:102C500001EB4000801C405D80213141084018B1EB
:102C60003946204600F00CF9601C84B2A4EB090040
:102C7000282803D14C46781C87B203E0701C86B22A
:102C8000082EC8DB00BF00BF681C85B2B5F5C87F41
:102C9000BFDB39484088401E83B237480088401E59
:102CA00082B20021084600F0B7F8BDE8F09F2DE998
:102CB000F05F04460F4690469A46DDF828B0A146DC
:102CC00007F12F0083B204F12F0082B2394620466B
:102CD00000F0A2F800253EE0002636E00B98A0B9EF
:102CE0000BEB0B1000EBCB10274901EB4000801CD5
:102CF000415D80203041014019B1404600F077F835
:102D000021E0504600F073F81DE01D48A0F8008057
:102D10000BEB0B1000EBCB101B4901EB4000801CB0
:102D2000405D80213141084018B13946204600F00D
:102D3000A7F8601C84B2A4EB0900302803D14C46EC
:102D4000781C87B203E0701C86B2082EC6DB00BF79
:102D500000BF681C85B2B5F5907FBDDB0648408892
:102D6000401E83B204480088401E82B200210846FB
:102D700000F052F8BDE8F09FBE00002042BD000800
:102D800038000020FAB6000872B2000810B50446F8
:102D90000420FE490860402008602146FC4801F0FC
:102DA00007FB0420F949091F086010BD10B504464F
:102DB0000420F64908604020091F08602146F448B5
:102DC00001F0F6FA0420F149091F086010BD70B542
:102DD00005460C462846FFF7D9FFE0B2FFF7E6FFAD
:102DE00070BD10B5EB49087AFFF7D0FF10BD10B5E4
:102DF00004460420E54908604020091F08602112AC
:102E0000E34801F0D5FAE1B2E14801F0D1FA04203B
:102E1000DE49091F086010BD2DE9F04104460D464A
:102E200016461F46DB49887AFFF7B0FF2012FFF7EE
:102E3000BDFFE0B2FFF7BAFF3012FFF7B7FFF0B205
:102E4000FFF7B4FFD349087BFFF7A0FF2812FFF775
:102E5000ADFFE8B2FFF7AAFF3812FFF7A7FFF8B2FD
:102E6000FFF7A4FFFFF7BDFFBDE8F08170B5044692
:102E70000D462B46224629462046FFF7CDFF70BD62
:102E800070B504460D4629462046FFF7EFFFC248BD
:102E90000088FFF7ACFF70BD70B50646BD4840889E
:102EA000401E83B2BB480088401E82B20021084603
:102EB000FFF7B2FF0420B54908604020091F0860F1
:102EC00000240AE0002503E03046FFF790FF6D1C68
:102ED000B0480088A842F7D8641CAE484088A04299
:102EE000F0D80420A949091F086070BD08B5012168
:102EF000802002F0A7FC5520ADF8000003208DF8DB
:102F0000020010208DF803006946A048143802F032
:102F1000DDF901219D48143802F085FA08BD10B58D
:102F200010209A490860642003F0C5FF10209749DB
:102F3000091F0860322003F0BEFF10BD10B5044623
:102F40002A20944948812B2088812C20088134B183
:102F5000012C0FD0022C18D0032C2CD120E0F02013
:102F60008C4908804FF4A070488008213620FFF774
:102F70002EFF21E04FF4A07086490880F0204880A1
:102F800068213620FFF723FF16E0F02081490880F2
:102F90004FF4A0704880C8213620FFF718FF0BE0DF
:102FA0004FF4A0707B490880F0204880A82136208B
:102FB000FFF70DFF00E000BF00BF10BD10B501F02E
:102FC0001BFAFFF793FFFFF7AAFFCF20FFF7DEFE04
:102FD0000020FFF7EBFEC920FFF7E8FE3020FFF7E7
:102FE000E5FEED20FFF7D2FE6420FFF7DFFE0320B1
:102FF000FFF7DCFE1220FFF7D9FE8120FFF7D6FE97
:10300000E820FFF7C3FE8520FFF7D0FE1020FFF772
:10301000CDFE7A20FFF7CAFECB20FFF7B7FE39209E
:10302000FFF7C4FE2C20FFF7C1FE0020FFF7BEFE15
:103030003420FFF7BBFE0220FFF7B8FEF720FFF7B2
:10304000A5FE2020FFF7B2FEEA20FFF79FFE00203A
:10305000FFF7ACFE0020FFF7A9FEC020FFF796FEA9
:103060001B20FFF7A3FEC120FFF790FE0020FFF713
:103070009DFEC520FFF78AFE3020FFF797FE302027
:10308000FFF794FEC720FFF781FEB720FFF78EFE03
:103090003620FFF77BFE0820FFF788FE3A20FFF777
:1030A00075FE5520FFF782FEB120FFF76FFE00206E
:1030B000FFF77CFE1A20FFF779FEB620FFF766FEC9
:1030C0000A20FFF773FEA220FFF770FEF220FFF741
:1030D0005DFE0020FFF76AFE2620FFF757FE012065
:1030E000FFF764FEE020FFF751FE0F20FFF75EFEC2
:1030F0002A20FFF75BFE2820FFF758FE0820FFF785
:1031000055FE0E20FFF752FE0820FFF74FFE542019
:10311000FFF74CFEA920FFF749FE4320FFF746FECC
:103120000A20FFF743FE0F20FFF740FE0020FFF7C5
:103130003DFE0020FFF73AFE0020FFF737FE00209B
:10314000FFF734FEE120FFF721FE0020FFF72EFEFF
:103150001520FFF72BFE1720FFF728FE0720FFF7AB
:1031600025FE1120FFF722FE0620FFF71FFE2B2071
:10317000FFF71CFE5620FFF719FE3C20FFF716FE56
:103180000520FFF713FE102008E00000141C01408A
:1031900000380040BE00002038000020FFF706FE87
:1031A0000F20FFF703FE3F20FFF700FE3F20FFF751
:1031B000FDFD0F20FFF7FAFD2B20FFF7E7FD0020B4
:1031C000FFF7F4FD0020FFF7F1FD0120FFF7EEFD12
:1031D0003F20FFF7EBFD2A20FFF7D8FD0020FFF787
:1031E000E5FD0020FFF7E2FD0020FFF7DFFDEF2007
:1031F000FFF7DCFD1120FFF7C9FD782003F05BFE2F
:103200002920FFF7C3FD0220FFF798FE4FF6FF705D
:10321000FFF742FE10BD0000FD48FE49C1F87401F1
:10322000FD49FC48C0F87811FC49C0F87C11002128
:10323000C0F88011C0F88411C0F88811C0F88C1152
:10324000C0F89011C0F89411F549C0F89811F548EC
:10325000F049C1F89C010021EE48C0F8A011C0F867
:10326000A411C0F8A811C0F8AC11C0F8B011C0F892
:10327000B411C0F8B811C0F8BC11EB49C0F8C011C6
:10328000E848E449C1F8C4010021E248C0F8C81187
:10329000C0F8CC11C0F88011C0F8D411C0F8D81112
:1032A000C0F8DC11C0F8E011C0F8E411DE49C0F844
:1032B000E811DE48D749C1F8EC010021D548C0F833
:1032C000F011C0F8F411C0F8F811C0F8FC11C0F802
:1032D0000012C0F80412C0F80812C0F80C12D1494C
:1032E000C0F81012D248CB49C1F814020021C948D5
:1032F000C0F81812C0F81C12C0F88011C0F82412CF
:10330000C0F82812C0F82C12C0F83012C0F83412DD
:10331000C849C0F83812C848BE49C860C049BD484D
:103320000161002141618161C1610162416281628B
:10333000C1620163C1494163BF490165B849416543
:1033400000218165C165016641668166C1660167CC
:103350004167BA498167B849C0F89410B049C0F8CC
:1033600098100021C0F89C10C0F8A010C0F8A4105C
:10337000C0F8A810C0F8AC10C0F8B010C0F8B41075
:10338000C0F8B810AD49C0F8BC10AB49C0F8D810AF
:10339000A349C0F8DC100021C0F8E010C0F8E41028
:1033A000C0F8E810C0F8EC10C0F8F010C0F8F41045
:1033B000C0F8F810C0F8FC10A049C0F800110120B6
:1033C000944981F83C020020086048608860886366
:1033D000C8630864486400218E488164C164C16781
:1033E000C0F88010C0F8841000208A49C1F8880015
:1033F00000218848C0F88C10C0F89010C0F8C010A8
:10340000C0F8C410C0F8C81000208249C1F8CC0030
:1034100000218048C0F8D010C0F8D410C0F80411C2
:10342000C0F80811C0F80C1100207A49C1F8100149
:10343000C1F81401C1F81801C1F81C010A46C2F80C
:103440003001C2F83401C2F83801C2F83C01002151
:10345000C2F82011C2F82411002279488260C260AB
:1034600000206C49C1F84001C1F84401C1F848018D
:103470000021684AC2F85011C2F854110022704865
:1034800030308260C2600020624AC2F86001C2F837
:103490006401C2F86811C2F86C111146C1F87001DC
:1034A000704703468B4201DA08467047934201DDBC
:1034B0001046FAE71846F8E700B589B00121202048
:1034C00002F0C0F910208DF823004FF47F40ADF8D2
:1034D000200003208DF8220008A95A4801F0F6FECA
:1034E0004FF48051574801F0A0FF4FF480415548F8
:1034F00001F09BFF4FF48071524801F096FF4FF4AA
:103500008061504801F091FF4FF400514D4801F0A7
:103510008CFF4FF400414B4801F087FF4FF40071DE
:10352000484801F082FF4FF40061464801F07DFFFA
:103530000121480302F086F90121102002F082F9EE
:1035400018208DF81F004FF47070ADF81C00032098
:103550008DF81E0007A93C4801F0B8FE3B4802F078
:10356000BFFF0020ADF81600ADF8120041F63F7025
:10357000ADF814000020ADF810008DF8180004A973
:10358000324802F01DFC684602F04FFF6020ADF8A3
:1035900000000020ADF808000120ADF80200002076
:1035A000ADF806006946294802F047FC684602F07B
:1035B0003CFF6020ADF800000020ADF808000120BD
:1035C000ADF802000020ADF8060069461F4802F081
:1035D00076FC684602F029FF6020ADF8000000206C
:1035E000ADF808000120ADF802000020ADF806009B
:1035F0006946164802F0B0FC684602F016FF6020EB
:10360000ADF800000020ADF80800012020E0000027
:103610008FC2753DD00000206F12833ACDCC4C3D57
:1036200000004040CDCC4C3F000020426F12033CD4
:103630009A99193E0000A040000020410078BB4547
:10364000F00100200014014000100140003401404E
:10365000ADF802000020ADF806006946FE4802F011
:10366000C6FC0121FC4802F007FF0121FA4802F0E4
:103670000FFF09B000BD1FB5F8A103C9CDE90201D4
:10368000F8A103C9CDE90001052202A9F74801F01C
:1036900089F80A2003F00FFC05226946F34801F07F
:1036A00081F80A2003F007FC1FBD70B505460C46E3
:1036B0002146284606F01AF901D2204670BD84F052
:1036C00000462946304606F011F902D284F0004047
:1036D000F4E72846F2E72DE9F04704460D46164682
:1036E0000CB9BDE8F0873146284606F03BF9A061E9
:1036F000D4E9060106F036F98146A16806F02AF8F9
:103700000746A169206806F025F88046394605F08D
:1037100055FE2062A06905F025FE21F00041074614
:103720000022D34B05F0F2FC02D20020E06001E061
:103730000120E060E06805F0C1FF8046A169606893
:1037400006F008F88146414606F004F8074621696C
:1037500005F034FE2061D4E90401FFF7A6FF2061E3
:103760002169206A05F02AFE2062D4E90801FFF7EA
:103770009CFF2062A069E06100BFB2E72DE9F0473D
:1037800004460D4616460CB9BDE8F087314628467A
:1037900006F0E8F8A061D4E9060106F0E3F8074670
:1037A000216805F0D7FFE060A169606805F0D2FFED
:1037B00020614FF08040E16905F0CCFF8146A169AE
:1037C00006F0C5F88046216A05F0F8FD0746A168B5
:1037D00005F0C0FF6061D4E9030105F0EFFD80460C
:1037E000616905F0EBFD0746616A05F0E7FD60627F
:1037F000D4E90901FFF759FF6062E0692062A0691E
:10380000E06100BFC0E72DE9F0470546894616464E
:103810001C46DDE908A74FF00008002C0BDDE0197D
:103820001FFA80F84946934801F0FDFD3146914862
:1038300001F0FBFD19E0002C0CDA604238441FFA5D
:1038400080F849468B4801F0F0FD3146894801F087
:10385000EAFD0AE04CB94FF000084946854801F0FE
:10386000E4FD3146834801F0E0FD52460021404628
:10387000FFF717FE8046402D04D14146764803F0FD
:1038800093F815E0802D04D14146734803F08EF87B
:103890000EE0B5F5807F04D141466F4803F088F80B
:1038A00006E0B5F5007F03D141466B4803F082F88E
:1038B000BDE8F0872DE9F04105460C4600276E482B
:1038C0000068052809DA6C4801680068401C6A4AEB
:1038D000106044F821502F4617E00026B046201D06
:1038E0000FC884E80F00256100BF06E054F82610D9
:1038F000404605F063FD8046761C052EF6DB5F49E9
:10390000404605F0C9FD074600BF3846BDE8F081D6
:1039100010B55B48B0F900005A49C8635A48B0F97D
:1039200000105848C0F880105848B0F900105548A9
:10393000C0F8C4105648B0F900105248C0F8081139
:10394000806B5049C96B08444E4988630846C16F73
:10395000D0F8800001444B48C167D0F8C010D0F8BF
:10396000C40001444748C0F8C010D0F80411D0F892
:10397000080101444348C0F804110146C86B05F032
:103980009DFE04464349FFF795FF3E490864D1F880
:10399000800005F093FE04463F49FFF78BFF39494D
:1039A000C1F88400D1F8C40005F088FE04463B4904
:1039B000FFF780FF3349C1F8C800D1F8080105F0CE
:1039C0007DFE04463649FFF775FF2E49C1F80C010C
:1039D00010BD2DE9F04704463249206C05F05CFD2E
:1039E00081464FF07E5105F0B5FE80464FF07E5186
:1039F00005F052FD07462C4905F0ACFE06462B4962
:103A000005F0A8FE05462A4905F046FD6060BDE8C0
:103A1000F08700B593B01B48D0F8480122490C90BC
:103A200005F098FE23490D9005F036FD1549C1F8C3
:103A3000700157E01348D0F870011F490D9005F050
:103A400055FF3DD80F48D0F870011B490D9005F087
:103A500089FF0C4932E0000000340140FFAA698868
:103A6000B5000000FFAA76000000000000480040FA
:103A700000C0724000140140500000200000A0402F
:103A800042000020D0000020400000204400002020
:103A900046000020100300202403002038030020EB
:103AA0004C03002000005247DB0F49400000F0406B
:103AB0000AD7233C00003443DB0FC940C1F8700132
:103AC000FD48D0F8700100210D9005F00FFE09D2DD
:103AD000F948D0F87001F9490D9005F06FFCF649EE
:103AE000C1F87001F448D0F87001F4490D9005F068
:103AF000FDFE9FD9F048D0F8700100210D9005F02F
:103B0000F5FD97D3EE480E90EB48006C80F0004036
:103B10000B90E948D0F8840001460A900B9805F014
:103B20004DFC4FF080410C9005F0B6FC0D900E99C5
:103B300005F010FE1290E048D0F80C010B90DE4822
:103B4000006C0A900B9905F039FC4FF080410C9005
:103B500005F0A2FC0D900E9905F0FCFD1190D648E1
:103B6000D0F8700100210D9005F0C0FE7ED8D2483B
:103B7000D0F87001D3490D9005F0B8FD76D2CE484B
:103B8000D0F8700101460090CE4805F0EBFE0190A0
:103B900005F0E8FBCDE9020104F02AFECDE90601BB
:103BA000119805F0DFFBCDE90401DDE9062305F0FE
:103BB000AFF9CDE90A01C048D0F870010146009084
:103BC000C04805F0CFFE019005F0CCFBCDE9020125
:103BD00004F05CFECDE90601129805F0C3FBCDE9C7
:103BE0000401DDE9062305F093F9CDE90801DDE9DB
:103BF0000A2304F0E3FECDE90C0104F0ADFE1090C1
:103C0000AD48D0F8700101460090AE4805F0AAFE1C
:103C1000019005F0A7FBCDE9020104F037FECDE9E4
:103C20000601119805F09EFBCDE90401DDE90623AC
:103C300005F06EF9CDE90A019F48D0F87001014600
:103C40000090A04805F08EFE019005F08BFBCDE9B9
:103C5000020104F0CDFDCDE90601129880F000408C
:103C6000039005F07FFBCDE9040100E00EE0DDE903
:103C7000062305F04DF9CDE90801DDE90A2304F03A
:103C80009DFECDE90C0104F067FE0F908A48D0F844
:103C900070018C490D9005F029FE7DD88648D0F83A
:103CA000700189490D9005F021FD75D28248D0F848
:103CB00070018449009005F055FE019005F052FB1B
:103CC000CDE9020104F094FDCDE90601119805F05B
:103CD00049FBCDE90401DDE9062305F019F9CDE939
:103CE0000A017548D0F870017649009005F03AFE57
:103CF000019005F037FBCDE9020104F0C7FDCDE9E5
:103D00000601129880F00040039005F02BFBCDE9EE
:103D10000401DDE9062305F0FBF8CDE90801DDE942
:103D20000A2304F04BFECDE90C0104F015FE1090BF
:103D30006148D0F870016349009005F013FE0190CE
:103D400005F010FBCDE9020104F0A0FDCDE906016C
:103D5000119805F007FBCDE90401DDE9062305F024
:103D6000D7F8CDE90A015448D0F8700155490090C0
:103D700005F0F8FD019005F0F5FACDE9020104F037
:103D800037FDCDE90601129880F00040039005F060
:103D9000E9FACDE9040100E00EE0DDE9062305F0D3
:103DA000B7F8CDE90801DDE90A2305F0F1F9CDE91D
:103DB0000C0104F0D1FD0F903F48D0F8700142494A
:103DC0000D9005F093FD76D83B48D0F870013F493F
:103DD0000D9005F08BFC6ED23748D0F870013A494F
:103DE000009005F0BFFD019005F0BCFACDE902019D
:103DF00004F04CFDCDE90601119805F0B3FACDE9C8
:103E00000401DDE9062305F083F8CDE90A012A481B
:103E1000D0F870012C49009005F0A4FD019005F048
:103E2000A1FACDE9020104F0E3FCCDE90601129804
:103E300080F00040039005F095FACDE90401DDE93A
:103E4000062305F065F8CDE90801DDE90A2305F050
:103E50009FF9CDE90C0104F07FFD10901648D0F8D1
:103E600070011949009005F07DFD019005F07AFA86
:103E7000CDE9020104F0BCFCCDE90601119805F082
:103E800071FACDE90401DDE9062305F041F8CDE939
:103E90000A010948D0F870010B49009005F062FD55
:103EA000019005F05FFACDE9020104F0EFFCCDE9E5
:103EB000060112980CE01EE0D0000020DB0FC94084
:103EC000FBC8E539DB0FC93FDB0F4940E4CB964027
:103ED00005F048FACDE90401DDE9062305F018F8FC
:103EE000CDE90801DDE90A2305F052F9CDE90C011D
:103EF00004F032FD0F90CB48D0F87001CA490D9004
:103F000005F0F4FC7DD8C748D0F87001C7490D9082
:103F100005F0ECFB7FD2C348D0F87001C249009095
:103F200005F020FD019005F01DFACDE9020104F035
:103F30005FFCCDE90601119805F014FACDE9040102
:103F4000DDE9062304F0E4FFCDE90A01B548D0F825
:103F50007001B549009005F005FD019005F002FAE9
:103F6000CDE9020104F092FCCDE90601129805F0BA
:103F7000F9F9CDE90401DDE9062304F0C9FFCDE933
:103F80000801DDE90A2305F003F9CDE90C0104F08D
:103F9000E3FC1090A348D0F87001A349009005F00D
:103FA000E1FC019005F0DEF9CDE9020104F06EFCC0
:103FB000CDE90601119805F0D5F9CDE90401DDE957
:103FC000062304F0A5FFCDE90A019648D0F8700158
:103FD0009549009005F0C6FC019005F0C3F9CDE9C4
:103FE000020104F005FCCDE90601129805F0BAF9CA
:103FF000CDE90401DDE9062304F08AFFCDE90801DB
:1040000000E008E0DDE90A2304F0D8FCCDE90C016A
:1040100004F0A2FC0F908649109805F03DFA814902
:10402000C1F8400182490F9805F036FA7D49C1F880
:104030004401109805F096F9CDE90C017949D1F8C1
:104040006001D1F86411CDE90A01DDE90C2304F027
:10405000B5FC744AC2F86001C2F864110F9805F00B
:1040600081F9CDE90C016F49D1F86801D1F86C11E3
:10407000CDE90A01DDE90C2304F0A0FC694AC2F88D
:104080006801C2F86C111146D1F86001D1F86411D1
:10409000C2F85001C2F854111046D0F86811D0F897
:1040A0006C2100F5A8708160C26013B000BD2DE9DD
:1040B000F041604800685B49C1F848010A46D2F8FF
:1040C0004811D2F8100105F04DFC04465A4920462B
:1040D00005F00CFC05D22146584805F06FF904465E
:1040E00016E05749204605F001FB05D22146554808
:1040F00005F064F904460BE0204605F033F921F0A1
:10410000004105460022504B04F0C6FE00D800BF17
:104110004448D0F84811204605F050F90746414878
:10412000D0F84821394600F5BA70FFF7D4FA3D4877
:10413000D0F894013B49C1F81C01BDE8F0812DE99C
:10414000FF5F04460D4616461F46DDE90E89002234
:104150003E4B4046494604F0DBFE82468B463246E3
:104160003B462046294605F013F852465B46CDE90A
:10417000000104F023FCCDE9020104F0EDFB294924
:1041800008600022314B4046494604F0C1FE824699
:104190008B4632463B462046294604F00FFC5246E9
:1041A0005B46CDE9000104F009FCCDE9020104F011
:1041B000D3FB1C4948640022244B4046494604F086
:1041C000A7FE82468B4632463B462046294604F0EF
:1041D000DFFF52465B46CDE9000104F0D9FFCDE98F
:1041E000020104F0B9FB0F49C1F888000022174B07
:1041F0004046494604F08CFE32463B46CDE900017C
:104200002046294604F0DAFB8246DDE9002304F06B
:10421000BFFFCDE9020104F09FFB0249C1F8CC00C9
:10422000BDE8FF9FD0000020E4CB9640DB0FC940E3
:104230000AD7233C48000020000034430000B4C3E8
:10424000000034C30000B4430080664000003540E5
:1042500003468B4201DA08467047934201DD10465F
:10426000FAE71846F8E700B589B00121C80201F065
:10427000E9FA0121042001F0E5FA18208DF8230065
:104280004FF47060ADF8200003208DF8220008A9DB
:10429000454801F01BF8454802F022F90020ADF82E
:1042A0001A00ADF816004720ADF8140044F61F6060
:1042B000ADF8180000208DF81C0005A93B4801F05E
:1042C0007FFD01A802F0B1F86020ADF804000020E5
:1042D000ADF80C000120ADF80600ADF80A0001A908
:1042E000324801F0AAFD01A802F09FF86020ADF865
:1042F00004000020ADF80C000120ADF80600ADF878
:104300000A0001A9294801F0DAFD01A802F08DF8A0
:104310006020ADF804000020ADF80C000120ADF8DD
:104320000600ADF80A0001A9204801F060FE012155
:104330001E4802F0A1F801211C4802F0A9F809B0BA
:1043400000BD70B504464FF4FA6060434FF48771C6
:1043500090FBF1F000F5FA7085B22946134802F09F
:1043600023FB70BD70B504464FF4FA6060434FF410
:10437000877190FBF1F000F5FA7085B229460B4881
:1043800002F014FB70BD70B504464FF4FA60604350
:104390004FF4877190FBF1F000F5FA7085B2294671
:1043A000024802F007FB70BD00080140002C0140EC
:1043B000024600BF108900F002000028FAD0918167
:1043C00000BF108900F001000028FAD09089C0B227
:1043D000704702884FF6C7731A400280012902D144
:1043E0000288028003E0028842F0200202800288F4
:1043F00042F040020280704700B587B001210920D9
:1044000001F020FA4FF42040ADF8040003208DF8AD
:10441000060018208DF8070001A91C4800F056FF7F
:104420004FF48040ADF8040048208DF807000320C9
:104430008DF8060001A9154800F048FF0121880306
:1044400001F00DFA0020ADF808004FF48270ADF8CD
:104450000A000020ADF80C00ADF80E00ADF8100019
:104460004FF40070ADF812000020ADF81400ADF864
:1044700016000720ADF8180002A9054801F06CFAF3
:104480000121034801F00DFB07B000BD000C014005
:104490000038004010B586B00446012144F2040003
:1044A00001F0D0F94FF40070ADF8140003208DF83E
:1044B000160018208DF8170005A9CF4800F006FF58
:1044C0004FF48060ADF8140004208DF8170005A9A2
:1044D000C94800F0FBFE25208DF800000A208DF869
:1044E00001008DF8020001208DF80300684600F0FD
:1044F00024FE01940020ADF80800ADF80A00ADF8E4
:104500000C00ADF810000C20ADF80E0001A9BB485E
:1045100002F0D3FA012240F22551B84802F065FBBF
:104520000121B64802F055FB06B010BD10B586B0AB
:1045300004460121480401F092F90121042001F010
:1045400081F90420ADF8140003208DF8160018201E
:104550008DF8170005A9A84800F0B8FE0820ADF8AE
:10456000140004208DF8170005A9A34800F0AEFE42
:1045700026208DF8000009208DF801008DF802003A
:1045800001208DF80300684600F0D7FD019400205B
:10459000ADF80800ADF80A00ADF80C00ADF8100059
:1045A0000C20ADF80E0001A9954802F086FA012210
:1045B00040F22551924802F018FB0121904802F088
:1045C00008FB06B010BD10B586B004460121880472
:1045D00001F045F90121082001F034F94FF4806021
:1045E000ADF8140003208DF8160018208DF8170080
:1045F00005A9844800F06AFE4FF40060ADF814008D
:1046000004208DF8170005A97E4800F05FFE2720E2
:104610008DF8000008208DF801008DF802000120BF
:104620008DF80300684600F088FD01940020ADF885
:104630000800ADF80A00ADF80C00ADF810000C2031
:10464000ADF80E0001A9704802F037FA012240F2DD
:1046500025516D4802F0C9FA01216B4802F0B9FA00
:1046600006B010BD10B586B004460121C80401F0A3
:10467000F6F80121102001F0E5F84FF48060ADF864
:10468000140003208DF8160018208DF8170005A9D6
:104690005E4800F01BFE4FF40060ADF814000420EB
:1046A0008DF8170005A9594800F010FE34208DF848
:1046B000000007208DF801008DF8020001208DF820
:1046C0000300684600F039FD01940020ADF80800B1
:1046D000ADF80A00ADF80C00ADF810000C20ADF8F4
:1046E0000E0001A94A4802F0E8F9012240F22551E2
:1046F000474802F07AFA0121454802F06AFA06B00A
:1047000010BD10B586B004460121080501F0A7F8D8
:104710000121102001F096F80121202001F092F8EB
:104720004FF48050ADF8140003208DF816001820C7
:104730008DF8170005A9354800F0C8FD0420ADF834
:1047400014008DF8170005A9324800F0BFFD352090
:104750008DF8000006208DF801008DF80200012080
:104760008DF80300684600F0E8FC01940020ADF8E5
:104770000800ADF80A00ADF80C00ADF810000C20F0
:10478000ADF80E0001A9244802F097F9012240F289
:104790002551214802F029FA01211F4802F019FA97
:1047A00006B010BD70B506460C4615460DE02178E2
:1047B000304602F07BFA681E85B2641C00BF4021BF
:1047C000304602F0E1FA0128F9D1002DEFD170BD99
:1047D00070B505460C460BE014F8011B284602F0A4
:1047E00065FA00BF4021284602F0CEFA0128F9D12F
:1047F00020780028F0D170BD000801400038014049
:1048000000440040000C01400048004000100140FE
:10481000004C004000140140005000401FB5012131
:10482000102001F01CF83A4801F05AFE0020ADF8C3
:104830000A00ADF8060040F2E730ADF8080040F29B
:10484000CF20ADF8040000208DF80C0001A93048FD
:1048500001F0B6FA01212E4802F0D4F801221146E7
:104860002B4801F024FE4FF4A06000F061FC3620DC
:104870008DF8000001208DF8030003208DF8010061
:1048800002208DF80200684600F057FC0121204804
:1048900001F0F2FD1FBD1FB50121202000F0DFFF58
:1048A0001C4801F01DFE0020ADF80A00ADF806001E
:1048B00042F20F70ADF8080040F2CF20ADF80400CE
:1048C00000208DF80C0001A9124801F079FA0121AD
:1048D000104802F097F8012211460E4801F0E7FD5A
:1048E0004FF4A06000F024FC37208DF80000012078
:1048F0008DF8030005208DF8010004208DF80200DA
:10490000684600F01AFC0121024801F0B5FD1FBD08
:10491000001000400014004008B50121482000F0BC
:1049200091FF4FF44870ADF8000010208DF803009F
:1049300003208DF8020069460E4800F0C7FC2021D4
:104940000C4800F070FD4FF480710A4800F06BFDD8
:104950004FF40071074800F066FD2020ADF800001C
:104960006946054800F0B2FC2021034800F05BFDD9
:1049700008BD0000000C01400018014070B505465C
:104980000E4614463146284604F0B0FE01D23046A9
:1049900070BD2146284604F0A9FF01D22046F7E762
:1049A0002846F5E700206549086048608860C860CF
:1049B000086148618861C861086248628862C862AB
:1049C0005F49086048608860C86008614861886124
:1049D000C861086248628862C8625A4908604860D3
:1049E0008860C860086148618861C861086248627F
:1049F0008862C8625449086048608860C86008617D
:104A000048618861C861086248628862C86270470C
:104A100070B504460D462946206A04F0CFFC20629A
:104A2000E06880F0004602463146206AFFF7A6FFA4
:104A300020622946206804F08DFE2061216A6068AA
:104A400004F088FE60612846616A04F08BFF064628
:104A5000A16804F07FFEA0616562D4E9040104F05E
:104A6000ADFC0646A16904F0A9FCE061E06970BDF7
:104A70002DE9F04104460D462846616A04F072FFB4
:104A80000646216804F066FE20612946606804F04D
:104A900061FE60612846616A04F064FF0746A16A0E
:104AA00004F060FF0646A16804F054FEA0612846A9
:104AB000616A04F057FFA0626562D4E9040104F062
:104AC0007DFC0746A16904F079FC0646E16904F023
:104AD00075FCE061E069BDE8F0812DE9F041044634
:104AE0000D462846616A04F03DFF0646216804F041
:104AF00031FE20612946606804F02CFE6061284682
:104B0000616A04F02FFF0746A16A04F02BFF0646F6
:104B1000A16804F01FFEA0612846616A04F022FF2C
:104B2000A0626562D4E9040104F048FC0646A1696C
:104B300004F044FCE061E069BDE8F08194030020EA
:104B4000C4030020F4030020240400207FB50546A0
:104B50000C46002000900190029003908DF80040D8
:104B60000A208DF801006D208DF802006B208DF871
:104B70000300042269462846FFF714FE7FBD7FB577
:104B800005460C46002000900190029003908DF89D
:104B900000400E208DF8010052208DF802006B209D
:104BA0008DF80300042269462846FFF7FBFD7FBD10
:104BB0002DE9FF4107460E461546002400200090CF
:104BC0000190029003900DF80460641C112D68D2CE
:104BD000DFE805F0090F151B672167272D33393FE3
:104BE0006745515C4B001F200DF80400601CC4B2E7
:104BF00058E020200DF80400601CC4B252E02120CF
:104C00000DF80400601CC4B24CE024200DF8040030
:104C1000601CC4B246E027200DF80400601CC4B23A
:104C200040E031200DF80400601CC4B23AE03320AB
:104C30000DF80400601CC4B234E035200DF8040007
:104C4000601CC4B22EE036200DF80400601CC4B213
:104C500028E037200DF80400601CC4B222E03A209E
:104C60000DF80400601CC4B21CE03B200DF80400E9
:104C7000601CC4B216E042200DF80400601CC4B2EF
:104C80006C200DF80400601CC4B20BE043200DF84A
:104C90000400601CC4B27A200DF80400601CC4B289
:104CA00000E000BF00BF6B200DF80400601CC4B220
:104CB000224669463846FFF775FDBDE8FF812DE9BC
:104CC000FF4107460C4615461E4600200090019005
:104CD000029003908DF8004046208DF80100692075
:104CE0008DF802008DF803508DF804606B208DF86C
:104CF0000500062269463846FFF754FDBDE8FF81EE
:104D00002DE9FF4107460C4615461E46002000903F
:104D10000190029003908DF80040F3208DF801007F
:104D2000AB208DF802008DF803508DF804606B20E5
:104D30008DF80500062269463846FFF733FDBDE8C9
:104D4000FF812DE9FF4707460D4616461C46DDE963
:104D50000C89002000900190029003908DF8005083
:104D6000F6208DF801008DF8026020128DF8030006
:104D7000E0B28DF804008DF805808DF806906B2068
:104D80008DF80700082269463846FFF70BFDBDE89D
:104D9000FF872DE9FF5F80460E4617461D46DDE979
:104DA00010ABDDE90E94002000900190029003907A
:104DB0008DF80060FD208DF801008DF8027028123A
:104DC0008DF80300E8B28DF804008DF80590200EF0
:104DD0008DF80600200C8DF80700200A8DF80800D9
:104DE000E0B28DF809008DF80AA08DF80BB06B20A9
:104DF0008DF80C000D2269464046FFF7D3FCBDE854
:104E0000FF9F7FB506460C46154600200090019096
:104E1000029003908DF80040FE208DF8010098204C
:104E20008DF802008DF803506B208DF804000522E8
:104E300069463046FFF7B6FC7FBD7FB505460C4698
:104E4000002000900190029003908DF80040FF2018
:104E50008DF8010066208DF802006B208DF80300AC
:104E6000042269462846FFF79DFC7FBD7FB50646B4
:104E70000C461546002000900190029003908DF89A
:104E8000004093208DF8010088208DF802008DF8F5
:104E900003506B208DF80400052269463046FFF769
:104EA00081FC7FBD2DE9FF4F89B00D4616461F4698
:104EB00018AC94E8100EDDF85C80202101A802F007
:104EC00047F98DF804504C208DF80500AE208DF880
:104ED00006008DF807608DF8087016988DF80900A7
:104EE0004FEA28208DF80A0008F0FF008DF80B002B
:104EF000200E8DF80C00200C8DF80D00200A8DF886
:104F00000E00E0B28DF80F004FEA29208DF8100056
:104F100009F0FF008DF811004FEA2A208DF81200E9
:104F20000AF0FF008DF813004FEA2B208DF81400D3
:104F30000BF0FF008DF815001C988DF816006B2003
:104F40008DF81700142201A90998FFF72BFC0DB06A
:104F5000BDE8F08F2DE9FF4107460C4615461E4679
:104F6000002000900190029003908DF800409A205C
:104F70008DF801008DF802508DF803606B208DF8DC
:104F80000400052269463846FFF70CFCBDE8FF81A6
:104F90007FB505460C4600200090019002900390DA
:104FA0008DF800409C208DF8010048208DF802000B
:104FB0006B208DF80300042269462846FFF7F2FBB8
:104FC0007FBD000008B50121402000F03BFC072018
:104FD000ADF8000048208DF803006946354800F020
:104FE00075F90121042000F02DFC0121084600F094
:104FF00029FC0121304800F03AFA48208DF80300DE
:1050000002208DF802008003ADF8000069462B48AD
:1050100000F05CF908BD10B52948007829490870EE
:1050200029480078294908702948007829490870DA
:10503000294800782949087001211E4800F0D9F953
:105040001F49087002211B4800F0D3F91E4908705F
:105050000421184800F0CDF91D4908704FF40041B3
:10506000164800F0C6F91C4908701548007828B1A8
:105070001448007810B901201949087012480078C6
:1050800028B11248007810B901201649087010485C
:10509000007828B10F48007810B901201249087033
:1050A0000D48007828B10D48007810B901200F494B
:1050B000087010BD001801400002300000080140D7
:1050C0007C000020820000207D0000208300002062
:1050D0007E000020840000207F000020850000204A
:1050E00088000020890000208A0000208B0000201A
:1050F0000948804709480047FEE7FEE7FEE7FEE76C
:10510000FEE7FEE7FEE7FEE7FEE7FEE704480549A7
:10511000054A064B70470000331A000831010008A9
:10512000B8040020B80A0020B8060020B806002005
:1051300031490143314A1160704770B500210023A5
:105140000F22C47804B32D4C246804F4E064C4F541
:10515000E064210AC1F10403CA40447804FA03F16F
:105160008478144021430901254C0678A155047820
:1051700004F01F050124AC4005786D11AD0005F168
:10518000E025C5F8004109E0047804F01F0501247A
:10519000AC401C4D0678761145F8264070BD1A4A81
:1051A0000A400243154B1B1F1A60704739B1134A5E
:1051B000121D12680243114B1B1D1A6006E00F4AB4
:1051C000121D126882430D4B1B1D1A607047042884
:1051D00008D14FF0E021096941F004014FF0E022CD
:1051E000116107E04FF0E021096921F004014FF05F
:1051F000E0221161704700000000FA050CED00E0AC
:1052000000E400E080E100E080FFFF1F10B50446ED
:10521000CC48844208D10121042000F02DFB00215C
:10522000042000F029FB46E0C748844208D1012150
:10523000082000F021FB0021082000F01DFB3AE0CF
:10524000C248844208D10121102000F015FB002142
:10525000102000F011FB2EE0BD48844208D101214E
:10526000202000F009FB0021202000F005FB22E0B7
:10527000B848844208D10121402000F0FDFA002105
:10528000402000F0F9FA16E0B348844208D1012129
:10529000802000F0F1FA0021802000F0EDFA0AE011
:1052A000AE48844207D10121801500F0E5FA0021C3
:1052B000A01500F0E1FA10BD10B50121084600F07C
:1052C000DBFA0021012000F0D7FA10BD2DE9F041F2
:1052D000024600250026002000230024002791F824
:1052E00003C00CF00F0591F803C00CF0100CBCF1DA
:1052F000000F03D091F802C04CEA050591F800C0F8
:10530000BCF1000F31D0146800202BE04FF0010CED
:105310000CFA00F3B1F800C00CEA03069E4220D15B
:1053200083004FF00F0C0CFA03F7BC4305FA03FCA3
:105330004CEA040491F803C0BCF1280F06D14FF0E9
:10534000010C0CFA00FCC2F814C00AE091F803C08A
:10535000BCF1480F05D14FF0010C0CFA00FCC2F86B
:1053600010C0401C0828D1D31460B1F800C0BCF1B3
:10537000FF0F34DD546800202EE000F1080C4FF0E0
:10538000010808FA0CF3B1F800C00CEA03069E42CB
:1053900021D183004FF00F0C0CFA03F7BC4305FA40
:1053A00003FC4CEA040491F803C0BCF1280F05D1BA
:1053B00000F1080C08FA0CF8C2F8148091F803C048
:1053C000BCF1480F07D100F1080C4FF0010808FAB2
:1053D0000CF8C2F81080401C0828CED35460BDE8F9
:1053E000F0814FF6FF710180022181700421C170AC
:1053F00070470246002093680B400BB1012000E08B
:10540000002070470146886880B27047024600203D
:10541000D3680B400BB1012000E00020704701462B
:10542000C86880B2704701617047416170470AB136
:10543000016100E041617047C16070474FF4803204
:105440000A43826181618261826982697047024692
:105450000020434B18684FF68073184040EA021052
:1054600008433F4B186070473E49C8617047F0B52C
:105470000A46002300240021002500F00046B6F172
:10548000004F02D1364EF16901E0354E7168C0F32C
:10549000034583B200F44016B6F5401F08D121F051
:1054A00070612F4E766826F070662D4F7E6012E098
:1054B00000F48016B6F5801F06D1032606FA05F41F
:1054C000A14341F0706106E0460D360103FA06F68D
:1054D000B14341F0706122B1460D360103FA06F680
:1054E000314300F00046B6F1004F02D11C4EF1618D
:1054F00001E01B4E7160F0BD30B500228B071C0F20
:105500000F2303FA04F2164B08338C1053F824309F
:105510009343134C08348D1044F8253023468C10E7
:1055200053F824308C07240F00FA04F423430C4C66
:1055300008348D1044F8253030BD0A49DC3108604C
:105540007047000000080140000C014000100140BD
:105550000014014000180140001C014000200140DF
:105560000000014000002042DF48006840F00100D8
:10557000DD49086008464068DC490840DA4948606F
:1055800008460068DA490840D749086008460068BC
:1055900020F4802008600846406820F4FE0048603F
:1055A0004FF41F0088607047CF49096821F48031AB
:1055B000CD4A11601146096821F480211160B0F5CF
:1055C000803F03D0B0F5802F0ED106E0C6490968B0
:1055D00041F48031C44A116007E0C349096841F4CD
:1055E000A021C14A116000E000BF00BF704710B5A4
:1055F00001460022002300204A11012A02D1BA4CA0
:10560000236806E0022A02D1B74C236A01E0B64CB7
:10561000636A01F01F02012494401C400CB1012078
:1056200000E0002010BD38B50020009000240025C7
:1056300000BF3120FFF7DBFF05460098401C0090BB
:105640000098B0F5A06F01D0002DF2D03120FFF707
:10565000CEFF08B1012400E00024204638BD0146F9
:105660000020A14A106820F0F80040EAC100106054
:105670007047A04908607047024600209A4B58685E
:1056800020F47C1042EA01031843974B586070479E
:1056900098490866704701460020934A506820F0F8
:1056A00003000843506070478F48406800F00C00CA
:1056B0007047014600208C4A506820F0F0000843F3
:1056C0005060704701460020874A506820F4E0602F
:1056D00008435060704701460020834A506820F418
:1056E000605040EAC1005060704729B17E4A527A4A
:1056F00002437D4B5A7204E07B4A527A82437A4BD2
:105700005A7270477B49D8310860704701460020C3
:10571000754A506820F440400843506070470021AB
:10572000714A20321170704A82F82010012802D08C
:1057300004280AD104E001216B4A2032117005E0EF
:105740000521694A2032117000E000BF00BF704798
:105750006949086070476449096A0143624A1162F5
:105760007047654944390860704730B50021002210
:10577000002400235C4D6D6805F00C0121B1042963
:1057800005D0082923D105E05C4D056022E05B4D82
:1057900005601FE0544D6D6805F47012524D6D6840
:1057A00005F48034022505EB92421CB9544D554353
:1057B00005600BE04C4D6D6805F400351DB1504D92
:1057C0005543056002E04D4D5543056002E04B4DE9
:1057D000056000BF00BF444D6D6805F0F001090988
:1057E000484D6B5C0568DD4045603F4D6D6805F4D4
:1057F000E061090A434D6B5C4568DD4085603A4DC8
:105800006D6805F46051C90A3E4D6B5C4568DD402A
:10581000C560354D6D6805F44041890B3A4D6B5CB0
:10582000C568B5FBF3F5056130BD29B12E4A526953
:1058300002432D4B5A6104E02B4A526982432A4BA2
:105840005A61704729B1284A92690243264B9A61EE
:1058500004E0254A92698243234B9A61704729B13B
:10586000214AD2690243204BDA6104E01E4AD26920
:1058700082431D4BDA61704729B11B4AD26802434B
:10588000194BDA6004E0184AD2688243164BDA609A
:10589000704729B1144A12690243134B1A6104E09C
:1058A000114A12698243104B1A61704712494039FC
:1058B000086070470F49C86470470B49C87170474A
:1058C0000948406A40F080700749486270470146C5
:1058D0000020054A92680A400AB1012000E0002039
:1058E0007047014988727047001002400000FFF8BD
:1058F000FFFFF6FE000042428004424200127A009E
:1059000000093D008E0000209E00002010B50446D6
:10591000BE48844208D101218014FFF7ADFF002169
:10592000A014FFF7A9FF16E0B948844208D101216D
:105930000014FFF7AEFF00212014FFF7AAFF0AE0D2
:10594000B448844207D10121C013FFF7A2FF002110
:10595000E013FFF79EFF10BD10B50022028802F48D
:1059600041520B884C8823438C882343CC882343A3
:105970000C8923434C8923438C892343CC892343BB
:105980001A430280838B4FF2FF74234083830B8A78
:10599000038210BD2DE9F04F85B005460C464FF04F
:1059A000000902274FF000084FF0010B0026B24615
:1059B000A88B4FF240010840A88302202884B5F844
:1059C0001C90A068022801D100BF38E0A08810B95F
:1059D0004FF0010B01E04FF0020B8D48854200D1E2
:1059E00000E000BF6846FFF7C0FEDDF800A0E088D9
:1059F000B0F5007F0AD14FEA1A2000EB800040008A
:105A0000A168B0FBF1F0401D86B20BE04FEA4B10ED
:105A1000BAFBF0F000EB80004000A168B0FBF1F0B1
:105A2000401D86B20A20B6FBF0F606F00108A6EB90
:105A30000800C0F34F074FF6FF7000EA0828022F56
:105A400001DBFF2F02DD02274FF00008E08840EA6B
:105A5000080038432884A088A18908436188084346
:105A60002188084340F4006040EA0909A5F81C9029
:105A700005B0BDE8F08F0021018041808180C180A8
:105A8000018141818181C18107210182704700210B
:105A9000018041808180C18002218160002181815B
:105AA000704721B1028842F04002028004E002887F
:105AB0004FF6BF731A400280704721B1828B42F4C7
:105AC0008062828304E0828B4FF6FF331A40828328
:105AD000704730B5002400230C110125A540ABB25E
