:020000040800F2
:10000000B80A0020215500086F1D0008711D000866
:10001000751D0008791D00087D1D00080000000006
:10002000000000000000000000000000811D00082A
:10003000831D000800000000851D0008871D0008C2
:100040003B5500083B5500083B5500083B55000850
:100050003B5500083B5500083B5500083B55000840
:100060003B5500083B5500083B5500083B55000830
:100070003B5500083B5500083B5500083B55000820
:100080003B5500083B5500083B5500083B55000810
:100090003B5500083B5500083B5500083B55000800
:1000A0003B5500083B5500083B5500083B550008F0
:1000B0003B5500083B5500083B5500083B550008E0
:1000C0003B5500083B5500083B5500083B550008D0
:1000D0003B55000801190008251900087719000888
:1000E0003B5500083B5500083B5500083B550008B0
:1000F0003B5500083B5500083B5500083B550008A0
:100100003B5500083B5500083B5500083B5500088F
:100110006D1A0008951C00088F130008F3100008E2
:100120003B5500083B5500083B5500083B5500086F
:1001300000F002F800F053F80AA090E8000C8244A6
:100140008344AAF10107DA4501D100F048F8AFF283
:10015000090EBAE80F0013F0010F18BFFB1A43F0A5
:1001600001031847D0CB0000F0CB0000103A24BFA9
:1001700078C878C1FAD8520724BF30C830C144BF0C
:1001800004680C607047000000230024002500264E
:10019000103A28BF78C1FBD8520728BF30C148BFEA
:1001A0000B607047662909F06A87642907F00681A9
:1001B000632907F0C484002070471FB507F032FDA3
:1001C00004000020002108F0B5FE401C6060002003
:1001D000002108F099FEE0601FBD10B510BD07F0CA
:1001E0006DFE1146FFF7E9FF00F064FA07F099FE93
:1001F00003B4FFF7F2FF03BC07F0DCFE2DE9F04F7C
:1002000087B0074617B907B0BDE8F08F3D46012417
:10021000612D05DB7A2D03DCA5F12000C5B204E0D9
:10022000412D02DB5A2D00DC0024F948007809F04A
:1002300061FDF849029009F0A5FDF749039009F026
:10024000C1FB0646F248007809F054FDF3490290DC
:1002500009F098FDF249039009F0B4FB80464FF095
:1002600000094FF0FA0A09EB0A0000EBD0714FEADF
:10027000610B0A2006904FF482700590872004904D
:10028000A5F12B0030286ED2DFE800F0316D3C6D17
:100290006D6D181D22272C6D6D6D6D6D6D6D6D6D05
:1002A0006D6DBB6EF5D6F454F3F2F1F0EF89EEED1F
:1002B000ECEBEAA348E9E8E7E647E5E414B10020FF
:1002C000D3490870F0E114B10120D1490870EBE185
:1002D00014B10220CE490870E6E114B10320CC49E4
:1002E0000870E1E114B10420C9490870DCE144B1AF
:1002F000C7480078042804DAC5480078401CC4497F
:100300000870D1E144B1C2480078002804DDC0483B
:100310000078401EBE490870C6E100BF0020C149F8
:100320000860C1490860C14908600120C04981F8DE
:100330003C02B9E15CB10020BA490860BA480660E5
:100340000020BA490860BA4981F83C020AE000205E
:10035000B4490860B4490860B44908600120B44950
:1003600081F83C02A0E19EE16CB10020AD4908603B
:1003700086F00040AC4908600020AC490860AC49F8
:1003800081F83C020AE00020A6490860A6490860FE
:10039000A64908600120A64981F83C0284E164B1C5
:1003A00086F000409F49086000209F4908609F49EF
:1003B00008609F4981F83C020AE0002099490860E2
:1003C00099490860994908600120994981F83C02DF
:1003D0006AE154B19348066000209349086093494C
:1003E0000860934981F83C020AE000208D490860CA
:1003F0008D4908608D49086001208D4981F83C02D3
:1004000052E16CB10020874908608749086088F094
:100410000040864908600020854981F83C020AE0D6
:1004200000208049086080490860804908600120F8
:100430007F4981F83C0237E1F4B100207949086036
:10044000794908607948C0F800800020784981F82F
:100450003C021CE046E0B8E0D4E0A5E018E0A8E0EB
:100460008AE04CE044E028E0BBE05CE04FE077E06D
:10047000F5E069E08CE062E000206A4908606A49C2
:1004800008606A4908600120694981F83C020BE173
:100490006CB1002040F6B832CDE9000202909623FC
:1004A000082201210390634804F08BFE04E000223F
:1004B0000121604804F0BDFEF6E06CB1002040F67A
:1004C000B832CDE900020290962302460121039042
:1004D000584804F076FE04E000220121554804F05B
:1004E000A8FEE1E000220121524804F0A2FEDBE078
:1004F00024B196205049088050490880D4E02CB19E
:100500004FF487704C4908804C490880CCE04CB1CE
:100510004B4909880A3188B25246494604F0B0F87E
:1005200047490880C0E04CB1454909880A3988B27A
:100530005246494604F0A4F841490880B4E014B199
:100540003F48A0F800B0AFE04CB13D490988B43154
:1005500088B25246494604F093F839490880A3E02E
:100560004CB137490988B43988B25246494604F03B
:1005700087F83349088097E04CB132490988491D12
:1005800088B2DDE9052104F07BF82E4908808BE074
:100590004CB12C490988491F88B2DDE9052104F0D6
:1005A0006FF8284908807FE014B126490498088034
:1005B0007AE04CB1234909887D3188B2DDE9052113
:1005C00004F05EF81F4908806EE04CB11D490988AF
:1005D0007D3988B2DDE9052104F052F81949088017
:1005E00062E074B16FF002001749086000200D4905
:1005F00008600D4908600D49086001200C4981F828
:100600003C0251E054B31148007808BB012020E0BF
:1006100005000020000020410000A041CDCCCC3DD1
:10062000CDCCCC3E080000200C00002010000020A3
:10063000D00000200044004058000020140000209A
:100640005A0000205C000020000000202100002053
:100650000020FE4908700120FD49087024E00CB319
:10066000FC48007808B9012000E00020F949087032
:100670000846007880B10120F74908700020F4494D
:100680000870F6490860F6490860F64908600120DC
:10069000F54981F83C0205E00020EF49087001208F
:1006A000EB49087000E000BF00BF0020EF49087070
:1006B00000BFA8E596B001F0D6FB06F0D7FD04F028
:1006C00043FB01F051FC4FF4E13004F047F94FF4E3
:1006D000165004F090F94FF4E13004F0DBF94FF4D8
:1006E000165004F026FA03F001F903F0D4FF02F0EB
:1006F0007FFE04F07FFE03F0D6F902F0A7FF00238F
:1007000001221146DA4804F013FD0420D94908708B
:100710004FF4FA7006F0E7FD04F098FA072006F0AF
:10072000E2FD04F0D0FA4FF47A7006F0DCFDF1E35C
:1007300004200D9010200C90CB48806C099009F09B
:1007400015F9CDE90A01CDE90001CB48B0F9002047
:10075000CAA10EA806F0F4FD002010210EAACDE9D2
:10076000002102900D984FF6E0731F2201460B9076
:10077000022002F00FFBDDE90C1008440D90BA488E
:10078000406C099009F0F2F802460B46CDE90A01E7
:10079000BEA10EA806F0D4FD002010210EAACDE9BE
:1007A000002102900D984FF6E0731F2201460B9036
:1007B000022002F0EFFADDE90C1008440D90AA487F
:1007C0004068099009F0D2F8CDE90A0101460B987A
:1007D000CDE90010B048B0F90020B0A10EA806F095
:1007E000AFFD002010210EAACDE9002102900D9846
:1007F0004FF6E0731F2201460B90022002F0CAFA66
:10080000DDE90C1008440D9097480068099009F044
:10081000ADF802460B46CDE90A01A4A10EA806F0E8
:100820008FFD002010210EAACDE9002102900D9825
:100830004FF6E0731F2201460B90022002F0AAFA45
:10084000DDE90C1008440D908748D0F8D0000990DD
:1008500009F08CF8CDE90A01CDE900019648B0F91C
:10086000002096A10EA806F06BFD002010210EAA14
:10087000CDE9002102900D984FF6E0731F2201464A
:100880000B90022002F086FADDE90C1008440D906E
:100890007548D0F8CC00099009F068F802460B467C
:1008A000CDE90A0189A10EA806F04AFD0020102119
:1008B0000EAACDE9002102900D984FF6E0731F2299
:1008C00001460B90022002F065FADDE90C100844A5
:1008D0000D906548D0F88C00099009F047F8CDE9F3
:1008E0000A01CDE900017C48B0F900207BA10EA8E7
:1008F00006F026FD002010210EAACDE9002102906D
:100900000D984FF6E0731F2201460B90022002F073
:1009100041FADDE90C1008440D905348D0F88800E6
:10092000099009F023F802460B46CDE90A016FA1B0
:100930000EA806F005FD002010210EAACDE9002129
:1009400002900D984FF6E0731F2201460B90022093
:1009500002F020FADDE90C1008440D9066480068AA
:1009600009F004F802460B46CDE90A0163A10EA87E
:1009700006F0E6FC002010210EAACDE9002102902D
:100980000D984FF6E0731F2201460B90022002F0F3
:1009900001FA3548D0F81001099008F0E7FF024647
:1009A0000B46CDE90A0158A10EA806F0C9FC0020AB
:1009B00010210EAACDE9002102900D984FF6E073A8
:1009C0001F2201460B90782002F0E4F9DDE90C10BB
:1009D00008440D902448D0F84001099008F0C6FF63
:1009E00002460B46CDE90A0149A10EA806F0A8FC73
:1009F000002010210EAACDE9002102900D984FF69B
:100A0000E0731F2201460B90022002F0C3F9164842
:100A1000D0F81401099008F0A9FF02460B46CDE971
:100A20000A0139A10EA806F08BFC002010210EAAA5
:100A3000CDE9002102900D9880B24FF6E0731F229D
:100A400001460B90782002F0A5F967E02100002014
:100A500006000020230000207A000020080000206B
:100A60000C00002010000020D00000200400002016
:100A7000004400406600002044000020565F464CC1
:100A80003A2564202C2566202000000054464C5F47
:100A9000563A25662020000046000020565F465248
:100AA0003A2564202C256620200000005446525F21
:100AB000563A2566202000004A000020565F425228
:100AC0003A2564202C256620200000005442525F05
:100AD000563A25662020000048000020565F424C10
:100AE0003A2564202C2566202000000054424C5FEB
:100AF000563A2566202000004C0000205941573A04
:100B00002566202020000000543A25662020200081
:100B1000765F783A2566202020000000DDE90C1081
:100B200008440D90FC48D0F84401099008F01EFFDD
:100B300002460B46CDE90A01F8A10EA806F000FC1A
:100B4000002010210EAACDE9002102900D9880B25C
:100B50004FF6E0731F2201460B90022002F01AF9B3
:100B6000ED48D0F81801099008F000FF02460B4646
:100B7000CDE90A01ECA10EA806F0E2FB002010214D
:100B80000EAACDE9002102900D9880B24FF6E073D5
:100B90001F2201460B90782002F0FCF8DDE90C10D2
:100BA00008440D90DC49D1F86001D1F86411024687
:100BB0000B46CDE90A01DEA10EA806F0C1FB00201C
:100BC00010210EAACDE9002102900D9880B24FF6B7
:100BD000E0731F2201460B90022002F0DBF8CE49A1
:100BE000D1F83001D1F8341102460B46CDE90A01A3
:100BF000D2A10EA806F0A4FB002010210EAACDE978
:100C0000002102900D9880B24FF6E0731F2201463A
:100C10000B90962002F0BEF8DDE90C1008440D9010
:100C2000BD49D1F86801D1F86C1102460B46CDE9F7
:100C30000A01C4A10EA806F083FB002010210EAA11
:100C4000CDE9002102900D9880B24FF6E0731F228B
:100C500001460B90022002F09DF8AF49D1F838010F
:100C6000D1F83C1102460B46CDE90A01B3A10EA80A
:100C700006F066FB002010210EAACDE900210290AB
:100C80000D9880B24FF6E0731F2201460B9096201C
:100C900002F080F8DDE90C1008440D909E48D0F871
:100CA0001C01099008F062FE02460B46CDE90A01DC
:100CB000A7A10EA806F044FB002010210EAACDE942
:100CC000002102900D9880B24FF6E0731F2201467A
:100CD0000B90022002F05EF8DDE90C1008440D9044
:100CE0009E4800680A21B0FBF1F201FB12000B9054
:100CF0009A480068B0FBF1F0B0FBF1F201FB120082
:100D00000A90964801686420B1FBF0F00A21B0FB1C
:100D1000F1F201FB12000990904800684FF47A71DB
:100D2000B0FBF1F00A21B0FBF1F201FB12000890D8
:100D30008A48006842F21071B0FBF1F20A20B2FB5F
:100D4000F0F100FB11200790844801688448B1FB52
:100D5000F0F00690DDE90823DDE90A10CDE9012372
:100D6000CDE90310079800907C48069B7DA102689E
:100D70000EA806F0E5FA002010210EAACDE9002108
:100D800002900D9880B24FF6E0731F2201460B903F
:100D9000022001F0FFFFDDE90C1008440D907848B7
:100DA000027878A10EA806F0CBFA002010210EAA36
:100DB000CDE9002102900D9880B24FF6E0731F221A
:100DC00001460B90022001F0E5FF704870A1026817
:100DD0000EA806F0B5FA002010210EAACDE90021D8
:100DE00002900D9880B24FF6E0731F2201460B90DF
:100DF000322001F0CFFF684868A102680EA806F013
:100E00009FFA002010210EAACDE9002102900D9832
:100E100080B24FF6E0731F2201460B90782001F05C
:100E2000B9FFDDE90C1008440D905E485EA1026830
:100E30000EA806F085FA002010210EAACDE90021A7
:100E400002900D9880B24FF6E0731F2201460B907E
:100E5000022001F09FFF5748027857A10EA806F024
:100E60006FFA002010210EAACDE9002102900D9802
:100E700080B24FF6E0731F2201460B90502001F024
:100E800089FFDDE90C1008440D904E4802784EA110
:100E90000EA806F055FA002010210EAACDE9002177
:100EA00002900D9880B24FF6E0731F2201460B901E
:100EB000022001F06FFF4648027846A10EA806F016
:100EC0003FFA002010210EAACDE9002102900D98D2
:100ED00080B24FF6E0731F2201460B902A2001F0EA
:100EE00059FF3E4802783EA10EA806F029FA0020DC
:100EF00010210EAACDE9002102900D9880B24FF684
:100F0000E0731F2201460B90522001F043FF364848
:100F100002786BE0EBE00000D0000020765F793AC9
:100F20002566202020000000543A2566200000009D
:100F30006E6F775F783A256620200000543A252EA0
:100F4000326620006E6F775F793A25662020200098
:100F5000765F773A25662020200000006C00002094
:100F6000A086010051525F636F64653A25642C20AE
:100F700025642564256425642564256420202000DB
:100F8000790000206D763A25632000007000002073
:100F9000583A25642020000074000020593A256446
:100FA00020200000000000207461736B3A2564204B
:100FB0000000000023000020616C69676E3A256420
:100FC000200000006000002075313A2563200000F9
:100FD0006100002075323A25632000006200002085
:100FE00075333A256320000063000020FEA10EA89F
:100FF00006F0A6F9002010210EAACDE900210290EA
:101000000D9880B24FF6E0731F2201460B907A20B4
:1010100001F0C0FEF6480278F6A10EA806F090F99D
:10102000002010210EAACDE9002102900D9880B277
:101030004FF6E0731F2201460B90A22001F0AAFE9A
:10104000DDE90C1008440D90EC48007801281DD112
:10105000DDE90C1008440D9000201021E8A2CDE934
:10106000002102900D9880B24FF6E0731F220146D6
:101070000B90022001F08EFE02F015FD02F0E6FA60
:101080000020E24981F83C02DC490870E048007821
:10109000012820D1DDE90C1008440D90002010211A
:1010A000DCA2CDE9002102900D9880B24FF6E073EA
:1010B0001F2201460B90022001F06CFED34890F8ED
:1010C0003C0208B9012000E00020D04981F83C0230
:1010D0000020CF490870D248006808B9012000E01C
:1010E0000020CF490860012006F0FDF800BFFFF79F
:1010F0001FBB1FB50121CB4805F09FFE01287DD104
:10110000C9480068401CC849086008460068C749CB
:101110000968401A022807D34821C54805F0DEFFB8
:10112000C1480068C1490860BF480068C1490968F2
:10113000401A01280AD90020BF490860BF49086049
:10114000BF4908600120B14981F83C02BD480088D0
:10115000BD49098888420BDABA490988891C88B2D6
:101160004FF48772962103F08BFAB649088019E094
:10117000B4480088B4490988884213DDB148008822
:10118000022804DDAF480088801E80B200E096206F
:1011900004464FF487729621204603F071FAA9495C
:1011A000088000BFA948007830B14FF48770A54986
:1011B00008800020A5490870A5480078002820DD97
:1011C00000209D490860A3489C49086000209C4974
:1011D00008608E4981F83C029D480078401E9C4979
:1011E00008700846007860B9002093490860934968
:1011F0000860934908600120844900E0C6E081F856
:101200003C0295480068C01C90B900204FF4FA7267
:10121000CDE90002029013460246012103908F4857
:1012200003F0CFFF002080490860801E8A490860D3
:1012300089480068801C68B97B4800680A2809D37F
:101240004FF487707F490880002077490860401E6E
:101250008149086080480068401CB0B97248006845
:101260000A2812D3002042F6E062CDE90002029083
:101270004FF4FA73082201210390784803F0A1FF8C
:10128000002069490860744908607348006860B9C3
:10129000654800680A2808D3FA20714908800020B0
:1012A0006149086001206C4908606B4800680128AA
:1012B00016D15D4800680A2812D300204FF4FA7254
:1012C000CDE90002029013460246012103906348D3
:1012D00003F077FF00205449086002205E4908604F
:1012E0005D48006802280CD14F4800680A2808D3DE
:1012F00096205449088000204B4908600320564935
:10130000086055480068032817D1474800680A2834
:1013100013D3002040F6AC52CDE9000202904FF406
:10132000FA730822012103904C4803F04AFF002081
:101330003D4908600420484908604748006804287F
:101340000BD1394800680A2807D300204449088097
:10135000354908600520404908603F480068052875
:1013600006D16FF063003C49086001203D490870D8
:101370002B481030006808B9012000E000202849FF
:10138000103108600121274805F068FD1FBD2DE9D7
:10139000FC470121344805F050FD012874D1334841
:1013A00005F039FD00B232490880324805F033FDBE
:1013B000404200B2304908804FF0804005F02BFDDC
:1013C00000B22E4908802E4805F025FD00B22D49B7
:1013D000088000214FF0804005F0FAFC00212848E9
:1013E00005F0F6FC002150E075343A25632000003A
:1013F0006400002075353A25632000008C00002031
:101400006B6579315F666C6167000000D000002079
:101410008D0000206B6579325F666C6167000000AB
:1014200094812142001400407C0000201C00002018
:101430000050004018000020080000200C00002090
:101440001000002058000020140000202000002080
:10145000220000200000F041000000200044004075
:101460005A00002006000020001000400008004044
:1014700046000020000C0040440000204A000020EC
:10148000000400404800002038E2FE4805F0A0FCBF
:101490000021FD4805F09CFC02F052FCFB4802F0E4
:1014A000B0FCFA48443002F0ACFCF848883002F056
:1014B000A8FCF648CC3002F0A4FC02F0C2FCF448D0
:1014C000007868B1F3480068F049C1F81401F248A7
:1014D0000068C1F81801F1480068C1F81C01C3E0B8
:1014E00002F0FDFFE948D0F81C0180F00040E74918
:1014F000C1F81C010846D0F86021D0F864111046EC
:1015000007F02EFD0446E148D0F83021D0F8341120
:10151000104607F025FD054622462946E04802F020
:10152000F2FADA48D0F86821D0F86C11104607F0CA
:1015300017FD0446D548D0F83821D0F83C111046A4
:1015400007F00EFD054622462946D548283002F010
:10155000DAFACE48D0F8BC01CC49C1F814010846EB
:10156000D0F8E401C1F81801D1F81001002108F009
:1015700059FB0BD1C548D0F8E401C449C1F81801A2
:101580000846D0F8BC01C1F8140146E0BF49D1F8C3
:101590001001C44908F046FB0DD1BC48D0F8E40165
:1015A00080F00040B949C1F814010846D0F8BC01E8
:1015B000C1F8180131E0B549D1F81001BA4908F075
:1015C00031FB0DD1B148D0F8E401B049C1F81401A4
:1015D0000846D0F8BC0180F00040C1F818011CE0BA
:1015E000AA49D1F81001B14908F01CFB06D0A7495F
:1015F000D1F81001AE4908F015FB0ED1A348D0F880
:10160000BC0180F00040A149C1F814010846D0F89F
:10161000E40180F00040C1F81801A64800780128D4
:1016200022D1A548006808F04DFB04462246A34994
:101630009B48783002F067FAA148006808F042FB46
:10164000044622469F499648503002F05CFA8F4883
:10165000D0F834028D49C1F814010846D0F80C02C4
:1016600080F00040C1F818018849D1F81C0108F049
:101670007DF904460D468549D1F8140108F076F944
:1016800006460F468149D1F8180108F06FF98046E7
:1016900032463B46CDE9004502F069FF7B4842688F
:1016A00001680C3002F082FA7848826C416C50304C
:1016B00002F07CFA7548D0F88C20D0F8881094306D
:1016C00002F074FA7148D0F8D020D0F8CC10D8309D
:1016D00002F06CFA6D4890F83C02012807D1002115
:1016E0006A4801634167C0F8B810C0F8FC1076483A
:1016F000007851280BD16F480078012807D10021CC
:10170000624801634167C0F8B810C0F8FC105F4937
:101710006E4A486F6E4903F049FB01465B484167DA
:1017200001466A4A086B6A4903F040FB574908635F
:10173000664AD1F8B800664903F038FB01465348C1
:10174000C0F8B8100146614AD1F8FC00604903F0C6
:101750002DFB01464D48C0F8FC100146086B08F00F
:1017600095FA4A498860486F08F090FA4749C8647A
:10177000D1F8B80008F08AFA4449C1F89000D1F8CD
:10178000FC0008F083FA4149C1F8D400C86C08F0A5
:1017900099FA05464D4A4E4903F008FB044608F005
:1017A00075FA3A49C864886808F08CFA0546474AD1
:1017B000474903F0FBFA044608F068FA33498860A9
:1017C000D1F8900008F07EFA0546404A404903F0FF
:1017D000EDFA044608F05AFA2C49C1F89000D1F805
:1017E000D40008F06FFA0546384A394903F0DEFAAA
:1017F000044608F04BFA2549C1F8D400002041F214
:101800006F71CDE9001021484FF400629110C36C54
:10181000084602F010FA002041F26F71CDE9001085
:101820001A484FF4804291108368402002F003FA76
:10183000002041F26F71CDE9001014484FF40042CE
:101840009110D0F89030481102F0F5F9002041F2E3
:101850006F71CDE900100D484FF480629110D0F8FF
:10186000D430802002F0E7F91A48008802F081FFA6
:101870001948008802F09FFF1848008802F08AFF8C
:101880002EE0000000080040000C0040D0000020C6
:1018900006000020080000200C000020100000209E
:1018A0006C0200200000B4420000B4C200003443C7
:1018B000000034C37A000020740000200000704350
:1018C0007000002000809343790000200078BB4521
:1018D0000078BBC5580000205A0000205C000020A2
:1018E00003F0B1FDFE48006808B9012000E00020C7
:1018F000FB4908600121FB4805F0B0FABDE8FC8710
:1019000010B540F22551F84805F06CFC48B1F64896
:1019100005F0E8FBF549087040F22551F24805F062
:101920008BFC10BD10B540F22551F14805F05AFC72
:1019300000B3EF4805F0D6FBEE4908700846007882
:10194000ED49EE4A12788854EC480078EC49097861
:10195000884205D10120EB4908700020E749087052
:10196000E6480078401CE549087040F22551E048FF
:1019700005F062FC10BD2DE9F04140F22551E2482E
:1019800005F030FC00286FD0DF4805F0ABFBDF49E5
:10199000087008460078DE49DE4A12788854DD482F
:1019A000007810B101281CD10BE0D948D949097839
:1019B000405C552804D1D7480078401CD5490870B0
:1019C00015E0D348D3490978405C522805D1D14865
:1019D0000078401CCF49087002E00020CD49087013
:1019E00005E0CC480078401CCA49087000BF00BF21
:1019F000C8480078152831D1C548407CC449897C45
:101A000040EA012004B2204608F05CF907464FF096
:101A10008E4108F045F80646BF4908F0B3F9BF49C2
:101A2000086008460068BE49C1F84801B848807996
:101A3000B749C97940EA012005B2284608F042F9C1
:101A400007464FF08E4108F02BF80646B54908F0DE
:101A500099F9B54908600020AE49087040F2255157
:101A6000A94805F0E9FB00BFBDE8F08110B540F2E0
:101A70002551AE4805F0B6FB01287DD1AB4805F0F5
:101A800031FBAB49087008460078412810D1A949BC
:101A900008700020A84908700120A84908709048E3
:101AA000006808B9012000E000208D490860EBE0E3
:101AB0009F480078422810D19E49087000209E4916
:101AC000087001209D4908708548006808B9012008
:101AD00000E0002082490860D6E09548007843285D
:101AE00010D194490870002093490870012093494F
:101AF00008707B48006808B9012000E000207849A0
:101B00000860C1E08A480078442810D189490870EB
:101B100000208949087001208849087070480068D1
:101B200008B9012000E000206D490860ACE0804861
:101B30000078452810D17F49087000207E49087040
:101B400001207E4908706648006808B9012000E05D
:101B500000206349086097E075480078462812D154
:101B60007449087000207449087001207349087096
:101B70005B48006818B900E08BE0012000E000201D
:101B80005749086080E06A480078472810D16949C1
:101B900008700020684908700120684908705048A2
:101BA000006808B9012000E000204D4908606BE0A2
:101BB0005F480078512811D15E49087000205E49C5
:101BC00008705E4908704648001D006808B9012089
:101BD00000E000204249091D086055E055480078A2
:101BE000002851D0524800785549534A12788854F9
:101BF000084651490978405C582812D10A205049BA
:101C00004D4A12788854084605F09BFC4D490860FF
:101C10000A22494801784A4805F0BFFC002046499D
:101C20000870474844490978405C592827D10A2060
:101C30004349414A12788854084605F082FC4249DB
:101C400008600A223C4801783D4805F0A6FC0020C7
:101C500039490870374908703C48007828B13C4839
:101C6000007810B90A203A4908701D480C380068FD
:101C700008B9012000E0002019490C3908602E48FD
:101C80000078401C2C49087040F22551274805F087
:101C9000D3FA10BD10B540F225512E4805F0A2FA36
:101CA000012863D12B4805F01DFA2B49087008461E
:101CB00000782A4908702A4800682A49086026489E
:101CC0000078FEF79BFA002024490870224801782A
:101CD000204805F003FA40F225511E4844E045E053
:101CE000A081214200100040003801406000002027
:101CF00000440040610000206003002065000020D7
:101D000066000020670000200048004062000020BC
:101D1000AC00002024000020000034434C000020D0
:101D2000D00000200000FA4450000020004C004089
:101D300063000020790000207800002020000020AF
:101D4000800300207000002074000020210000208B
:101D50002200002000500040640000200400002009
:101D60007C0000201800002005F066FA10BD7047C6
:101D700000BFFEE700BFFEE700BFFEE700BFFEE7D3
:101D800070477047704770470CB500200190009075
:101D90006C48006840F480306A49086000BF6948B8
:101DA000006800F4003000900198401C01900098F9
:101DB00018B90198B0F5A06FF1D16248006800F43D
:101DC000003010B10120009001E000200090009848
:101DD000012843D15C48006840F010005A4908606F
:101DE0000846006820F0030008600846006840F0DC
:101DF00002000860534840685249486008464068FD
:101E000048600846406840F4806048600846406882
:101E100020F47C1048600846406840F4E8104860B0
:101E20000846006840F08070086000BF45480068C0
:101E300000F000700028F9D04248406820F003000C
:101E4000404948600846406840F00200486000BFD2
:101E50003C48406800F00C000828F9D10CBD10B5D2
:101E6000FFF792FF10BD10B53648006840F0010042
:101E700034490860084640683449084031494860A0
:101E800008460068324908402E4908600846006844
:101E900020F4802008600846406820F4FE00486076
:101EA0004FF41F008860FFF7DAFF4FF00060294908
:101EB000086010BD10B5002100200022214B5B6896
:101EC00003F00C0121B1042906D0082928D107E02C
:101ED000214B224C236027E01F4B204C236023E042
:101EE000184B5B6803F47010164B5B6803F4803288
:101EF000022303EB904022B9194B4343174C236054
:101F00000DE0104B5B6803F4003323B1144B4343E3
:101F1000124C236003E0104B4343104C236003E05A
:101F20000D4B0E4C236000BF00BF064B5B68C3F334
:101F300003130C4CE15C094B1B68CB40074C23603E
:101F400010BD000000100240002002400000FFF819
:101F5000FFFFF6FE08ED00E000127A0028000020E6
:101F600000093D002C00002000B587B00121084683
:101F700003F08DFE0121022003F089FE01210420DF
:101F800003F085FE0121082003F081FE01210420D9
:101F900003F070FE0121082003F06CFE01210846C9
:101FA00003F068FE01219E4803F079FC01219D4861
:101FB00003F075FC28208DF81B0048F2C300ADF833
:101FC000180003208DF81A0006A9974803F096FB25
:101FD000C820ADF8180006A9944803F08FFB03A8A9
:101FE00004F032FC4FF6FF70ADF810000020ADF8A1
:101FF0000C008DF8140003A94FF0804004F0F8F8AD
:1020000003A804F021FC4FF6FF70ADF8100000208B
:10201000ADF80C008DF8140003A9854804F0E8F829
:1020200003A804F011FC4FF6FF70ADF8100000207B
:10203000ADF80C008DF8140003A97E4804F0D8F820
:1020400003A804F001FC4FF6FF70ADF8100000206B
:10205000ADF80C008DF8140003A9774804F0C8F817
:10206000684604F004FC0020ADF800000F20ADF835
:10207000080069464FF0804004F04DFB0420ADF8A5
:1020800000000F20ADF8080069464FF0804004F0D2
:1020900042FB684604F0EBFB0020ADF800000F2087
:1020A000ADF808006946624804F035FB0420ADF83D
:1020B00000000F20ADF8080069465D4804F02BFBD6
:1020C000684604F0D4FB0020ADF800000F20ADF806
:1020D00008006946574804F01EFB0420ADF80000D4
:1020E0000F20ADF808006946524804F014FB68461A
:1020F00004F0BDFB0020ADF800000F20ADF8080093
:1021000069464D4804F007FB0420ADF800000F209D
:10211000ADF808006946484804F0FDFA00231A4665
:1021200003214FF0804004F072FC00231A46032183
:102130003F4804F06CFC00231A4603213D4804F09C
:1021400066FC00231A4603213B4804F060FC012191
:10215000880704F0A9FB0121354804F0A5FB012103
:10216000344804F0A1FB0121334804F09DFB07B083
:1021700000BD00B587B00121042003F07BFD0121E3
:10218000084603F084FD04208DF81B000C20ADF8F8
:10219000180006A9244803F0B1FA03A804F054FB80
:1021A0000020ADF81200ADF80E004FF6FF70ADF84C
:1021B00010000020ADF80C0003A94FF0804004F09F
:1021C00017F800231A4603214FF0804004F01FFC4B
:1021D000684604F04CFB0820ADF800000A20ADF87A
:1021E00008006946400704F096FA0C20ADF800009C
:1021F0000A20ADF808006946400704F08CFA012275
:102200001146900704F06BFB00214FF0804004F072
:10221000DFFD0121880704F047FB07B000BD000087
:10222000000230000001180000080140000C0140CD
:102230000004004000080040000C004070B5054656
:102240000E4614463146284601F02AF8204600F092
:10225000E8FF70BD2DE9F05F04460D4616461F46A7
:10226000301B401C1FFA80FA781B401C1FFA80FBB1
:102270003B4632462946204600F0E8FF4FF0000872
:102280000FE04FF0000906E00A9800F0CAFF09F1DC
:1022900001001FFA80F9D145F6DB08F101001FFAB1
:1022A00080F8D845EDDBFE484088401E83B2FC48EC
:1022B0000088401E82B20021084600F0C7FFBDE83A
:1022C000F09F2DE9FF4F85B081468A46002004909B
:1022D00003900798A0EB09050898A0EB0A06CDF833
:1022E0000890CDF804A0002D01DD012705E00DB90F
:1022F000002702E04FF0FF376D42002E02DD4FF065
:10230000010806E016B94FF0000802E04FF0FF3870
:102310007642B54201DD2C4600E034464FF0000B1A
:1023200021E0019A91B2029A90B200F0C3FF0498A2
:10233000284404900398304403900498A04205DD9B
:102340000498001B04900298384402900398A0421D
:1023500005DD0398001B03900198404401900BF1A8
:1023600001001FFA80FB601C8345DADD09B0BDE87F
:10237000F08F2DE9F04104460D4616461F462B46C8
:10238000324629462046FFF79CFF3B462246294617
:102390002046FFF796FF3B46324639462046FFF778
:1023A00090FF3B46324629463046FFF78AFFBDE89C
:1023B000F081F8B504460D4616461F46B948008818
:1023C0003B463246294600902046FFF743FFF8BDC2
:1023D0002DE9F04104460D4616461F46DDF81880EB
:1023E000EA1991B2A21990B24246FFF727FFEA1903
:1023F00091B2A21B90B24246FFF720FFEA1B91B2B6
:10240000A21990B24246FFF719FFEA1B91B2A21B34
:1024100090B24246FFF712FFAA1991B2E21990B2A8
:102420004246FFF70BFFAA1991B2E21B90B2424657
:10243000FFF704FFAA1B91B2E21990B24246FFF7E0
:10244000FDFEAA1B91B2E21B90B24246FFF7F6FED8
:10245000BDE8F0812DE9FF4F81B0824617469846CE
:10246000DDF838B0002445464FEA4800C0F10306C5
:10247000BBF1000F1FD01BE0A14608E04B462246EF
:10248000009750460299FFF7A3FF09F10109A945FA
:10249000F4DD002E04DA042000FB0460861D06E053
:1024A000601B042101FB006000F10A066D1E641C24
:1024B000AC42E1DD18E015E02B462246009750467D
:1024C0000299FFF785FF002E04DA042000FB046068
:1024D000861D06E0601B042101FB006000F10A0676
:1024E0006D1E641CAC42E7DD05B0BDE8F08F2DE940
:1024F000F04704460D4616461F46DDE908893B466F
:10250000324629462046FFF7DCFE4B464246394616
:102510003046FFF7D6FE2B46224649464046FFF797
:10252000D0FEBDE8F08702880B8803800A807047E0
:102530002DE9FF4F85B000260027BDF81800BDF833
:102540002010884207DD08A906A8FFF7ECFF07A9BD
:1025500005A8FFF7E8FFBDF82000BDF84C10884241
:1025600007DD08A913A8FFF7DEFF07A912A8FFF7E8
:10257000DAFFBDF81800BDF82010884207DD08A971
:1025800006A8FFF7D0FF07A905A8FFF7CCFFBDF805
:102590001800BDF84C10884238D1BDF814000390E3
:1025A0000490BDF81C00BDF81010884203DABDF895
:1025B0001C00049008E0BDF81C00BDF80C10884217
:1025C00002DDBDF81C000390BDF84800BDF81010F6
:1025D000884203DABDF84800049008E0BDF84800DE
:1025E000BDF80C10884202DDBDF8480003902D486C
:1025F00000880090BDF81830BDF80C201946BDF8D1
:102600001000FFF727FE09B0BDE8F08FBDF81C00F1
:10261000BDF81410A0EB010BBDF82000BDF8181098
:10262000401A0290BDF84800BDF81410451ABDF8D4
:102630004C00BDF81810A0EB0109BDF84800BDF82A
:102640001C10A0EB010ABDF84C00BDF82010401A88
:102650000190BDF82000BDF84C10884202D1BDF8B1
:10266000208004E0BDF82000401E1FFA80F8BDF86D
:1026700018402CE0029896FBF0F0BDF814100844C6
:1026800080B2049097FBF9F0BDF81410084480B2B2
:1026900003905E442F44BDF81000BDF80C1003E019
:1026A000C20000203C000020884203DD03A904A8EA
:1026B000FFF739FFFE48008823460090BDF80C2044
:1026C0002146BDF81000FFF7C5FD601C84B24445EB
:1026D000D0DDBDF82000201A00FB0AF6BDF8180076
:1026E000201A00FB05F727E0019896FBF0F0BDF8F3
:1026F0001C10084480B2049097FBF9F0BDF8141048
:10270000084480B2039056442F44BDF81000BDF831
:102710000C10884203DD03A904A8FFF704FFE44876
:10272000008823460090BDF80C202146BDF810001B
:10273000FFF790FD601C84B2BDF84C008442D3DDED
:1027400000BF60E72DE9FF4F83B081468A4693467C
:10275000DDE91064D64800880290A6F12000C6B2D8
:1027600004EBD47009EB6000401E82B20AEB040057
:10277000401E83B251464846019400F067FD12980E
:1027800050BB002525E00C2C07D106EB4600C949BB
:1027900001EB800010F8058004E0C74800EB06104C
:1027A00010F8058000270DE008F0010018B1584628
:1027B00000F037FD02E0069800F033FD4FEA6808AC
:1027C000781CC7B204EBD471B7EB610FECDB681C6B
:1027D000C5B2A542D7DB2DE0002529E00C2C07D19E
:1027E00006EB4600B34901EB800010F8058004E0D9
:1027F000B14800EB061010F80580002711E0AC4846
:10280000A0F800B008F0010038B10AEB050291B25F
:1028100009EB070290B200F04DFD4FEA6808781C02
:10282000C7B204EBD471B7EB610FE8DB681CC5B22B
:10283000A542D3DB9E4902980880A0484088401EEC
:1028400083B29E480088401E82B20021084600F0F4
:10285000FDFC07B0BDE8F08F2DE9FE4306460F46AC
:1028600015461C46DDF828801DE094480088401E6F
:10287000B04204DB91484088401EB84201DABDE80E
:10288000FE8320788DE821018D48038888480288DE
:1028900039463046FFF756FF284605EBD07106EB68
:1028A00061018EB2641C20787E2802DC207820280A
:1028B000DBDA00BFE3E710B50246012000E0504339
:1028C0000B1EA1F10104E1B2F9D110BD2DE9FF4FBA
:1028D00083B0074691461E46109C4FF0000A002523
:1028E00043E0701B401EC1B20A20FFF7E4FFB9FBB2
:1028F000F0F00A21B0FBF1F201FB1208BAF1000F6F
:102900001BD1701EA84218DDB8F1000F13D10020B2
:102910002021A346CDE90014029004EBDB7149109D
:1029200001FB057188B266490B8861490A880499E0
:10293000FFF708FF17E04FF0010A002108F130000F
:10294000C0B2A346CDE90141009004EBDB71491010
:1029500001FB057188B25A490B8855490A880499C8
:10296000FFF7F0FE00BF681CC5B2B542B9DB07B087
:10297000BDE8F08F2DE9FC5F0546884691469A46F2
:10298000DDF830B000953E20019000245FE004EBBC
:1029900004104C4911F810009BF80010884253D1E4
:1029A00004EB0410474901EB400040789BF801100C
:1029B000884249D108F10F0083B205F10F0082B2BD
:1029C0004146284600F042FC00263BE0002734E068
:1029D0000D9890B904EB04103A4901EB4000801CBB
:1029E000805D80213941084018B1484600F019FC4B
:1029F00021E0504600F015FC1DE02D48A0F80090A5
:102A000004EB04102F4901EB4000801C805D802105
:102A10003941084018B14146284600F04BFC681C7B
:102A200085B20098281A102805D1009D08F10100F0
:102A30001FFA80F803E0781CC7B2082FC8DB00BF7C
:102A4000701CC6B2202EC1DB00BF601C84B201988E
:102A500084429CDB19484088401E83B21748008896
:102A6000401E82B20021084600F0F0FBBDE8FC9F4A
:102A70002DE9FC5F0546884691469A46DDF830B060
:102A8000009507200190002476E004EB840000EB21
:102A900044100D4911F810009BF80010884268D1CD
:102AA00004EB840000EB4410074901EB40000DE00B
:102AB0003C00002072A10008E6A50008C20000202A
:102AC0003E000020D6AB000812B4000840789BF806
:102AD000011088424DD108F1170083B205F11700AB
:102AE00082B24146284600F0B1FB00263FE00027B5
:102AF00038E00D98A0B904EB840000EB4410FB49CA
:102B000001EB4000801C805D80213941084018B1F4
:102B1000484600F086FB23E0504600F082FB1FE0B1
:102B2000F348A0F8009004EB840000EB4410EF4958
:102B300001EB4000801C805D80213941084018B1C4
:102B40004146284600F0B6FB681C85B20098281A5A
:102B5000182805D1009D08F101001FFA80F803E054
:102B6000781CC7B2082FC4DB00BF701CC6B2482E49
:102B7000BDDB00BF601C84B20198844285DBDD4868
:102B80004088401E83B2DB480088401E82B200218C
:102B9000084600F05BFBBDE8FC9F2DE9FC5F0546A5
:102BA000884691469A46DDF830B0009505200190A0
:102BB00000245FE004EB8410CF4911F810009BF86B
:102BC0000010884253D104EB8410CB4901EB400044
:102BD00040789BF80110884249D108F11F0083B268
:102BE00005F11F0082B24146284600F02FFB002667
:102BF0003BE0002734E00D9890B904EB8410BE4907
:102C000001EB4000801C805D80213941084018B1F3
:102C1000484600F006FB21E0504600F002FB1DE0B4
:102C2000B348A0F8009004EB8410B34901EB4000D6
:102C3000801C805D80213941084018B141462846FA
:102C400000F038FB681C85B20098281A202805D1AE
:102C5000009D08F101001FFA80F803E0781CC7B25C
:102C6000082FC8DB00BF701CC6B2802EC1DB00BFBE
:102C7000601C84B2019884429CDB9E484088401EC0
:102C800083B29C480088401E82B20021084600F0B2
:102C9000DDFABDE8FC9F2DE9FC5F054688469146BC
:102CA0009A46DDF830B0009504200190002460E0E1
:102CB00004EB0420914911F810009BF800108842A1
:102CC00054D104EB04208D4901EB400040789BF87F
:102CD000011088424AD108F13F0083B205F13F005C
:102CE00082B24146284600F0B1FA00263BE00027B8
:102CF00034E00D9890B904EB0420804901EB4000CA
:102D0000801C805D80213941084018B1484600F0A0
:102D100088FA21E0504600F084FA1DE07448A0F8DB
:102D2000009004EB0420754901EB4000801C805D9D
:102D300080213941084018B14146284600F0BAFACE
:102D4000681C85B20098281A402805D1009D08F11A
:102D500001001FFA80F803E0781C87B2082FC8DB57
:102D600000BF701C86B2B6F5007FC0DB00BF601CE0
:102D700084B2019884429BDB5E484088401E83B247
:102D80005C480088401E82B20021084600F05EFACE
:102D9000BDE8FC9F2DE9FF4F83B00646884691466B
:102DA000DDE91147109DB2464FF0000B7BE0BBF10F
:102DB000000F40D104EBD4714E4A1288A2EB61019E
:102DC000B14204DB4B494988091B414502DA07B08F
:102DD000BDE8F08F2878802802DD4FF0010B62E01B
:102DE00028780D2806D108EB04001FFA80F8564613
:102DF0006D1C1EE0102C0DDD102128788DE883005D
:102E00004A4641463046069BFFF79CFC06F1080007
:102E100086B20EE028788DE891004A464146304659
:102E2000069BFFF78FFC204604EBD07106EB610197
:102E30008EB26D1C37E02F480088001BB04204DBC7
:102E40002C484088001B404500DAC0E74FF0000BDB
:102E5000402C07D1CDE900574A4641463046069BF3
:102E6000FFF719FF202C08D1CDE900574A4641460B
:102E70003046069BFFF791FE12E0182C08D1CDE9F1
:102E800000574A4641463046069BFFF7F1FD07E0F2
:102E9000CDE900574A4641463046069BFFF76AFD9A
:102EA000AD1C301986B22878002880D100BF8EE78B
:102EB0002DE9FE4F0E4617469846DDE90D9A0C9C0B
:102EC000204604F04BFB85B20A490988A1EBC500F6
:102ED00000EBD071C1F34F0B43463A46314658469A
:102EE0008DE81006FFF756FFBDE8FE8F12B400080C
:102EF0003C000020C200002018B6000872C3000881
:102F00002DE9F04706460F46154607F1270083B224
:102F100006F1270082B23946304600F097F90024C6
:102F20000AE015F8149005EB440090F8018049EA96
:102F3000082000F076F9641CB4F5C86FF1DB9B48FB
:102F40004088401E83B299480088401E82B200210A
:102F5000084600F07BF9BDE8F0872DE9F05F0446F4
:102F60000F4690469A46DDF828B0A14607F13F008B
:102F700083B204F13F0082B23946204600F066F980
:102F800000253AE0002632E00B9890B90BEB0B20BD
:102F9000874901EB4000801C405D802131410840A1
:102FA00018B1404600F03DF91FE0504600F039F9F5
:102FB0001BE08048A0F800800BEB0B207C4901EB64
:102FC0004000801C405D80213141084018B13946E5
:102FD000204600F06FF9601C84B2A4EB0900402881
:102FE00003D14C46781C87B203E0701C86B2082ED1
:102FF000CADB00BF00BF681C85B2B5F5007FC1DB2E
:103000006A484088401E83B268480088401E82B2E9
:103010000021084600F01AF9BDE8F09F2DE9F05FA5
:1030200004460F4690469A46DDF828B0A14607F1BF
:103030004F0083B204F1270082B23946204600F0E7
:1030400005F900253CE0002634E00B9898B9C9202A
:103050000BFB00F0584901EB4000801C415D8020D3
:103060003041014019B1404600F0DBF820E0504605
:1030700000F0D7F81CE04F48A0F80080C9200BFBF7
:1030800000F04D4901EB4000801C405D8021314142
:10309000084018B13946204600F00CF9601C84B293
:1030A000A4EB0900282803D14C46781C87B203E022
:1030B000701C86B2082EC8DB00BF00BF681C85B23A
:1030C000B5F5C87FBFDB39484088401E83B237481A
:1030D0000088401E82B20021084600F0B7F8BDE823
:1030E000F09F2DE9F05F04460F4690469A46DDF8C2
:1030F00028B0A14607F12F0083B204F12F0082B25D
:103100003946204600F0A2F800253EE0002636E0D1
:103110000B98A0B90BEB0B1000EBCB10274901EB80
:103120004000801C415D80203041014019B1404683
:1031300000F077F821E0504600F073F81DE01D48DC
:10314000A0F800800BEB0B1000EBCB101B4901EB40
:103150004000801C405D80213141084018B1394653
:10316000204600F0A7F8601C84B2A4EB09003028C8
:1031700003D14C46781C87B203E0701C86B2082E3F
:10318000C6DB00BF00BF681C85B2B5F5907FBDDB14
:1031900006484088401E83B204480088401E82B220
:1031A0000021084600F052F8BDE8F09FC200002060
:1031B00072C300083C0000202ABD0008A2B8000825
:1031C00010B504460420FE490860402008602146EE
:1031D000FC4801F005FB0420F949091F086010BDF7
:1031E00010B504460420F64908604020091F086015
:1031F0002146F44801F0F4FA0420F149091F08605F
:1032000010BD70B505460C462846FFF7D9FFE0B261
:10321000FFF7E6FF70BD10B5EB49087AFFF7D0FF66
:1032200010BD10B504460420E54908604020091F80
:1032300008602112E34801F0D3FAE1B2E14801F05D
:10324000CFFA0420DE49091F086010BD2DE9F041C6
:1032500004460D4616461F46DB49887AFFF7B0FF45
:103260002012FFF7BDFFE0B2FFF7BAFF3012FFF701
:10327000B7FFF0B2FFF7B4FFD349087BFFF7A0FF19
:103280002812FFF7ADFFE8B2FFF7AAFF3812FFF7E9
:10329000A7FFF8B2FFF7A4FFFFF7BDFFBDE8F0817D
:1032A00070B504460D462B46224629462046FFF7B8
:1032B000CDFF70BD70B504460D4629462046FFF788
:1032C000EFFFC2480088FFF7ACFF70BD70B506463F
:1032D000BD484088401E83B2BB480088401E82B271
:1032E00000210846FFF7B2FF0420B54908604020DE
:1032F000091F086000240AE0002503E03046FFF7BC
:1033000090FF6D1CB0480088A842F7D8641CAE48F6
:103310004088A042F0D80420A949091F086070BD68
:1033200008B50121802002F0A5FC5520ADF8000071
:1033300003208DF8020010208DF803006946A04894
:10334000143802F0DBF901219D48143802F083FAA9
:1033500008BD10B510209A490860642003F0C3FF2F
:1033600010209749091F0860322003F0BCFF10BDF0
:1033700010B504462A20944948812B2088812C20AE
:10338000088134B1012C0FD0022C18D0032C2CD181
:1033900020E0F0208C4908804FF4A070488008217C
:1033A0003620FFF72EFF21E04FF4A07086490880F9
:1033B000F020488068213620FFF723FF16E0F02038
:1033C000814908804FF4A0704880C8213620FFF75B
:1033D00018FF0BE04FF4A0707B490880F020488074
:1033E000A8213620FFF70DFF00E000BF00BF10BD91
:1033F00010B501F019FAFFF793FFFFF7AAFFCF20EE
:10340000FFF7DEFE0020FFF7EBFEC920FFF7E8FE26
:103410003020FFF7E5FEED20FFF7D2FE6420FFF736
:10342000DFFE0320FFF7DCFE1220FFF7D9FE81202C
:10343000FFF7D6FEE820FFF7C3FE8520FFF7D0FE9A
:103440001020FFF7CDFE7A20FFF7CAFECB20FFF752
:10345000B7FE3920FFF7C4FE2C20FFF7C1FE002085
:10346000FFF7BEFE3420FFF7BBFE0220FFF7B8FED9
:10347000F720FFF7A5FE2020FFF7B2FEEA20FFF7B6
:103480009FFE0020FFF7ACFE0020FFF7A9FEC02042
:10349000FFF796FE1B20FFF7A3FEC120FFF790FE6B
:1034A0000020FFF79DFEC520FFF78AFE3020FFF7C2
:1034B00097FE3020FFF794FEC720FFF781FEB7206C
:1034C000FFF78EFE3620FFF77BFE0820FFF788FE11
:1034D0003A20FFF775FE5520FFF782FEB120FFF777
:1034E0006FFE0020FFF77CFE1A20FFF779FEB62062
:1034F000FFF766FE0A20FFF773FEA220FFF770FEBB
:10350000F220FFF75DFE0020FFF76AFE2620FFF79E
:1035100057FE0120FFF764FEE020FFF751FE0F2069
:10352000FFF75EFE2A20FFF75BFE2820FFF758FE1C
:103530000820FFF755FE0E20FFF752FE0820FFF788
:103540004FFE5420FFF74CFEA920FFF749FE432011
:10355000FFF746FE0A20FFF743FE0F20FFF740FE6D
:103560000020FFF73DFE0020FFF73AFE0020FFF7A6
:1035700037FE0020FFF734FEE120FFF721FE002098
:10358000FFF72EFE1520FFF72BFE1720FFF728FE72
:103590000720FFF725FE1120FFF722FE0620FFF788
:1035A0001FFE2B20FFF71CFE5620FFF719FE3C20C4
:1035B000FFF716FE0520FFF713FE102008E00000BD
:1035C000141C014000380040C20000203C000020D4
:1035D000FFF706FE0F20FFF703FE3F20FFF700FE78
:1035E0003F20FFF7FDFD0F20FFF7FAFD2B20FFF72F
:1035F000E7FD0020FFF7F4FD0020FFF7F1FD0120BB
:10360000FFF7EEFD3F20FFF7EBFD2A20FFF7D8FD87
:103610000020FFF7E5FD0020FFF7E2FD0020FFF7A7
:10362000DFFDEF20FFF7DCFD1120FFF7C9FD78205B
:1036300003F059FE2920FFF7C3FD0220FFF798FE93
:103640004FF6FF70FFF742FE10BD0000FD48FE4937
:10365000C1F87401FD49FC48C0F87811FC49C0F874
:103660007C110021C0F88011C0F88411C0F88811C5
:10367000C0F88C11C0F89011C0F89411F549C0F849
:103680009811F548F049C1F89C010021EE48C0F8B6
:10369000A011C0F8A411C0F8A811C0F8AC11C0F86E
:1036A000B011C0F8B411C0F8B811C0F8BC11EB49A2
:1036B000C0F8C011E848E449C1F8C4010021E2485B
:1036C000C0F8C811C0F8CC11C0F88011C0F8D411EE
:1036D000C0F8D811C0F8DC11C0F8E011C0F8E4114E
:1036E000DE49C0F8E811DE48D749C1F8EC010021F5
:1036F000D548C0F8F011C0F8F411C0F8F811C0F8BE
:10370000FC11C0F80012C0F80412C0F80812C0F88A
:103710000C12D449C0F81012D148CB49C1F8140298
:103720000021C948C0F81812C0F81C12C0F8801156
:10373000C0F82412C0F82812C0F82C12C0F83012B9
:10374000C0F83412C749C0F83812C748BE49C8602B
:10375000C049BD480161002141618161C1610162CF
:1037600041628162C1620163C0494163BE49016532
:10377000B849416500218165C16501664166816680
:10378000C16601674167B9498167B749C0F89410BC
:10379000B049C0F898100021C0F89C10C0F8A010E3
:1037A000C0F8A410C0F8A810C0F8AC10C0F8B01051
:1037B000C0F8B410C0F8B810AC49C0F8BC10AA49A1
:1037C000C0F8D810A349C0F8DC100021C0F8E01000
:1037D000C0F8E410C0F8E810C0F8EC10C0F8F01021
:1037E000C0F8F410C0F8F810C0F8FC109F49C0F8F9
:1037F00000110120944981F83C02002008604860D3
:1038000088608863C8630864486400218E488164C6
:10381000C164C167C0F88010C0F8841000208A49D4
:10382000C1F8880000218848C0F88C10C0F89010BA
:10383000C0F8C010C0F8C410C0F8C81000208249F9
:10384000C1F8CC0000218048C0F8D010C0F8D410D6
:10385000C0F80411C0F80811C0F80C1100207A4912
:10386000C1F81001C1F81401C1F81801C1F81C0118
:103870000A46C2F83001C2F83401C2F83801C2F871
:103880003C010021C2F82011C2F82411002278481E
:103890008260C26000206C49C1F84001C1F8440157
:1038A000C1F848010021684AC2F85011C2F8541109
:1038B00000226F4830308260C2600020624AC2F845
:1038C0006001C2F86401C2F86811C2F86C111146B7
:1038D000C1F87001704703468B4201DA0846704711
:1038E000934201DD1046FAE71846F8E700B589B0C3
:1038F0000121202002F0BEF910208DF823004FF4A2
:103900007F40ADF8200003208DF8220008A9594817
:1039100001F0F4FE4FF48051564801F09EFF4FF441
:103920008041544801F099FF4FF48071514801F0F3
:1039300094FF4FF480614F4801F08FFF4FF4005126
:103940004C4801F08AFF4FF400414A4801F085FFDE
:103950004FF40071474801F080FF4FF40061454883
:1039600001F07BFF0121480302F084F901211020BE
:1039700002F080F918208DF81F004FF47070ADF838
:103980001C0003208DF81E0007A93B4801F0B6FE7D
:103990003A4802F0BDFF0020ADF81600ADF8120065
:1039A00041F63F70ADF814000020ADF810008DF81E
:1039B000180004A9314802F01BFC684602F04DFFD4
:1039C0006020ADF800000020ADF808000120ADF83F
:1039D00002000020ADF806006946284802F045FCC8
:1039E000684602F03AFF6020ADF800000020ADF814
:1039F00008000120ADF802000020ADF8060069467D
:103A00001E4802F074FC684602F027FF6020ADF803
:103A100000000020ADF808000120ADF802000020F1
:103A2000ADF806006946154802F0AEFC684602F0A3
:103A300014FF6020ADF800000020ADF80800012060
:103A40001EE000008FC2753DD00000206F12833A47
:103A5000CDCC4C3D00004040CDCC4C3F000020423E
:103A60009A99193E0000A040000020410078BB4513
:103A7000F00100200014014000100140003401401A
:103A8000ADF802000020ADF806006946FE4802F0DD
:103A9000C6FC0121FC4802F007FF0121FA4802F0B0
:103AA0000FFF09B000BD1FB5F8A103C9CDE90201A0
:103AB000F8A103C9CDE90001052202A9F74801F0E8
:103AC00089F80A2003F00FFC05226946F34801F04B
:103AD00081F80A2003F007FC1FBD70B505460C46AF
:103AE0002146284606F01AFA01D2204670BD84F01D
:103AF00000462946304606F011FA02D284F0004012
:103B0000F4E72846F2E72DE9F04704460D4616464D
:103B10000CB9BDE8F0873146284606F03BFAA061B3
:103B2000D4E9060106F036FA8146A16806F02AF9C2
:103B30000746A169206806F025F98046394605F058
:103B400041FF2062A06905F011FF21F00041074606
:103B50000022D34B05F0DEFD02D20020E06001E040
:103B60000120E060E06806F0ADF88046A169606879
:103B700006F008F98146414606F004F90746216936
:103B800005F020FF2061D4E90401FFF7A6FF2061C2
:103B90002169206A05F016FF2062D4E90801FFF7C9
:103BA0009CFF2062A069E06100BFB2E72DE9F04709
:103BB00004460D4616460CB9BDE8F0873146284646
:103BC00006F0E8F9A061D4E9060106F0E3F907463A
:103BD000216806F0D7F8E060A169606806F0D2F8C5
:103BE00020614FF08040E16906F0CCF88146A16980
:103BF00006F0C5F98046216A05F0E4FE0746A16893
:103C000006F0C0F86061D4E9030105F0DBFE8046F0
:103C1000616905F0D7FE0746616A05F0D3FE606270
:103C2000D4E90901FFF759FF6062E0692062A069E9
:103C3000E06100BFC0E72DE9F0470546894616461A
:103C40001C46DDE908A74FF00008002C0BDDE01949
:103C50001FFA80F84946934801F0FDFD314691482E
:103C600001F0FBFD19E0002C0CDA604238441FFA29
:103C700080F849468B4801F0F0FD3146894801F053
:103C8000EAFD0AE04CB94FF000084946854801F0CA
:103C9000E4FD3146834801F0E0FD524600214046F4
:103CA000FFF719FE8046402D04D14146764803F0C7
:103CB00093F815E0802D04D14146734803F08EF847
:103CC0000EE0B5F5807F04D141466F4803F088F8D7
:103CD00006E0B5F5007F03D141466B4803F082F85A
:103CE000BDE8F0872DE9F04105460C4600276E48F7
:103CF0000068052809DA6C4801680068401C6A4AB7
:103D0000106044F821502F4617E00026B046201DD1
:103D10000FC884E80F00256100BF06E054F82610A4
:103D2000404605F04FFE8046761C052EF6DB5F49C7
:103D3000404605F0B5FE074600BF3846BDE8F081B5
:103D400010B55B48B0F900005A49C8635A48B0F949
:103D500000105848C0F880105848B0F90010554875
:103D6000C0F8C4105648B0F900105248C0F8081105
:103D7000806B5049C96B08444E4988630846C16F3F
:103D8000D0F8800001444B48C167D0F8C010D0F88B
:103D9000C40001444748C0F8C010D0F80411D0F85E
:103DA000080101444348C0F804110146C86B05F0FE
:103DB00089FF04464349FFF795FF3E490864D1F85F
:103DC000800005F07FFF04463F49FFF78BFF39492C
:103DD000C1F88400D1F8C40005F074FF04463B49E3
:103DE000FFF780FF3349C1F8C800D1F8080105F09A
:103DF00069FF04463649FFF775FF2E49C1F80C01EB
:103E000010BD2DE9F04704463249206C05F048FE0C
:103E100081464FF07E5105F0B5FF80464FF07E5150
:103E200005F03EFE07462C4905F0ACFF06462B493F
:103E300005F0A8FF05462A4905F032FE6060BDE89E
:103E4000F08700B593B01B48D0F8480122490C9088
:103E500005F098FF23490D9005F022FE1549C1F8A1
:103E6000700157E01348D0F870011F490D9006F01B
:103E700055F83DD80F48D0F870011B490D9006F059
:103E800089F80C4932E0000000340140FFAA69883B
:103E9000B5000000FFAA76000000000000480040C6
:103EA00000C0724000140140540000200000A040F7
:103EB00046000020D00000204400002048000020E0
:103EC0004A000020100300202403002038030020B3
:103ED0004C03002000005247DB0F49400000F04037
:103EE0000AD7233C00003443DB0FC940C1F87001FE
:103EF000FD48D0F8700100210D9005F00FFF09D2A8
:103F0000F948D0F87001F9490D9005F05BFDF649CC
:103F1000C1F87001F448D0F87001F4490D9005F033
:103F2000FDFF9FD9F048D0F8700100210D9005F0F9
:103F3000F5FE97D3EE480E90EB48006C80F0004001
:103F40000B90E948D0F8840001460A900B9805F0E0
:103F500039FD4FF080410C9005F0A2FD0D900E99B7
:103F600005F010FF1290E048D0F80C010B90DE48ED
:103F7000006C0A900B9905F025FD4FF080410C90E4
:103F800005F08EFD0D900E9905F0FCFE1190D648BF
:103F9000D0F8700100210D9005F0C0FF7ED8D24806
:103FA000D0F87001D3490D9005F0B8FE76D2CE4816
:103FB000D0F8700101460090CE4805F0EBFF01906B
:103FC00005F0D4FCCDE9020104F000FFCDE90601C3
:103FD000119805F0CBFCCDE90401DDE9062305F0DD
:103FE0009BFACDE90A01C048D0F870010146009063
:103FF000C04805F0CFFF019005F0B8FCCDE9020103
:1040000004F032FFCDE90601129805F0AFFCCDE9CE
:104010000401DDE9062305F07FFACDE90801DDE9B9
:104020000A2304F0CFFFCDE90C0104F099FF1090B2
:10403000AD48D0F8700101460090AE4805F0AAFFE7
:10404000019005F093FCCDE9020104F00DFFCDE9EC
:104050000601119805F08AFCCDE90401DDE906238B
:1040600005F05AFACDE90A019F48D0F870010146DF
:104070000090A04805F08EFF019005F077FCCDE997
:10408000020104F0A3FECDE90601129880F0004081
:10409000039005F06BFCCDE9040100E00EE0DDE9E2
:1040A000062305F039FACDE90801DDE90A2304F019
:1040B00089FFCDE90C0104F053FF0F908A48D0F836
:1040C00070018C490D9005F029FF7DD88648D0F805
:1040D000700189490D9005F021FE75D28248D0F813
:1040E00070018449009005F055FF019005F03EFCF9
:1040F000CDE9020104F06AFECDE90601119805F050
:1041000035FCCDE90401DDE9062305F005FACDE92A
:104110000A017548D0F870017649009005F03AFF21
:10412000019005F023FCCDE9020104F09DFECDE9EC
:104130000601129880F00040039005F017FCCDE9CD
:104140000401DDE9062305F0E7F9CDE90801DDE921
:104150000A2304F037FFCDE90C0104F001FF1090B1
:104160006148D0F870016349009005F013FF019099
:1041700005F0FCFBCDE9020104F076FECDE9060175
:10418000119805F0F3FBCDE90401DDE9062305F004
:10419000C3F9CDE90A015448D0F87001554900909F
:1041A00005F0F8FE019005F0E1FBCDE9020104F015
:1041B0000DFECDE90601129880F00040039005F055
:1041C000D5FBCDE9040100E00EE0DDE9062305F0B2
:1041D000A3F9CDE90801DDE90A2305F0DDFACDE90F
:1041E0000C0104F0BDFE0F903F48D0F87001424929
:1041F0000D9005F093FE76D83B48D0F870013F490A
:104200000D9005F08BFD6ED23748D0F870013A4919
:10421000009005F0BFFE019005F0A8FBCDE902017A
:1042200004F022FECDE90601119805F09FFBCDE9CF
:104230000401DDE9062305F06FF9CDE90A012A48FA
:10424000D0F870012C49009005F0A4FE019005F013
:104250008DFBCDE9020104F0B9FDCDE9060112980C
:1042600080F00040039005F081FBCDE90401DDE919
:10427000062305F051F9CDE90801DDE90A2305F02F
:104280008BFACDE90C0104F06BFE10901648D0F8C3
:1042900070011949009005F07DFE019005F066FB64
:1042A000CDE9020104F092FDCDE90601119805F077
:1042B0005DFBCDE90401DDE9062305F02DF9CDE92B
:1042C0000A010948D0F870010B49009005F062FE20
:1042D000019005F04BFBCDE9020104F0C5FDCDE9ED
:1042E000060112980CE01EE0D0000020DB0FC94050
:1042F000FBC8E539DB0FC93FDB0F4940E4CB9640F3
:1043000005F034FBCDE90401DDE9062305F004F9ED
:10431000CDE90801DDE90A2305F03EFACDE90C01FB
:1043200004F01EFE0F90CB48D0F87001CA490D90E2
:1043300005F0F4FD7DD8C748D0F87001C7490D904D
:1043400005F0ECFC7FD2C348D0F87001C249009060
:1043500005F020FE019005F009FBCDE9020104F013
:1043600035FDCDE90601119805F000FBCDE904010A
:10437000DDE9062305F0D0F8CDE90A01B548D0F80B
:104380007001B549009005F005FE019005F0EEFAC8
:10439000CDE9020104F068FDCDE90601129805F0AF
:1043A000E5FACDE90401DDE9062305F0B5F8CDE92C
:1043B0000801DDE90A2305F0EFF9CDE90C0104F06D
:1043C000CFFD1090A348D0F87001A349009005F0EC
:1043D000E1FD019005F0CAFACDE9020104F044FDC7
:1043E000CDE90601119805F0C1FACDE90401DDE936
:1043F000062305F091F8CDE90A019648D0F870013E
:104400009549009005F0C6FD019005F0AFFACDE9A1
:10441000020104F0DBFCCDE90601129805F0A6FAD2
:10442000CDE90401DDE9062305F076F8CDE90801C0
:1044300000E008E0DDE90A2304F0C4FDCDE90C0149
:1044400004F08EFD0F908649109805F029FB8149F4
:10445000C1F8400182490F9805F022FB7D49C1F85F
:104460004401109805F082FACDE90C017949D1F8A0
:104470006001D1F86411CDE90A01DDE90C2304F0F3
:10448000A1FD744AC2F86001C2F864110F9805F0EA
:104490006DFACDE90C016F49D1F86801D1F86C11C2
:1044A000CDE90A01DDE90C2304F08CFD694AC2F86C
:1044B0006801C2F86C111146D1F86001D1F864119D
:1044C000C2F85001C2F854111046D0F86811D0F863
:1044D0006C2100F5A8708160C26013B000BD2DE9A9
:1044E000F041604800685B49C1F848010A46D2F8CB
:1044F0004811D2F8100105F04DFD04465A492046F6
:1045000005F00CFD05D22146584805F05BFA04463B
:1045100016E05749204605F001FC05D221465548D2
:1045200005F050FA04460BE0204605F01FFA21F092
:10453000004105460022504B04F0B2FF00D800BFF6
:104540004448D0F84811204605F03CFA0746414857
:10455000D0F84821394600F5BA70FFF7D4FA3D4843
:10456000D0F894013B49C1F81C01BDE8F0812DE968
:10457000FF5F04460D4616461F46DDE90E89002200
:104580003E4B4046494604F0C7FF82468B463246C2
:104590003B462046294605F0FFF852465B46CDE9EA
:1045A000000104F00FFDCDE9020104F0D9FC294916
:1045B00008600022314B4046494604F0ADFF824678
:1045C0008B4632463B462046294604F0FBFC5246C9
:1045D0005B46CDE9000104F0F5FCCDE9020104F0F1
:1045E000BFFC1C4948640022244B4046494604F065
:1045F00093FF82468B4632463B462046294605F0CD
:10460000CBF852465B46CDE9000105F0C5F8CDE98F
:10461000020104F0A5FC0F49C1F888000022174BE5
:104620004046494604F078FF32463B46CDE900015A
:104630002046294604F0C6FC8246DDE9002305F049
:10464000ABF8CDE9020104F08BFC0249C1F8CC00C3
:10465000BDE8FF9FD0000020E4CB9640DB0FC940AF
:104660000AD7233C4C000020000034430000B4C3B0
:10467000000034C30000B4430080664000003540B1
:1046800003468B4201DA08467047934201DD10462B
:10469000FAE71846F8E700B589B00121C80201F031
:1046A000E9FA0121042001F0E5FA18208DF8230031
:1046B0004FF47060ADF8200003208DF8220008A9A7
:1046C000454801F01BF8454802F022F90020ADF8FA
:1046D0001A00ADF816004720ADF8140044F61F602C
:1046E000ADF8180000208DF81C0005A93B4801F02A
:1046F0007FFD01A802F0B1F86020ADF804000020B1
:10470000ADF80C000120ADF80600ADF80A0001A9D3
:10471000324801F0AAFD01A802F09FF86020ADF830
:1047200004000020ADF80C000120ADF80600ADF843
:104730000A0001A9294801F0DAFD01A802F08DF86C
:104740006020ADF804000020ADF80C000120ADF8A9
:104750000600ADF80A0001A9204801F060FE012121
:104760001E4802F0A1F801211C4802F0A9F809B086
:1047700000BD70B504464FF4FA6060434FF4877192
:1047800090FBF1F000F5FA7085B22946134802F06B
:1047900023FB70BD70B504464FF4FA6060434FF4DC
:1047A000877190FBF1F000F5FA7085B229460B484D
:1047B00002F014FB70BD70B504464FF4FA6060431C
:1047C0004FF4877190FBF1F000F5FA7085B229463D
:1047D000024802F007FB70BD00080140002C0140B8
:1047E000024600BF108900F002000028FAD0918133
:1047F00000BF108900F001000028FAD09089C0B2F3
:10480000704702884FF6C7731A400280012902D10F
:104810000288028003E0028842F0200202800288BF
:1048200042F040020280704700B587B001210920A4
:1048300001F020FA4FF42040ADF8040003208DF879
:10484000060018208DF8070001A91C4800F056FF4B
:104850004FF48040ADF8040048208DF80700032095
:104860008DF8060001A9154800F048FF01218803D2
:1048700001F00DFA0020ADF808004FF48270ADF899
:104880000A000020ADF80C00ADF80E00ADF81000E5
:104890004FF40070ADF812000020ADF81400ADF830
:1048A00016000720ADF8180002A9054801F06CFABF
:1048B0000121034801F00DFB07B000BD000C0140D1
:1048C0000038004010B586B00446012144F20400CF
:1048D00001F0D0F94FF40070ADF8140003208DF80A
:1048E000160018208DF8170005A9CF4800F006FF24
:1048F0004FF48060ADF8140004208DF8170005A96E
:10490000C94800F0FBFE25208DF800000A208DF834
:1049100001008DF8020001208DF80300684600F0C8
:1049200024FE01940020ADF80800ADF80A00ADF8AF
:104930000C00ADF810000C20ADF80E0001A9BB482A
:1049400002F0D3FA012240F22551B84802F065FB8B
:104950000121B64802F055FB06B010BD10B586B077
:1049600004460121480401F092F90121042001F0DC
:1049700081F90420ADF8140003208DF816001820EA
:104980008DF8170005A9A84800F0B8FE0820ADF87A
:10499000140004208DF8170005A9A34800F0AEFE0E
:1049A00026208DF8000009208DF801008DF8020006
:1049B00001208DF80300684600F0D7FD0194002027
:1049C000ADF80800ADF80A00ADF80C00ADF8100025
:1049D0000C20ADF80E0001A9954802F086FA0122DC
:1049E00040F22551924802F018FB0121904802F054
:1049F00008FB06B010BD10B586B00446012188043E
:104A000001F045F90121082001F034F94FF48060EC
:104A1000ADF8140003208DF8160018208DF817004B
:104A200005A9844800F06AFE4FF40060ADF8140058
:104A300004208DF8170005A97E4800F05FFE2720AE
:104A40008DF8000008208DF801008DF8020001208B
:104A50008DF80300684600F088FD01940020ADF851
:104A60000800ADF80A00ADF80C00ADF810000C20FD
:104A7000ADF80E0001A9704802F037FA012240F2A9
:104A800025516D4802F0C9FA01216B4802F0B9FACC
:104A900006B010BD10B586B004460121C80401F06F
:104AA000F6F80121102001F0E5F84FF48060ADF830
:104AB000140003208DF8160018208DF8170005A9A2
:104AC0005E4800F01BFE4FF40060ADF814000420B7
:104AD0008DF8170005A9594800F010FE34208DF814
:104AE000000007208DF801008DF8020001208DF8EC
:104AF0000300684600F039FD01940020ADF808007D
:104B0000ADF80A00ADF80C00ADF810000C20ADF8BF
:104B10000E0001A94A4802F0E8F9012240F22551AD
:104B2000474802F07AFA0121454802F06AFA06B0D5
:104B300010BD10B586B004460121080501F0A7F8A4
:104B40000121102001F096F80121202001F092F8B7
:104B50004FF48050ADF8140003208DF81600182093
:104B60008DF8170005A9354800F0C8FD0420ADF800
:104B700014008DF8170005A9324800F0BFFD35205C
:104B80008DF8000006208DF801008DF8020001204C
:104B90008DF80300684600F0E8FC01940020ADF8B1
:104BA0000800ADF80A00ADF80C00ADF810000C20BC
:104BB000ADF80E0001A9244802F097F9012240F255
:104BC0002551214802F029FA01211F4802F019FA63
:104BD00006B010BD70B506460C4615460DE02178AE
:104BE000304602F07BFA681E85B2641C00BF40218B
:104BF000304602F0E1FA0128F9D1002DEFD170BD65
:104C000070B505460C460BE014F8011B284602F06F
:104C100065FA00BF4021284602F0CEFA0128F9D1FA
:104C200020780028F0D170BD000801400038014014
:104C300000440040000C01400048004000100140CA
:104C4000004C004000140140005000401FB50121FD
:104C5000102001F01CF83A4801F05AFE0020ADF88F
:104C60000A00ADF8060040F2E730ADF8080040F267
:104C7000CF20ADF8040000208DF80C0001A93048C9
:104C800001F0B6FA01212E4802F0D4F801221146B3
:104C90002B4801F024FE4FF4A06000F061FC3620A8
:104CA0008DF8000001208DF8030003208DF801002D
:104CB00002208DF80200684600F057FC01212048D0
:104CC00001F0F2FD1FBD1FB50121202000F0DFFF24
:104CD0001C4801F01DFE0020ADF80A00ADF80600EA
:104CE00042F20F70ADF8080040F2CF20ADF804009A
:104CF00000208DF80C0001A9124801F079FA012179
:104D0000104802F097F8012211460E4801F0E7FD25
:104D10004FF4A06000F024FC37208DF80000012043
:104D20008DF8030005208DF8010004208DF80200A5
:104D3000684600F01AFC0121024801F0B5FD1FBDD4
:104D4000001000400014004008B50121482000F088
:104D500091FF4FF44870ADF8000010208DF803006B
:104D600003208DF8020069460E4800F0C7FC2021A0
:104D70000C4800F070FD4FF480710A4800F06BFDA4
:104D80004FF40071074800F066FD2020ADF80000E8
:104D90006946054800F0B2FC2021034800F05BFDA5
:104DA00008BD0000000C01400018014070B5054628
:104DB0000E4614463146284604F0B0FF01D2304674
:104DC00070BD2146284605F0A9F801D22046F7E734
:104DD0002846F5E700206549086048608860C8609B
:104DE000086148618861C861086248628862C86277
:104DF0005F49086048608860C860086148618861F0
:104E0000C861086248628862C8625A49086048609E
:104E10008860C860086148618861C861086248624A
:104E20008862C8625449086048608860C860086148
:104E300048618861C861086248628862C8627047D8
:104E400070B504460D462946206A04F0BBFD206279
:104E5000E06880F0004602463146206AFFF7A6FF70
:104E600020622946206804F08DFF2061216A606875
:104E700004F088FF60612846616A05F08BF80646F9
:104E8000A16804F07FFFA0616562D4E9040104F029
:104E900099FD0646A16904F095FDE061E06970BDE9
:104EA0002DE9F04104460D462846616A05F072F886
:104EB0000646216804F066FF20612946606804F018
:104EC00061FF60612846616A05F064F80746A16ADF
:104ED00005F060F80646A16804F054FFA06128467A
:104EE000616A05F057F8A0626562D4E9040104F034
:104EF00069FD0746A16904F065FD0646E16904F015
:104F000061FDE061E069BDE8F0812DE9F041044612
:104F10000D462846616A05F03DF80646216804F012
:104F200031FF20612946606804F02CFF606128464B
:104F3000616A05F02FF80746A16A05F02BF80646CE
:104F4000A16804F01FFFA0612846616A05F022F8FD
:104F5000A0626562D4E9040104F034FD0646A1694B
:104F600004F030FDE061E069BDE8F08194030020C9
:104F7000C4030020F4030020240400207FB505466C
:104F80000C46002000900190029003908DF80040A4
:104F90000A208DF801006D208DF802006B208DF83D
:104FA0000300042269462846FFF714FE7FBD7FB543
:104FB00005460C46002000900190029003908DF869
:104FC00000400E208DF8010052208DF802006B2069
:104FD0008DF80300042269462846FFF7FBFD7FBDDC
:104FE0002DE9FF4107460E4615460024002000909B
:104FF0000190029003900DF80460641C112D68D29A
:10500000DFE805F0090F151B672167272D33393FAE
:105010006745515C4B001F200DF80400601CC4B2B2
:1050200058E020200DF80400601CC4B252E021209A
:105030000DF80400601CC4B24CE024200DF80400FC
:10504000601CC4B246E027200DF80400601CC4B206
:1050500040E031200DF80400601CC4B23AE0332077
:105060000DF80400601CC4B234E035200DF80400D3
:10507000601CC4B22EE036200DF80400601CC4B2DF
:1050800028E037200DF80400601CC4B222E03A206A
:105090000DF80400601CC4B21CE03B200DF80400B5
:1050A000601CC4B216E042200DF80400601CC4B2BB
:1050B0006C200DF80400601CC4B20BE043200DF816
:1050C0000400601CC4B27A200DF80400601CC4B255
:1050D00000E000BF00BF6B200DF80400601CC4B2EC
:1050E000224669463846FFF775FDBDE8FF812DE988
:1050F000FF4107460C4615461E46002000900190D1
:10510000029003908DF8004046208DF80100692040
:105110008DF802008DF803508DF804606B208DF837
:105120000500062269463846FFF754FDBDE8FF81B9
:105130002DE9FF4107460C4615461E46002000900B
:105140000190029003908DF80040F3208DF801004B
:10515000AB208DF802008DF803508DF804606B20B1
:105160008DF80500062269463846FFF733FDBDE895
:10517000FF812DE9FF4707460D4616461C46DDE92F
:105180000C89002000900190029003908DF800504F
:10519000F6208DF801008DF8026020128DF80300D2
:1051A000E0B28DF804008DF805808DF806906B2034
:1051B0008DF80700082269463846FFF70BFDBDE869
:1051C000FF872DE9FF5F80460E4617461D46DDE945
:1051D00010ABDDE90E940020009001900290039046
:1051E0008DF80060FD208DF801008DF80270281206
:1051F0008DF80300E8B28DF804008DF80590200EBC
:105200008DF80600200C8DF80700200A8DF80800A4
:10521000E0B28DF809008DF80AA08DF80BB06B2074
:105220008DF80C000D2269464046FFF7D3FCBDE81F
:10523000FF9F7FB506460C46154600200090019062
:10524000029003908DF80040FE208DF80100982018
:105250008DF802008DF803506B208DF804000522B4
:1052600069463046FFF7B6FC7FBD7FB505460C4664
:10527000002000900190029003908DF80040FF20E4
:105280008DF8010066208DF802006B208DF8030078
:10529000042269462846FFF79DFC7FBD7FB5064680
:1052A0000C461546002000900190029003908DF866
:1052B000004093208DF8010088208DF802008DF8C1
:1052C00003506B208DF80400052269463046FFF735
:1052D00081FC7FBD2DE9FF4F89B00D4616461F4664
:1052E00018AC94E8100EDDF85C80202101A802F0D3
:1052F0005CF98DF804504C208DF80500AE208DF837
:1053000006008DF807608DF8087016988DF8090072
:105310004FEA28208DF80A0008F0FF008DF80B00F6
:10532000200E8DF80C00200C8DF80D00200A8DF851
:105330000E00E0B28DF80F004FEA29208DF8100022
:1053400009F0FF008DF811004FEA2A208DF81200B5
:105350000AF0FF008DF813004FEA2B208DF814009F
:105360000BF0FF008DF815001C988DF816006B20CF
:105370008DF81700142201A90998FFF72BFC0DB036
:10538000BDE8F08F2DE9FF4107460C4615461E4645
:10539000002000900190029003908DF800409A2028
:1053A0008DF801008DF802508DF803606B208DF8A8
:1053B0000400052269463846FFF70CFCBDE8FF8172
:1053C0007FB505460C4600200090019002900390A6
:1053D0008DF800409C208DF8010048208DF80200D7
:1053E0006B208DF80300042269462846FFF7F2FB84
:1053F0007FBD000008B50121402000F03BFC0720E4
:10540000ADF8000048208DF803006946354800F0EB
:1054100075F90121042000F02DFC0121084600F05F
:1054200029FC0121304800F03AFA48208DF80300A9
:1054300002208DF802008003ADF8000069462B4879
:1054400000F05CF908BD10B52948007829490870BA
:1054500029480078294908702948007829490870A6
:10546000294800782949087001211E4800F0D9F91F
:105470001F49087002211B4800F0D3F91E4908702B
:105480000421184800F0CDF91D4908704FF400417F
:10549000164800F0C6F91C4908701548007828B174
:1054A0001448007810B90120194908701248007892
:1054B00028B11248007810B9012016490870104828
:1054C000007828B10F48007810B9012012490870FF
:1054D0000D48007828B10D48007810B901200F4917
:1054E000087010BD001801400002300000080140A3
:1054F000800000208600002081000020870000201E
:105500008200002088000020830000208900002005
:105510008C0000208D0000208E0000208F000020D5
:105520000948804709480047FEE7FEE7FEE7FEE737
:10553000FEE7FEE7FEE7FEE7FEE7FEE70448054973
:10554000054A064B70470000671E0008310100083D
:10555000B8040020B80A0020B8060020B8060020D1
:1055600031490143314A1160704770B50021002371
:105570000F22C47804B32D4C246804F4E064C4F50D
:10558000E064210AC1F10403CA40447804FA03F13B
:105590008478144021430901254C0678A1550478EC
:1055A00004F01F050124AC4005786D11AD0005F134
:1055B000E025C5F8004109E0047804F01F05012446
:1055C000AC401C4D0678761145F8264070BD1A4A4D
:1055D0000A400243154B1B1F1A60704739B1134A2A
:1055E000121D12680243114B1B1D1A6006E00F4A80
:1055F000121D126882430D4B1B1D1A607047042850
:1056000008D14FF0E021096941F004014FF0E02298
:10561000116107E04FF0E021096921F004014FF02A
:10562000E0221161704700000000FA050CED00E077
:1056300000E400E080E100E080FFFF1F10B50446B9
:10564000CC48844208D10121042000F02DFB002128
:10565000042000F029FB46E0C748844208D101211C
:10566000082000F021FB0021082000F01DFB3AE09B
:10567000C248844208D10121102000F015FB00210E
:10568000102000F011FB2EE0BD48844208D101211A
:10569000202000F009FB0021202000F005FB22E083
:1056A000B848844208D10121402000F0FDFA0021D1
:1056B000402000F0F9FA16E0B348844208D10121F5
:1056C000802000F0F1FA0021802000F0EDFA0AE0DD
:1056D000AE48844207D10121801500F0E5FA00218F
:1056E000A01500F0E1FA10BD10B50121084600F048
:1056F000DBFA0021012000F0D7FA10BD2DE9F041BE
:10570000024600250026002000230024002791F8EF
:1057100003C00CF00F0591F803C00CF0100CBCF1A5
:10572000000F03D091F802C04CEA050591F800C0C3
:10573000BCF1000F31D0146800202BE04FF0010CB9
:105740000CFA00F3B1F800C00CEA03069E4220D127
:1057500083004FF00F0C0CFA03F7BC4305FA03FC6F
:105760004CEA040491F803C0BCF1280F06D14FF0B5
:10577000010C0CFA00FCC2F814C00AE091F803C056
:10578000BCF1480F05D14FF0010C0CFA00FCC2F837
:1057900010C0401C0828D1D31460B1F800C0BCF17F
:1057A000FF0F34DD546800202EE000F1080C4FF0AC
:1057B000010808FA0CF3B1F800C00CEA03069E4297
:1057C00021D183004FF00F0C0CFA03F7BC4305FA0C
:1057D00003FC4CEA040491F803C0BCF1280F05D186
:1057E00000F1080C08FA0CF8C2F8148091F803C014
:1057F000BCF1480F07D100F1080C4FF0010808FA7E
:105800000CF8C2F81080401C0828CED35460BDE8C4
:10581000F0814FF6FF710180022181700421C17077
:1058200070470246002093680B400BB1012000E056
:10583000002070470146886880B270470246002009
:10584000D3680B400BB1012000E0002070470146F7
:10585000C86880B2704701617047416170470AB102
:10586000016100E041617047C16070474FF48032D0
:105870000A4382618161826182698269704702465E
:105880000020434B18684FF68073184040EA02101E
:1058900008433F4B186070473E49C8617047F0B5F8
:1058A0000A46002300240021002500F00046B6F13E
:1058B000004F02D1364EF16901E0354E7168C0F3F8
:1058C000034583B200F44016B6F5401F08D121F01D
:1058D00070612F4E766826F070662D4F7E6012E064
:1058E00000F48016B6F5801F06D1032606FA05F4EB
:1058F000A14341F0706106E0460D360103FA06F659
:10590000B14341F0706122B1460D360103FA06F64B
:10591000314300F00046B6F1004F02D11C4EF16158
:1059200001E01B4E7160F0BD30B500228B071C0FEB
:105930000F2303FA04F2164B08338C1053F824306B
:105940009343134C08348D1044F8253023468C10B3
:1059500053F824308C07240F00FA04F423430C4C32
:1059600008348D1044F8253030BD0A49DC31086018
:105970007047000000080140000C01400010014089
:105980000014014000180140001C014000200140AB
:105990000000014000002042DF48006840F00100A4
:1059A000DD49086008464068DC490840DA4948603B
:1059B00008460068DA490840D74908600846006888
:1059C00020F4802008600846406820F4FE0048600B
:1059D0004FF41F0088607047CF49096821F4803177
:1059E000CD4A11601146096821F480211160B0F59B
:1059F000803F03D0B0F5802F0ED106E0C64909687C
:105A000041F48031C44A116007E0C349096841F498
:105A1000A021C14A116000E000BF00BF704710B56F
:105A200001460022002300204A11012A02D1BA4C6B
:105A3000236806E0022A02D1B74C236A01E0B64C83
:105A4000636A01F01F02012494401C400CB1012044
:105A500000E0002010BD38B5002000900024002593
:105A600000BF3120FFF7DBFF05460098401C009087
:105A70000098B0F5A06F01D0002DF2D03120FFF7D3
:105A8000CEFF08B1012400E00024204638BD0146C5
:105A90000020A14A106820F0F80040EAC100106020
:105AA0007047A04908607047024600209A4B58682A
:105AB00020F47C1042EA01031843974B586070476A
:105AC00098490866704701460020934A506820F0C4
:105AD00003000843506070478F48406800F00C0096
