:020000040800F2
:10000000C80A0020C1550008111D0008131D000872
:10001000171D00081B1D00081F1D00080000000020
:10002000000000000000000000000000231D000888
:10003000251D000800000000271D0008291D0008DC
:10004000DB550008DB550008DB550008DB550008D0
:10005000DB550008DB550008DB550008DB550008C0
:10006000DB550008DB550008DB550008DB550008B0
:10007000DB550008DB550008DB550008DB550008A0
:10008000DB550008DB550008DB550008DB55000890
:10009000DB550008DB550008DB550008DB55000880
:1000A000DB550008DB550008DB550008DB55000870
:1000B000DB550008DB550008DB550008DB55000860
:1000C000DB550008DB550008DB550008DB55000850
:1000D000DB5500089F1A0008C31A0008271B0008F8
:1000E000DB550008DB550008DB550008DB55000830
:1000F000DB550008DB550008DB550008DB55000820
:10010000DB550008DB550008DB550008DB5500080F
:100110001D1C0008431C00080F160008F9100008F9
:10012000DB550008DB550008DB550008DB550008EF
:1001300000F002F800F04DF80AA090E8000C8244AC
:100140008344AAF10107DA4501D100F042F8AFF289
:10015000090EBAE80F0013F0010F18BFFB1A43F0A5
:100160000103184770CA000090CA0000103A24BF6B
:1001700078C878C1FAD8520724BF30C830C144BF0C
:1001800004680C607047000000230024002500264E
:10019000103A28BF78C1FBD8520728BF30C148BFEA
:1001A0000B607047662909F0BA86642907F056810A
:1001B000632907F0FA84002070471FB507F002FD9D
:1001C00004000020002108F019FEE0601FBD10B5FA
:1001D00010BD07F0FBFD1146FFF7EFFF00F0ADFA91
:1001E00007F019FE03B4FFF7F2FF03BC07F05CFE53
:1001F0002DE9FC5F06460EB9BDE8FC9F354601249B
:10020000612D05DB7A2D03DCA5F12000C5B204E0E9
:10021000412D02DB5A2D00DC002446274FF0FA085E
:1002200007EB080000EBD0714FEA61094FF0000ABC
:100230004FF4877BA5F130002B2874D2DFE800F063
:10024000237373F0EFEEED737373737373737373E0
:1002500073B265ECCCEB4BEAE9E8E7E680E5E4E372
:10026000E2E19917E0FDDEDD16DCDB0000BF0020D7
:10027000FD490860FD490860FD4908600120FD490D
:1002800081F83C0253E22CB30020F7490860F7499B
:100290000860F74908600120F64981F83C02002215
:1002A0000121F54804F0B3FF0020F44908706FF015
:1002B0006300F34908600120F2490870F2480088A1
:1002C000F2490880F2480088F2490880F248008824
:1002D000F24908802BE264B10020E3490860F0484D
:1002E000E24908600020E2490860E24981F83C02E6
:1002F0000AE00020DC490860DC490860DC4908604D
:100300000120DC4981F83C0211E26CB10020D649A1
:100310000860E448D54908600020D5490860D549FF
:1003200081F83C020BE001E20020CF490860CF4990
:100330000860CF4908600120CE4981F83C02F6E10F
:100340005CB1D848C84908600020C8490860C8495D
:100350000860C84981F83C020AE00020C2490860F0
:10036000C2490860C24908600120C24981F83C02C4
:10037000DDE15CB1CA48BC4908600020BB490860A7
:10038000BB490860BB4981F83C020AE00020B6493D
:100390000860B6490860B64908600120B54981F88F
:1003A0003C02C4E164B10020AF490860AF49086075
:1003B000BD48AF4908600020AE4981F83C020AE020
:1003C0000020A9490860A9490860A94908600120DE
:1003D000A84981F83C02AAE11CB30020A2490860A8
:1003E000A24908604FF07E50A14908600020A14951
:1003F00081F83C0220E04EE00EE1C8E054E01CE051
:10040000F6E0C9E08FE087E02EE0DDE09FE092E0DB
:10041000B3E0B7E0ACE0CBE0A5E05CE06EE155E135
:100420000EE10020904908609049086090490860FA
:100430000120904981F83C0279E164B100200090EC
:10044000C8230822012101908B4804F080FE01207E
:100450008A49087007E000220121874804F0D7FE8E
:1004600000208649087062E164B100200090C82332
:10047000024601210190804804F069FE01207F4975
:10048000087007E0002201217B4804F0C0FE002034
:100490007A4908704BE100220121774804F0B7FE49
:1004A00000207649087042E164B1002000901E23CC
:1004B000024601210190704804F049FE01206F4975
:1004C000087007E0002201216B4804F0A0FE002024
:1004D0006A4908702BE175A1764804F07FFB002281
:1004E0000121654804F093FE322006F04CFF012103
:1004F000614804F031FD322006F045FF01215E48DD
:1005000004F043FD322006F03EFF00230122114695
:10051000594804F0FBFD0AE124B196205A490880AD
:100520005A49088003E12CB14FF482705649088083
:1005300056490880FBE04CB1554909881E3188B204
:100540004246394604F078F851490880EFE04CB152
:100550004F4909881E3988B24246394604F06CF882
:100560004B490880E3E014B1FA204A490880DEE0F4
:1005700014B1FA2047490880D9E014B14620454912
:100580000880D4E014B1D22042490880CFE014B1F1
:10059000B42040490880CAE04CB1404909887D3107
:1005A00088B25A46514604F047F83C490880BEE0FC
:1005B0004CB13A4909887D3988B25A46514604F00F
:1005C0003BF836490880B2E08CB1FA203A490880FD
:1005D0006FF003002A49086000202349086023497E
:1005E0000860234908600120224981F83C029EE00E
:1005F0008CB1D220304908806FF003002049086098
:10060000002019490860194908601949086001204B
:10061000184981F83C028AE08CB1B4202649088050
:100620006FF003001649086000200F4908600F4969
:1006300008600F49086001200E4981F83C0276E00D
:10064000F4B3FA201C49088040F6B8301B490880F2
:100650006FF00A000A490860002003490860034956
:100660000860034908602CE00C0000201000002006
:1006700014000020E0000020004400400B00002097
:10068000000000200A000020640000201800002064
:1006900066000020680000206A0000201A00002088
:1006A0000000F0410000F0C1000080BF52455345FA
:1006B000540D0A00005000400600002008000020F1
:1006C00003E00120FE4981F83C0230E0ACB1D220C9
:1006D000FC4908804FF47A60FB4908806FF00A00FB
:1006E000FA4908600020FA490860FA490860FA49A6
:1006F00008600120F24981F83C0218E0ACB1B42056
:10070000F04908804FF47A60EF4908806FF00A00E2
:10071000EE4908600020EE490860EE490860EE49A5
:1007200008600120E64981F83C0200E000BF00BFFC
:100730000020EA49087000BF5EE596B001F065FB55
:1007400006F0E4FD04F0EEFA01F0E0FB4FF4E130D6
:1007500004F0F2F84FF4165004F03BF94FF4165041
:1007600004F0D5F903F094F803F0A4FF02F012FEB0
:1007700004F02EFE03F06BF902F03AFF0023012291
:100780001146D74804F0C2FC0420D64908704FF443
:10079000FA7006F0F8FD04F047FA072006F0F3FDC2
:1007A00004F07FFA4FF47A7006F0EDFD4620CE4952
:1007B0000880CE4908809620CD490880CD49088020
:1007C000CB48008803F065FFFEE304200D90102065
:1007D0000C90BB48806C099009F02CF8CDE90A0117
:1007E00001460B98CDE90010C348B0F90020C3A121
:1007F0000EA806F0F5FD002010210EAACDE900217B
:1008000002900D984FF6E0731F2201460B900220D4
:1008100002F092FADDE90C1008440D90A848406CF3
:10082000099009F007F802460B46CDE90A01B7A185
:100830000EA806F0D5FD002010210EAACDE900215A
:1008400002900D984FF6E0731F2201460B90022094
:1008500002F072FADDE90C1008440D9098484068E7
:10086000099008F0E7FFCDE90A01CDE90001AA48A7
:10087000B0F90020A9A10EA806F0B2FD00201021B9
:100880000EAACDE9002102900D984FF6E0731F22C9
:1008900001460B90022002F04FFADDE90C100844EB
:1008A0000D9087480068099008F0C4FF02460B4687
:1008B000CDE90A019DA10EA806F092FD00201021AD
:1008C0000EAACDE9002102900D984FF6E0731F2289
:1008D00001460B90022002F02FFADDE90C100844CB
:1008E0000D907748D0F8D000099008F0A3FFCDE92B
:1008F0000A0101460B98CDE900108F48B0F900209D
:100900008EA10EA806F06CFD002010210EAACDE9E4
:10091000002102900D984FF6E0731F2201460B90C4
:10092000022002F009FADDE90C1008440D90644839
:10093000D0F8CC00099008F07DFF02460B46CDE9C7
:100940000A0182A10EA806F04BFD002010210EAA7C
:10095000CDE9002102900D984FF6E0731F22014669
:100960000B90022002F0E8F9DDE90C1008440D902C
:100970005348D0F88C00099008F05CFFCDE90A01DB
:10098000CDE900017448B0F9002074A10EA806F06A
:1009900027FD002010210EAACDE9002102900D981C
:1009A0004FF6E0731F2201460B90022002F0C4F9BB
:1009B000DDE90C1008440D904148D0F888000990FA
:1009C00008F038FF02460B46CDE90A0167A10EA8E0
:1009D00006F006FD002010210EAACDE900210290AC
:1009E0000D984FF6E0731F2201460B90022002F093
:1009F000A3F9DDE90C1008440D905F48006808F089
:100A000019FF02460B46CDE90A015CA10EA806F0CB
:100A1000E7FC002010210EAACDE9002102900D98DC
:100A20004FF6E0731F2201460B90022002F084F97A
:100A30002348D0F81001099008F0FCFE02460B464E
:100A4000CDE90A0150A10EA806F0CAFC0020102131
:100A50000EAACDE9002102900D984FF6E0731F22F7
:100A600001460B90782002F067F9DDE90C1008448C
:100A70000D901348D0F84001099008F0DBFE0246C3
:100A80000B46CDE90A0142A10EA806F0A9FC002000
:100A900010210EAACDE9002102900D984FF6E073C7
:100AA0001F2201460B90022002F046F90448D0F8BC
:100AB0001401099008F0BEFE02460B466EE00000ED
:100AC000E0000020060000200800002000000020B8
:100AD0000C00002010000020140000200500002061
:100AE00000440040720000206800002066000020E2
:100AF000640000201800002044000020565F464C8F
:100B00003A2564202C2566202000000054464C5FC6
:100B1000563A25662020000046000020565F4652C7
:100B20003A2564202C256620200000005446525FA0
:100B3000563A2566202000004A000020565F4252A7
:100B40003A2564202C256620200000005442525F84
:100B5000563A25662020000048000020565F424C8F
:100B60003A2564202C2566202000000054424C5F6A
:100B7000563A2566202000004C0000205941573A83
:100B80002566202020000000543A25662020200001
:100B9000765F783A2566202020000000CDE90A0122
:100BA000AFF21C010EA806F01BFC002010210EAABB
:100BB000CDE9002102900D9880B24FF6E0731F221C
:100BC00001460B90782002F0B7F8DDE90C100844DC
:100BD0000D90FE48D0F84401099008F02BFE024623
:100BE0000B46CDE90A01FAA10EA806F0F9FB002098
:100BF00010210EAACDE9002102900D9880B24FF687
:100C0000E0731F2201460B90022002F095F8EF4896
:100C1000D0F81801099008F00DFE02460B46CDE908
:100C20000A01EEA10EA806F0DBFB002010210EAA9F
:100C3000CDE9002102900D9880B24FF6E0731F229B
:100C400001460B90782002F077F8DDE90C1008449B
:100C50000D90DE49D1F86001D1F8641102460B46CF
:100C6000CDE90A01DFA10EA806F0BAFB0020102191
:100C70000EAACDE9002102900D9880B24FF6E073E4
:100C80001F2201460B90022002F056F8CF49D1F8FE
:100C90003001D1F8341102460B46CDE90A01D4A146
:100CA0000EA806F09DFB002010210EAACDE9002120
:100CB00002900D9880B24FF6E0731F2201460B9010
:100CC000962002F039F8DDE90C1008440D90BF4978
:100CD000D1F86801D1F86C1102460B46CDE90A0142
:100CE000C5A10EA806F07CFB002010210EAACDE9BC
:100CF000002102900D9880B24FF6E0731F2201464A
:100D00000B90022002F018F8B049D1F83801D1F860
:100D10003C1102460B46CDE90A01B5A10EA806F02A
:100D20005FFB002010210EAACDE9002102900D9852
:100D300080B24FF6E0731F2201460B90962001F01F
:100D4000FBFFDDE90C1008440D90A048D0F81C0111
:100D5000099008F06FFD02460B46CDE90A01A9A1F2
:100D60000EA806F03DFB002010210EAACDE90021BF
:100D700002900D9880B24FF6E0731F2201460B904F
:100D8000022001F0D9FFDDE90C1008440D90A048C5
:100D900000680A21B0FBF1F201FB12000B909C48A5
:100DA0000068B0FBF1F0B0FBF1F201FB12000A9019
:100DB000974800686421B0FBF1F10A20B1FBF0F222
:100DC00000FB12100990924800684FF47A71B0FB52
:100DD000F1F00A22B0FBF2F102FB110008908C48FE
:100DE000006842F21071B0FBF1F20A20B2FBF0F1A0
:100DF00000FB11200790864800688649B0FBF1F09F
:100E00000690DDE90823DDE90A10CDE90123CDE9EB
:100E10000310079800907E48069B7FA102680EA8E9
:100E200006F0DEFA002010210EAACDE90021029082
:100E30000D9880B24FF6E0731F2201460B900220FE
:100E400001F07AFFDDE90C1008440D9079487AA191
:100E500002680EA806F0C4FA002010210EAACDE9FF
:100E6000002102900D9880B24FF6E0731F220146D8
:100E70000B90022001F060FF002010210EAACDE9A6
:100E8000002102900D9880B24FF6E0731F220146B8
:100E90000B90502001F050FFDDE90C1008440D903C
:100EA0006848027868A10EA806F09AFA002010217E
:100EB0000EAACDE9002102900D9880B24FF6E073A2
:100EC0001F2201460B90022001F036FF6048027895
:100ED00060A10EA806F084FA002010210EAACDE928
:100EE000002102900D9880B24FF6E0731F22014658
:100EF0000B902A2001F020FF5848027858A10EA834
:100F000006F06EFA002010210EAACDE90021029011
:100F10000D9880B24FF6E0731F2201460B905220CD
:100F200001F00AFF5048027850A10EA806F058FAC6
:100F3000002010210EAACDE9002102900D9880B268
:100F40004FF6E0731F2201460B907A2001F0F4FE69
:100F50004848027848A10EA806F042FA0020102165
:100F60000EAACDE9002102900D9880B24FF6E073F1
:100F70001F2201460B90A22001F0DEFEDDE90C10DD
:100F800008440D903E48007801281ED1DDE90C1080
:100F900008440D90002010213AA2CDE900210290D2
:100FA0000D9880B24FF6E0731F2201460B9002208D
:100FB00001F0C2FE02F04BFD02F01AFB00200349D3
:100FC00081F83C022E4963E094E062E0E0000020FA
:100FD000765F793A2566202020000000543A256685
:100FE000200000006E6F775F783A256620200000B1
:100FF000543A252E326620006E6F775F793A256667
:1010000020202000765F773A25662020200000000F
:1010100078000020A086010051525F636F64653A3A
:1010200025642C20256425642564256425642564B5
:1010300020202000000000207461736B3A2564209A
:10104000000000006C00002075313A25632000008C
:101050006D00002075323A25632000006E000020EC
:1010600075333A25632000006F00002075343A255F
:10107000632000007000002075353A2563200000D1
:10108000980000206B6579315F666C616700000035
:101090000870FE480078012820D1DDE90C100844D2
:1010A0000D9000201021FAA2CDE9002102900D98A8
:1010B00080B24FF6E0731F2201460B90022001F030
:1010C0003BFEF64890F83C0208B9012000E0002001
:1010D000F24981F83C020020EC490870F0480068B1
:1010E00008B9012100E00021ED480160012006F06F
:1010F0004AF900BFFFF769BB1FB50121E94805F0B8
:10110000ECFE012872D1E8480068401CE6490860FE
:1011100008460068E5490968401A022807D34821B3
:10112000E34806F02BF8E0480068E0490860DE4834
:101130000068E0490968401A012815D90020DE49F5
:101140000860DE490860DE4908600120D34981F863
:101150003C02DC48007838B10020DA4908700022EF
:101160000121D94804F053F8D8480088D8490988A3
:1011700088420BDAD5490988891C88B24FF48272FB
:10118000962103F059FAD149088019E0CF48008828
:10119000CF490988884213DDCC480088022804DD45
:1011A000CA480088801E80B200E0962004464FF4B2
:1011B00082729621204603F03FFAC449088000BF9E
:1011C000C4480088C4490988884210DAC1480088A8
:1011D0000A30C049088008460088BF49098888420B
:1011E00019DDBD480088BB49088014E00EE2B9480B
:1011F0000088B949098888420DDDB64800880A2868
:1012000005DDB44800880A38B249088003E0B248D6
:101210000088B0490880B1480088B14909888842EF
:101220000FDAAE480088401DAC49088008460088A7
:10123000AB490988884218DDA9480088A749088079
:1012400013E0A6480088A649098888420DDDA34816
:101250000088052805DDA1480088401F9F490880B7
:1012600003E09F4800889D4908809E480068001D53
:1012700098B9002041F28832CDE9000202904FF483
:10128000FA730246012103908F4803F088FF002083
:1012900085490860C01E9349086092480068C01CD8
:1012A00078B9814800680A280BD34FF482708749C7
:1012B00008808749088000207B490860801E894992
:1012C000086088480068801CB8B9774800680A2818
:1012D00013D3002041F28832CDE9000202904FF48E
:1012E000FA73082201210390774803F058FF002089
:1012F0006D490860401E7B4908607A480068401CC0
:1013000060B9694800680A2808D37748008872499C
:1013100008800020644908607249086071480068CC
:10132000B8B961480068192813D3002040F6B832D4
:10133000CDE9000202904FF4FA73024601210390B6
:10134000614803F02CFF00205749086001206549DF
:1013500008606448006801280ED1534800680528D9
:101360000AD39620594908805949088000204E49DF
:10137000086002205B4908605A480068022819D1B9
:10138000494800680A2815D358480078401C0321B2
:1013900090FBF1F201FB120054490870544809789F
:1013A00030F811004E49088000203F4908600320B2
:1013B0004C4908604B48006803281AD13A48006835
:1013C000142816D3002040F6B832CDE9000202906E
:1013D0004FF4FA730822012103903B4803F0DFFE2B
:1013E00046203D49088000202F49086004203D49DF
:1013F00008603C48006804280AD12B480068192876
:1014000006D36FF06300374908600120394908703E
:10141000344800680B30B0B934480078401C0321D0
:1014200090FBF1F201FB1200304908703048097856
:1014300030F811002A49088000201B4908606FF02D
:10144000090028490860274800680A3070B9164822
:10145000006814280AD3244800881F490880002007
:10146000114908606FF008001E4908601D480068B7
:10147000093048B90C48006819284FD300211E4A8A
:101480001288CDE9001239E048E000009900002000
:101490006B6579325F666C6167000000E0000020D8
:1014A0009481214200140040880000202000002088
:1014B000005000401C0000200C0000201000002004
:1014C000140000200B0000200044004064000020B5
:1014D0001800002066000020680000206A0000203C
:1014E0001A00002000000020060000200400002058
:1014F00012A000080A0000200800002002914FF40A
:10150000FA730A4603910121FE4803F048FE0020C9
:10151000FD4908606FF00700FC490860FB4800685F
:10152000083078B9F848006806280BD34FF4827069
:10153000F7490880F74908800020F3490860C01F78
:10154000F2490860F1480068C01DB8B9EE4800686B
:101550000A2813D3002040F6B832CDE900020290E9
:101560004FF4FA73082201210390E64803F017FEB6
:101570000020E5490860801FE4490860E3480068EE
:10158000801D60B9E0480068062808D34620E2497B
:1015900008800020DC490860401FDC490860DB4807
:1015A0000068401DB8B9D8480068192813D3002036
:1015B00041F28832CDE9000202904FF4FA730246FC
:1015C00001210390CF4803F0EAFD0020CE490860D6
:1015D0000420CE490860CD48006804280AD1CA48D2
:1015E00000680A2806D36FF06300C849086001202C
:1015F000CA490870CA48006808B9012000E0002004
:10160000C74908600121C74805F078FC1FBD2DE9D6
:10161000FC470121C44805F060FC01287ED1C34885
:1016200005F049FC00B2C2490880C24805F043FCFD
:10163000404200B2C04908804FF0804005F03BFCBA
:1016400000B2BE490880BE4805F035FC00B2BD4975
:10165000088000214FF0804005F00AFC0021B848C6
:1016600005F006FC0021B14805F002FC0021B1485C
:1016700005F0FEFB02F036FBB34802F098FBB248DF
:10168000443002F094FBB048883002F090FBAE4842
:10169000CC3002F08CFB02F0AAFBA048007868B1C5
:1016A000AA480068A849C1F81401A9480068C1F80F
:1016B0001801A8480068C1F81C019EE002F0EAFE8B
:1016C000A148D0F81C0180F000409F49C1F81C01DE
:1016D0000846D0F86021D0F86411104607F0A4FB4A
:1016E00004469948D0F83021D0F83411104607F05C
:1016F0009BFB054622462946974802F0D8F99248B6
:10170000D0F86821D0F86C11104607F08DFB044624
:101710008D49D1F83821D1F83C1100E0BDE11046E7
:1017200007F082FB0546224629468B48283002F006
:10173000BEF98548D0F8BC018349C1F814010846B8
:10174000D0F8E401C1F81801D1F81001002108F027
:10175000CDF90BD17C48D0F8E4017B49C1F81801E0
:101760000846D0F8BC01C1F8140146E07649D1F82A
:1017700010017A4908F0BAF90DD17348D0F8E401A4
:1017800080F000407049C1F814010846D0F8BC014F
:10179000C1F8180131E06C49D1F81001704908F026
:1017A000A5F90DD16848D0F8E4016749C1F81401E2
:1017B0000846D0F8BC0180F00040C1F818011CE0D8
:1017C0006149D1F81001674908F090F906D05E49E7
:1017D000D1F81001644908F089F90ED15A48D0F8BF
:1017E000BC0180F000405849C1F814010846D0F807
:1017F000E40180F00040C1F818015349D1F81C0100
:1018000008F018F804460D464F49D1F8140108F0C5
:1018100011F806460F464C49D1F8180108F00AF8AD
:10182000804632463B46CDE9004502F07BFE464805
:10183000426801680C3002F08DF94348826C416CBB
:10184000503002F087F94048D0F88C20D0F888104A
:10185000943002F07FF93C48D0F8D020D0F8CC107A
:10186000D83002F077F9384890F83C02012807D1C7
:101870000021354801634167C0F8B810C0F8FC107A
:1018800031493A4A486F3A4903F07EFA01462E48F8
:1018900041670146354A086B354903F075FA2A4914
:1018A0000863324AD1F8B800314903F06DFA0146B5
:1018B0002548C0F8B81001462C4AD1F8FC002C4944
:1018C00003F062FA01462048C0F8FC100146086B9C
:1018D00008F040F91C498860486F08F03BF91A4944
:1018E000C864D1F8B80008F035F91749C1F890007C
:1018F000D1F8FC0008F02EF91349C1F8D400C86CE7
:1019000038E0000000440040880000200000002073
:101910006400002018000020680000200A00002059
:10192000A481214200140040001000400008004043
:1019300046000020000C0040440000204A00002027
:101940000004004048000020E00000200C000020BF
:1019500010000020140000207C0200200000B4428F
:101960000000B4C200003443000034C30078BB451B
:101970000078BBC508F00AF90546C54AC54903F019
:1019800003FA044608F0E6F8C349C864886808F01A
:10199000FDF80546BE4ABF4903F0F6F9044608F0D3
:1019A000D9F8BD498860D1F8900008F0EFF80546F5
:1019B000B74AB84903F0E8F9044608F0CBF8B6494D
:1019C000C1F89000D1F8D40008F0E0F80546B04A1C
:1019D000B04903F0D9F9044608F0BCF8AE49C1F8A3
:1019E000D400002041F26F71CDE90010AA484FF4F5
:1019F00000629110C36C084602F0F1F8002041F239
:101A00006F71CDE90010A4484FF4804291108368B3
:101A1000402002F0E4F8002041F26F71CDE900109F
:101A20009D484FF400429110D0F89030481102F0D8
:101A3000D6F8002041F26F71CDE9001096484FF4BE
:101A400080629110D0F8D430802002F0C8F892481B
:101A500090F83C02012806D14FF47F4421468F487C
:101A600003F049FF00BF8E48008802F012FE8D4847
:101A7000008802F0ECFD8C48008802F0F9FD03F0CC
:101A8000D0FC8A48006808B9012000E0002087499E
:101A900008600121864805F031FABDE8FC8710B5E1
:101AA00040F22551834805F0EDFB48B1814805F02F
:101AB00069FB8149087040F225517E4805F00CFC15
:101AC00010BD10B540F225517C4805F0DBFB48B352
:101AD0007A4805F057FB7A4908707A4800780C2854
:101AE00005D2084600787849764A127888547548B5
:101AF000007876490978884206D101207449087037
:101B000000207049087008E06E4800780C2804D264
:101B10006C480078401C6B49087040F225516748BA
:101B200005F0DAFB10BD2DE9F04140F2255169487E
:101B300005F0A8FB00286FD0664805F023FB664936
:101B40000870084600786549654A127888546448E8
:101B5000007810B101281CD10BE060486049097879
:101B6000405C552804D15E480078401C5C490870F0
:101B700015E05A485A490978405C522805D158481E
:101B80000078401C5649087002E000205449087053
:101B900005E053480078401C5149087000BF00BF61
:101BA0004F480078152831D14C48407C4B49897CFE
:101BB00040EA012004B2204607F0E8FF07464FF054
:101BC0008E4107F0D1FE0646464908F02BF84649FB
:101BD0000860084600683049C1F848013F488079EC
:101BE0003E49C97940EA012005B2284607F0CEFFF8
:101BF00007464FF08E4107F0B7FE06463B4908F016
:101C000011F83B49086000203549087040F2255121
:101C1000304805F061FB00BFBDE8F08110B540F22F
:101C20002551344805F02EFB012809D1314805F033
:101C3000A9FA3149087040F225512E4805F04CFBB5
:101C400010BD10B540F225512C4805F01BFB0128B2
:101C50001DD12A4805F096FA2949087008460078EF
:101C600028490870284800682849086024480078F6
:101C7000FEF7BEFA002023490870214801781F486A
:101C800005F07CFA40F225511C4805F025FB10BDFB
:101C90000078BB450078BBC5E0000020001401407F
:101CA00064000020660000206A000020A08121421C
:101CB00000100040003801406C000020004400404B
:101CC0006D000020710000207003002072000020D1
:101CD00073000020004800406E000020BC0000207F
:101CE00024000020000034434C0000200000FA448F
:101CF00050000020004C00406F00002000500040C9
:101D00007000002005000020880000201C0000203A
:101D1000704700BFFEE700BFFEE700BFFEE700BF61
:101D2000FEE7704770477047704700000CB5002011
:101D3000019000906C48006840F480306A49086067
:101D400000BF6948006800F4003000900198401C12
:101D50000190009818B90198B0F5A06FF1D16248D0
:101D6000006800F4003010B10120009001E0002074
:101D700000900098012843D15C48006840F01000B2
:101D80005A4908600846006820F0030008600846C9
:101D9000006840F0020008605348406852494860BB
:101DA0000846406848600846406840F480604860E3
:101DB0000846406820F47C1048600846406840F4BB
:101DC000E81048600846006840F08070086000BF76
:101DD0004548006800F000700028F9D0424840688B
:101DE00020F00300404948600846406840F0020087
:101DF000486000BF3C48406800F00C000828F9D15A
:101E00000CBD10B5FFF792FF10BD10B53648006845
:101E100040F00100344908600846406834490840F1
:101E20003149486008460068324908402E49086038
:101E30000846006820F4802008600846406820F4C6
:101E4000FE0048604FF41F008860FFF7DAFF4FF094
:101E500000602949086010BD10B500210020002253
:101E6000214B5B6803F00C0121B1042906D008293D
:101E700028D107E0214B224C236027E01F4B204C48
:101E8000236023E0184B5B6803F47010164B5B680B
:101E900003F48032022303EB904022B9194B4343F1
:101EA000174C23600DE0104B5B6803F4003323B143
:101EB000144B4343124C236003E0104B4343104C3C
:101EC000236003E00D4B0E4C236000BF00BF064BA8
:101ED0005B68C3F303130C4CE15C094B1B68CB40FC
:101EE000074C236010BD000000100240002002409B
:101EF0000000FFF8FFFFF6FE08ED00E000127A0098
:101F00002800002000093D002C00002000B587B00B
:101F10000121084603F00BFF0121022003F007FF17
:101F20000121042003F003FF0121082003F0FFFE3C
:101F30000121042003F0EEFE0121082003F0EAFE57
:101F40000121084603F0E6FE01219E4803F0F7FC5C
:101F500001219D4803F0F3FC28208DF81B0048F276
:101F6000C300ADF8180003208DF81A0006A99748A1
:101F700003F014FCC820ADF8180006A9944803F03B
:101F80000DFC03A804F0B0FC4FF6FF70ADF8100094
:101F90000020ADF80C008DF8140003A94FF080402C
:101FA00004F076F903A804F09FFC4FF6FF70ADF83B
:101FB00010000020ADF80C008DF8140003A985482E
:101FC00004F066F903A804F08FFC4FF6FF70ADF83B
:101FD00010000020ADF80C008DF8140003A97E4815
:101FE00004F056F903A804F07FFC4FF6FF70ADF83B
:101FF00010000020ADF80C008DF8140003A97748FC
:1020000004F046F9684604F082FC0020ADF80000B8
:102010000F20ADF8080069464FF0804004F0CBFB7C
:102020000420ADF800000F20ADF8080069464FF01D
:10203000804004F0C0FB684604F069FC0020ADF865
:1020400000000F20ADF808006946624804F0B3FBB9
:102050000420ADF800000F20ADF8080069465D4887
:1020600004F0A9FB684604F052FC0020ADF8000023
:102070000F20ADF808006946574804F09CFB042087
:10208000ADF800000F20ADF808006946524804F092
:1020900092FB684604F03BFC0020ADF800000F20E6
:1020A000ADF8080069464D4804F085FB0420ADF802
:1020B00000000F20ADF808006946484804F07BFB9B
:1020C00000231A4603214FF0804004F0F0FC002367
:1020D0001A4603213F4804F0EAFC00231A46032174
:1020E0003D4804F0E4FC00231A4603213B4804F079
:1020F000DEFC0121880704F027FC0121354804F0AB
:1021000023FC0121344804F01FFC0121334804F072
:102110001BFC07B000BD00B587B00121042003F00F
:10212000F9FD0121084603F002FE04208DF81B0092
:102130000C20ADF8180006A9244803F02FFB03A8D3
:1021400004F0D2FB0020ADF81200ADF80E004FF6FF
:10215000FF70ADF810000020ADF80C0003A94FF09F
:10216000804004F095F800231A4603214FF0804088
:1021700004F09DFC684604F0CAFB0820ADF800009E
:102180000A20ADF808006946400704F014FB0C2053
:10219000ADF800000A20ADF808006946400704F0D9
:1021A0000AFB01221146900704F0E9FB00214FF0E1
:1021B000804004F05DFE0121880704F0C5FB07B0F4
:1021C00000BD0000000230000001180000080140BE
:1021D000000C01400004004000080040000C0040DA
:1021E00070B505460E4614463146284601F02AF8D9
:1021F000204600F0E8FF70BD2DE9F05F04460D4673
:1022000016461F46301B401C1FFA80FA781B401CE4
:102210001FFA80FB3B4632462946204600F0E8FF85
:102220004FF000080FE04FF0000906E00A9800F0B8
:10223000CAFF09F101001FFA80F9D145F6DB08F168
:1022400001001FFA80F8D845EDDBFE484088401EAB
:1022500083B2FC480088401E82B20021084600F08C
:10226000C7FFBDE8F09F2DE9FF4F85B081468A4644
:102270000020049003900798A0EB09050898A0EBB4
:102280000A06CDF80890CDF804A0002D01DD012745
:1022900005E00DB9002702E04FF0FF376D42002E38
:1022A00002DD4FF0010806E016B94FF0000802E029
:1022B0004FF0FF387642B54201DD2C4600E034464F
:1022C0004FF0000B21E0019A91B2029A90B200F017
:1022D000C3FF049828440490039830440390049862
:1022E000A04205DD0498001B049002983844029037
:1022F0000398A04205DD0398001B03900198404419
:1023000001900BF101001FFA80FB601C8345DADDB0
:1023100009B0BDE8F08F2DE9F04104460D461646A0
:102320001F462B46324629462046FFF79CFF3B4678
:10233000224629462046FFF796FF3B46324639465D
:102340002046FFF790FF3B46324629463046FFF7CE
:102350008AFFBDE8F081F8B504460D4616461F46D3
:10236000B94800883B463246294600902046FFF790
:1023700043FFF8BD2DE9F04104460D4616461F46C1
:10238000DDF81880EA1991B2A21990B24246FFF71F
:1023900027FFEA1991B2A21B90B24246FFF720FF35
:1023A000EA1B91B2A21990B24246FFF719FFEA1B4D
:1023B00091B2A21B90B24246FFF712FFAA1991B246
:1023C000E21990B24246FFF70BFFAA1991B2E21B45
:1023D00090B24246FFF704FFAA1B91B2E21990B2F5
:1023E0004246FFF7FDFEAA1B91B2E21B90B24246A5
:1023F000FFF7F6FEBDE8F0812DE9FF4F81B0824680
:1024000017469846DDF838B0002445464FEA4800A4
:10241000C0F10306BBF1000F1FD01BE0A14608E08E
:102420004B462246009750460299FFF7A3FF09F159
:102430000109A945F4DD002E04DA042000FB046044
:10244000861D06E0601B042101FB006000F10A0606
:102450006D1E641CAC42E1DD18E015E02B462246FF
:10246000009750460299FFF785FF002E04DA0420FA
:1024700000FB0460861D06E0601B042101FB006078
:1024800000F10A066D1E641CAC42E7DD05B0BDE834
:10249000F08F2DE9F04704460D4616461F46DDE94C
:1024A00008893B46324629462046FFF7DCFE4B466C
:1024B000424639463046FFF7D6FE2B46224649466D
:1024C0004046FFF7D0FEBDE8F08702880B88038006
:1024D0000A8070472DE9FF4F85B000260027BDF820
:1024E0001800BDF82010884207DD08A906A8FFF7EC
:1024F000ECFF07A905A8FFF7E8FFBDF82000BDF82D
:102500004C10884207DD08A913A8FFF7DEFF07A9D2
:1025100012A8FFF7DAFFBDF81800BDF820108842B6
:1025200007DD08A906A8FFF7D0FF07A905A8FFF750
:10253000CCFFBDF81800BDF84C10884238D1BDF86A
:10254000140003900490BDF81C00BDF810108842E0
:1025500003DABDF81C00049008E0BDF81C00BDF8CB
:102560000C10884202DDBDF81C000390BDF8480045
:10257000BDF81010884203DABDF84800049008E066
:10258000BDF84800BDF80C10884202DDBDF84800D7
:1025900003902D4800880090BDF81830BDF80C203D
:1025A0001946BDF81000FFF727FE09B0BDE8F08F0F
:1025B000BDF81C00BDF81410A0EB010BBDF8200005
:1025C000BDF81810401A0290BDF84800BDF814106C
:1025D000451ABDF84C00BDF81810A0EB0109BDF874
:1025E0004800BDF81C10A0EB010ABDF84C00BDF876
:1025F0002010401A0190BDF82000BDF84C10884210
:1026000002D1BDF8208004E0BDF82000401E1FFA72
:1026100080F8BDF818402CE0029896FBF0F0BDF869
:102620001410084480B2049097FBF9F0BDF8141020
:10263000084480B203905E442F44BDF81000BDF8FA
:102640000C1003E0D20000203C000020884203DD93
:1026500003A904A8FFF739FFFE480088234600902D
:10266000BDF80C202146BDF81000FFF7C5FD601C29
:1026700084B24445D0DDBDF82000201A00FB0AF6E4
:10268000BDF81800201A00FB05F727E0019896FB1B
:10269000F0F0BDF81C10084480B2049097FBF9F0EC
:1026A000BDF81410084480B2039056442F44BDF87E
:1026B0001000BDF80C10884203DD03A904A8FFF741
:1026C00004FFE448008823460090BDF80C20214612
:1026D000BDF81000FFF790FD601C84B2BDF84C00FF
:1026E0008442D3DD00BF60E72DE9FF4F83B0814610
:1026F0008A469346DDE91064D64800880290A6F128
:102700002000C6B204EBD47009EB6000401E82B218
:102710000AEB0400401E83B251464846019400F083
:1027200067FD129850BB002525E00C2C07D106EB65
:102730004600C94901EB800010F8058004E0C74855
:1027400000EB061010F8058000270DE008F00100EE
:1027500018B1584600F037FD02E0069800F033FD4E
:102760004FEA6808781CC7B204EBD471B7EB610F6D
:10277000ECDB681CC5B2A542D7DB2DE0002529E0C3
:102780000C2C07D106EB4600B34901EB800010F892
:10279000058004E0B14800EB061010F80580002722
:1027A00011E0AC48A0F800B008F0010038B10AEB25
:1027B000050291B209EB070290B200F04DFD4FEA1D
:1027C0006808781CC7B204EBD471B7EB610FE8DB83
:1027D000681CC5B2A542D3DB9E4902980880A04878
:1027E0004088401E83B29E480088401E82B200216D
:1027F000084600F0FDFC07B0BDE8F08F2DE9FE4370
:1028000006460F4615461C46DDF828801DE0944814
:102810000088401EB04204DB91484088401EB84208
:1028200001DABDE8FE8320788DE821018D48038818
:102830008848028839463046FFF756FF284605EBA0
:10284000D07106EB61018EB2641C20787E2802DC18
:1028500020782028DBDA00BFE3E710B5024601202C
:1028600000E050430B1EA1F10104E1B2F9D110BD0B
:102870002DE9FF4F83B0074691461E46109C4FF04E
:10288000000A002543E0701B401EC1B20A20FFF77A
:10289000E4FFB9FBF0F00A21B0FBF1F201FB1208F2
:1028A000BAF1000F1BD1701EA84218DDB8F1000F5D
:1028B00013D100202021A346CDE90014029004EB9F
:1028C000DB71491001FB057188B266490B886149CB
:1028D0000A880499FFF708FF17E04FF0010A00216A
:1028E00008F13000C0B2A346CDE90141009004EBED
:1028F000DB71491001FB057188B25A490B885549B3
:102900000A880499FFF7F0FE00BF681CC5B2B54203
:10291000B9DB07B0BDE8F08F2DE9FC5F05468846BE
:1029200091469A46DDF830B000953E200190002493
:102930005FE004EB04104C4911F810009BF8001004
:10294000884253D104EB0410474901EB4000407822
:102950009BF80110884249D108F10F0083B205F1BC
:102960000F0082B24146284600F042FC00263BE0C0
:10297000002734E00D9890B904EB04103A4901EBBC
:102980004000801C805D80213941084018B14846D4
:1029900000F019FC21E0504600F015FC1DE02D4828
:1029A000A0F8009004EB04102F4901EB4000801CBC
:1029B000805D80213941084018B14146284600F029
:1029C0004BFC681C85B20098281A102805D1009D80
:1029D00008F101001FFA80F803E0781CC7B2082F45
:1029E000C8DB00BF701CC6B2202EC1DB00BF601C5C
:1029F00084B2019884429CDB19484088401E83B20F
:102A000017480088401E82B20021084600F0F0FB03
:102A1000BDE8FC9F2DE9FC5F0546884691469A4635
:102A2000DDF830B0009507200190002476E004EB3B
:102A3000840000EB44100D4911F810009BF80010C1
:102A4000884268D104EB840000EB4410074901EB95
:102A500040000DE03C00002018A000088CA40008F5
:102A6000D20000203E0000207CAA0008B8B2000876
:102A700040789BF8011088424DD108F1170083B2CD
:102A800005F1170082B24146284600F0B1FB00264E
:102A90003FE0002738E00D98A0B904EB840000EB7C
:102AA0004410FB4901EB4000801C805D80213941CE
:102AB000084018B1484600F086FB23E0504600F07D
:102AC00082FB1FE0F348A0F8009004EB840000EBC9
:102AD0004410EF4901EB4000801C805D80213941AA
:102AE000084018B14146284600F0B6FB681C85B284
:102AF0000098281A182805D1009D08F101001FFA36
:102B000080F803E0781CC7B2082FC4DB00BF701C3C
:102B1000C6B2482EBDDB00BF601C84B2019884425F
:102B200085DBDD484088401E83B2DB480088401EBC
:102B300082B20021084600F05BFBBDE8FC9F2DE956
:102B4000FC5F0546884691469A46DDF830B0009510
:102B50000520019000245FE004EB8410CF4911F8B8
:102B600010009BF80010884253D104EB8410CB492D
:102B700001EB400040789BF80110884249D108F1F0
:102B80001F0083B205F11F0082B24146284600F0C3
:102B90002FFB00263BE0002734E00D9890B904EBB2
:102BA0008410BE4901EB4000801C805D80213941CA
:102BB000084018B1484600F006FB21E0504600F0FE
:102BC00002FB1DE0B348A0F8009004EB8410B34969
:102BD00001EB4000801C805D80213941084018B124
:102BE0004146284600F038FB681C85B20098281A38
:102BF000202805D1009D08F101001FFA80F803E0AC
:102C0000781CC7B2082FC8DB00BF701CC6B2802E6C
:102C1000C1DB00BF601C84B2019884429CDB9E48EB
:102C20004088401E83B29C480088401E82B200212A
:102C3000084600F0DDFABDE8FC9F2DE9FC5F054683
:102C4000884691469A46DDF830B000950420019000
:102C5000002460E004EB0420914911F810009BF877
:102C60000010884254D104EB04208D4901EB400050
:102C700040789BF8011088424AD108F13F0083B2A6
:102C800005F13F0082B24146284600F0B1FA002625
:102C90003BE0002734E00D9890B904EB0420804914
:102CA00001EB4000801C805D80213941084018B153
:102CB000484600F088FA21E0504600F084FA1DE012
:102CC0007448A0F8009004EB0420754901EB400023
:102CD000801C805D80213941084018B1414628465A
:102CE00000F0BAFA681C85B20098281A402805D16D
:102CF000009D08F101001FFA80F803E0781C87B2FC
:102D0000082FC8DB00BF701C86B2B6F5007FC0DBA1
:102D100000BF601C84B2019884429BDB5E484088FF
:102D2000401E83B25C480088401E82B200210846E3
:102D300000F05EFABDE8FC9F2DE9FF4F83B0064628
:102D400088469146DDE91147109DB2464FF0000BD1
:102D50007BE0BBF1000F40D104EBD4714E4A1288E6
:102D6000A2EB6101B14204DB4B494988091B414593
:102D700002DA07B0BDE8F08F2878802802DD4FF036
:102D8000010B62E028780D2806D108EB04001FFA39
:102D900080F856466D1C1EE0102C0DDD10212878A1
:102DA0008DE883004A4641463046069BFFF79CFC6F
:102DB00006F1080086B20EE028788DE891004A46B8
:102DC00041463046069BFFF78FFC204604EBD0714E
:102DD00006EB61018EB26D1C37E02F480088001BA6
:102DE000B04204DB2C484088001B404500DAC0E7B5
:102DF0004FF0000B402C07D1CDE900574A46414621
:102E00003046069BFFF719FF202C08D1CDE900576B
:102E10004A4641463046069BFFF791FE12E0182CC9
:102E200008D1CDE900574A4641463046069BFFF798
:102E3000F1FD07E0CDE900574A4641463046069B82
:102E4000FFF76AFDAD1C301986B22878002880D1C2
:102E500000BF8EE72DE9FE4F0E4617469846DDE986
:102E60000D9A0C9C204604F0BCFB85B20A490988E7
:102E7000A1EBC50000EBD071C1F34F0B43463A46BE
:102E8000314658468DE81006FFF756FFBDE8FE8F25
:102E9000B8B200083C000020D2000020BEB40008F8
:102EA00018C200082DE9F04706460F46154607F1FF
:102EB000270083B206F1270082B23946304600F07F
:102EC00097F900240AE015F8149005EB440090F8F7
:102ED000018049EA082000F076F9641CB4F5C86F57
:102EE000F1DB9B484088401E83B299480088401E11
:102EF00082B20021084600F07BF9BDE8F0872DE999
:102F0000F05F04460F4690469A46DDF828B0A14689
:102F100007F13F0083B204F13F0082B239462046F8
:102F200000F066F900253AE0002632E00B9890B9EF
:102F30000BEB0B20874901EB4000801C405D80219A
:102F40003141084018B1404600F03DF91FE05046BD
:102F500000F039F91BE08048A0F800800BEB0B2053
:102F60007C4901EB4000801C405D802131410840DC
:102F700018B13946204600F06FF9601C84B2A4EB0A
:102F80000900402803D14C46781C87B203E0701C2E
:102F900086B2082ECADB00BF00BF681C85B2B5F53B
:102FA000007FC1DB6A484088401E83B268480088C1
:102FB000401E82B20021084600F01AF9BDE8F09FD9
:102FC0002DE9F05F04460F4690469A46DDF828B09A
:102FD000A14607F14F0083B204F1270082B23946BF
:102FE000204600F005F900253CE0002634E00B986F
:102FF00098B9C9200BFB00F0584901EB4000801C38
:10300000415D80203041014019B1404600F0DBF8BD
:1030100020E0504600F0D7F81CE04F48A0F80080B0
:10302000C9200BFB00F04D4901EB4000801C405DC6
:1030300080213141084018B13946204600F00CF992
:10304000601C84B2A4EB0900282803D14C46781CEC
:1030500087B203E0701C86B2082EC8DB00BF00BF39
:10306000681C85B2B5F5C87FBFDB39484088401E73
:1030700083B237480088401E82B20021084600F023
:10308000B7F8BDE8F09F2DE9F05F04460F46904683
:103090009A46DDF828B0A14607F12F0083B204F16B
:1030A0002F0082B23946204600F0A2F800253EE00B
:1030B000002636E00B98A0B90BEB0B1000EBCB1001
:1030C000274901EB4000801C415D802030410140D8
:1030D00019B1404600F077F821E0504600F073F84F
:1030E0001DE01D48A0F800800BEB0B1000EBCB108F
:1030F0001B4901EB4000801C405D802131410840AC
:1031000018B13946204600F0A7F8601C84B2A4EB41
:103110000900302803D14C46781C87B203E0701CAC
:1031200086B2082EC6DB00BF00BF681C85B2B5F5AD
:10313000907FBDDB06484088401E83B2044800886B
:10314000401E82B20021084600F052F8BDE8F09F10
:10315000D200002018C200083C000020D0BB0008AC
:1031600048B7000810B504460420FE490860402016
:1031700008602146FC4801F021FB0420F949091FA1
:10318000086010BD10B504460420F64908604020D0
:10319000091F08602146F44801F010FB0420F149A2
:1031A000091F086010BD70B505460C462846FFF79C
:1031B000D9FFE0B2FFF7E6FF70BD10B5EB49087A22
:1031C000FFF7D0FF10BD10B504460420E5490860A4
:1031D0004020091F08602112E34801F0EFFAE1B234
:1031E000E14801F0EBFA0420DE49091F086010BD38
:1031F0002DE9F04104460D4616461F46DB49887A04
:10320000FFF7B0FF2012FFF7BDFFE0B2FFF7BAFFF4
:103210003012FFF7B7FFF0B2FFF7B4FFD349087BD6
:10322000FFF7A0FF2812FFF7ADFFE8B2FFF7AAFFF4
:103230003812FFF7A7FFF8B2FFF7A4FFFFF7BDFFB3
:10324000BDE8F08170B504460D462B46224629465E
:103250002046FFF7CDFF70BD70B504460D462946E8
:103260002046FFF7EFFFC2480088FFF7ACFF70BDB4
:1032700070B50646BD484088401E83B2BB480088F2
:10328000401E82B200210846FFF7B2FF0420B54974
:1032900008604020091F086000240AE0002503E0C0
:1032A0003046FFF790FF6D1CB0480088A842F7D861
:1032B000641CAE484088A042F0D80420A949091FE8
:1032C000086070BD08B50121802002F023FD552063
:1032D000ADF8000003208DF8020010208DF80300E7
:1032E0006946A048143802F059FA01219D48143863
:1032F00002F001FB08BD10B510209A490860642057
:1033000004F041F810209749091F0860322004F0AA
:103310003AF810BD10B504462A20944948812B2064
:1033200088812C20088134B1012C0FD0022C18D0B8
:10333000032C2CD120E0F0208C4908804FF4A070A1
:10334000488008213620FFF72EFF21E04FF4A070BF
:1033500086490880F020488068213620FFF723FF47
:1033600016E0F020814908804FF4A0704880C82101
:103370003620FFF718FF0BE04FF4A0707B49088060
:10338000F0204880A8213620FFF70DFF00E000BFA5
:1033900000BF10BD10B501F035FAFFF793FFFFF73E
:1033A000AAFFCF20FFF7DEFE0020FFF7EBFEC920CB
:1033B000FFF7E8FE3020FFF7E5FEED20FFF7D2FE35
:1033C0006420FFF7DFFE0320FFF7DCFE1220FFF78B
:1033D000D9FE8120FFF7D6FEE820FFF7C3FE852047
:1033E000FFF7D0FE1020FFF7CDFE7A20FFF7CAFED0
:1033F000CB20FFF7B7FE3920FFF7C4FE2C20FFF7E4
:10340000C1FE0020FFF7BEFE3420FFF7BBFE022006
:10341000FFF7B8FEF720FFF7A5FE2020FFF7B2FE6A
:10342000EA20FFF79FFE0020FFF7ACFE0020FFF729
:10343000A9FEC020FFF796FE1B20FFF7A3FEC120C8
:10344000FFF790FE0020FFF79DFEC520FFF78AFEE4
:103450003020FFF797FE3020FFF794FEC720FFF7DC
:1034600081FEB720FFF78EFE3620FFF77BFE082097
:10347000FFF788FE3A20FFF775FE5520FFF782FE22
:10348000B120FFF76FFE0020FFF77CFE1A20FFF748
:1034900079FEB620FFF766FE0A20FFF773FEA22032
:1034A000FFF770FEF220FFF75DFE0020FFF76AFED7
:1034B0002620FFF757FE0120FFF764FEE020FFF70C
:1034C00051FE0F20FFF75EFE2A20FFF75BFE28204B
:1034D000FFF758FE0820FFF755FE0E20FFF752FEBB
:1034E0000820FFF74FFE5420FFF74CFEA920FFF7FE
:1034F00049FE4320FFF746FE0A20FFF743FE0F2058
:10350000FFF740FE0020FFF73DFE0020FFF73AFEE8
:103510000020FFF737FE0020FFF734FEE120FFF721
:1035200021FE0020FFF72EFE1520FFF72BFE1720AF
:10353000FFF728FE0720FFF725FE1120FFF722FEE8
:103540000620FFF71FFE2B20FFF71CFE5620FFF77B
:1035500019FE3C20FFF716FE0520FFF713FE102092
:1035600008E00000141C014000380040D200002098
:103570003C000020FFF706FE0F20FFF703FE3F2070
:10358000FFF700FE3F20FFF7FDFD0F20FFF7FAFDDC
:103590002B20FFF7E7FD0020FFF7F4FD0020FFF7E9
:1035A000F1FD0120FFF7EEFD3F20FFF7EBFD2A20A4
:1035B000FFF7D8FD0020FFF7E5FD0020FFF7E2FD53
:1035C0000020FFF7DFFDEF20FFF7DCFD1120FFF704
:1035D000C9FD782003F0D7FE2920FFF7C3FD0220A4
:1035E000FFF798FE4FF6FF70FFF742FE10BD000098
:1035F000FD48FE49C1F87401FD49FC48C0F8781146
:10360000FC49C0F87C110021C0F88011C0F8841179
:10361000C0F88811C0F88C11C0F89011C0F894114E
:10362000F549C0F89811F548F049C1F89C0100210E
:10363000EE48C0F8A011C0F8A411C0F8A811C0F855
:10364000AC11C0F8B011C0F8B411C0F8B811C0F88E
:10365000BC11EB49C0F8C011E848E449C1F8C40105
:103660000021E248C0F8C811C0F8CC11C0F88011A0
:10367000C0F8D411C0F8D811C0F8DC11C0F8E011BE
:10368000C0F8E411DE49C0F8E811DE48D749C1F8B6
:10369000EC010021D548C0F8F011C0F8F411C0F8D1
:1036A000F811C0F8FC11C0F80012C0F80412C0F8FC
:1036B0000812C0F80C12D149C0F81012D248CB49F8
:1036C000C1F814020021C948C0F81812C0F81C1231
:1036D000C0F88011C0F82412C0F82812C0F82C12CB
:1036E000C0F83012C0F83412C849C0F83812C848BF
:1036F000BE49C860C049BD48016100214161816186
:10370000C161016241628162C1620163C149416379
:10371000BF490165B849416500218165C165016600
:1037200041668166C16601674167BA498167B849E8
:10373000C0F89410B049C0F898100021C0F89C104F
:10374000C0F8A010C0F8A410C0F8A810C0F8AC10C1
:10375000C0F8B010C0F8B410C0F8B810AD49C0F847
:10376000BC10AB49C0F8D810A349C0F8DC10002148
:10377000C0F8E010C0F8E410C0F8E810C0F8EC1091
:10378000C0F8F010C0F8F410C0F8F810C0F8FC1041
:10379000A049C0F800110120944981F83C020020A2
:1037A0000860486088608863C863086448640021D2
:1037B0008E488164C164C167C0F88010C0F884106D
:1037C00000208A49C1F8880000218848C0F88C1080
:1037D000C0F89010C0F8C010C0F8C410C0F8C810ED
:1037E00000208249C1F8CC0000218048C0F8D010E8
:1037F000C0F8D410C0F80411C0F80811C0F80C11BA
:1038000000207A49C1F81001C1F81401C1F818016B
:10381000C1F81C010A46C2F83001C2F83401C2F8EE
:103820003801C2F83C010021C2F82011C2F824116D
:10383000002279488260C26000206C49C1F84001D2
:10384000C1F84401C1F848010021684AC2F850118A
:10385000C2F854110022704830308260C2600020EB
:10386000624AC2F86001C2F86401C2F86811C2F885
:103870006C111146C1F87001704703468B4201DAA2
:1038800008467047934201DD1046FAE71846F8E70C
:1038900000B589B00121202002F03CFA10208DF8FB
:1038A00023004FF47F40ADF8200003208DF8220064
:1038B00008A95A4801F072FF4FF48051574802F0AE
:1038C0001CF84FF48041554802F017F84FF480710E
:1038D000524802F012F84FF48061504802F00DF89F
:1038E0004FF400514D4802F008F84FF400414B48A6
:1038F00002F003F84FF40071484801F0FEFF4FF466
:103900000061464801F0F9FF0121480302F002FA84
:103910000121102002F0FEF918208DF81F004FF44D
:103920007070ADF81C0003208DF81E0007A93C48FC
:1039300001F034FF3B4803F03BF80020ADF81600DF
:10394000ADF8120041F63F70ADF814000020ADF85C
:1039500010008DF8180004A9324802F099FC68465E
:1039600002F0CBFF6020ADF800000020ADF80800A9
:103970000120ADF802000020ADF806006946294894
:1039800002F0C3FC684602F0B8FF6020ADF800000A
:103990000020ADF808000120ADF802000020ADF8CD
:1039A000060069461F4802F0F2FC684602F0A5FFD7
:1039B0006020ADF800000020ADF808000120ADF84F
:1039C00002000020ADF806006946164802F02CFD02
:1039D000684602F092FF6020ADF800000020ADF8CC
:1039E0000800012020E000008FC2753DE0000020AB
:1039F0006F12833ACDCC4C3D00004040CDCC4C3FC3
:103A0000000020426F12033C9A99193E0000A0402A
:103A1000000020410078BB45000200200014014056
:103A20000010014000340140ADF802000020ADF864
:103A300006006946FE4802F042FD0121FC4802F002
:103A400083FF0121FA4802F08BFF09B000BD1FB5CA
:103A5000F8A103C9CDE90201F8A103C9CDE900012C
:103A6000052202A9F74801F0A3F80A2003F08BFC15
:103A700005226946F34801F09BF80A2003F083FC15
:103A80001FBD70B505460C462146284606F096F93E
:103A900001D2204670BD84F000462946304606F02B
:103AA0008DF902D284F00040F4E72846F2E72DE9D0
:103AB000F04704460D4616460CB9BDE8F08731467E
:103AC000284606F0B7F9A061D4E9060106F0B2F97C
:103AD0008146A16806F0A6F80746A169206806F0AD
:103AE000A1F88046394605F0D1FE2062A06905F0B4
:103AF000A1FE21F0004107460022D34B05F06EFDE8
:103B000002D20020E06001E00120E060E06806F001
:103B10003DF88046A169606806F084F88146414618
:103B200006F080F80746216905F0B0FE2061D4E96F
:103B30000401FFF7A6FF20612169206A05F0A6FEB7
:103B40002062D4E90801FFF79CFF2062A069E061D0
:103B500000BFB2E72DE9F04704460D4616460CB902
:103B6000BDE8F0873146284606F064F9A061D4E943
:103B7000060106F05FF90746216806F053F8E06099
:103B8000A169606806F04EF820614FF08040E1695D
:103B900006F048F88146A16906F041F98046216A9D
:103BA00005F074FE0746A16806F03CF86061D4E9B0
:103BB000030105F06BFE8046616905F067FE07466C
:103BC000616A05F063FE6062D4E90901FFF759FFFD
:103BD0006062E0692062A069E06100BFC0E72DE992
:103BE000F0470546894616461C46DDE908A74FF012
:103BF0000008002C0BDDE0191FFA80F849469348B5
:103C000001F079FE3146914801F077FE19E0002C71
:103C10000CDA604238441FFA80F849468B4801F0BC
:103C20006CFE3146894801F066FE0AE04CB94FF05F
:103C300000084946854801F060FE3146834801F09E
:103C40005CFE524600214046FFF717FE8046402D9D
:103C500004D14146764803F00FF915E0802D04D1D8
:103C60004146734803F00AF90EE0B5F5807F04D1B0
:103C700041466F4803F004F906E0B5F5007F03D133
:103C800041466B4803F0FEF8BDE8F0872DE9F047A8
:103C900006460C4615464FF000082868052806DA47
:103CA0002968481C286044F82160B04617E00027C6
:103CB000B946201D0FC884E80F00266100BF06E04A
:103CC00054F82710484605F0E1FD81467F1C052F7A
:103CD000F6DB5F49484605F047FE804600BF404698
:103CE000BDE8F08710B55B48B0F900005A49C863D9
:103CF0005A48B0F900105848C0F880105848B0F938
:103D000000105548C0F8C4105648B0F90010524889
:103D1000C0F80811806B5049C96B08444E4988634C
:103D20000846C16FD0F8800001444B48C167D0F805
:103D3000C010D0F8C40001444748C0F8C010D0F803
:103D40000411D0F8080101444348C0F804110146A9
:103D5000C86B05F01BFF0446434A4449FFF796FF32
:103D60003D490864D1F8800005F010FF0446404A40
:103D70004049FFF78BFF3849C1F88400D1F8C400EF
:103D800005F004FF04463C4A3C49FFF77FFF3249F7
:103D9000C1F8C800D1F8080105F0F8FE0446384A19
:103DA0003849FFF773FF2C49C1F80C0110BD2DE90C
:103DB000F04704463449206C05F0D6FD81464FF0AB
:103DC0007E5105F02FFF80464FF07E5105F0CCFD6F
:103DD00007462E4905F026FF06462D4905F022FF2D
:103DE00005462C4905F0C0FD6060BDE8F08700B5D0
:103DF00093B01948D0F8480124490C9005F012FFFF
:103E000025490D9005F0B0FD1349C1F870015CE043
:103E10001148D0F8700121490D9005F0CFFF42D82C
:103E20000D48D0F870011D490D9006F003F837E0F9
:103E300000340140FFAA6988B5000000FFAA76009F
:103E4000000000000048004000C072400014014023
:103E50000000A04046000020E000002044000020B8
:103E6000480000204A0000205400002020030020C9
:103E700058000020340300205C000020480300208C
:103E8000600000205C03002000005247DB0F494027
:103E90000000F0400AD7233C00003443DB0FC94048
:103EA000FD49C1F87001FC48D0F8700100210D9067
:103EB00005F084FE09D2F848D0F87001F7490D905A
:103EC00005F0E4FCF449C1F87001F348D0F8700142
:103ED000F2490D9005F072FF9AD9EF48D0F87001C1
:103EE00000210D9005F06AFE92D3ED480E90EA484D
:103EF000006C80F000400B90E748D0F88400014649
:103F00000A900B9805F0C2FC4FF080410C9005F030
:103F10002BFD0D900E9905F085FE1290DE48D0F82D
:103F20000C010B90DC48006C0A900B9905F0AEFC7C
:103F30004FF080410C9005F017FD0D900E9905F0A3
:103F400071FE1190D448D0F8700100210D9005F059
:103F500035FF7CD8D048D0F87001D2490D9005F0DB
:103F60002DFE74D2CC48D0F8700101460090CD48A7
:103F700005F060FF019005F05DFCCDE9020104F061
:103F80009FFECDE90601119805F054FCCDE904012E
:103F9000DDE9062305F024FACDE90A01BE48D0F890
:103FA000700101460090BF4805F044FF019005F004
:103FB00041FCCDE9020104F0D1FECDE906011298E1
:103FC00005F038FCCDE90401DDE9062305F008FA27
:103FD000CDE90801DDE90A2304F058FFCDE90C0121
:103FE00004F022FF1090AC48D0F870010146009018
:103FF000AC4805F01FFF019005F01CFCCDE9020163
:1040000004F0ACFECDE90601119805F013FCCDE9F2
:104010000401DDE9062305F0E3F9CDE90A019E4834
:10402000D0F87001014600909E4805F003FF019012
:1040300005F000FCCDE9020104F042FECDE90601E5
:10404000129880F00040039005F0F4FB00E010E0CF
:10405000CDE90401DDE9062305F0C2F9CDE9080147
:10406000DDE90A2304F012FFCDE90C0104F0DCFEC7
:104070000F908948D0F870018A490D9005F09EFE96
:104080007DD88548D0F8700187490D9005F096FDE0
:1040900075D28148D0F870018249009005F0CAFEBF
:1040A000019005F0C7FBCDE9020104F009FECDE95E
:1040B0000601119805F0BEFBCDE90401DDE90623F8
:1040C00005F08EF9CDE90A017348D0F87001754901
:1040D000009005F0AFFE019005F0ACFBCDE90201C8
:1040E00004F03CFECDE90601129880F000400390F8
:1040F00005F0A0FBCDE90401DDE9062305F070F928
:10410000CDE90801DDE90A2304F0C0FECDE90C0188
:1041100004F08AFE10906048D0F870016149009068
:1041200005F088FE019005F085FBCDE9020104F061
:1041300015FECDE90601119805F07CFBCDE90401DF
:10414000DDE9062305F04CF9CDE90A015248D0F823
:1041500070015449009005F06DFE019005F06AFB76
:10416000CDE9020104F0ACFDCDE90601129880F022
:104170000040039005F05EFBCDE9040100E00EE095
:10418000DDE9062305F02CF9CDE90801DDE90A2374
:1041900005F066FACDE90C0104F046FE0F903E48AA
:1041A000D0F8700140490D9005F008FE73D83A48E8
:1041B000D0F870013D490D9005F000FD6BD23648F6
:1041C000D0F870013849009005F034FE019005F0F8
:1041D00031FBCDE9020104F0C1FDCDE906011198E2
:1041E00005F028FBCDE90401DDE9062305F0F8F828
:1041F000CDE90A012848D0F870012B49009005F05C
:1042000019FE019005F016FBCDE9020104F058FDFE
:10421000CDE90601129880F00040039005F00AFBFA
:10422000CDE90401DDE9062305F0DAF8CDE908015E
:10423000DDE90A2305F014FACDE90C0104F0F4FDE0
:1042400010901548D0F870011749009005F0F2FD64
:10425000019005F0EFFACDE9020104F031FDCDE95E
:104260000601119805F0E6FACDE90401DDE906231F
:1042700005F0B6F8CDE90A010748D0F870010A49FF
:10428000009005F0D7FD019005F0D4FACDE90201C8
:1042900004F064FD0CE021E0E0000020DB0FC940E9
:1042A000FBC8E539DB0FC93FDB0F4940E4CB964043
:1042B000CDE90601129805F0BDFACDE90401DDE96A
:1042C000062305F08DF8CDE90801DDE90A2305F0A4
:1042D000C7F9CDE90C0104F0A7FD0F90CB48D0F849
:1042E0007001CB490D9005F069FD7DD8C748D0F825
:1042F0007001C8490D9005F061FC7FD2C348D0F829
:104300007001C349009005F095FD019005F092FA07
:10431000CDE9020104F0D4FCCDE90601119805F0C5
:1043200089FACDE90401DDE9062305F059F8CDE964
:104330000A01B648D0F87001B549009005F07AFD41
:10434000019005F077FACDE9020104F007FDCDE90F
:104350000601129805F06EFACDE90401DDE90623A5
:1043600005F03EF8CDE90801DDE90A2305F078F90A
:10437000CDE90C0104F058FD1090A448D0F870016C
:10438000A349009005F056FD019005F053FACDE9E0
:10439000020104F0E3FCCDE90601119805F04AFAA8
:1043A000CDE90401DDE9062305F01AF8CDE90A019B
:1043B0009648D0F870019649009005F03BFD0190B9
:1043C00005F038FACDE9020104F07AFCCDE90601E6
:1043D000129805F02FFACDE90401DDE9062304F077
:1043E000FFFFCDE9080100E008E0DDE90A2304F061
:1043F0004DFDCDE90C0104F017FD0F908649109892
:1044000005F0B2FA8149C1F8400183490F9805F0DF
:10441000ABFA7E49C1F84401109805F00BFACDE9DA
:104420000C017A49D1F86001D1F86411CDE90A0193
:10443000DDE90C2304F02AFD744AC2F86001C2F8D9
:1044400064110F9805F0F6F9CDE90C016F49D1F828
:104450006801D1F86C11CDE90A01DDE90C2304F003
:1044600015FD6A4AC2F86801C2F86C111146D1F80C
:104470006001D1F86411C2F85001C2F8541110461D
:10448000D0F86811D0F86C2100F5A8708160C26086
:1044900013B000BD2DE9F041604800685B49C1F8E8
:1044A00048010A46D2F84811D2F8100105F0C2FCC2
:1044B00004465B49204605F081FC05D22146594857
:1044C00005F0E4F9044616E05749204605F076FB6E
:1044D00005D22146554805F0D9F904460BE020469F
:1044E00005F0A8F921F0004105460022504B04F0E8
:1044F0003BFF00D800BF4548D0F84811204605F0E2
:10450000C5F907464148D0F84821394600F5BA7048
:10451000FFF7CDFA3D48D0F894013C49C1F81C01A1
:10452000BDE8F0812DE9FF5F04460D4616461F46A3
:10453000DDE90E8900223F4B4046494604F050FF1A
:1045400082468B4632463B462046294605F088F88F
:1045500052465B46CDE9000104F098FCCDE902012A
:1045600004F062FC294908600022324B404649466B
:1045700004F036FF82468B4632463B4620462946AB
:1045800004F084FC52465B46CDE9000104F07EFC59
:10459000CDE9020104F048FC1C4948640022254B87
:1045A0004046494604F01CFF82468B4632463B4655
:1045B0002046294605F054F852465B46CDE90001F5
:1045C00005F04EF8CDE9020104F02EFC0F49C1F8C8
:1045D00088000022174B4046494604F001FF32464E
:1045E0003B46CDE900012046294604F04FFC8246B7
:1045F000DDE9002305F034F8CDE9020104F014FCF4
:104600000249C1F8CC00BDE8FF9F0000E000002097
:10461000E4CB9640DB0FC9400AD7233C4C00002076
:10462000000034430000B4C3000034C30000B443AE
:10463000008066400000354003468B4201DA0846A0
:104640007047934201DD1046FAE71846F8E770B567
:1046500004464FF4FA6060434FF4877190FBF1F029
:1046600000F5FA7085B229464F4802F00BFC70BD88
:1046700070B504464FF4FA6060434FF4877190FBC5
:10468000F1F000F5FA7085B22946474802F0F6FBD2
:1046900070BD70B504464FF4FA6060434FF4877103
:1046A00090FBF1F000F5FA7085B229463E4802F021
:1046B000E3FB70BD00B589B00121C80201F02AFBFF
:1046C0000121042001F026FB18208DF823004FF46F
:1046D0007060ADF8200003208DF8220008A933484F
:1046E00001F05CF8304802F063F90020ADF81A00E0
:1046F000ADF816004720ADF8140044F61F60ADF881
:10470000180000208DF81C0005A9274801F0C0FD05
:1047100001A802F0F2F86020ADF804000020ADF826
:104720000C000120ADF80600ADF80A0001A91E48F2
:1047300001F0EBFD01A802F0E0F86020ADF8040004
:104740000020ADF80C000120ADF80600ADF80A001D
:1047500001A9154801F01BFE01A802F0CEF8602067
:10476000ADF804000020ADF80C000120ADF8060003
:10477000ADF80A0001A90C4801F0A1FE01210A4888
:1047800002F0E2F80121084802F0EAF8084800883F
:10479000FFF77FFF07480088FFF76AFF0648008899
:1047A000FFF755FF09B000BD002C01400008014093
:1047B000640000206A00002066000020024600BF5E
:1047C000108900F002000028FAD0918100BF108902
:1047D00000F001000028FAD09089C0B2704702882A
:1047E0004FF6C7731A400280012902D10288028065
:1047F00003E0028842F020020280028842F0400278
:104800000280704700B587B00121092001F082FACB
:104810004FF42040ADF8040003208DF80600182066
:104820008DF8070001A91C4800F0B8FF4FF4804044
:10483000ADF8040048208DF8070003208DF806002D
:1048400001A9154800F0AAFF0121880301F06FFAC1
:104850000020ADF808004FF48270ADF80A00002087
:10486000ADF80C00ADF80E00ADF810004FF400707C
:10487000ADF812000020ADF81400ADF816000720C6
:10488000ADF8180002A9054801F0CEFA012103484D
:1048900001F06FFB07B000BD000C01400038004084
:1048A00010B586B00446012144F2040001F032FA4A
:1048B0004FF40070ADF8140003208DF81600182096
:1048C0008DF8170005A9CF4800F068FF4FF480600D
:1048D000ADF8140004208DF8170005A9C94800F0B0
:1048E0005DFF25208DF800000A208DF801008DF86D
:1048F000020001208DF80300684600F086FE019456
:104900000020ADF80800ADF80A00ADF80C00ADF8D5
:1049100010000C20ADF80E0001A9BB4802F035FBD9
:10492000012240F22551B84802F0C7FB0121B648E8
:1049300002F0B7FB06B010BD10B586B004460121E9
:10494000480401F0F4F90121042001F0E3F9042006
:10495000ADF8140003208DF8160018208DF817000C
:1049600005A9A84800F01AFF0820ADF8140004209B
:104970008DF8170005A9A34800F010FF26208DF838
:10498000000009208DF801008DF8020001208DF84B
:104990000300684600F039FE01940020ADF80800DD
:1049A000ADF80A00ADF80C00ADF810000C20ADF821
:1049B0000E0001A9954802F0E8FA012240F22551C3
:1049C000924802F07AFB0121904802F06AFB06B09F
:1049D00010BD10B586B004460121880401F0A7F986
:1049E0000121082001F096F94FF48060ADF8140021
:1049F00003208DF8160018208DF8170005A98448AB
:104A000000F0CCFE4FF40060ADF8140004208DF8E7
:104A1000170005A97E4800F0C1FE27208DF8000090
:104A200008208DF801008DF8020001208DF80300A8
:104A3000684600F0EAFD01940020ADF80800ADF8EA
:104A40000A00ADF80C00ADF810000C20ADF80E0017
:104A500001A9704802F099FA012240F225516D48EF
:104A600002F02BFB01216B4802F01BFB06B010BDCE
:104A700010B586B004460121C80401F058F901219F
:104A8000102001F047F94FF48060ADF814000320C6
:104A90008DF8160018208DF8170005A95E4800F063
:104AA0007DFE4FF40060ADF8140004208DF817006F
:104AB00005A9594800F072FE34208DF80000072047
:104AC0008DF801008DF8020001208DF80300684682
:104AD00000F09BFD01940020ADF80800ADF80A003D
:104AE000ADF80C00ADF810000C20ADF80E0001A9D7
:104AF0004A4802F04AFA012240F22551474802F0A2
:104B0000DCFA0121454802F0CCFA06B010BD10B520
:104B100086B004460121080501F009F901211020A1
:104B200001F0F8F80121202001F0F4F84FF4805052
:104B3000ADF8140003208DF8160018208DF817002A
:104B400005A9354800F02AFE0420ADF814008DF8C0
:104B5000170005A9324800F021FE35208DF800002D
:104B600006208DF801008DF8020001208DF8030069
:104B7000684600F04AFD01940020ADF80800ADF849
:104B80000A00ADF80C00ADF810000C20ADF80E00D6
:104B900001A9244802F0F9F9012240F225512148E7
:104BA00002F08BFA01211F4802F07BFA06B010BD1B
:104BB00070B506460C4615460DE02178304602F0E9
:104BC000DDFA681E85B2641C00BF4021304602F049
:104BD00043FB0128F9D1002DEFD170BD70B505461A
:104BE0000C460BE014F8011B284602F0C7FA00BF80
:104BF0004021284602F030FB0128F9D12078002816
:104C0000F0D170BD00080140003801400044004070
:104C1000000C01400048004000100140004C0040E2
:104C200000140140005000401FB50121102001F088
:104C30007EF83A4801F0BCFE0020ADF80A00ADF85D
:104C4000060040F2E730ADF8080040F2CF20ADF8A2
:104C5000040000208DF80C0001A9304801F018FB79
:104C600001212E4802F036F9012211462B4801F0AD
:104C700086FE4FF4A06000F0C3FC36208DF80000E3
:104C800001208DF8030003208DF8010002208DF82B
:104C90000200684600F0B9FC0121204801F054FEF2
:104CA0001FBD1FB50121202001F041F81C4801F073
:104CB0007FFE0020ADF80A00ADF8060042F20F704A
:104CC000ADF8080040F2CF20ADF8040000208DF8C8
:104CD0000C0001A9124801F0DBFA0121104802F092
:104CE000F9F8012211460E4801F049FE4FF4A06088
:104CF00000F086FC37208DF8000001208DF80300BD
:104D000005208DF8010004208DF80200684600F0AF
:104D10007CFC0121024801F017FE1FBD001000407D
:104D20000014004008B50121482000F0F3FF4FF4C3
:104D30004870ADF8000010208DF8030003208DF8B6
:104D4000020069460E4800F029FD20210C4800F0C1
:104D5000D2FD4FF480710A4800F0CDFD4FF4007190
:104D6000074800F0C8FD2020ADF80000694605485E
:104D700000F014FD2021034800F0BDFD08BD000037
:104D8000000C01400018014070B505460E4614465F
:104D90003146284604F012FF01D2304670BD21464C
:104DA000284605F00BF801D22046F7E72846F5E73C
:104DB00000206549086048608860C86008614861F3
:104DC0008861C861086248628862C8625F49086099
:104DD00048608860C860086148618861C86108628D
:104DE00048628862C8625A49086048608860C86042
:104DF000086148618861C861086248628862C86267
:104E00005449086048608860C860086148618861EA
:104E1000C861086248628862C862704770B504461B
:104E20000D462946206A04F031FD2062E06880F0DA
:104E3000004602463146206AFFF7A6FF2062294657
:104E4000206804F0EFFE2061216A606804F0EAFE49
:104E500060612846616A04F0EDFF0646A16804F02F
:104E6000E1FEA0616562D4E9040104F00FFD06468D
:104E7000A16904F00BFDE061E06970BD2DE9F0412E
:104E800004460D462846616A04F0D4FF06462168B0
:104E900004F0C8FE20612946606804F0C3FE60612A
:104EA0002846616A04F0C6FF0746A16A04F0C2FF03
:104EB0000646A16804F0B6FEA0612846616A04F0C7
:104EC000B9FFA0626562D4E9040104F0DFFC074683
:104ED000A16904F0DBFC0646E16904F0D7FCE0615F
:104EE000E069BDE8F0812DE9F04104460D46284611
:104EF000616A04F09FFF0646216804F093FE20617A
:104F00002946606804F08EFE60612846616A04F0FC
:104F100091FF0746A16A04F08DFF0646A16804F0E0
:104F200081FEA0612846616A04F084FFA062656288
:104F3000D4E9040104F0AAFC0646A16904F0A6FC29
:104F4000E061E069BDE8F081A4030020D403002003
:104F500004040020340400207FB505460C460020E0
:104F600000900190029003908DF800400A208DF887
:104F700001006D208DF802006B208DF803000422E3
:104F800069462846FFF714FE7FBD7FB505460C46EF
:104F9000002000900190029003908DF800400E20B8
:104FA0008DF8010052208DF802006B208DF803006F
:104FB000042269462846FFF7FBFD7FBD2DE9FF412E
:104FC00007460E46154600240020009001900290EE
:104FD00003900DF80460641C112D68D2DFE805F021
:104FE000090F151B672167272D33393F6745515C32
:104FF0004B001F200DF80400601CC4B258E02020B4
:105000000DF80400601CC4B252E021200DF8040029
:10501000601CC4B24CE024200DF80400601CC4B233
:1050200046E027200DF80400601CC4B240E03120A7
:105030000DF80400601CC4B23AE033200DF80400FF
:10504000601CC4B234E035200DF80400601CC4B20A
:105050002EE036200DF80400601CC4B228E0372092
:105060000DF80400601CC4B222E03A200DF80400E0
:10507000601CC4B21CE03B200DF80400601CC4B2EC
:1050800016E042200DF80400601CC4B26C200DF83C
:105090000400601CC4B20BE043200DF80400601C47
:1050A000C4B27A200DF80400601CC4B200E000BF56
:1050B00000BF6B200DF80400601CC4B22246694694
:1050C0003846FFF775FDBDE8FF812DE9FF41074632
:1050D0000C4615461E460020009001900290039059
:1050E0008DF8004046208DF8010069208DF80200FF
:1050F0008DF803508DF804606B208DF805000622B2
:1051000069463846FFF754FDBDE8FF812DE9FF41B0
:1051100007460C4615461E4600200090019002905E
:1051200003908DF80040F3208DF80100AB208DF83E
:1051300002008DF803508DF804606B208DF8050097
:10514000062269463846FFF733FDBDE8FF812DE9A9
:10515000FF4707460D4616461C46DDE90C89002030
:1051600000900190029003908DF80050F6208DF889
:1051700001008DF8026020128DF80300E0B28DF876
:1051800004008DF805808DF806906B208DF80700DF
:10519000082269463846FFF70BFDBDE8FF872DE979
:1051A000FF5F80460E4617461D46DDE910ABDDE980
:1051B0000E94002000900190029003908DF8006002
:1051C000FD208DF801008DF8027028128DF8030083
:1051D000E8B28DF804008DF80590200E8DF80600D9
:1051E000200C8DF80700200A8DF80800E0B28DF839
:1051F00009008DF80AA08DF80BB06B208DF80C001B
:105200000D2269464046FFF7D3FCBDE8FF9F7FB5FE
:1052100006460C461546002000900190029003902F
:105220008DF80040FE208DF8010098208DF80200D6
:105230008DF803506B208DF8040005226946304636
:10524000FFF7B6FC7FBD7FB505460C4600200090F9
:105250000190029003908DF80040FF208DF801002E
:1052600066208DF802006B208DF803000422694649
:105270002846FFF79DFC7FBD7FB506460C461546C8
:10528000002000900190029003908DF80040932040
:105290008DF8010088208DF802008DF803506B20F6
:1052A0008DF80400052269463046FFF781FC7FBD7A
:1052B0002DE9FF4F89B00D4616461F4618AC94E8FD
:1052C000100EDDF85C80202101A802F0A9F98DF80C
:1052D00004504C208DF80500AE208DF806008DF8A6
:1052E00007608DF8087016988DF809004FEA28209D
:1052F0008DF80A0008F0FF008DF80B00200E8DF8E5
:105300000C00200C8DF80D00200A8DF80E00E0B284
:105310008DF80F004FEA29208DF8100009F0FF00EA
:105320008DF811004FEA2A208DF812000AF0FF00D4
:105330008DF813004FEA2B208DF814000BF0FF00BE
:105340008DF815001C988DF816006B208DF817004D
:10535000142201A90998FFF72BFC0DB0BDE8F08FCE
:105360002DE9FF4107460C4615461E4600200090D9
:105370000190029003908DF800409A208DF8010072
:105380008DF802508DF803606B208DF80400052223
:1053900069463846FFF70CFCBDE8FF817FB505463E
:1053A0000C46002000900190029003908DF8004080
:1053B0009C208DF8010048208DF802006B208DF8AC
:1053C0000300042269462846FFF7F2FB7FBD000078
:1053D00008B50121402000F09DFC0720ADF8000039
:1053E00048208DF803006946624800F0D7F9012192
:1053F000042000F08FFC0121084600F08BFC012105
:105400005D4800F09CFA48208DF8030002208DF8DA
:1054100002008003ADF800006946584800F0BEF96C
:1054200008BD2DE9F0410121524800F04AFA044636
:105430000221504800F045FA054604214D4800F08D
:1054400040FA06464FF400414C4800F03AFA07464D
:105450004B480078844209D14A480078032808DA8A
:1054600048480078401C4749087002E00020454940
:10547000087045480078854209D1444800780328DF
:1054800008DA42480078401C4049087002E00020D9
:105490003E4908703E480078864209D13D48007870
:1054A000032808DA3B480078401C3A49087002E0BB
:1054B00000203849087038480078874209D13748B9
:1054C0000078032808DA35480078401C3349087012
:1054D00002E00020314908702A480078032805DBE3
:1054E000274800782E49087025480470274800781E
:1054F000032805DB244800782A49087022480570F3
:1055000024480078032805DB2148007826490870E4
:105510001F48067021480078032805DB1E480078E4
:10552000224908701C4807701548007828B11C48AB
:10553000007810B901201E4908701348007828B17E
:105540001848007810B901201A49087010480078EE
:1055500028B11548007810B90120174908700E4885
:10556000007828B11148007810B90120134908705B
:10557000BDE8F08100180140000230000008014041
:105580008C0000209E0000208D0000209F00002045
:105590008E000020A00000208F000020A10000202D
:1055A000920000209300002094000020950000202D
:1055B00098000020990000209A0000209B00002005
:1055C0000948804709480047FEE7FEE7FEE7FEE797
:1055D000FEE7FEE7FEE7FEE7FEE7FEE704480549D3
:1055E000054A064B704700000B1E000831010008F9
:1055F000C8040020C80A0020C8060020C8060020F1
:1056000031490143314A1160704770B500210023D0
:105610000F22C47804B32D4C246804F4E064C4F56C
:10562000E064210AC1F10403CA40447804FA03F19A
:105630008478144021430901254C0678A15504784B
:1056400004F01F050124AC4005786D11AD0005F193
:10565000E025C5F8004109E0047804F01F050124A5
:10566000AC401C4D0678761145F8264070BD1A4AAC
:105670000A400243154B1B1F1A60704739B1134A89
:10568000121D12680243114B1B1D1A6006E00F4ADF
:10569000121D126882430D4B1B1D1A6070470428AF
:1056A00008D14FF0E021096941F004014FF0E022F8
:1056B000116107E04FF0E021096921F004014FF08A
:1056C000E0221161704700000000FA050CED00E0D7
:1056D00000E400E080E100E080FFFF1F10B5044619
:1056E000CC48844208D10121042000F02DFB002188
:1056F000042000F029FB46E0C748844208D101217C
:10570000082000F021FB0021082000F01DFB3AE0FA
:10571000C248844208D10121102000F015FB00216D
:10572000102000F011FB2EE0BD48844208D1012179
:10573000202000F009FB0021202000F005FB22E0E2
:10574000B848844208D10121402000F0FDFA002130
:10575000402000F0F9FA16E0B348844208D1012154
:10576000802000F0F1FA0021802000F0EDFA0AE03C
:10577000AE48844207D10121801500F0E5FA0021EE
:10578000A01500F0E1FA10BD10B50121084600F0A7
:10579000DBFA0021012000F0D7FA10BD2DE9F0411D
:1057A000024600250026002000230024002791F84F
:1057B00003C00CF00F0591F803C00CF0100CBCF105
:1057C000000F03D091F802C04CEA050591F800C023
:1057D000BCF1000F31D0146800202BE04FF0010C19
:1057E0000CFA00F3B1F800C00CEA03069E4220D187
:1057F00083004FF00F0C0CFA03F7BC4305FA03FCCF
:105800004CEA040491F803C0BCF1280F06D14FF014
:10581000010C0CFA00FCC2F814C00AE091F803C0B5
:10582000BCF1480F05D14FF0010C0CFA00FCC2F896
:1058300010C0401C0828D1D31460B1F800C0BCF1DE
:10584000FF0F34DD546800202EE000F1080C4FF00B
:10585000010808FA0CF3B1F800C00CEA03069E42F6
:1058600021D183004FF00F0C0CFA03F7BC4305FA6B
:1058700003FC4CEA040491F803C0BCF1280F05D1E5
:1058800000F1080C08FA0CF8C2F8148091F803C073
:10589000BCF1480F07D100F1080C4FF0010808FADD
:1058A0000CF8C2F81080401C0828CED35460BDE824
:1058B000F0814FF6FF710180022181700421C170D7
:1058C00070470246002093680B400BB1012000E0B6
:1058D000002070470146886880B270470246002069
:1058E000D3680B400BB1012000E000207047014657
:1058F000C86880B2704701617047416170470AB162
:10590000016100E041617047C16070474FF480322F
:105910000A438261816182618269826970470246BD
:105920000020434B18684FF68073184040EA02107D
:1059300008433F4B186070473E49C8617047F0B557
:105940000A46002300240021002500F00046B6F19D
:10595000004F02D1364EF16901E0354E7168C0F357
:10596000034583B200F44016B6F5401F08D121F07C
:1059700070612F4E766826F070662D4F7E6012E0C3
:1059800000F48016B6F5801F06D1032606FA05F44A
:10599000A14341F0706106E0460D360103FA06F6B8
:1059A000B14341F0706122B1460D360103FA06F6AB
:1059B000314300F00046B6F1004F02D11C4EF161B8
:1059C00001E01B4E7160F0BD30B500228B071C0F4B
:1059D0000F2303FA04F2164B08338C1053F82430CB
:1059E0009343134C08348D1044F8253023468C1013
:1059F00053F824308C07240F00FA04F423430C4C92
:105A000008348D1044F8253030BD0A49DC31086077
:105A10007047000000080140000C014000100140E8
:105A20000014014000180140001C0140002001400A
:105A30000000014000002042DF48006840F0010003
:105A4000DD49086008464068DC490840DA4948609A
:105A500008460068DA490840D749086008460068E7
:105A600020F4802008600846406820F4FE0048606A
:105A70004FF41F0088607047CF49096821F48031D6
:105A8000CD4A11601146096821F480211160B0F5FA
:105A9000803F03D0B0F5802F0ED106E0C6490968DB
:105AA00041F48031C44A116007E0C349096841F4F8
:105AB000A021C14A116000E000BF00BF704710B5CF
:105AC00001460022002300204A11012A02D1BA4CCB
:105AD000236806E0022A02D1B74C236A01E0B64CE3
