:020000040800F2
:10000000C00A00209D560008E51E0008E71E0008F3
:10001000EB1E0008EF1E0008F31E000800000000A1
:10002000000000000000000000000000F71E0008B3
:10003000F91E000800000000FB1E0008FD1E00085D
:10004000B7560008B7560008B7560008B75600085C
:10005000B7560008B7560008B7560008B75600084C
:10006000B7560008B7560008B7560008B75600083C
:10007000B7560008B7560008B7560008B75600082C
:10008000B7560008B7560008B7560008B75600081C
:10009000B7560008B7560008B7560008B75600080C
:1000A000B7560008B7560008B7560008B7560008FC
:1000B000B7560008B7560008B7560008B7560008EC
:1000C000B7560008B7560008B7560008B7560008DC
:1000D000B7560008AF1A0008D31A0008251B0008FD
:1000E000B7560008B7560008B7560008B7560008BC
:1000F000B7560008B7560008B7560008B7560008AC
:10010000B7560008B7560008B7560008B75600089B
:100110001B1C00086D1E0008051400086311000870
:10012000B7560008B7560008B7560008B75600087B
:1001300000F002F800F053F80AA090E8000C8244A6
:100140008344AAF10107DA4501D100F048F8AFF283
:10015000090EBAE80F0013F0010F18BFFB1A43F0A5
:100160000103184738CD000058CD0000103A24BFD5
:1001700078C878C1FAD8520724BF30C830C144BF0C
:1001800004680C607047000000230024002500264E
:10019000103A28BF78C1FBD8520728BF30C148BFEA
:1001A0000B60704766290AF02080642907F0C4813B
:1001B000632907F09C85002070471FB507F0E8FD14
:1001C00004000020002108F06BFF401C606000204C
:1001D000002108F04FFFE0601FBD10B510BD07F013
:1001E00023FF1146FFF7E9FF00F081FA07F04FFF08
:1001F00003B4FFF7F2FF03BC07F092FF2DE9F04FC5
:1002000087B0074617B907B0BDE8F08F3D46012417
:10021000612D05DB7A2D03DCA5F12000C5B204E0D9
:10022000412D02DB5A2D00DC0024FD48007809F046
:1002300017FEFC49029009F05BFEFB49039009F0B0
:1002400077FC0646F648007809F00AFEF749029066
:1002500009F04EFEF649039009F06AFC80464FF023
:1002600000094FF0FA0A09EB0A0000EBD0714FEADF
:10027000610B0A2006904FF482700590872004904D
:10028000A5F12B0030286ED2DFE800F0316D3C6D17
:100290006D6D181D22272C6D6D6D6D6D6D6D6D6D05
:1002A0006D6DC77AF4F5F260F1F0EFEEED95ECEBE1
:1002B000EAE9E8AF48E7E6E5E447E3E214B1002005
:1002C000D74908700DE214B10120D549087008E241
:1002D00014B10220D249087003E214B10320D049BE
:1002E0000870FEE114B10420CD490870F9E144B171
:1002F000CB480078042804DAC9480078401CC84973
:100300000870EEE144B1C6480078002804DDC44816
:100310000078401EC2490870E3E100BF0020C549D3
:100320000860C5490860C5490860C5490870C549E5
:100330000870C5490870C5490870C5490870C549A5
:1003400008700120C44981F83C02CAE164B1002070
:10035000B8490860B84806600020B8490860BE493E
:1003600081F83C020BE0BBE10020B2490860B249D1
:100370000860B24908600120B74981F83C02B0E149
:100380006CB10020AB49086086F00040AA490860C3
:100390000020AA490860B04981F83C020AE0002028
:1003A000A4490860A4490860A44908600120AA493A
:1003B00081F83C0295E164B186F000409D490860F7
:1003C00000209D4908609D490860A34981F83C02CE
:1003D0000AE000209749086097490860974908603B
:1003E00001209D4981F83C027BE154B191480660AF
:1003F00000209149086091490860974981F83C02C2
:100400000AE000208B4908608B4908608B4908602E
:100410000120914981F83C0263E16CB100208549DB
:1004200008608549086088F0004084490860002021
:10043000894981F83C020AE000207E4908607E4933
:1004400008607E4908600120834981F83C0248E148
:1004500055E0C7E00EE1B4E027E0B7E099E05BE0EB
:1004600053E037E0CAE06BE05EE086E00FE178E061
:100470009BE000E070E064B100206E4908606E49C6
:1004800008606E48C0F800800020734981F83C0283
:100490000AE000206749086067490860674908600A
:1004A00001206D4981F83C021BE16CB1002040F64F
:1004B000B832CDE900020290962308220121039070
:1004C000664804F03CFF04E000220121634804F088
:1004D0006EFF06E16CB1002040F6B832CDE90002B3
:1004E000029096230246012103905C4804F027FF06
:1004F00004E000220121594804F059FFF1E00022F4
:100500000121564804F053FFEBE024B196205449F2
:10051000088054490880E4E02CB14FF487705049BA
:10052000088050490880DCE04CB14F4909880A3105
:1005300088B25246494604F061F94B490880D0E040
:100540004CB1494909880A3988B25246494604F0F3
:1005500055F945490880C4E014B14348A0F800B0FB
:10056000BFE04CB140490988B43188B2524649468F
:1005700004F044F93C490880B3E04CB13A49098899
:10058000B43988B25246494604F038F936490880F1
:10059000A7E04CB135490988491D88B2DDE905213C
:1005A00004F02CF9314908809BE04CB12F490988AF
:1005B000491F88B2DDE9052104F020F92B490880A4
:1005C0008FE014B12949049808808AE04CB127498A
:1005D00009887D3188B2DDE9052104F00FF923494E
:1005E00008807EE04CB1214909887D3988B2DDE977
:1005F000052104F003F91D49088072E074B16FF021
:1006000002001B49086000200A4908600A49086086
:100610000A4908600120104981F83C0261E00000AD
:1006200005000020000020410000A041CDCCCC3DC1
:10063000CDCCCC3E080000200C0000201000002093
:10064000230000207E00002025000020270000203D
:100650002800002029000020D8000020004400408D
:100660005C000020140000205E00002060000020DC
:100670000000002054B1FE48007808B9012000E0D5
:100680000020FB4908700120FA49087029E034B3C2
:100690000120F9490870F94908700020F8490870EC
:1006A000F8490870F8490870F8490870F849087066
:1006B000F8490870EF490870F7490860F749086081
:1006C000F7490860F749C1F81401C1F81801C1F8E9
:1006D0001C0181F83C02F4A1F74804F04FFB00E054
:1006E00000BF00BF0020F549087000BF8BE596B041
:1006F00001F075FC06F078FE04F0E4FB01F0F0FC7C
:100700004FF4E13004F0E8F94FF4165004F031FAF8
:100710004FF4E13004F07CFA4FF4165004F0C7FABD
:1007200003F0A0F904F075F802F01EFF04F020FFBA
:1007300003F077FA03F046F8002301221146E0485F
:1007400004F0B4FD0420DF4908704FF4FA7006F09D
:1007500088FE04F039FB072006F083FE04F071FBED
:100760004FF47A7006F07DFEFDE304200D9010201A
:100770000C90CC48806C099009F0AEF9CDE90A01E3
:10078000CDE90001D048B0F90020D0A10EA806F0B4
:1007900095FE002010210EAACDE9002102900D98AF
:1007A0004FF6E0731F2201460B90022002F0AEFBD1
:1007B000DDE90C1008440D90BA48406C099009F02E
:1007C0008BF902460B46CDE90A01C4A10EA806F03A
:1007D00075FE002010210EAACDE9002102900D988F
:1007E0004FF6E0731F2201460B90022002F08EFBB1
:1007F000DDE90C1008440D90AA484068099009F002
:100800006BF9CDE90A0101460B98CDE90010B64815
:10081000B0F90020B5A10EA806F050FE002010216E
:100820000EAACDE9002102900D984FF6E0731F2229
:1008300001460B90022002F069FBDDE90C10084430
:100840000D9098480068099009F046F902460B4659
:10085000CDE90A01A9A10EA806F030FE0020102162
:100860000EAACDE9002102900D984FF6E0731F22E9
:1008700001460B90022002F049FBDDE90C10084410
:100880000D908848D0F8D000099009F025F9CDE9FD
:100890000A01CDE900019C48B0F900209BA10EA8F7
:1008A00006F00CFE002010210EAACDE900210290D6
:1008B0000D984FF6E0731F2201460B90022002F0C4
:1008C00025FBDDE90C1008440D907648D0F8CC00EB
:1008D000099009F001F902460B46CDE90A018FA102
:1008E0000EA806F0EBFD002010210EAACDE9002194
:1008F00002900D984FF6E0731F2201460B900220E4
:1009000002F004FBDDE90C1008440D906548D0F8B6
:100910008C00099009F0E0F8CDE90A01CDE9000169
:100920008148B0F9002081A10EA806F0C7FD002083
:1009300010210EAACDE9002102900D984FF6E07328
:100940001F2201460B90022002F0E0FADDE90C10B4
:1009500008440D905348D0F88800099009F0BCF87D
:1009600002460B46CDE90A0174A10EA806F0A6FDC9
:10097000002010210EAACDE9002102900D984FF61B
:10098000E0731F2201460B90022002F0BFFADDE95E
:100990000C1008440D906C48006809F09DF8024660
:1009A0000B46CDE90A0169A10EA806F087FD0020DB
:1009B00010210EAACDE9002102900D984FF6E073A8
:1009C0001F2201460B90022002F0A0FA3548D0F811
:1009D0001001099009F080F802460B46CDE90A01A2
:1009E0005DA10EA806F06AFD002010210EAACDE937
:1009F000002102900D984FF6E0731F2201460B90E4
:100A0000782002F083FADDE90C1008440D902548A7
:100A1000D0F84001099009F05FF802460B46CDE995
:100A20000A014FA10EA806F049FD002010210EAAD0
:100A3000CDE9002102900D984FF6E0731F22014688
:100A40000B90022002F062FA1648D0F814010990C7
:100A500009F042F802460B46CDE90A013EA10EA874
:100A600006F02CFD002010210EAACDE900217DE02A
:100A700021000020060000207E000020230000202E
:100A80002400002025000020260000202700002050
:100A90002800002029000020080000200C00002071
:100AA00010000020D80000200D0A414C49474E207C
:100AB00053544152540D0A000050004004000020DD
:100AC000004400406A00002048000020565F464C69
:100AD0003A2564202C2566202000000054464C5FF7
:100AE000563A2566202000004A000020565F4652F4
:100AF0003A2564202C256620200000005446525FD1
:100B0000563A2566202000004E000020565F4252D3
:100B10003A2564202C256620200000005442525FB4
:100B2000563A2566202000004C000020565F424CBB
:100B30003A2564202C2566202000000054424C5F9A
:100B4000563A256620200000500000205941573AAF
:100B50002566202020000000543A25662020200031
:100B6000765F783A256620202000000002900D98DC
:100B700080B24FF6E0731F2201460B90782002F0FE
:100B8000C5F9DDE90C1008440D90FE48D0F8440189
:100B9000099008F0A1FF02460B46CDE90A01FAA12F
:100BA0000EA806F08BFC002010210EAACDE9002132
:100BB00002900D9880B24FF6E0731F2201460B9011
:100BC000022002F0A3F9EF48D0F81801099008F0CC
:100BD00083FF02460B46CDE90A01EEA10EA806F0FE
:100BE0006DFC002010210EAACDE9002102900D9885
:100BF00080B24FF6E0731F2201460B90782002F07E
:100C000085F9DDE90C1008440D90DE49D1F860014A
:100C1000D1F8641102460B46CDE90A01DFA10EA806
:100C200006F04CFC002010210EAACDE90021029014
:100C30000D9880B24FF6E0731F2201460B90022000
:100C400002F064F9CF49D1F83001D1F834110246ED
:100C50000B46CDE90A01D4A10EA806F02FFC002016
:100C600010210EAACDE9002102900D9880B24FF616
:100C7000E0731F2201460B90962002F047F9DDE950
:100C80000C1008440D90BF49D1F86801D1F86C11DF
:100C900002460B46CDE90A01C5A10EA806F00EFCDE
:100CA000002010210EAACDE9002102900D9880B2FB
:100CB0004FF6E0731F2201460B90022002F026F946
:100CC000B049D1F83801D1F83C1102460B46CDE9C4
:100CD0000A01B5A10EA806F0F1FB002010210EAA12
:100CE000CDE9002102900D9880B24FF6E0731F22EB
:100CF00001460B90962002F009F9DDE90C1008443A
:100D00000D90A048D0F81C01099008F0E5FE0246BD
:100D10000B46CDE90A01A9A10EA806F0CFFB0020E1
:100D200010210EAACDE9002102900D9880B24FF655
:100D3000E0731F2201460B90022002F0E7F8DDE984
:100D40000C1008440D90A04800680A21B0FBF1F295
:100D500001FB12000B909C480068B0FBF1F0B0FB67
:100D6000F1F201FB12000A90974801686420B1FB80
:100D7000F0F00A21B0FBF1F201FB12000990924859
:100D800000684FF47A71B0FBF1F00A21B0FBF1F288
:100D900001FB120008908C48006842F21071B0FB11
:100DA000F1F20A20B2FBF0F100FB11200790864817
:100DB00001688648B1FBF0F00690DDE90823DDE923
:100DC0000A10CDE90123CDE90310079800907E4871
:100DD000069B7FA102680EA806F070FB0020102180
:100DE0000EAACDE9002102900D9880B24FF6E07373
:100DF0001F2201460B90022002F088F8DDE90C105A
:100E000008440D907948027879A10EA806F056FBA7
:100E1000002010210EAACDE9002102900D9880B289
:100E20004FF6E0731F2201460B90022002F06EF88D
:100E3000714872A102680EA806F040FB0020102144
:100E40000EAACDE9002102900D9880B24FF6E07312
:100E50001F2201460B90322002F058F869486AA11F
:100E600002680EA806F02AFB002010210EAACDE988
:100E7000002102900D9880B24FF6E0731F220146C8
:100E80000B90782002F042F8DDE90C1008440D9038
:100E90005F4860A102680EA806F010FB0020102138
:100EA0000EAACDE9002102900D9880B24FF6E073B2
:100EB0001F2201460B90022002F028F858480278C1
:100EC00058A10EA806F0FAFA002010210EAACDE9CA
:100ED000002102900D9880B24FF6E0731F22014668
:100EE0000B90502002F012F8DDE90C1008440D9030
:100EF0004F4802784FA10EA806F0E0FA002010211A
:100F00000EAACDE9002102900D9880B24FF6E07351
:100F10001F2201460B90022001F0F8FF474802789B
:100F200047A10EA806F0CAFA002010210EAACDE9AA
:100F3000002102900D9880B24FF6E0731F22014607
:100F40000B902A2001F0E2FF3F4802783FA10EA853
:100F500006F0B4FA002010210EAACDE9002102907B
:100F60000D9880B200E0FAE04FF6E0731F220146D0
:100F70000B90522001F0CAFF3648027836A10EA825
:100F80006EE00000D8000020765F793A25662020C8
:100F900020000000543A2566200000006E6F775F45
:100FA000783A256620200000543A252E326620002B
:100FB0006E6F775F793A256620202000765F773A5A
:100FC000256620202000000070000020A08601007F
:100FD00051525F636F64653A25642C202564256453
:100FE0002564256425642564202020007D000020E0
:100FF0006D763A256320000074000020583A25647D
:101000002020000078000020593A256420200000AC
:10101000000000207461736B3A256420000000001A
:1010200023000020616C69676E3A2564200000008F
:101030006400002075313A2563200000650000201F
:1010400075323A25632000006600002075333A258A
:10105000632000006700002075343A2563200000FB
:1010600006F02CFA002010210EAACDE900210290F2
:101070000D9880B24FF6E0731F2201460B907A2044
:1010800001F044FFFD480278FDA10EA806F016FA13
:10109000002010210EAACDE9002102900D9880B207
:1010A0004FF6E0731F2201460B90A22001F02EFFA5
:1010B000DDE90C1008440D90F348007801281DD19B
:1010C000DDE90C1008440D9000201021EFA2CDE9BD
:1010D000002102900D9880B24FF6E0731F22014666
:1010E0000B90022001F012FF02F09BFD02F06AFB60
:1010F0000020E94981F83C02E3490870E74800789C
:10110000012820D1DDE90C1008440D9000201021A9
:10111000E3A2CDE9002102900D9880B24FF6E07372
:101120001F2201460B90022001F0F0FEDA4890F8F1
:101130003C0208B9012000E00020D74981F83C02B8
:101140000020D6490870D948006808B9012000E09D
:101150000020D6490860012006F083F900BFFFF7A0
:1011600004BB1FB50121D24805F025FF01287DD120
:10117000D0480068401CCF49086008460068CE4946
:101180000968401A022807D34821CC4806F064F8C1
:10119000C8480068C8490860C948007888B9C54887
:1011A0000068C8490968401A01280AD90020C649C0
:1011B0000860C6490860C64908600120B64981F840
:1011C0003C02C4480088C449098888420BDAC149F6
:1011D0000988891C88B24FF48772962103F00EFBB0
:1011E000BC49088019E0BB480088BB49098888428F
:1011F00013DDB8480088022804DDB6480088801E48
:1012000080B200E0962004464FF487729621204673
:1012100003F0F4FAAF49088000BFB048007830B15D
:101220004FF48770AB4908800020AC490870AC4887
:101230000078002820DD0020A3490860A948A349C0
:1012400008600020A2490860934981F83C02A44844
:101250000078401EA24908700846007860B9002056
:101260009949086099490860994900E0C9E0086017
:101270000120894981F83C029B480068C01C90B954
:1012800000204FF4FA72CDE90002029013460246A4
:1012900001210390954804F052F800208549086028
:1012A000801E9149086090480068801C68B9814898
:1012B00000680A2809D34FF4877086490880002007
:1012C0007C490860401E8849086087480068401CC7
:1012D000B0B9784800680A2812D3002042F6E062CC
:1012E000CDE9000202904FF4FA7308220121039025
:1012F0007E4804F024F800206E4908607A490860AE
:101300007948006860B96B4800680A2808D3FA2059
:101310007749088000206749086001207249086009
:1013200071480068012816D1624800680A2812D363
:1013300000204FF4FA72CDE90002029013460246F3
:1013400001210390694803F0FAFF00205949086021
:101350000220654908606448006802280CD155489D
:1013600000680A2808D396205A490880002051496D
:10137000086003205C4908605B480068032817D1B7
:101380004C4800680A2813D3002040F6AC52CDE93F
:10139000000202904FF4FA7308220121039053488F
:1013A00003F0CDFF00204349086004204E49086047
:1013B0004D48006804280BD13E4800680A2807D32E
:1013C00000204B4908803B490860052046490860D9
:1013D00045480068052806D16FF06300424908605F
:1013E00001204449087031481030006808B90120D4
:1013F00000E000202D491031086001212C4805F043
:10140000EBFD1FBD2DE9FC4701213B4805F0D3FD55
:10141000012832D1394805F0BCFD00B238490880B6
:10142000384805F0B6FD404200B2374908804FF019
:10143000804005F0AEFD00B234490880344805F024
:10144000A8FD00B23349088000214FF0804005F02C
:101450007DFD00212E4805F079FD0021274805F08B
:1014600075FD0021274805F071FD02F027FD0A48AF
:1014700002F085FD084844304EE016E36800002085
:1014800075353A2563200000900000206B657931A6
:101490005F666C6167000000D800002091000020AA
:1014A0006B6579325F666C61670000009481214250
:1014B00000140040800000201C000020005000406C
:1014C0007E00002018000020080000200C000020F2
:1014D000100000205C0000201400002020000020EC
:1014E000220000200000F0410000002000440040E5
:1014F0005E000020060000200010004000080040B0
:101500004A000020000C0040480000204E0000204F
:10151000000400404C00002002F031FDFE4802F0C3
:101520002EFDFD48443002F02AFD02F048FDFB4844
:10153000007870B1FA480068F7498839C1F8140199
:10154000F8480068C1F81801F7480068C1F81C01A4
:101550004BE103F082F8F0488838D0F81C0180F0A5
:101560000040ED498839C1F81C010846D0F86021D7
:10157000D0F86411104607F0A9FD0446E649883901
:10158000D1F83021D1F83411104607F09FFD0546FF
:1015900022462946E54802F074FBDF488838D0F837
:1015A0006821D0F86C11104607F090FD0446DA4827
:1015B0008838D0F83821D0F83C11104607F086FD65
:1015C000054622462946D948283002F05AFBD2481F
:1015D0008838D0F8BC01D0498839C1F814010846D0
:1015E000D0F8E401C1F81801D1F81001002108F089
:1015F000CFFB0DD1C8488838D0F8E401C6498839F6
:10160000C1F818010846D0F8BC01C1F8140150E037
:10161000C1498839D1F81001C54908F0B9FB0FD18B
:10162000BD488838D0F8E40180F00040BA498839D4
:10163000C1F814010846D0F8BC01C1F8180138E01F
:10164000B5498839D1F81001BA4908F0A1FB0FD18A
:10165000B1488838D0F8E401AF498839C1F814019D
:101660000846D0F8BC0180F00040C1F8180120E025
:10167000A9498839D1F81001AF4908F089FB07D092
:10168000A5498839D1F81001AC4908F081FB10D187
:10169000A1488838D0F8BC0180F000409E498839C4
:1016A000C1F814010846D0F8E40180F00040C1F808
:1016B0001801A348007801287ED1A2480068A0F54F
:1016C000A074A1480078002860D000209F490870CD
:1016D000142C21DC14F1140F1EDB8F498839C1F85A
:1016E0001401C1F81801C1F81C01012081F83C0265
:1016F00000209349087096490870012087490870B6
:10170000002094490870944908709449087094A185
:10171000964803F033FB38E0204608F089FB064684
:10172000934908F0E5FB05469249284608F0ACFCD1
:1017300001D2904D05E09049284608F0A5FB00D263
:101740008D4D0021284608F09FFC06D28B49284683
:1017500008F09AFB01D2894D0AE00021284608F0E2
:1017600093FB05D28649284608F08EFC00D2844DB2
:1017700069488838C0F81451002067498839C1F891
:101780001801C1F81C0181F83C022DE06F48007877
:10179000142804DA6D480078401C6C490870002059
:1017A0005D498839C1F81401C1F81801C1F81C015C
:1017B000012081F83C0200E017E000206549087034
:1017C00065490870654908706048007814280BDB8B
:1017D00000205B4908705E49087001204F4908707D
:1017E00068A1624803F0CAFA00BF4B498839D1F8B2
:1017F0001C0108F071F904460D4647498839D1F8B3
:10180000140108F069F906460F4643498839D1F8B2
:10181000180108F061F9804632463B46CDE90045A3
:1018200002F063FF3C488838426801680C3002F0DF
:101830007BFA39488838826C416C503002F074FA77
:1018400035488838D0F88C20D0F88810943002F0D1
:101850006BFA31488838D0F8D020D0F8CC10D83086
:1018600002F062FA2C48883890F83C02012808D12E
:1018700000212948883801634167C0F8B810C0F8D2
:10188000FC1025498839434A486F434903F04CFB13
:10189000014621488838416701463E4A086B3E4967
:1018A00003F042FB1C49883908633A4AD1F8B80072
:1018B000394903F039FB014617488838C0F8B81099
:1018C0000146344AD1F8FC00334903F02DFB0146B0
:1018D00011488838C0F8FC100146086B08F08CFAF3
:1018E0000D4988398860486F08F086FA0A498839B6
:1018F000C864D1F8B80008F07FFA07498839C1F800
:101900009000D1F8FC0008F077FA03498839C1F853
:10191000D400C86C42E000006001002006000020F6
:10192000080000200C00002010000020740200209D
:101930000000B4420000B4C200003443000034C3CD
:101940007E000020740000202500002026000020DA
:10195000230000202700002028000020290000206C
:10196000414C49474E204F4B0D0A000000500040AB
:101970006666E63E0000F0420000F0C200000C4245
:1019800000000CC2414C49474E204C4F53540D0AA5
:10199000000000000078BB450078BBC508F048FA9D
:1019A0000546FB4AFB4903F0BFFA044608F024FA57
:1019B000F949C864886808F03BFA0546F44AF549D5
:1019C00003F0B2FA044608F017FAF3498860D1F838
:1019D000900008F02DFA0546ED4AEE4903F0A4FA0E
:1019E000044608F009FAEC49C1F89000D1F8D40097
:1019F00008F01EFA0546E64AE64903F095FA044661
:101A000008F0FAF9E449C1F8D400002041F26F71FE
:101A1000CDE90010E0484FF400629110C36C084615
:101A200002F0C7F9002041F26F71CDE90010DA48E9
:101A30004FF4804291108368402002F0BAF90020F0
:101A400041F26F71CDE90010D3484FF4004291107C
:101A5000D0F89030481102F0ACF9002041F26F71DB
:101A6000CDE90010CC484FF480629110D0F8D4300A
:101A7000802002F09EF9C948008802F038FFC8486B
:101A8000008802F056FFC748008802F041FF03F0CB
:101A900098FDC548006808B9012000E00020C2494F
:101AA00008600121C14805F097FABDE8FC8710B530
:101AB00040F22551BE4805F053FC48B1BC4805F042
:101AC000CFFBBC49087040F22551B94805F072FCC3
:101AD00010BD10B540F22551B74805F041FC00B3E8
:101AE000B54805F0BDFBB549087008460078B44913
:101AF000B44A12788854B3480078B34909788842C8
:101B000005D10120B14908700020AE490870AD48E8
:101B10000078401CAB49087040F22551A64805F0FA
:101B200049FC10BD2DE9F04140F22551A84805F0CF
:101B300017FC00286FD0A64805F092FBA549087055
:101B400008460078A449A54A12788854A34800782A
:101B500010B101281CD10BE09F48A0490978405CD6
:101B6000552804D19D480078401C9C49087015E018
:101B700099489A490978405C522805D197480078DD
:101B8000401C9649087002E000209449087005E066
:101B900092480078401C9149087000BF00BF8F48F0
:101BA0000078152831D18C48407C8B49897C40EAEB
:101BB000012004B2204608F03BF907464FF08E4161
:101BC00008F024F80646864908F092F9854908602D
:101BD000084600687049C1F848017F4880797E490D
:101BE000C97940EA012005B2284608F021F90746E4
:101BF0004FF08E4108F00AF806467B4908F078F964
:101C00007A49086000207549087040F225517048F3
:101C100005F0D0FB00BFBDE8F08100B591B040F207
:101C20002551734805F09CFB012877D1704805F0D9
:101C300017FB704908700846007841281BDB0846EE
:101C40000078472817DC084600786B490870694817
:101C500000786A49087000206949087014216948B1
:101C600005F059FD5048006808B9012000E0002047
:101C70004D490860F3E05F48007851281DD15E4966
:101C8000087000205D4908705D4908705E49087061
:101C90005E4908705EA1604803F070F8142159484D
:101CA00005F039FD4048001D006808B9012000E03A
:101CB00000203D49091D0860D1E050480078002807
:101CC000D8D04C480078302812DB4A4800783928B0
:101CD0000EDC4B48007813280AD246480178484861
:101CE00002780078401C464B187046488154B6E094
:101CF00040480078582812D100204249404A1278C2
:101D00008854084605F0DBFC4449086000203C4943
:101D1000087014213B4805F0FEFCA0E0A4E0354823
:101D20000078592833D100213648354A1278815439
:101D300005F0C5FC3A4908600020314908702F4978
:101D40000870012030490870002036490870344876
:101D50000368324834A1026801A805F0AFFB01A96D
:101D60002D4803F00BF81421264805F0D4FC334825
:101D7000007828B13248007810B90A20304908703C
:101D800009480C38006808B901205CE05AE05DE0C1
:101D90000078BB450078BBC5D80000205C0000205F
:101DA0005E00002060000020A08121420010004061
:101DB000003801406400002000440040650000201D
:101DC00068030020690000206A0000206B000020EA
:101DD0000048004066000020B00000202A000020DB
:101DE00000003443500000200000FA44540000205A
:101DF000004C0040670000207D00002024000020EF
:101E00007C00002088030020250000202000002006
:101E10004D5620510D0A0000005000407400002073
:101E200078000020260000204D56204120583D25F6
:101E30006420593D25640D0A0000000021000020A7
:101E40002200002000201D49086008E000201C49F5
:101E500008701C49087014211B4805F05CFC40F216
:101E600025511A4805F0A6FA11B000BD10B540F290
:101E70002551174805F074FA01281DD1144805F0C2
:101E8000EFF91449087008460078134908701348A0
:101E90000068134908600F480078FEF7AFF900208A
:101EA0000D4908700B480178094805F0D5F940F252
:101EB0002551074805F07EFA10BD000094812142AB
:101EC000240000207C00002088030020004C0040FB
:101ED0000050004068000020040000208000002026
:101EE00018000020704700BFFEE700BFFEE700BFFC
:101EF000FEE700BFFEE7704770477047704700007D
:101F00000CB50020019000906C48006840F48030CF
:101F10006A49086000BF6948006800F4003000901A
:101F20000198401C0190009818B90198B0F5A06F75
:101F3000F1D16248006800F4003010B10120009037
:101F400001E0002000900098012843D15C4800681F
:101F500040F010005A4908600846006820F003006D
:101F600008600846006840F0020008605348406876
:101F7000524948600846406848600846406840F456
:101F8000806048600846406820F47C10486008463D
:101F9000406840F4E81048600846006840F08070EF
:101FA000086000BF4548006800F000700028F9D0C4
:101FB0004248406820F003004049486008464068B5
:101FC00040F00200486000BF3C48406800F00C0050
:101FD0000828F9D10CBD10B5FFF792FF10BD10B560
:101FE0003648006840F001003449086008464068FF
:101FF0003449084031494860084600683249084081
:102000002E4908600846006820F4802008600846D1
:10201000406820F4FE0048604FF41F008860FFF71E
:10202000DAFF4FF000602949086010BD10B50021AB
:1020300000200022214B5B6803F00C0121B1042930
:1020400006D0082928D107E0214B224C236027E045
:102050001F4B204C236023E0184B5B6803F4701087
:10206000164B5B6803F48032022303EB904022B9E5
:10207000194B4343174C23600DE0104B5B6803F48E
:10208000003323B1144B4343124C236003E0104B45
:102090004343104C236003E00D4B0E4C236000BF04
:1020A00000BF064B5B68C3F303130C4CE15C094BA8
:1020B0001B68CB40074C236010BD0000001002409D
:1020C000002002400000FFF8FFFFF6FE08ED00E0F0
:1020D00000127A002C00002000093D003000002092
:1020E00000B587B00121084603F08FFE01210220D0
:1020F00003F08BFE0121042003F087FE012108205C
:1021000003F083FE0121042003F072FE0121082068
:1021100003F06EFE0121084603F06AFE01219E488D
:1021200003F07BFC01219D4803F077FC28208DF80B
:102130001B0048F2C300ADF8180003208DF81A0008
:1021400006A9974803F098FBC820ADF8180006A927
:10215000944803F091FB03A804F034FC4FF6FF70A1
:10216000ADF810000020ADF80C008DF8140003A9A4
:102170004FF0804004F0FAF803A804F023FC4FF677
:10218000FF70ADF810000020ADF80C008DF81400C1
:1021900003A9854804F0EAF803A804F013FC4FF6FD
:1021A000FF70ADF810000020ADF80C008DF81400A1
:1021B00003A97E4804F0DAF803A804F003FC4FF604
:1021C000FF70ADF810000020ADF80C008DF8140081
:1021D00003A9774804F0CAF8684604F006FC00201A
:1021E000ADF800000F20ADF8080069464FF08040C0
:1021F00004F04FFB0420ADF800000F20ADF80800FC
:1022000069464FF0804004F044FB684604F0EDFB63
:102210000020ADF800000F20ADF8080069466248C4
:1022200004F037FB0420ADF800000F20ADF80800E3
:1022300069465D4804F02DFB684604F0D6FB00209B
:10224000ADF800000F20ADF808006946574804F0CB
:1022500020FB0420ADF800000F20ADF8080069460F
:10226000524804F016FB684604F0BFFB0020ADF8AE
:1022700000000F20ADF8080069464D4804F009FB46
:102280000420ADF800000F20ADF80800694648486A
:1022900004F0FFFA00231A4603214FF0804004F0B7
:1022A00074FC00231A4603213F4804F06EFC00230F
:1022B0001A4603213D4804F068FC00231A46032116
:1022C0003B4804F062FC0121880704F0ABFB0121CC
:1022D000354804F0A7FB0121344804F0A3FB012199
:1022E000334804F09FFB07B000BD00B587B0012163
:1022F000042003F07DFD0121084603F086FD042043
:102300008DF81B000C20ADF8180006A9244803F036
:10231000B3FA03A804F056FB0020ADF81200ADF8A4
:102320000E004FF6FF70ADF810000020ADF80C0065
:1023300003A94FF0804004F019F800231A46032146
:102340004FF0804004F021FC684604F04EFB08206A
:10235000ADF800000A20ADF808006946400704F017
:1023600098FA0C20ADF800000A20ADF80800694684
:10237000400704F08EFA01221146900704F06DFB2D
:1023800000214FF0804004F0E1FD0121880704F0B6
:1023900049FB07B000BD000000023000000118003A
:1023A00000080140000C014000040040000800400B
:1023B000000C004070B505460E46144631462846CE
:1023C00001F02AF8204600F0E8FF70BD2DE9F05F2B
:1023D00004460D4616461F46301B401C1FFA80FA65
:1023E000781B401C1FFA80FB3B463246294620469C
:1023F00000F0E8FF4FF000080FE04FF0000906E0A2
:102400000A9800F0CAFF09F101001FFA80F9D145CE
:10241000F6DB08F101001FFA80F8D845EDDBFE4835
:102420004088401E83B2FC480088401E82B20021D2
:10243000084600F0C7FFBDE8F09F2DE9FF4F85B0CB
:1024400081468A460020049003900798A0EB090576
:102450000898A0EB0A06CDF80890CDF804A0002D4E
:1024600001DD012705E00DB9002702E04FF0FF373D
:102470006D42002E02DD4FF0010806E016B94FF064
:10248000000802E04FF0FF387642B54201DD2C46ED
:1024900000E034464FF0000B21E0019A91B2029A1D
:1024A00090B200F0C3FF049828440490039830448D
:1024B00003900498A04205DD0498001B0490029844
:1024C000384402900398A04205DD0398001B039056
:1024D0000198404401900BF101001FFA80FB601C41
:1024E0008345DADD09B0BDE8F08F2DE9F0410446FF
:1024F0000D4616461F462B46324629462046FFF714
:102500009CFF3B46224629462046FFF796FF3B4666
:10251000324639462046FFF790FF3B463246294671
:102520003046FFF78AFFBDE8F081F8B504460D4656
:1025300016461F46B94800883B4632462946009059
:102540002046FFF743FFF8BD2DE9F04104460D4654
:1025500016461F46DDF81880EA1991B2A21990B20A
:102560004246FFF727FFEA1991B2A21B90B24246FA
:10257000FFF720FFEA1B91B2A21990B24246FFF783
:1025800019FFEA1B91B2A21B90B24246FFF712FF5D
:10259000AA1991B2E21990B24246FFF70BFFAA19AD
:1025A00091B2E21B90B24246FFF704FFAA1B91B220
:1025B000E21990B24246FFF7FDFEAA1B91B2E21B60
:1025C00090B24246FFF7F6FEBDE8F0812DE9FF4FDD
:1025D00081B0824617469846DDF838B0002445465B
:1025E0004FEA4800C0F10306BBF1000F1FD01BE00B
:1025F000A14608E04B462246009750460299FFF755
:10260000A3FF09F10109A945F4DD002E04DA042035
:1026100000FB0460861D06E0601B042101FB0060D6
:1026200000F10A066D1E641CAC42E1DD18E015E005
:102630002B462246009750460299FFF785FF002E51
:1026400004DA042000FB0460861D06E0601B042100
:1026500001FB006000F10A066D1E641CAC42E7DD60
:1026600005B0BDE8F08F2DE9F04704460D4616464B
:102670001F46DDE908893B46324629462046FFF7DA
:10268000DCFE4B46424639463046FFF7D6FE2B4627
:10269000224649464046FFF7D0FEBDE8F087028853
:1026A0000B8803800A8070472DE9FF4F85B0002614
:1026B0000027BDF81800BDF82010884207DD08A9E2
:1026C00006A8FFF7ECFF07A905A8FFF7E8FFBDF88C
:1026D0002000BDF84C10884207DD08A913A8FFF7B9
:1026E000DEFF07A912A8FFF7DAFFBDF81800BDF852
:1026F0002010884207DD08A906A8FFF7D0FF07A928
:1027000005A8FFF7CCFFBDF81800BDF84C108842B3
:1027100038D1BDF8140003900490BDF81C00BDF83A
:102720001010884203DABDF81C00049008E0BDF8E0
:102730001C00BDF80C10884202DDBDF81C0003909F
:10274000BDF84800BDF81010884203DABDF8480013
:10275000049008E0BDF84800BDF80C10884202DD86
:10276000BDF8480003902D4800880090BDF818304F
:10277000BDF80C201946BDF81000FFF727FE09B080
:10278000BDE8F08FBDF81C00BDF81410A0EB010BE4
:10279000BDF82000BDF81810401A0290BDF848009E
:1027A000BDF81410451ABDF84C00BDF81810A0EB88
:1027B0000109BDF84800BDF81C10A0EB010ABDF8E6
:1027C0004C00BDF82010401A0190BDF82000BDF863
:1027D0004C10884202D1BDF8208004E0BDF82000F2
:1027E000401E1FFA80F8BDF818402CE0029896FBB6
:1027F000F0F0BDF81410084480B2049097FBF9F093
:10280000BDF81410084480B203905E442F44BDF814
:102810001000BDF80C1003E0C600002040000020AE
:10282000884203DD03A904A8FFF739FFFE480088AA
:1028300023460090BDF80C202146BDF81000FFF79C
:10284000C5FD601C84B24445D0DDBDF82000201ACF
:1028500000FB0AF6BDF81800201A00FB05F727E078
:10286000019896FBF0F0BDF81C10084480B204906B
:1028700097FBF9F0BDF81410084480B20390564459
:102880002F44BDF81000BDF80C10884203DD03A9E9
:1028900004A8FFF704FFE448008823460090BDF831
:1028A0000C202146BDF81000FFF790FD601C84B29B
:1028B000BDF84C008442D3DD00BF60E72DE9FF4F37
:1028C00083B081468A469346DDE91064D648008885
:1028D0000290A6F12000C6B204EBD47009EB6000B0
:1028E000401E82B20AEB0400401E83B251464846A5
:1028F000019400F067FD129850BB002525E00C2CD8
:1029000007D106EB4600C94901EB800010F80580AD
:1029100004E0C74800EB061010F8058000270DE022
:1029200008F0010018B1584600F037FD02E00698A3
:1029300000F033FD4FEA6808781CC7B204EBD4718D
:10294000B7EB610FECDB681CC5B2A542D7DB2DE00D
:10295000002529E00C2C07D106EB4600B34901EB1A
:10296000800010F8058004E0B14800EB061010F874
:102970000580002711E0AC48A0F800B008F0010085
:1029800038B10AEB050291B209EB070290B200F0F0
:102990004DFD4FEA6808781CC7B204EBD471B7EB61
:1029A000610FE8DB681CC5B2A542D3DB9E490298E3
:1029B0000880A0484088401E83B29E480088401E80
:1029C00082B20021084600F0FDFC07B0BDE8F08FA0
:1029D0002DE9FE4306460F4615461C46DDF82880C5
:1029E0001DE094480088401EB04204DB91484088B6
:1029F000401EB84201DABDE8FE8320788DE821014F
:102A00008D4803888848028839463046FFF756FFCC
:102A1000284605EBD07106EB61018EB2641C20786C
:102A20007E2802DC20782028DBDA00BFE3E710B53F
:102A30000246012000E050430B1EA1F10104E1B267
:102A4000F9D110BD2DE9FF4F83B0074691461E46D0
:102A5000109C4FF0000A002543E0701B401EC1B2DD
:102A60000A20FFF7E4FFB9FBF0F00A21B0FBF1F216
:102A700001FB1208BAF1000F1BD1701EA84218DD2D
:102A8000B8F1000F13D100202021A346CDE9001496
:102A9000029004EBDB71491001FB057188B26649B5
:102AA0000B8861490A880499FFF708FF17E04FF087
:102AB000010A002108F13000C0B2A346CDE901416E
:102AC000009004EBDB71491001FB057188B25A4993
:102AD0000B8855490A880499FFF7F0FE00BF681C6F
:102AE000C5B2B542B9DB07B0BDE8F08F2DE9FC5F98
:102AF0000546884691469A46DDF830B000953E205E
:102B0000019000245FE004EB04104C4911F8100020
:102B10009BF80010884253D104EB0410474901EBA5
:102B2000400040789BF80110884249D108F10F001D
:102B300083B205F10F0082B24146284600F042FC04
:102B400000263BE0002734E00D9890B904EB041018
:102B50003A4901EB4000801C805D802139410840EA
:102B600018B1484600F019FC21E0504600F015FC71
:102B70001DE02D48A0F8009004EB04102F4901EB54
:102B80004000801C805D80213941084018B14146D9
:102B9000284600F04BFC681C85B20098281A1028C3
:102BA00005D1009D08F101001FFA80F803E0781CB0
:102BB000C7B2082FC8DB00BF701CC6B2202EC1DB15
:102BC00000BF601C84B2019884429CDB1948408895
:102BD000401E83B217480088401E82B2002108467A
:102BE00000F0F0FBBDE8FC9F2DE9FC5F0546884640
:102BF00091469A46DDF830B00095072001900024F8
:102C000076E004EB840000EB44100D4911F810004D
:102C10009BF80010884268D104EB840000EB44105C
:102C2000074901EB40000DE040000020DEA2000853
:102C300052A70008C60000204200002042AD000854
:102C40007EB5000840789BF8011088424DD108F10C
:102C5000170083B205F1170082B24146284600F002
:102C6000B1FB00263FE0002738E00D98A0B904EB47
:102C7000840000EB4410FB4901EB4000801C805DA8
:102C800080213941084018B1484600F086FB23E016
:102C9000504600F082FB1FE0F348A0F8009004EBE0
:102CA000840000EB4410EF4901EB4000801C805D84
:102CB00080213941084018B14146284600F0B6FB52
:102CC000681C85B20098281A182805D1009D08F1C3
:102CD00001001FFA80F803E0781CC7B2082FC4DB9C
:102CE00000BF701CC6B2482EBDDB00BF601C84B2A2
:102CF0000198844285DBDD484088401E83B2DB4872
:102D00000088401E82B20021084600F05BFBBDE84F
:102D1000FC9F2DE9FC5F0546884691469A46DDF802
:102D200030B000950520019000245FE004EB841092
:102D3000CF4911F810009BF80010884253D104EBE2
:102D40008410CB4901EB400040789BF80110884289
:102D500049D108F11F0083B205F11F0082B241463C
:102D6000284600F02FFB00263BE0002734E00D98BA
:102D700090B904EB8410BE4901EB4000801C805DDB
:102D800080213941084018B1484600F006FB21E097
:102D9000504600F002FB1DE0B348A0F8009004EBA1
:102DA0008410B34901EB4000801C805D80213941D3
:102DB000084018B14146284600F038FB681C85B22F
:102DC0000098281A202805D1009D08F101001FFA5B
:102DD00080F803E0781CC7B2082FC8DB00BF701C66
:102DE000C6B2802EC1DB00BF601C84B20198844251
:102DF0009CDB9E484088401E83B29C480088401E51
:102E000082B20021084600F0DDFABDE8FC9F2DE902
:102E1000FC5F0546884691469A46DDF830B000953D
:102E200004200190002460E004EB0420914911F893
:102E300010009BF80010884254D104EB04208D4907
:102E400001EB400040789BF8011088424AD108F11C
:102E50003F0083B205F13F0082B24146284600F0B0
:102E6000B1FA00263BE0002734E00D9890B904EB5E
:102E70000420804901EB4000801C805D80213941A5
:102E8000084018B1484600F088FA21E0504600F0AA
:102E900084FA1DE07448A0F8009004EB0420754902
:102EA00001EB4000801C805D80213941084018B151
:102EB0004146284600F0BAFA681C85B20098281AE4
:102EC000402805D1009D08F101001FFA80F803E0B9
:102ED000781C87B2082FC8DB00BF701C86B2B6F51D
:102EE000007FC0DB00BF601C84B2019884429BDB82
:102EF0005E484088401E83B25C480088401E82B213
:102F00000021084600F05EFABDE8FC9F2DE9FF4F66
:102F100083B0064688469146DDE91147109DB246CA
:102F20004FF0000B7BE0BBF1000F40D104EBD471FC
:102F30004E4A1288A2EB6101B14204DB4B49498839
:102F4000091B414502DA07B0BDE8F08F28788028D8
:102F500002DD4FF0010B62E028780D2806D108EB66
:102F600004001FFA80F856466D1C1EE0102C0DDD83
:102F7000102128788DE883004A4641463046069B5A
:102F8000FFF79CFC06F1080086B20EE028788DE879
:102F900091004A4641463046069BFFF78FFC20468B
:102FA00004EBD07106EB61018EB26D1C37E02F4847
:102FB0000088001BB04204DB2C484088001B4045C1
:102FC00000DAC0E74FF0000B402C07D1CDE90057E5
:102FD0004A4641463046069BFFF719FF202C08D190
:102FE000CDE900574A4641463046069BFFF791FE21
:102FF00012E0182C08D1CDE900574A464146304628
:10300000069BFFF7F1FD07E0CDE900574A46414630
:103010003046069BFFF76AFDAD1C301986B2287852
:10302000002880D100BF8EE72DE9FE4F0E461746DF
:103030009846DDE90D9A0C9C204604F04DFB85B2C4
:103040000A490988A1EBC50000EBD071C1F34F0B11
:1030500043463A46314658468DE81006FFF756FF7C
:10306000BDE8FE8F7EB5000840000020C6000020AD
:1030700084B70008DEC400082DE9F04706460F4675
:10308000154607F1270083B206F1270082B23946C0
:10309000304600F097F900240AE015F8149005EB8B
:1030A000440090F8018049EA082000F076F9641C99
:1030B000B4F5C86FF1DB9B484088401E83B2994845
:1030C0000088401E82B20021084600F07BF9BDE86E
:1030D000F0872DE9F05F04460F4690469A46DDF8EA
:1030E00028B0A14607F13F0083B204F13F0082B24D
:1030F0003946204600F066F900253AE0002632E025
:103100000B9890B90BEB0B20874901EB4000801C1A
:10311000405D80213141084018B1404600F03DF942
:103120001FE0504600F039F91BE08048A0F800800D
:103130000BEB0B207C4901EB4000801C405D8021A3
:103140003141084018B13946204600F06FF9601C43
:1031500084B2A4EB0900402803D14C46781C87B206
:1031600003E0701C86B2082ECADB00BF00BF681CDB
:1031700085B2B5F5007FC1DB6A484088401E83B246
:1031800068480088401E82B20021084600F01AF903
:10319000BDE8F09F2DE9F05F04460F4690469A4641
:1031A000DDF828B0A14607F14F0083B204F12700F3
:1031B00082B23946204600F005F900253CE00026A1
:1031C00034E00B9898B9C9200BFB00F0584901EB8B
:1031D0004000801C415D80203041014019B14046D3
:1031E00000F0DBF820E0504600F0D7F81CE04F4834
:1031F000A0F80080C9200BFB00F04D4901EB400016
:10320000801C405D80213141084018B1394620467C
:1032100000F00CF9601C84B2A4EB0900282803D14B
:103220004C46781C87B203E0701C86B2082EC8DBBF
:1032300000BF00BF681C85B2B5F5C87FBFDB394849
:103240004088401E83B237480088401E82B2002169
:10325000084600F0B7F8BDE8F09F2DE9F05F04469E
:103260000F4690469A46DDF828B0A14607F12F0098
:1032700083B204F12F0082B23946204600F0A2F852
:1032800000253EE0002636E00B98A0B90BEB0B10B2
:1032900000EBCB10274901EB4000801C415D8020F2
:1032A0003041014019B1404600F077F821E0504626
:1032B00000F073F81DE01D48A0F800800BEB0B1028
:1032C00000EBCB101B4901EB4000801C405D8021CE
:1032D0003141084018B13946204600F0A7F8601C7B
:1032E00084B2A4EB0900302803D14C46781C87B285
:1032F00003E0701C86B2082EC6DB00BF00BF681C4E
:1033000085B2B5F5907FBDDB06484088401E83B28C
:1033100004480088401E82B20021084600F052F89E
:10332000BDE8F09FC6000020DEC400084000002079
:1033300096BE00080EBA000810B504460420FE49E7
:103340000860402008602146FC4801F007FB04208B
:10335000F949091F086010BD10B504460420F6495C
:1033600008604020091F08602146F44801F0F6FA81
:103370000420F149091F086010BD70B505460C46D0
:103380002846FFF7D9FFE0B2FFF7E6FF70BD10B5A2
:10339000EB49087AFFF7D0FF10BD10B504460420B2
:1033A000E54908604020091F08602112E34801F048
:1033B000D5FAE1B2E14801F0D1FA0420DE49091F53
:1033C000086010BD2DE9F04104460D4616461F4623
:1033D000DB49887AFFF7B0FF2012FFF7BDFFE0B2AC
:1033E000FFF7BAFF3012FFF7B7FFF0B2FFF7B4FFF5
:1033F000D349087BFFF7A0FF2812FFF7ADFFE8B223
:10340000FFF7AAFF3812FFF7A7FFF8B2FFF7A4FFF4
:10341000FFF7BDFFBDE8F08170B504460D462B46B1
:10342000224629462046FFF7CDFF70BD70B5044601
:103430000D4629462046FFF7EFFFC2480088FFF7F8
:10344000ACFF70BD70B50646BD484088401E83B2D3
:10345000BB480088401E82B200210846FFF7B2FF39
:103460000420B54908604020091F086000240AE0D4
:10347000002503E03046FFF790FF6D1CB048008840
:10348000A842F7D8641CAE484088A042F0D8042077
:10349000A949091F086070BD08B50121802002F00C
:1034A000A7FC5520ADF8000003208DF80200102085
:1034B0008DF803006946A048143802F0DDF90121B7
:1034C0009D48143802F085FA08BD10B510209A49BD
:1034D0000860642003F0C5FF10209749091F0860A9
:1034E000322003F0BEFF10BD10B504462A209449D7
:1034F00048812B2088812C20088134B1012C0FD0E9
:10350000022C18D0032C2CD120E0F0208C4908800C
:103510004FF4A070488008213620FFF72EFF21E0ED
:103520004FF4A07086490880F0204880682136203A
:10353000FFF723FF16E0F020814908804FF4A070C8
:103540004880C8213620FFF718FF0BE04FF4A07029
:103550007B490880F0204880A8213620FFF70DFF26
:1035600000E000BF00BF10BD10B501F01BFAFFF76F
:1035700093FFFFF7AAFFCF20FFF7DEFE0020FFF743
:10358000EBFEC920FFF7E8FE3020FFF7E5FEED2057
:10359000FFF7D2FE6420FFF7DFFE0320FFF7DCFE1B
:1035A0001220FFF7D9FE8120FFF7D6FEE820FFF7B3
:1035B000C3FE8520FFF7D0FE1020FFF7CDFE7A2056
:1035C000FFF7CAFECB20FFF7B7FE3920FFF7C4FE96
:1035D0002C20FFF7C1FE0020FFF7BEFE3420FFF7CE
:1035E000BBFE0220FFF7B8FEF720FFF7A5FE202064
:1035F000FFF7B2FEEA20FFF79FFE0020FFF7ACFEC8
:103600000020FFF7A9FEC020FFF796FE1B20FFF762
:10361000A3FEC120FFF790FE0020FFF79DFEC5200E
:10362000FFF78AFE3020FFF797FE3020FFF794FE69
:10363000C720FFF781FEB720FFF78EFE3620FFF789
:103640007BFE0820FFF788FE3A20FFF775FE552025
:10365000FFF782FEB120FFF76FFE0020FFF77CFE30
:103660001A20FFF779FEB620FFF766FE0A20FFF763
:1036700073FEA220FFF770FEF220FFF75DFE002030
:10368000FFF76AFE2620FFF757FE0120FFF764FED2
:10369000E020FFF751FE0F20FFF75EFE2A20FFF724
:1036A0005BFE2820FFF758FE0820FFF755FE0E208E
:1036B000FFF752FE0820FFF74FFE5420FFF74CFEA5
:1036C000A920FFF749FE4320FFF746FE0A20FFF737
:1036D00043FE0F20FFF740FE0020FFF73DFE0020D5
:1036E000FFF73AFE0020FFF737FE0020FFF734FE19
:1036F000E120FFF721FE0020FFF72EFE1520FFF747
:103700002BFE1720FFF728FE0720FFF725FE1120CC
:10371000FFF722FE0620FFF71FFE2B20FFF71CFEFF
:103720005620FFF719FE3C20FFF716FE0520FFF795
:1037300013FE102008E00000141C01400038004077
:10374000C600002040000020FFF706FE0F20FFF714
:1037500003FE3F20FFF700FE3F20FFF7FDFD0F2097
:10376000FFF7FAFD2B20FFF7E7FD0020FFF7F4FD40
:103770000020FFF7F1FD0120FFF7EEFD3F20FFF7EE
:10378000EBFD2A20FFF7D8FD0020FFF7E5FD002024
:10379000FFF7E2FD0020FFF7DFFDEF20FFF7DCFD84
:1037A0001120FFF7C9FD782003F05BFE2920FFF709
:1037B000C3FD0220FFF798FE4FF6FF70FFF742FEB1
:1037C00010BD0000FD48FE49C1F87401FD49FC48E8
:1037D000C0F87811FC49C0F87C110021C0F88011B4
:1037E000C0F88411C0F88811C0F88C11C0F890118D
:1037F000C0F89411F549C0F89811F548F049C1F89E
:103800009C010021EE48C0F8A011C0F8A411C0F836
:10381000A811C0F8AC11C0F8B011C0F8B411C0F8CC
:10382000B811C0F8BC11EB49C0F8C011E848E44930
:10383000C1F8C4010021E248C0F8C811C0F8CC1199
:10384000C0F88011C0F8D411C0F8D811C0F8DC114C
:10385000C0F8E011C0F8E411DE49C0F8E811DE4814
:10386000D749C1F8EC010021D548C0F8F011C0F8E3
:10387000F411C0F8F811C0F8FC11C0F80012C0F83B
:103880000412C0F80812C0F80C12D149C0F8101286
:10389000D248CB49C1F814020021C948C0F8181217
:1038A000C0F81C12C0F88011C0F82412C0F8281209
:1038B000C0F82C12C0F83012C0F83412C849C0F851
:1038C0003812C848BE49C860C049BD4801610021DE
:1038D00041618161C161016241628162C1620163D2
:1038E000C1494163BF490165B8494165002181650E
:1038F000C165016641668166C16601674167BA4973
:103900008167B849C0F89410B049C0F898100021F8
:10391000C0F89C10C0F8A010C0F8A410C0F8A810FF
:10392000C0F8AC10C0F8B010C0F8B410C0F8B810AF
:10393000AD49C0F8BC10AB49C0F8D810A349C0F8D5
:10394000DC100021C0F8E010C0F8E410C0F8E81066
:10395000C0F8EC10C0F8F010C0F8F410C0F8F8107F
:10396000C0F8FC10A049C0F800110120944981F86A
:103970003C0200200860486088608863C86308646F
:10398000486400218E488164C164C167C0F880101A
:10399000C0F8841000208A49C1F8880000218848B6
:1039A000C0F88C10C0F89010C0F8C010C0F8C41057
:1039B000C0F8C81000208249C1F8CC00002180481E
:1039C000C0F8D010C0F8D410C0F80411C0F8081125
:1039D000C0F80C1100207A49C1F81001C1F8140197
:1039E000C1F81801C1F81C010A46C2F83001C2F83A
:1039F0003401C2F83801C2F83C010021C2F820119C
:103A0000C2F82411002279488260C26000206C490B
:103A1000C1F84001C1F84401C1F848010021684AD9
:103A2000C2F85011C2F85411002270483030826040
:103A3000C2600020624AC2F86001C2F86401C2F8A4
:103A40006811C2F86C111146C1F870017047034645
:103A50008B4201DA08467047934201DD1046FAE7CF
:103A60001846F8E700B589B00121202002F0C0F91E
:103A700010208DF823004FF47F40ADF82000032084
:103A80008DF8220008A95A4801F0F6FE4FF4805143
:103A9000574801F0A0FF4FF48041554801F09BFFCB
:103AA0004FF48071524801F096FF4FF48061504806
:103AB00001F091FF4FF400514D4801F08CFF4FF49D
:103AC00000414B4801F087FF4FF40071484801F076
:103AD00082FF4FF40061464801F07DFF0121480359
:103AE00002F086F90121102002F082F918208DF8E9
:103AF0001F004FF47070ADF81C0003208DF81E00FD
:103B000007A93C4801F0B8FE3B4802F0BFFF002087
:103B1000ADF81600ADF8120041F63F70ADF8140094
:103B20000020ADF810008DF8180004A9324802F00A
:103B30001DFC684602F04FFF6020ADF80000002039
:103B4000ADF808000120ADF802000020ADF8060035
:103B50006946294802F047FC684602F03CFF6020B5
:103B6000ADF800000020ADF808000120ADF802001B
:103B70000020ADF8060069461F4802F076FC684652
:103B800002F029FF6020ADF800000020ADF8080029
:103B90000120ADF802000020ADF806006946164885
:103BA00002F0B0FC684602F016FF6020ADF800009D
:103BB0000020ADF80800012020E000008FC2753D14
:103BC000D80000206F12833ACDCC4C3D000040401D
:103BD000CDCC4C3F000020426F12033C9A99193E15
:103BE0000000A040000020410078BB45F801002003
:103BF000001401400010014000340140ADF8020003
:103C00000020ADF806006946FE4802F0C6FC01211E
:103C1000FC4802F007FF0121FA4802F00FFF09B04B
:103C200000BD1FB5F8A103C9CDE90201F8A103C980
:103C3000CDE90001052202A9F74801F089F80A2020
:103C400003F00FFC05226946F34801F081F80A20D1
:103C500003F007FC1FBD70B505460C4621462846FB
:103C600006F012FA01D2204670BD84F000462946C3
:103C7000304606F009FA02D284F00040F4E7284604
:103C8000F2E72DE9F04704460D4616460CB9BDE8AB
:103C9000F0873146284606F033FAA061D4E90601E0
:103CA00006F02EFA8146A16806F022F90746A169BE
:103CB000206806F01DF98046394605F039FF20627C
:103CC000A06905F009FF21F0004107460022D34B0F
:103CD00005F0D6FD02D20020E06001E00120E060A6
:103CE000E06806F0A5F88046A169606806F000F972
:103CF0008146414606F0FCF80746216905F018FFA9
:103D00002061D4E90401FFF7A6FF20612169206A40
:103D100005F00EFF2062D4E90801FFF79CFF206246
:103D2000A069E06100BFB2E72DE9F04704460D4607
:103D300016460CB9BDE8F0873146284606F0E0F992
:103D4000A061D4E9060106F0DBF90746216806F018
:103D5000CFF8E060A169606806F0CAF820614FF012
:103D60008040E16906F0C4F88146A16906F0BDF91A
:103D70008046216A05F0DCFE0746A16806F0B8F827
:103D80006061D4E9030105F0D3FE8046616905F066
:103D9000CFFE0746616A05F0CBFE6062D4E90901F7
:103DA000FFF759FF6062E0692062A069E06100BF2F
:103DB000C0E72DE9F0470546894616461C46DDE971
:103DC00008A74FF00008002C0BDDE0191FFA80F85F
:103DD0004946934801F0FDFD3146914801F0FBFD55
:103DE00019E0002C0CDA604238441FFA80F849468A
:103DF0008B4801F0F0FD3146894801F0EAFD0AE008
:103E00004CB94FF000084946854801F0E4FD3146C1
:103E1000834801F0E0FD524600214046FFF717FEBF
:103E20008046402D04D14146764803F093F815E0D2
:103E3000802D04D14146734803F08EF80EE0B5F5AD
:103E4000807F04D141466F4803F088F806E0B5F55D
:103E5000007F03D141466B4803F082F8BDE8F0874C
:103E60002DE9F04105460C4600276E4800680528FC
:103E700009DA6C4801680068401C6A4A106044F81E
:103E800021502F4617E00026B046201D0FC884E8B9
:103E90000F00256100BF06E054F82610404605F0EB
:103EA00047FE8046761C052EF6DB5F49404605F04E
:103EB000ADFE074600BF3846BDE8F08110B55B484F
:103EC000B0F900005A49C8635A48B0F90010584880
:103ED000C0F880105848B0F900105548C0F8C41018
:103EE0005648B0F900105248C0F80811806B50498C
:103EF000C96B08444E4988630846C16FD0F88000FA
:103F000001444B48C167D0F8C010D0F8C400014448
:103F10004748C0F8C010D0F80411D0F80801014497
:103F20004348C0F804110146C86B05F081FF044600
:103F30004349FFF795FF3E490864D1F8800005F03A
:103F400077FF04463F49FFF78BFF3949C1F88400EA
:103F5000D1F8C40005F06CFF04463B49FFF780FF31
:103F60003349C1F8C800D1F8080105F061FF0446E3
:103F70003649FFF775FF2E49C1F80C0110BD2DE938
:103F8000F04704463249206C05F040FE81464FF070
:103F90007E5105F0ADFF80464FF07E5105F036FEB4
:103FA00007462C4905F0A4FF06462B4905F0A0FF63
:103FB00005462A4905F02AFE6060BDE8F08700B595
:103FC00093B01B48D0F8480122490C9005F090FFAF
:103FD00023490D9005F01AFE1549C1F8700157E00C
:103FE0001348D0F870011F490D9006F04DF83DD8E8
:103FF0000F48D0F870011B490D9006F081F80C496C
:1040000032E0000000340140FFAA6988B5000000DA
:10401000FFAA7600000000000048004000C0724087
:1040200000140140580000200000A0404A00002079
:10403000D8000020480000204C0000204E00002046
:10404000180300202C03002040030020540300200C
:1040500000005247DB0F49400000F0400AD7233CE4
:1040600000003443DB0FC940C1F87001FD48D0F8AF
:10407000700100210D9005F007FF09D2F948D0F832
:104080007001F9490D9005F053FDF649C1F8700132
:10409000F448D0F87001F4490D9005F0F5FF9FD970
:1040A000F048D0F8700100210D9005F0EDFE97D397
:1040B000EE480E90EB48006C80F000400B90E94811
:1040C000D0F8840001460A900B9805F031FD4FF0BE
:1040D00080410C9005F09AFD0D900E9905F008FFB7
:1040E0001290E048D0F80C010B90DE48006C0A906A
:1040F0000B9905F01DFD4FF080410C9005F086FDF9
:104100000D900E9905F0F4FE1190D648D0F870018C
:1041100000210D9005F0B8FF7ED8D248D0F870018C
:10412000D3490D9005F0B0FE76D2CE48D0F870019C
:1041300001460090CE4805F0E3FF019005F0CCFC6D
:10414000CDE9020104F0F8FECDE90601119805F071
:10415000C3FCCDE90401DDE9062305F093FACDE9BE
:104160000A01C048D0F8700101460090C04805F02F
:10417000C7FF019005F0B0FCCDE9020104F02AFF71
:10418000CDE90601129805F0A7FCCDE90401DDE9AF
:10419000062305F077FACDE90801DDE90A2304F0EA
:1041A000C7FFCDE90C0104F091FF1090AD48D0F8A5
:1041B000700101460090AE4805F0A2FF019005F0A5
:1041C0008BFCCDE9020104F005FFCDE90601119851
:1041D00005F082FCCDE90401DDE9062305F052FA81
:1041E000CDE90A019F48D0F8700101460090A0482F
:1041F00005F086FF019005F06FFCCDE9020104F0A7
:104200009BFECDE90601129880F00040039005F076
:1042100063FCCDE9040100E00EE0DDE9062305F0D2
:1042200031FACDE90801DDE90A2304F081FFCDE987
:104230000C0104F04BFF0F908A48D0F870018C49B4
:104240000D9005F021FF7DD88648D0F8700189498E
:104250000D9005F019FE75D28248D0F8700184499E
:10426000009005F04DFF019005F036FCCDE902010C
:1042700004F062FECDE90601119805F02DFCCDE9B0
:104280000401DDE9062305F0FDF9CDE90A017548D1
:10429000D0F870017649009005F032FF019005F0EA
:1042A0001BFCCDE9020104F095FECDE90601129850
:1042B00080F00040039005F00FFCCDE90401DDE93A
:1042C000062305F0DFF9CDE90801DDE90A2304F052
:1042D0002FFFCDE90C0104F0F9FE10906148D0F8F1
:1042E00070016349009005F00BFF019005F0F4FBAD
:1042F000CDE9020104F06EFECDE90601119805F04A
:10430000EBFBCDE90401DDE9062305F0BBF9CDE9BE
:104310000A015448D0F870015549009005F0F0FEAC
:10432000019005F0D9FBCDE9020104F005FECDE9CD
:104330000601129880F00040039005F0CDFBCDE916
:10434000040100E00EE0DDE9062305F09BF9CDE96C
:104350000801DDE90A2305F0D5FACDE90C0104F0E6
:10436000B5FE0F903F48D0F8700142490D9005F01E
:104370008BFE76D83B48D0F870013F490D9005F090
:1043800083FD6ED23748D0F870013A49009005F0AD
:10439000B7FE019005F0A0FBCDE9020104F01AFE82
:1043A000CDE90601119805F097FBCDE90401DDE99F
:1043B000062305F067F9CDE90A012A48D0F8700113
:1043C0002C49009005F09CFE019005F085FBCDE99D
:1043D000020104F0B1FDCDE90601129880F0004021
:1043E000039005F079FBCDE90401DDE9062305F032
:1043F00049F9CDE90801DDE90A2305F083FACDE9A1
:104400000C0104F063FE10901648D0F870011949B1
:10441000009005F075FE019005F05EFBCDE902010C
:1044200004F08AFDCDE90601119805F055FBCDE9B0
:104430000401DDE9062305F025F9CDE90A01094863
:10444000D0F870010B49009005F05AFE019005F07C
:1044500043FBCDE9020104F0BDFDCDE90601129850
:104460000CE01EE0D8000020DB0FC940FBC8E53996
:10447000DB0FC93FDB0F4940E4CB964005F02CFB36
:10448000CDE90401DDE9062305F0FCF8CDE90801DA
:10449000DDE90A2305F036FACDE90C0104F016FE39
:1044A0000F90CB48D0F87001CA490D9005F0ECFD93
:1044B0007DD8C748D0F87001C7490D9005F0E4FCDD
:1044C0007FD2C348D0F87001C249009005F018FEB1
:1044D000019005F001FBCDE9020104F02DFDCDE9CD
:1044E0000601119805F0F8FACDE90401DDE906238B
:1044F00005F0C8F8CDE90A01B548D0F87001B54912
:10450000009005F0FDFD019005F0E6FACDE902010D
:1045100004F060FDCDE90601129805F0DDFACDE961
:104520000401DDE9062305F0ADF8CDE90801DDE978
:104530000A2305F0E7F9CDE90C0104F0C7FD10905E
:10454000A348D0F87001A349009005F0D9FD01906F
:1045500005F0C2FACDE9020104F03CFDCDE9060107
:10456000119805F0B9FACDE90401DDE9062305F05B
:1045700089F8CDE90A019648D0F870019549009074
:1045800005F0BEFD019005F0A7FACDE9020104F0A7
:10459000D3FCCDE90601129805F09EFACDE904019D
:1045A000DDE9062305F06EF8CDE9080100E008E03A
:1045B000DDE90A2304F0BCFDCDE90C0104F086FD21
:1045C0000F908649109805F021FB8149C1F8400100
:1045D00082490F9805F01AFB7D49C1F844011098F3
:1045E00005F07AFACDE90C017949D1F86001D1F8EA
:1045F0006411CDE90A01DDE90C2304F099FD744A48
:10460000C2F86001C2F864110F9805F065FACDE9AF
:104610000C016F49D1F86801D1F86C11CDE90A019C
:10462000DDE90C2304F084FD694AC2F86801C2F890
:104630006C111146D1F86001D1F86411C2F8500133
:10464000C2F854111046D0F86811D0F86C2100F56A
:10465000A8708160C26013B000BD2DE9F0416048D0
:1046600000685B49C1F848010A46D2F84811D2F8FF
:10467000100105F045FD04465A49204605F004FDA9
:1046800005D22146584805F053FA044616E057492A
:10469000204605F0F9FB05D22146554805F048FAB9
:1046A00004460BE0204605F017FA21F000410546CC
:1046B0000022504B04F0AAFF00D800BF4448D0F8B5
:1046C0004811204605F034FA07464148D0F8482101
:1046D000394600F5BA70FFF7D4FA3D48D0F8940196
:1046E0003B49C1F81C01BDE8F0812DE9FF5F04469C
:1046F0000D4616461F46DDE90E8900223E4B404618
:10470000494604F0BFFF82468B4632463B46204670
:10471000294605F0F7F852465B46CDE9000104F062
:1047200007FDCDE9020104F0D1FC2949086000220F
:10473000314B4046494604F0A5FF82468B4632463F
:104740003B462046294604F0F3FC52465B46CDE941
:10475000000104F0EDFCCDE9020104F0B7FC1C49B6
:1047600048640022244B4046494604F08BFF8246B1
:104770008B4632463B462046294605F0C3F8524652
:104780005B46CDE9000105F0BDF8CDE9020104F07A
:104790009DFC0F49C1F888000022174B404649464E
:1047A00004F070FF32463B46CDE900012046294621
:1047B00004F0BEFC8246DDE9002305F0A3F8CDE954
:1047C000020104F083FC0249C1F8CC00BDE8FF9F60
:1047D000D8000020E4CB9640DB0FC9400AD7233C29
:1047E00050000020000034430000B4C3000034C374
:1047F0000000B443008066400000354003468B4211
:1048000001DA08467047934201DD1046FAE7184680
:10481000F8E700B589B00121C80201F0E9FA0121E9
:10482000042001F0E5FA18208DF823004FF47060A1
:10483000ADF8200003208DF8220008A9454801F0BA
:104840001BF8454802F022F90020ADF81A00ADF837
:1048500016004720ADF8140044F61F60ADF81800AC
:1048600000208DF81C0005A93B4801F07FFD01A840
:1048700002F0B1F86020ADF804000020ADF80C00A3
:104880000120ADF80600ADF80A0001A9324801F098
:10489000AAFD01A802F09FF86020ADF804000020F6
:1048A000ADF80C000120ADF80600ADF80A0001A932
:1048B000294801F0DAFD01A802F08DF86020ADF87A
:1048C00004000020ADF80C000120ADF80600ADF8A2
:1048D0000A0001A9204801F060FE01211E4802F0F3
:1048E000A1F801211C4802F0A9F809B000BD70B57B
:1048F00004464FF4FA6060434FF4877190FBF1F087
:1049000000F5FA7085B22946134802F023FB70BD0A
:1049100070B504464FF4FA6060434FF4877190FB22
:10492000F1F000F5FA7085B229460B4802F014FB4D
:1049300070BD70B504464FF4FA6060434FF4877160
:1049400090FBF1F000F5FA7085B22946024802F0BA
:1049500007FB70BD00080140002C0140024600BF6B
:10496000108900F002000028FAD0918100BF108960
:1049700000F001000028FAD09089C0B27047028888
:104980004FF6C7731A400280012902D102880280C3
:1049900003E0028842F020020280028842F04002D6
:1049A0000280704700B587B00121092001F020FA8C
:1049B0004FF42040ADF8040003208DF806001820C5
:1049C0008DF8070001A91C4800F056FF4FF4804005
:1049D000ADF8040048208DF8070003208DF806008C
:1049E00001A9154800F048FF0121880301F00DFAE4
:1049F0000020ADF808004FF48270ADF80A000020E6
:104A0000ADF80C00ADF80E00ADF810004FF40070DA
:104A1000ADF812000020ADF81400ADF81600072024
:104A2000ADF8180002A9054801F06CFA012103480D
:104A300001F00DFB07B000BD000C01400038004044
:104A400010B586B00446012144F2040001F0D0F90B
:104A50004FF40070ADF8140003208DF816001820F4
:104A60008DF8170005A9CF4800F006FF4FF48060CD
:104A7000ADF8140004208DF8170005A9C94800F00E
:104A8000FBFE25208DF800000A208DF801008DF82E
:104A9000020001208DF80300684600F024FE019416
:104AA0000020ADF80800ADF80A00ADF80C00ADF834
:104AB00010000C20ADF80E0001A9BB4802F0D3FA9B
:104AC000012240F22551B84802F065FB0121B648A9
:104AD00002F055FB06B010BD10B586B004460121AA
:104AE000480401F092F90121042001F081F9042029
:104AF000ADF8140003208DF8160018208DF817006B
:104B000005A9A84800F0B8FE0820ADF8140004205C
:104B10008DF8170005A9A34800F0AEFE26208DF8F9
:104B2000000009208DF801008DF8020001208DF8A9
:104B30000300684600F0D7FD01940020ADF808009E
:104B4000ADF80A00ADF80C00ADF810000C20ADF87F
:104B50000E0001A9954802F086FA012240F2255183
:104B6000924802F018FB0121904802F008FB06B0C1
:104B700010BD10B586B004460121880401F045F946
:104B80000121082001F034F94FF48060ADF81400E1
:104B900003208DF8160018208DF8170005A9844809
:104BA00000F06AFE4FF40060ADF8140004208DF8A8
:104BB000170005A97E4800F05FFE27208DF8000051
:104BC00008208DF801008DF8020001208DF8030007
:104BD000684600F088FD01940020ADF80800ADF8AB
:104BE0000A00ADF80C00ADF810000C20ADF80E0076
:104BF00001A9704802F037FA012240F225516D48B0
:104C000002F0C9FA01216B4802F0B9FA06B010BDF2
:104C100010B586B004460121C80401F0F6F8012160
:104C2000102001F0E5F84FF48060ADF81400032087
:104C30008DF8160018208DF8170005A95E4800F0C1
:104C40001BFE4FF40060ADF8140004208DF817002F
:104C500005A9594800F010FE34208DF80000072007
:104C60008DF801008DF8020001208DF803006846E0
:104C700000F039FD01940020ADF80800ADF80A00FD
:104C8000ADF80C00ADF810000C20ADF80E0001A935
:104C90004A4802F0E8F9012240F22551474802F063
:104CA0007AFA0121454802F06AFA06B010BD10B543
:104CB00086B004460121080501F0A7F80121102063
:104CC00001F096F80121202001F092F84FF4805075
:104CD000ADF8140003208DF8160018208DF8170089
:104CE00005A9354800F0C8FD0420ADF814008DF882
:104CF000170005A9324800F0BFFD35208DF80000EF
:104D000006208DF801008DF8020001208DF80300C7
:104D1000684600F0E8FC01940020ADF80800ADF80A
:104D20000A00ADF80C00ADF810000C20ADF80E0034
:104D300001A9244802F097F9012240F225512148A7
:104D400002F029FA01211F4802F019FA06B010BD3D
:104D500070B506460C4615460DE02178304602F047
:104D60007BFA681E85B2641C00BF4021304602F009
:104D7000E1FA0128F9D1002DEFD170BD70B50546DB
:104D80000C460BE014F8011B284602F065FA00BF40
:104D90004021284602F0CEFA0128F9D120780028D7
:104DA000F0D170BD000801400038014000440040CF
:104DB000000C01400048004000100140004C004041
:104DC00000140140005000401FB50121102001F0E7
:104DD0001CF83A4801F05AFE0020ADF80A00ADF880
:104DE000060040F2E730ADF8080040F2CF20ADF801
:104DF000040000208DF80C0001A9304801F0B6FA3B
:104E000001212E4802F0D4F8012211462B4801F06E
:104E100024FE4FF4A06000F061FC36208DF8000005
:104E200001208DF8030003208DF8010002208DF889
:104E30000200684600F057FC0121204801F0F2FD15
:104E40001FBD1FB50121202000F0DFFF1C4801F02D
:104E50001DFE0020ADF80A00ADF8060042F20F700A
:104E6000ADF8080040F2CF20ADF8040000208DF826
:104E70000C0001A9124801F079FA0121104802F052
:104E800097F8012211460E4801F0E7FD4FF4A060AB
:104E900000F024FC37208DF8000001208DF803007D
:104EA00005208DF8010004208DF80200684600F00E
:104EB0001AFC0121024801F0B5FD1FBD00100040A1
:104EC0000014004008B50121482000F091FF4FF484
:104ED0004870ADF8000010208DF8030003208DF815
:104EE000020069460E4800F0C7FC20210C4800F083
:104EF00070FD4FF480710A4800F06BFD4FF40071B3
:104F0000074800F066FD2020ADF80000694605481E
:104F100000F0B2FC2021034800F05BFD08BD00005A
:104F2000000C01400018014070B505460E461446BD
:104F30003146284604F0A8FF01D2304670BD214614
:104F4000284605F0A1F801D22046F7E72846F5E704
:104F500000206549086048608860C8600861486151
:104F60008861C861086248628862C8625F490860F7
:104F700048608860C860086148618861C8610862EB
:104F800048628862C8625A49086048608860C860A0
:104F9000086148618861C861086248628862C862C5
:104FA0005449086048608860C86008614861886149
:104FB000C861086248628862C862704770B504467A
:104FC0000D462946206A04F0B3FD2062E06880F0B7
:104FD000004602463146206AFFF7A6FF20622946B6
:104FE000206804F085FF2061216A606804F080FF7A
:104FF00060612846616A05F083F80646A16804F0FE
:1050000077FFA0616562D4E9040104F091FD0646D2
:10501000A16904F08DFDE061E06970BD2DE9F0410A
:1050200004460D462846616A05F06AF8064621687E
:1050300004F05EFF20612946606804F059FF60615A
:105040002846616A05F05CF80746A16A05F058F841
:105050000646A16804F04CFFA0612846616A05F08D
:105060004FF8A0626562D4E9040104F061FD0746CF
:10507000A16904F05DFD0646E16904F059FDE061B7
:10508000E069BDE8F0812DE9F04104460D4628466F
:10509000616A05F035F80646216804F029FF2061B1
:1050A0002946606804F024FF60612846616A05F0C3
:1050B00027F80746A16A05F023F80646A16804F020
:1050C00017FFA0612846616A05F01AF8A0626562C0
:1050D000D4E9040104F02CFD0646A16904F028FD82
:1050E000E061E069BDE8F0819C030020CC03002072
:1050F000FC0300202C0400207FB505460C46002050
:1051000000900190029003908DF800400A208DF8E5
:1051100001006D208DF802006B208DF80300042241
:1051200069462846FFF714FE7FBD7FB505460C464D
:10513000002000900190029003908DF800400E2016
:105140008DF8010052208DF802006B208DF80300CD
:10515000042269462846FFF7FBFD7FBD2DE9FF418C
:1051600007460E461546002400200090019002904C
:1051700003900DF80460641C112D68D2DFE805F07F
:10518000090F151B672167272D33393F6745515C90
:105190004B001F200DF80400601CC4B258E0202012
:1051A0000DF80400601CC4B252E021200DF8040088
:1051B000601CC4B24CE024200DF80400601CC4B292
:1051C00046E027200DF80400601CC4B240E0312006
:1051D0000DF80400601CC4B23AE033200DF804005E
:1051E000601CC4B234E035200DF80400601CC4B269
:1051F0002EE036200DF80400601CC4B228E03720F1
:105200000DF80400601CC4B222E03A200DF804003E
:10521000601CC4B21CE03B200DF80400601CC4B24A
:1052200016E042200DF80400601CC4B26C200DF89A
:105230000400601CC4B20BE043200DF80400601CA5
:10524000C4B27A200DF80400601CC4B200E000BFB4
:1052500000BF6B200DF80400601CC4B222466946F2
:105260003846FFF775FDBDE8FF812DE9FF41074690
:105270000C4615461E4600200090019002900390B7
:105280008DF8004046208DF8010069208DF802005D
:105290008DF803508DF804606B208DF80500062210
:1052A00069463846FFF754FDBDE8FF812DE9FF410F
:1052B00007460C4615461E460020009001900290BD
:1052C00003908DF80040F3208DF80100AB208DF89D
:1052D00002008DF803508DF804606B208DF80500F6
:1052E000062269463846FFF733FDBDE8FF812DE908
:1052F000FF4707460D4616461C46DDE90C8900208F
:1053000000900190029003908DF80050F6208DF8E7
:1053100001008DF8026020128DF80300E0B28DF8D4
:1053200004008DF805808DF806906B208DF807003D
:10533000082269463846FFF70BFDBDE8FF872DE9D7
:10534000FF5F80460E4617461D46DDE910ABDDE9DE
:105350000E94002000900190029003908DF8006060
:10536000FD208DF801008DF8027028128DF80300E1
:10537000E8B28DF804008DF80590200E8DF8060037
:10538000200C8DF80700200A8DF80800E0B28DF897
:1053900009008DF80AA08DF80BB06B208DF80C0079
:1053A0000D2269464046FFF7D3FCBDE8FF9F7FB55D
:1053B00006460C461546002000900190029003908E
:1053C0008DF80040FE208DF8010098208DF8020035
:1053D0008DF803506B208DF8040005226946304695
:1053E000FFF7B6FC7FBD7FB505460C460020009058
:1053F0000190029003908DF80040FF208DF801008D
:1054000066208DF802006B208DF8030004226946A7
:105410002846FFF79DFC7FBD7FB506460C46154626
:10542000002000900190029003908DF8004093209E
:105430008DF8010088208DF802008DF803506B2054
:105440008DF80400052269463046FFF781FC7FBDD8
:105450002DE9FF4F89B00D4616461F4618AC94E85B
:10546000100EDDF85C80202101A802F076F98DF89D
:1054700004504C208DF80500AE208DF806008DF804
:1054800007608DF8087016988DF809004FEA2820FB
:105490008DF80A0008F0FF008DF80B00200E8DF843
:1054A0000C00200C8DF80D00200A8DF80E00E0B2E3
:1054B0008DF80F004FEA29208DF8100009F0FF0049
:1054C0008DF811004FEA2A208DF812000AF0FF0033
:1054D0008DF813004FEA2B208DF814000BF0FF001D
:1054E0008DF815001C988DF816006B208DF81700AC
:1054F000142201A90998FFF72BFC0DB0BDE8F08F2D
:105500002DE9FF4107460C4615461E460020009037
:105510000190029003908DF800409A208DF80100D0
:105520008DF802508DF803606B208DF80400052281
:1055300069463846FFF70CFCBDE8FF817FB505469C
:105540000C46002000900190029003908DF80040DE
:105550009C208DF8010048208DF802006B208DF80A
:105560000300042269462846FFF7F2FB7FBD0000D6
:1055700008B50121402000F03BFC0720ADF80000F9
:1055800048208DF803006946354800F075F901217F
:10559000042000F02DFC0121084600F029FC012127
:1055A000304800F03AFA48208DF8030002208DF8C8
:1055B00002008003ADF8000069462B4800F05CF95A
:1055C00008BD10B529480078294908702948007895
:1055D0002949087029480078294908702948007825
:1055E0002949087001211E4800F0D9F91F490870A7
:1055F00002211B4800F0D3F91E4908700421184805
:1056000000F0CDF91D4908704FF40041164800F034
:10561000C6F91C4908701548007828B1144800786C
:1056200010B90120194908701248007828B11248B1
:10563000007810B90120164908701048007828B188
:105640000F48007810B90120124908700D48007801
:1056500028B10D48007810B901200F49087010BD1D
:1056600000180140000230000008014084000020C2
:105670008A000020850000208B000020860000208A
:105680008C000020870000208D000020900000206A
:1056900091000020920000209300002009488047DC
:1056A00009480047FEE7FEE7FEE7FEE7FEE7FEE704
:1056B000FEE7FEE7FEE7FEE704480549054A064B1C
:1056C00070470000DF1F000831010008C0040020FF
:1056D000C00A0020C0060020C00600203149014356
:1056E000314A1160704770B5002100230F22C47841
:1056F00004B32D4C246804F4E064C4F5E064210A8A
:10570000C1F10403CA40447804FA03F184781440D8
:1057100021430901254C0678A155047804F01F05A2
:105720000124AC4005786D11AD0005F1E025C5F808
:10573000004109E0047804F01F050124AC401C4D31
:105740000678761145F8264070BD1A4A0A40024391
:10575000154B1B1F1A60704739B1134A121D12688E
:105760000243114B1B1D1A6006E00F4A121D1268FE
:1057700082430D4B1B1D1A607047042808D14FF05F
:10578000E021096941F004014FF0E022116107E0D6
:105790004FF0E021096921F004014FF0E02211618E
:1057A000704700000000FA050CED00E000E400E0A6
:1057B00080E100E080FFFF1F10B50446CC48844222
:1057C00008D10121042000F02DFB0021042000F06D
:1057D00029FB46E0C748844208D10121082000F097
:1057E00021FB0021082000F01DFB3AE0C248844262
:1057F00008D10121102000F015FB0021102000F03D
:1058000011FB2EE0BD48844208D10121202000F088
:1058100009FB0021202000F005FB22E0B84884426B
:1058200008D10121402000F0FDFA0021402000F0C5
:10583000F9FA16E0B348844208D10121802000F033
:10584000F1FA0021802000F0EDFA0AE0AE4884422F
:1058500007D10121801500F0E5FA0021A01500F024
:10586000E1FA10BD10B50121084600F0DBFA002175
:10587000012000F0D7FA10BD2DE9F04102460025C5
:105880000026002000230024002791F803C00CF01C
:105890000F0591F803C00CF0100CBCF1000F03D001
:1058A00091F802C04CEA050591F800C0BCF1000F68
:1058B00031D0146800202BE04FF0010C0CFA00F3FB
:1058C000B1F800C00CEA03069E4220D183004FF0DD
:1058D0000F0C0CFA03F7BC4305FA03FC4CEA040472
:1058E00091F803C0BCF1280F06D14FF0010C0CFA5F
:1058F00000FCC2F814C00AE091F803C0BCF1480FE4
:1059000005D14FF0010C0CFA00FCC2F810C0401C8D
:105910000828D1D31460B1F800C0BCF1FF0F34DD0A
:10592000546800202EE000F1080C4FF0010808FA3E
:105930000CF3B1F800C00CEA03069E4221D18300AB
:105940004FF00F0C0CFA03F7BC4305FA03FC4CEACA
:10595000040491F803C0BCF1280F05D100F1080C34
:1059600008FA0CF8C2F8148091F803C0BCF1480F93
:1059700007D100F1080C4FF0010808FA0CF8C2F842
:105980001080401C0828CED35460BDE8F0814FF64B
:10599000FF710180022181700421C17070470246AD
:1059A000002093680B400BB1012000E000207047FD
:1059B0000146886880B2704702460020D3680B40D9
:1059C0000BB1012000E0002070470146C86880B29A
:1059D000704701617047416170470AB1016100E0A1
:1059E00041617047C16070474FF480320A43826161
:1059F0008161826182698269704702460020434B5F
:105A000018684FF68073184040EA021008433F4B75
:105A1000186070473E49C8617047F0B50A460023D8
:105A200000240021002500F00046B6F1004F02D10D
:105A3000364EF16901E0354E7168C0F3034583B21B
:105A400000F44016B6F5401F08D121F070612F4ECA
:105A5000766826F070662D4F7E6012E000F48016A6
:105A6000B6F5801F06D1032606FA05F4A14341F0DE
:105A7000706106E0460D360103FA06F6B14341F0C7
:105A8000706122B1460D360103FA06F6314300F08B
:105A90000046B6F1004F02D11C4EF16101E01B4EF1
:105AA0007160F0BD30B500228B071C0F0F2303FA85
:105AB00004F2164B08338C1053F824309343134CE4
:105AC00008348D1044F8253023468C1053F82430C8
:105AD0008C07240F00FA04F423430C4C08348D1077
