:020000040800F2
:10000000B80A002069520008B51A0008B71A00089B
:10001000BB1A0008BF1A0008C31A0008000000003D
:10002000000000000000000000000000C71A0008E7
:10003000C91A000800000000CB1A0008CD1A0008F9
:10004000835200088352000883520008835200083C
:10005000835200088352000883520008835200082C
:10006000835200088352000883520008835200081C
:10007000835200088352000883520008835200080C
:1000800083520008835200088352000883520008FC
:1000900083520008835200088352000883520008EC
:1000A00083520008835200088352000883520008DC
:1000B00083520008835200088352000883520008CC
:1000C00083520008835200088352000883520008BC
:1000D00083520008371600085B160008AD160008AA
:1000E000835200088352000883520008835200089C
:1000F000835200088352000883520008835200088C
:10010000835200088352000883520008835200087B
:10011000A31700082D1A0008331100084F1000081B
:10012000835200088352000883520008835200085B
:1001300000F002F800F053F80AA090E8000C8244A6
:100140008344AAF10107DA4501D100F048F8AFF283
:10015000090EBAE80F0013F0010F18BFFB1A43F0A5
:100160000103184718C9000038C90000103A24BF1D
:1001700078C878C1FAD8520724BF30C830C144BF0C
:1001800004680C607047000000230024002500264E
:10019000103A28BF78C1FBD8520728BF30C148BFEA
:1001A0000B607047662909F00E86642906F0AA875D
:1001B000632907F06883002070471FB507F0D6FB5E
:1001C00004000020002108F059FD401C6060002060
:1001D000002108F03DFDE0601FBD10B510BD07F027
:1001E00011FD1146FFF7E9FF00F0FFF907F03DFDB3
:1001F00003B4FFF7F2FF03BC07F080FD2DE9F04FD9
:1002000087B0074617B907B0BDE8F08F3D46012417
:10021000612D05DB7A2D03DCA5F12000C5B204E0D9
:10022000412D02DB5A2D00DC0024FE48007809F045
:1002300005FCFD49029009F049FCFC49039009F0D6
:1002400065FA0646F748007809F0F8FBF84902908D
:1002500009F03CFCF749039009F058FA80464FF04A
:1002600000094FF0FA0A09EB0A0000EBD0714FEADF
:10027000610B0A2006904FF482700590872004904D
:10028000A5F12B0030286ED2DFE800F0316D3C6D17
:100290006D6D181D22272C6D6D6D6D6D6D6D6D6D05
:1002A0006D6DBB6EF2D6F154F06DEFEEED896DEC35
:1002B000EBEAE9A348E8FFE66D47E5E414B1002066
:1002C000D84908708BE114B10120D649087086E145
:1002D00014B10220D349087081E114B10320D1493F
:1002E00008707CE114B10420CE49087077E144B174
:1002F000CC480078042804DACA480078401CC94970
:1003000008706CE144B1C7480078002804DDC54896
:100310000078401EC349087061E100BF0020C64953
:100320000860C6490860C64908600120C54981F8CF
:100330003C0254E15CB10020BF490860BF48066040
:100340000020BF490860BF4981F83C020AE0002054
:10035000B9490860B9490860B94908600120B9493C
:1003600081F83C023BE139E16CB10020B249086000
:1003700086F00040B14908600020B1490860B149E9
:1003800081F83C020AE00020AB490860AB490860F4
:10039000AB4908600120AB4981F83C021FE164B120
:1003A00086F00040A44908600020A4490860A449E0
:1003B0000860A44981F83C020AE000209E490860D8
:1003C0009E4908609E49086001209E4981F83C02D0
:1003D00005E154B1984806600020984908609849A2
:1003E0000860984981F83C020AE0002092490860C0
:1003F00092490860924908600120924981F83C02C4
:10040000EDE06CB100208C4908608C49086088F0F0
:1004100000408B49086000208A4981F83C020AE0CC
:1004200000208549086085490860854908600120E9
:10043000844981F83C02D2E0DCB100207E490860AA
:100440007E4908607E48C0F8008000207D4981F820
:100450003C0219E043E0B5E0A3E016E0A6E088E046
:100460004AE042E026E05BE04EE076E069E08CE0C6
:1004700062E00020704908607049086070490860B7
:100480000120704981F83C02A9E06CB1002040F6DF
:10049000B832CDE900020290962308220121039090
:1004A000694804F032FD04E000220121664804F0AE
:1004B00064FD94E06CB1002040F6B832CDE9000252
:1004C000029096230246012103905F4804F01DFD2F
:1004D00004E0002201215C4804F04FFD7FE000228F
:1004E0000121594804F049FD79E024B1962057498B
:1004F00008805749088072E02CB14FF48770534947
:100500000880534908806AE04CB1524909880A3191
:1005100088B25246494603F057FF4E4908805EE0D4
:100520004CB14C4909880A3988B25246494603F011
:100530004BFF4849088052E014B14648A0F800B08B
:100540004DE04CB143490988B43188B2524649461E
:1005500003F03AFF3F49088041E04CB13D4909882A
:10056000B43988B25246494603F02EFF3949088013
:1005700035E04CB138490988491D88B2DDE90521CB
:1005800003F022FF3449088029E04CB13249098840
:10059000491F88B2DDE9052103F016FF2E490880C6
:1005A0001DE014B12C490498088018E04CB12A4988
:1005B00009887D3188B2DDE9052103F005FF264970
:1005C00008800CE04CB1244909887D3988B2DDE906
:1005D000052103F0F9FE2049088000E000BF00BFBC
:1005E00000201E49087000BF0DE696B001F0DFFA4A
:1005F00006F0E0FC04F04CFA01F05AFB4FF4E13055
:1006000004F050F84FF4165004F099F84FF4E1302C
:1006100004F0E4F84FF4165004F02FF903F00AF850
:100620001EE0000005000020000020410000A04165
:10063000CDCCCC3DCDCCCC3E080000200C00002021
:1006400010000020D0000020004400405400002092
:100650001400002056000020580000200400002054
:1006600003F0BDFE02F068FD04F068FD03F0BFF882
:1006700002F090FE002301221146FE4804F0FCFB2C
:100680000420FD4908704FF4FA7006F0D0FC04F025
:1006900081F9072006F0CBFC04F0B9F94FF47A7029
:1006A00006F0C5FCFDE304200D9010200C90F348EB
:1006B000806C099008F0FEFFCDE90A0101460B9815
:1006C000CDE90010EE48B0F90020EEA10EA806F02A
:1006D000DBFC002010210EAACDE9002102900D982C
:1006E0004FF6E0731F2201460B90022002F0F6F94C
:1006F000DDE90C1008440D90E048406C099008F0CA
:10070000D9FF02460B46CDE90A01E2A10EA806F088
:10071000BBFC002010210EAACDE9002102900D980B
:100720004FF6E0731F2201460B90022002F0D6F92B
:10073000DDE90C1008440D90D0484068099008F09D
:10074000B9FFCDE90A0101460B98CDE90010D44864
:10075000B0F90020D3A10EA806F096FC00201021CD
:100760000EAACDE9002102900D984FF6E0731F22EA
:1007700001460B90022002F0B1F9DDE90C100844AB
:100780000D90BE480068099008F094FF02460B46A1
:10079000CDE90A01C7A10EA806F076FC00201021C1
:1007A0000EAACDE9002102900D984FF6E0731F22AA
:1007B00001460B90022002F091F9DDE90C1008448B
:1007C0000D90AE48D0F8D000099008F073FFCDE945
:1007D0000A0101460B98CDE90010B948B0F9002094
:1007E000B8A10EA806F050FC002010210EAACDE9F9
:1007F000002102900D984FF6E0731F2201460B90E6
:10080000022002F06BF9DDE90C1008440D909B48C2
:10081000D0F8CC00099008F04DFF02460B46CDE918
:100820000A01ACA10EA806F02FFC002010210EAA90
:10083000CDE9002102900D984FF6E0731F2201468A
:100840000B90022002F04AF9DDE90C1008440D90EB
:100850008A48D0F88C00099008F02CFFCDE90A01F5
:10086000CDE900019E48B0F900209EA10EA806F037
:100870000BFC002010210EAACDE9002102900D985A
:100880004FF6E0731F2201460B90022002F026F97A
:10089000DDE90C1008440D907848D0F888000990E4
:1008A00008F008FF02460B46CDE90A0191A10EA807
:1008B00006F0EAFB002010210EAACDE900210290EB
:1008C0000D984FF6E0731F2201460B90022002F0B4
:1008D00005F9DDE90C1008440D908948006808F01E
:1008E000E9FE02460B46CDE90A0186A10EA806F0F4
:1008F000CBFB002010210EAACDE9002102900D981B
:100900004FF6E0731F2201460B90022002F0E6F83A
:100910005A48D0F81001099008F0CCFE02460B4668
:10092000CDE90A017AA10EA806F0AEFB0020102145
:100930000EAACDE9002102900D984FF6E0731F2218
:1009400001460B90782002F0C9F8DDE90C1008444C
:100950000D904A48D0F84001099008F0ABFE0246DD
:100960000B46CDE90A016CA10EA806F08DFB002014
:1009700010210EAACDE9002102900D984FF6E073E8
:100980001F2201460B90022002F0A8F83B48D0F845
:100990001401099008F08EFE02460B46CDE90A01CB
:1009A0005BA10EA806F070FB002010210EAACDE975
:1009B000002102900D9880B24FF6E0731F2201468D
:1009C0000B90782002F08AF8DDE90C1008440D90B5
:1009D0002A48D0F84401099008F06CFE02460B4604
:1009E000CDE90A014FA10EA806F04EFB0020102110
:1009F0000EAACDE9002102900D9880B24FF6E07367
:100A00001F2201460B90022002F068F81B48D0F824
:100A10001801099008F04EFE02460B46CDE90A0186
:100A200043A10EA806F030FB002010210EAACDE94C
:100A3000002102900D9880B24FF6E0731F2201460C
:100A40000B90782002F04AF8DDE90C1008440D9074
:100A50000A49D1F86001D1F8641102460B46CDE98C
:100A60000A0135A10EA806F00FFB002010210EAAE6
:100A700068E000000044004062000020D000002038
:100A800040000020565F464C3A2564202C25662005
:100A90002000000054464C5F563A25662020000096
:100AA00042000020565F46523A2564202C256620DD
:100AB000200000005446525F563A25662020000070
:100AC00046000020565F42523A2564202C256620BD
:100AD000200000005442525F563A25662020000054
:100AE00044000020565F424C3A2564202C256620A5
:100AF0002000000054424C5F563A2566202000003A
:100B0000480000205941573A256620202000000067
:100B1000543A256620202000765F783A256620200A
:100B200020000000765F793A256620202000000032
:100B3000543A2566200000006E6F775F783A25668C
:100B400020200000CDE9002102900D9880B24FF6E0
:100B5000E0731F2201460B90022001F0BFFFFB490A
:100B6000D1F83001D1F8341102460B46CDE90A0123
:100B7000F7A10EA806F088FA002010210EAACDE9F0
:100B8000002102900D9880B24FF6E0731F220146BB
:100B90000B90962001F0A2FFDDE90C1008440D90A7
:100BA000EA49D1F86801D1F86C1102460B46CDE94B
:100BB0000A01E9A10EA806F067FA002010210EAA8A
:100BC000CDE9002102900D9880B24FF6E0731F220C
:100BD00001460B90022001F081FFDC49D1F8380179
:100BE000D1F83C1102460B46CDE90A01D8A10EA866
:100BF00006F04AFA002010210EAACDE90021029049
:100C00000D9880B24FF6E0731F2201460B9096209C
:100C100001F064FFDDE90C1008440D90CB48D0F8DA
:100C20001C01099008F046FD02460B46CDE90A0179
:100C3000CCA10EA806F028FA002010210EAACDE9BA
:100C4000002102900D9880B24FF6E0731F220146FA
:100C50000B90022001F042FFDDE90C1008440D90DA
:100C6000C34800680A21B0FBF1F201FB12000B90AF
:100C7000BF480068B0FBF1F0B0FBF1F201FB1200DD
:100C80000A90BB4801686420B1FBF0F00A21B0FB78
:100C9000F1F201FB12000990B54800684FF47A7137
:100CA000B0FBF1F00A21B0FBF1F201FB1200089059
:100CB000AF48006842F21071B0FBF1F20A20B2FBBB
:100CC000F0F100FB11200790A9480168A948B1FB89
:100CD000F0F00690DDE90823DDE90A10CDE90123F3
:100CE000CDE9031007980090A148069BA2A10268D5
:100CF0000EA806F0C9F9002010210EAACDE90021A6
:100D000002900D9880B24FF6E0731F2201460B90BF
:100D1000022001F0E3FEDDE90C1008440D909D482F
:100D200002789DA10EA806F0AFF9002010210EAAAE
:100D3000CDE9002102900D9880B24FF6E0731F229A
:100D400001460B90022001F0C9FE954895A102686A
:100D50000EA806F099F9002010210EAACDE9002175
:100D600002900D9880B24FF6E0731F2201460B905F
:100D7000322001F0B3FE8D488DA102680EA806F066
:100D800083F9002010210EAACDE9002102900D98D0
:100D900080B24FF6E0731F2201460B90782001F0DD
:100DA0009DFEDDE90C1008440D90834883A1026884
:100DB0000EA806F069F9002010210EAACDE9002145
:100DC00002900D9880B24FF6E0731F2201460B90FF
:100DD000022001F083FEDDE90C1008440D907A48F2
:100DE00002787AA10EA806F04FF9002010210EAA71
:100DF000CDE9002102900D9880B24FF6E0731F22DA
:100E000001460B90022001F069FE7248027872A13F
:100E10000EA806F039F9002010210EAACDE9002114
:100E200002900D9880B24FF6E0731F2201460B909E
:100E30002A2001F053FE6A4802786AA10EA806F043
:100E400023F9002010210EAACDE9002102900D986F
:100E500080B24FF6E0731F2201460B90522001F042
:100E60003DFE6248027862A10EA806F00DF900204E
:100E700010210EAACDE9002102900D9880B24FF604
:100E8000E0731F2201460B907A2001F027FE5A489A
:100E900002785AA10EA806F0F7F8002010210EAA39
:100EA00000E0D2E0CDE9002102900D9880B24FF62B
:100EB000E0731F2201460B90A22001F00FFEDDE936
:100EC0000C1008440D904F48007801281DD1DDE931
:100ED0000C1008440D90002010214BA2CDE90021F8
:100EE00002900D9880B24FF6E0731F2201460B90DE
:100EF000022001F0F3FD02F07AFC02F04BFA002030
:100F0000124981F83C023F490870424800780128A4
:100F10001AD1DDE90C1008440D90002010213EA2EA
:100F2000CDE9002102900D9880B24FF6E0731F22A8
:100F300001460B90022001F0D1FD044890F83C02DC
:100F400008B901206FE06DE073E00000D0000020E0
:100F5000543A252E326620006E6F775F793A256607
:100F600020202000765F773A2566202020000000B0
:100F700068000020A086010051525F636F64653AEB
:100F800025642C2025642564256425642564256456
:100F900020202000750000206D763A256320000097
:100FA0006C000020583A25642020000070000020CA
:100FB000593A256420200000000000207461736B02
:100FC0003A256420000000005C00002075313A25BD
:100FD000632000005D00002075323A256320000088
:100FE0005E00002075333A25632000005F0000207A
:100FF00075343A25632000006000002075353A25DD
:1010000063200000880000206B6579315F666C61A9
:1010100067000000890000206B6579325F666C61B3
:10102000670000000020FE4981F83C020020FD49D5
:101030000870FD48006808B9012000E00020FA4966
:101040000860012005F0F3FF00BFFFF72CBB10B5CF
:101050000121F64805F095FD012869D1F4480068A2
:10106000401CF349086008460068F2490968401AC4
:10107000022807D34821F04805F0D4FEEC48006868
:10108000EC490860EA480068EC490968401A0528FC
:101090000AD90020EA490860EA490860EA4908607C
:1010A0000120DF4981F83C02E8480088E8490988C6
:1010B00088420BDAE5490988891C88B24FF48772A7
:1010C000962103F081F9E149088019E0DF480088A2
:1010D000DF490988884213DDDC480088022804DDE6
:1010E000DA480088801E80B200E0962004464FF463
:1010F00087729621204603F067F9D449088000BF23
:10110000D448007830B14FF48770D049088000206F
:10111000D0490870C4481030006808B9012000E0C8
:101120000020C149103108600121C04805F03AFD96
:1011300010BD2DE9FC470121C74805F022FD01281B
:101140007ED1C64805F00BFD00B2C5490880C548F0
:1011500005F005FD404200B2C34908804FF08040D1
:1011600005F0FDFC00B2C1490880C14805F0F7FC5C
:1011700000B2C049088000214FF0804005F0CCFC4F
:101180000021BB4805F0C8FC0021B44805F0C4FCB0
:101190000021B44805F0C0FC02F076FCA04802F043
:1011A000D4FC9F48443002F0D0FC9D48883002F0C7
:1011B000CCFC9B48CC3002F0C8FC02F0E6FCAE4808
:1011C000007868B19E4800689549C1F814019D48AF
:1011D0000068C1F818019C480068C1F81C01C5E00E
:1011E00003F021F88E48D0F81C0180F000408C49B3
:1011F000C1F81C010846D0F86021D0F864111046EF
:1012000007F052FD04468648D0F83021D0F834115A
:10121000104607F049FD054622462946974802F048
:1012200016FB7F48D0F86821D0F86C11104607F003
:101230003BFD04467A48D0F83821D0F83C1100E054
:10124000F7E1104607F030FD0546224629468B4857
:10125000283002F0FCFA7248D0F8BC017049C1F89D
:1012600014010846D0F8E401C1F81801D1F81001C2
:10127000002108F07BFB0BD16948D0F8E4016849F4
:10128000C1F818010846D0F8BC01C1F8140146E0C5
:101290006349D1F810017A4908F068FB0DD1604824
:1012A000D0F8E40180F000405D49C1F8140108461F
:1012B000D0F8BC01C1F8180131E05949D1F810014A
:1012C000704908F053FB0DD15548D0F8E40154495A
:1012D000C1F814010846D0F8BC0180F00040C1F804
:1012E00018011CE04E49D1F81001674908F03EFB97
:1012F00006D04B49D1F81001644908F037FB0ED1F4
:101300004748D0F8BC0180F000404549C1F81401BD
:101310000846D0F8E40180F00040C1F818015C48AC
:101320000078012822D15B48006808F06FFB044672
:10133000224659495148783002F089FA57480068E6
:1013400008F064FB0446224655494C48503002F0F0
:101350007EFA3348D0F834023149C1F81401084606
:10136000D0F80C0280F00040C1F818012C49D1F8E7
:101370001C0108F09FF904460D462949D1F81401D3
:1013800008F098F906460F462549D1F8180108F0EB
:1013900091F9804632463B46CDE9004502F08BFF8D
:1013A0001F48426801680C3002F0A4FA1C48826CA5
:1013B000416C503002F09EFA1948D0F88C20D0F8D9
:1013C0008810943002F096FA1548D0F8D020D0F862
:1013D000CC10D83002F08EFA114890F83C02012867
:1013E00007D100210E4801634167C0F8B810C0F86A
:1013F000FC102C48007851280BD125480078012892
:1014000007D10021064801634167C0F8B810C0F851
:10141000FC100349244A486F244903F06BFB47E062
:10142000D000002089000020948121420014004057
:10143000780000201C000020005000401800002010
:10144000080000200C0000201000002054000020A4
:101450001400002020000020001000400008004080
:1014600042000020000C0040400000204600002008
:101470000004004044000020060000206C02002010
:101480000000B4420000B4C200003443000034C382
:101490007600002070000020000070436C000020E7
:1014A00000809343750000200078BB450078BBC5E1
:1014B0000146F74841670146F64A086BF64903F0D2
:1014C00019FBF3490863F34AD1F8B800F24903F075
:1014D00011FB0146EE48C0F8B8100146ED4AD1F8BC
:1014E000FC00ED4903F006FB0146E948C0F8FC109A
:1014F0000146086B08F06EFAE5498860486F08F00D
:1015000069FAE349C864D1F8B80008F063FAE04921
:10151000C1F89000D1F8FC0008F05CFADC49C1F891
:10152000D400C86C08F072FA0546DA4ADA4903F0CA
:10153000E1FA044608F04EFAD549C864886808F014
:1015400065FA0546D34AD44903F0D4FA044608F0B4
:1015500041FACF498860D1F8900008F057FA054663
:10156000CC4ACD4903F0C6FA044608F033FAC8491C
:10157000C1F89000D1F8D40008F048FA0546C54AF1
:10158000C54903F0B7FA044608F024FAC049C1F887
:10159000D400002041F26F71CDE90010BC484FF437
:1015A00000629110C36C084602F0E9F9002041F294
:1015B0006F71CDE90010B6484FF4804291108368F6
:1015C000402002F0DCF9002041F26F71CDE90010FB
:1015D000AF484FF400429110D0F89030481102F01B
:1015E000CEF9002041F26F71CDE90010A8484FF408
:1015F00080629110D0F8D430802002F0C0F9A74862
:10160000008802F05AFFA648008802F078FFA5483B
:10161000008802F063FF03F0BAFDA348006808B930
:10162000012000E00020A049086001219F4805F04A
:10163000B9FABDE8FC8710B540F225519C4805F089
:1016400075FC48B19A4805F0F1FB9A49087040F2E0
:101650002551974805F094FC10BD10B540F2255176
:10166000954805F063FC00B3934805F0DFFB934910
:101670000870084600789249924A12788854914836
:10168000007891490978884205D101208F49087076
:1016900000208C4908708B480078401C89490870EC
:1016A00040F22551844805F06BFC10BD2DE9F04156
:1016B00040F22551864805F039FC00286FD0844857
:1016C00005F0B4FB83490870084600788249834AD4
:1016D000127888548148007810B101281CD10BE0A1
:1016E0007D487E490978405C552804D17B480078C4
:1016F000401C7A49087015E0774878490978405CC1
:10170000522805D175480078401C7449087002E0E1
:1017100000207249087005E070480078401C6F494D
:10172000087000BF00BF6D480078152831D16A48A5
:10173000407C6949897C40EA012004B2204608F0D7
:1017400065F907464FF08E4108F04EF806466449A9
:1017500008F0BCF963490860084600684C49C1F8C4
:1017600048015D4880795C49C97940EA012005B2A9
:10177000284608F04BF907464FF08E4108F034F840
:101780000646594908F0A2F9584908600020534913
:10179000087040F225514E4805F0F2FB00BFBDE84D
:1017A000F08110B540F22551514805F0BFFB0128EA
:1017B0006DD14F4805F03AFB4E4908700846007855
:1017C000412810D14C49087000204C490870012074
:1017D0004B4908703448006808B9012000E0002037
:1017E000314908601CE143480078422810D1424941
:1017F00008700020414908700120414908702A48BA
:10180000006808B9012000E000202749086007E1CE
:1018100038480078432810D13749087000203749EC
:1018200008700120364908701F48006808B9012077
:1018300000E000201C490860F2E02E4800784428AF
:1018400010D12D49087000202C49087001202C4926
:1018500008701548006808B9012000E0002012490E
:101860000860DDE02348007845284BD12249087004
:101870000020224908700120214908700A480068A8
:1018800008B9012000E0002007490860C8E0CCE06A
:10189000D00000200078BB450078BBC55400002074
:1018A0005600002058000020A08121420010004076
:1018B000003801405C000020004400405D00002032
:1018C000600300206100002062000020630000200F
:1018D000004800405E000020A800002021000020F9
:1018E00000003443480000200000FA444C0000206F
:1018F000004C00405F0000207500002074000020B4
:10190000200000205D480078462810D15C4908700E
:1019100000205C49087001205B4908705B48006842
:1019200008B9012000E000205849086078E05348D9
:101930000078472810D1524908700020514908709A
:101940000120514908705148006808B9012000E0A1
:1019500000204E49086063E048480078512811D1C2
:1019600047490870002047490870474908704748B0
:10197000001D006808B9012000E000204349091D4E
:1019800008604DE03E480078F0B33C48007840499C
:101990003C4A1278885408463A490978405C5828ED
:1019A00012D10A203A49374A12788854084605F07D
:1019B0006CFC384908600A2232480178344805F046
:1019C00090FC00202F49087031482E490978405C6E
:1019D000592820D10A202E492A4A127888540846CC
:1019E00005F053FC2C4908600A2226480178284853
:1019F00005F077FC0020234908702149087023482E
:101A00000C38006818B900E00AE0012000E000206E
:101A10001E490C3908601B480078401C19490870A1
:101A200040F225511D4805F0ABFA10BD10B540F24B
:101A300025511B4805F07AFA01281DD1184805F0F8
:101A4000F5F91849087008460078174908701748D2
:101A500000681749086013480078FEF7CFFB0020A4
:101A6000114908700F4801780D4805F0DBF940F284
:101A700025510B4805F084FA10BD00005F000020DE
:101A8000750000207400002020000020A081214269
:101A9000800300206C00002070000020004C0040FB
:101AA000005000406000002004000020780000206A
:101AB00018000020704700BFFEE700BFFEE700BF30
:101AC000FEE700BFFEE770477047704770470000B1
:101AD0000CB50020019000906C48006840F4803004
:101AE0006A49086000BF6948006800F4003000904F
:101AF0000198401C0190009818B90198B0F5A06FAA
:101B0000F1D16248006800F4003010B1012000906B
:101B100001E0002000900098012843D15C48006853
:101B200040F010005A4908600846006820F00300A1
:101B300008600846006840F00200086053484068AA
:101B4000524948600846406848600846406840F48A
:101B5000806048600846406820F47C104860084671
:101B6000406840F4E81048600846006840F0807023
:101B7000086000BF4548006800F000700028F9D0F8
:101B80004248406820F003004049486008464068E9
:101B900040F00200486000BF3C48406800F00C0084
:101BA0000828F9D10CBD10B5FFF792FF10BD10B594
:101BB0003648006840F00100344908600846406833
:101BC00034490840314948600846006832490840B5
:101BD0002E4908600846006820F480200860084606
:101BE000406820F4FE0048604FF41F008860FFF753
:101BF000DAFF4FF000602949086010BD10B50021E0
:101C000000200022214B5B6803F00C0121B1042964
:101C100006D0082928D107E0214B224C236027E079
:101C20001F4B204C236023E0184B5B6803F47010BB
:101C3000164B5B6803F48032022303EB904022B919
:101C4000194B4343174C23600DE0104B5B6803F4C2
:101C5000003323B1144B4343124C236003E0104B79
:101C60004343104C236003E00D4B0E4C236000BF38
:101C700000BF064B5B68C3F303130C4CE15C094BDC
:101C80001B68CB40074C236010BD000000100240D1
:101C9000002002400000FFF8FFFFF6FE08ED00E024
:101CA00000127A002400002000093D0028000020D6
:101CB00000B587B00121084603F08DFE0121022006
:101CC00003F089FE0121042003F085FE0121082094
:101CD00003F081FE0121042003F070FE01210820A1
:101CE00003F06CFE0121084603F068FE01219E48C6
:101CF00003F079FC01219D4803F075FC28208DF844
:101D00001B0048F2C300ADF8180003208DF81A003C
:101D100006A9974803F096FBC820ADF8180006A95D
:101D2000944803F08FFB03A804F032FC4FF6FF70D9
:101D3000ADF810000020ADF80C008DF8140003A9D8
:101D40004FF0804004F0F8F803A804F021FC4FF6AF
:101D5000FF70ADF810000020ADF80C008DF81400F5
:101D600003A9854804F0E8F803A804F011FC4FF635
:101D7000FF70ADF810000020ADF80C008DF81400D5
:101D800003A97E4804F0D8F803A804F001FC4FF63C
:101D9000FF70ADF810000020ADF80C008DF81400B5
:101DA00003A9774804F0C8F8684604F004FC002052
:101DB000ADF800000F20ADF8080069464FF08040F4
:101DC00004F04DFB0420ADF800000F20ADF8080032
:101DD00069464FF0804004F042FB684604F0EBFB9C
:101DE0000020ADF800000F20ADF8080069466248F9
:101DF00004F035FB0420ADF800000F20ADF808001A
:101E000069465D4804F02BFB684604F0D4FB0020D3
:101E1000ADF800000F20ADF808006946574804F0FF
:101E20001EFB0420ADF800000F20ADF80800694645
:101E3000524804F014FB684604F0BDFB0020ADF8E6
:101E400000000F20ADF8080069464D4804F007FB7C
:101E50000420ADF800000F20ADF80800694648489E
:101E600004F0FDFA00231A4603214FF0804004F0ED
:101E700072FC00231A4603213F4804F06CFC002347
:101E80001A4603213D4804F066FC00231A4603214C
:101E90003B4804F060FC0121880704F0A9FB012104
:101EA000354804F0A5FB0121344804F0A1FB0121D1
:101EB000334804F09DFB07B000BD00B587B0012199
:101EC000042003F07BFD0121084603F084FD04207B
:101ED0008DF81B000C20ADF8180006A9244803F06B
:101EE000B1FA03A804F054FB0020ADF81200ADF8DD
:101EF0000E004FF6FF70ADF810000020ADF80C009A
:101F000003A94FF0804004F017F800231A4603217C
:101F10004FF0804004F01FFC684604F04CFB0820A2
:101F2000ADF800000A20ADF808006946400704F04B
:101F300096FA0C20ADF800000A20ADF808006946BA
:101F4000400704F08CFA01221146900704F06BFB65
:101F500000214FF0804004F0DFFD0121880704F0EC
:101F600047FB07B000BD0000000230000001180070
:101F700000080140000C014000040040000800403F
:101F8000000C004070B505460E4614463146284602
:101F900001F02AF8204600F0E8FF70BD2DE9F05F5F
:101FA00004460D4616461F46301B401C1FFA80FA99
:101FB000781B401C1FFA80FB3B46324629462046D0
:101FC00000F0E8FF4FF000080FE04FF0000906E0D6
:101FD0000A9800F0CAFF09F101001FFA80F9D14503
:101FE000F6DB08F101001FFA80F8D845EDDBFE486A
:101FF0004088401E83B2FC480088401E82B2002107
:10200000084600F0C7FFBDE8F09F2DE9FF4F85B0FF
:1020100081468A460020049003900798A0EB0905AA
:102020000898A0EB0A06CDF80890CDF804A0002D82
:1020300001DD012705E00DB9002702E04FF0FF3771
:102040006D42002E02DD4FF0010806E016B94FF098
:10205000000802E04FF0FF387642B54201DD2C4621
:1020600000E034464FF0000B21E0019A91B2029A51
:1020700090B200F0C3FF04982844049003983044C1
:1020800003900498A04205DD0498001B0490029878
:10209000384402900398A04205DD0398001B03908A
:1020A0000198404401900BF101001FFA80FB601C75
:1020B0008345DADD09B0BDE8F08F2DE9F041044633
:1020C0000D4616461F462B46324629462046FFF748
:1020D0009CFF3B46224629462046FFF796FF3B469B
:1020E000324639462046FFF790FF3B4632462946A6
:1020F0003046FFF78AFFBDE8F081F8B504460D468B
:1021000016461F46B94800883B463246294600908D
:102110002046FFF743FFF8BD2DE9F04104460D4688
:1021200016461F46DDF81880EA1991B2A21990B23E
:102130004246FFF727FFEA1991B2A21B90B242462E
:10214000FFF720FFEA1B91B2A21990B24246FFF7B7
:1021500019FFEA1B91B2A21B90B24246FFF712FF91
:10216000AA1991B2E21990B24246FFF70BFFAA19E1
:1021700091B2E21B90B24246FFF704FFAA1B91B254
:10218000E21990B24246FFF7FDFEAA1B91B2E21B94
:1021900090B24246FFF7F6FEBDE8F0812DE9FF4F11
:1021A00081B0824617469846DDF838B0002445468F
:1021B0004FEA4800C0F10306BBF1000F1FD01BE03F
:1021C000A14608E04B462246009750460299FFF789
:1021D000A3FF09F10109A945F4DD002E04DA04206A
:1021E00000FB0460861D06E0601B042101FB00600B
:1021F00000F10A066D1E641CAC42E1DD18E015E03A
:102200002B462246009750460299FFF785FF002E85
:1022100004DA042000FB0460861D06E0601B042134
:1022200001FB006000F10A066D1E641CAC42E7DD94
:1022300005B0BDE8F08F2DE9F04704460D4616467F
:102240001F46DDE908893B46324629462046FFF70E
:10225000DCFE4B46424639463046FFF7D6FE2B465B
:10226000224649464046FFF7D0FEBDE8F087028887
:102270000B8803800A8070472DE9FF4F85B0002648
:102280000027BDF81800BDF82010884207DD08A916
:1022900006A8FFF7ECFF07A905A8FFF7E8FFBDF8C0
:1022A0002000BDF84C10884207DD08A913A8FFF7ED
:1022B000DEFF07A912A8FFF7DAFFBDF81800BDF886
:1022C0002010884207DD08A906A8FFF7D0FF07A95C
:1022D00005A8FFF7CCFFBDF81800BDF84C108842E8
:1022E00038D1BDF8140003900490BDF81C00BDF86F
:1022F0001010884203DABDF81C00049008E0BDF815
:102300001C00BDF80C10884202DDBDF81C000390D3
:10231000BDF84800BDF81010884203DABDF8480047
:10232000049008E0BDF84800BDF80C10884202DDBA
:10233000BDF8480003902D4800880090BDF8183083
:10234000BDF80C201946BDF81000FFF727FE09B0B4
:10235000BDE8F08FBDF81C00BDF81410A0EB010B18
:10236000BDF82000BDF81810401A0290BDF84800D2
:10237000BDF81410451ABDF84C00BDF81810A0EBBC
:102380000109BDF84800BDF81C10A0EB010ABDF81A
:102390004C00BDF82010401A0190BDF82000BDF897
:1023A0004C10884202D1BDF8208004E0BDF8200026
:1023B000401E1FFA80F8BDF818402CE0029896FBEA
:1023C000F0F0BDF81410084480B2049097FBF9F0C7
:1023D000BDF81410084480B203905E442F44BDF849
:1023E0001000BDF80C1003E0BE00002038000020F3
:1023F000884203DD03A904A8FFF739FFFE480088DF
:1024000023460090BDF80C202146BDF81000FFF7D0
:10241000C5FD601C84B24445D0DDBDF82000201A03
:1024200000FB0AF6BDF81800201A00FB05F727E0AC
:10243000019896FBF0F0BDF81C10084480B204909F
:1024400097FBF9F0BDF81410084480B2039056448D
:102450002F44BDF81000BDF80C10884203DD03A91D
:1024600004A8FFF704FFE448008823460090BDF865
:102470000C202146BDF81000FFF790FD601C84B2CF
:10248000BDF84C008442D3DD00BF60E72DE9FF4F6B
:1024900083B081468A469346DDE91064D6480088B9
:1024A0000290A6F12000C6B204EBD47009EB6000E4
:1024B000401E82B20AEB0400401E83B251464846D9
:1024C000019400F067FD129850BB002525E00C2C0C
:1024D00007D106EB4600C94901EB800010F80580E2
:1024E00004E0C74800EB061010F8058000270DE057
:1024F00008F0010018B1584600F037FD02E00698D8
:1025000000F033FD4FEA6808781CC7B204EBD471C1
:10251000B7EB610FECDB681CC5B2A542D7DB2DE041
:10252000002529E00C2C07D106EB4600B34901EB4E
:10253000800010F8058004E0B14800EB061010F8A8
:102540000580002711E0AC48A0F800B008F00100B9
:1025500038B10AEB050291B209EB070290B200F024
:102560004DFD4FEA6808781CC7B204EBD471B7EB95
:10257000610FE8DB681CC5B2A542D3DB9E49029817
:102580000880A0484088401E83B29E480088401EB4
:1025900082B20021084600F0FDFC07B0BDE8F08FD4
:1025A0002DE9FE4306460F4615461C46DDF82880F9
:1025B0001DE094480088401EB04204DB91484088EA
:1025C000401EB84201DABDE8FE8320788DE8210183
:1025D0008D4803888848028839463046FFF756FF01
:1025E000284605EBD07106EB61018EB2641C2078A1
:1025F0007E2802DC20782028DBDA00BFE3E710B574
:102600000246012000E050430B1EA1F10104E1B29B
:10261000F9D110BD2DE9FF4F83B0074691461E4604
:10262000109C4FF0000A002543E0701B401EC1B211
:102630000A20FFF7E4FFB9FBF0F00A21B0FBF1F24A
:1026400001FB1208BAF1000F1BD1701EA84218DD61
:10265000B8F1000F13D100202021A346CDE90014CA
:10266000029004EBDB71491001FB057188B26649E9
:102670000B8861490A880499FFF708FF17E04FF0BB
:10268000010A002108F13000C0B2A346CDE90141A2
:10269000009004EBDB71491001FB057188B25A49C7
:1026A0000B8855490A880499FFF7F0FE00BF681CA3
:1026B000C5B2B542B9DB07B0BDE8F08F2DE9FC5FCC
:1026C0000546884691469A46DDF830B000953E2092
:1026D000019000245FE004EB04104C4911F8100055
:1026E0009BF80010884253D104EB0410474901EBDA
:1026F000400040789BF80110884249D108F10F0052
:1027000083B205F10F0082B24146284600F042FC38
:1027100000263BE0002734E00D9890B904EB04104C
:102720003A4901EB4000801C805D8021394108401E
:1027300018B1484600F019FC21E0504600F015FCA5
:102740001DE02D48A0F8009004EB04102F4901EB88
:102750004000801C805D80213941084018B141460D
:10276000284600F04BFC681C85B20098281A1028F7
:1027700005D1009D08F101001FFA80F803E0781CE4
:10278000C7B2082FC8DB00BF701CC6B2202EC1DB49
:1027900000BF601C84B2019884429CDB19484088C9
:1027A000401E83B217480088401E82B200210846AE
:1027B00000F0F0FBBDE8FC9F2DE9FC5F0546884674
:1027C00091469A46DDF830B000950720019000242C
:1027D00076E004EB840000EB44100D4911F8100082
:1027E0009BF80010884268D104EB840000EB441091
:1027F000074901EB40000DE038000020BA9E0008B8
:102800002EA30008BE0000203A0000201EA90008E8
:102810005AB1000840789BF8011088424DD108F168
:10282000170083B205F1170082B24146284600F036
:10283000B1FB00263FE0002738E00D98A0B904EB7B
:10284000840000EB4410FB4901EB4000801C805DDC
:1028500080213941084018B1484600F086FB23E04A
:10286000504600F082FB1FE0F348A0F8009004EB14
:10287000840000EB4410EF4901EB4000801C805DB8
:1028800080213941084018B14146284600F0B6FB86
:10289000681C85B20098281A182805D1009D08F1F7
:1028A00001001FFA80F803E0781CC7B2082FC4DBD0
:1028B00000BF701CC6B2482EBDDB00BF601C84B2D6
:1028C0000198844285DBDD484088401E83B2DB48A6
:1028D0000088401E82B20021084600F05BFBBDE884
:1028E000FC9F2DE9FC5F0546884691469A46DDF837
:1028F00030B000950520019000245FE004EB8410C7
:10290000CF4911F810009BF80010884253D104EB16
:102910008410CB4901EB400040789BF801108842BD
:1029200049D108F11F0083B205F11F0082B2414670
:10293000284600F02FFB00263BE0002734E00D98EE
:1029400090B904EB8410BE4901EB4000801C805D0F
:1029500080213941084018B1484600F006FB21E0CB
:10296000504600F002FB1DE0B348A0F8009004EBD5
:102970008410B34901EB4000801C805D8021394107
:10298000084018B14146284600F038FB681C85B263
:102990000098281A202805D1009D08F101001FFA8F
:1029A00080F803E0781CC7B2082FC8DB00BF701C9A
:1029B000C6B2802EC1DB00BF601C84B20198844285
:1029C0009CDB9E484088401E83B29C480088401E85
:1029D00082B20021084600F0DDFABDE8FC9F2DE937
:1029E000FC5F0546884691469A46DDF830B0009572
:1029F00004200190002460E004EB0420914911F8C8
:102A000010009BF80010884254D104EB04208D493B
:102A100001EB400040789BF8011088424AD108F150
:102A20003F0083B205F13F0082B24146284600F0E4
:102A3000B1FA00263BE0002734E00D9890B904EB92
:102A40000420804901EB4000801C805D80213941D9
:102A5000084018B1484600F088FA21E0504600F0DE
:102A600084FA1DE07448A0F8009004EB0420754936
:102A700001EB4000801C805D80213941084018B185
:102A80004146284600F0BAFA681C85B20098281A18
:102A9000402805D1009D08F101001FFA80F803E0ED
:102AA000781C87B2082FC8DB00BF701C86B2B6F551
:102AB000007FC0DB00BF601C84B2019884429BDBB6
:102AC0005E484088401E83B25C480088401E82B247
:102AD0000021084600F05EFABDE8FC9F2DE9FF4F9B
:102AE00083B0064688469146DDE91147109DB246FF
:102AF0004FF0000B7BE0BBF1000F40D104EBD47131
:102B00004E4A1288A2EB6101B14204DB4B4949886D
:102B1000091B414502DA07B0BDE8F08F287880280C
:102B200002DD4FF0010B62E028780D2806D108EB9A
:102B300004001FFA80F856466D1C1EE0102C0DDDB7
:102B4000102128788DE883004A4641463046069B8E
:102B5000FFF79CFC06F1080086B20EE028788DE8AD
:102B600091004A4641463046069BFFF78FFC2046BF
:102B700004EBD07106EB61018EB26D1C37E02F487B
:102B80000088001BB04204DB2C484088001B4045F5
:102B900000DAC0E74FF0000B402C07D1CDE9005719
:102BA0004A4641463046069BFFF719FF202C08D1C4
:102BB000CDE900574A4641463046069BFFF791FE55
:102BC00012E0182C08D1CDE900574A46414630465C
:102BD000069BFFF7F1FD07E0CDE900574A46414665
:102BE0003046069BFFF76AFDAD1C301986B2287887
:102BF000002880D100BF8EE72DE9FE4F0E46174614
:102C00009846DDE90D9A0C9C204604F04BFB85B2FA
:102C10000A490988A1EBC50000EBD071C1F34F0B45
:102C200043463A46314658468DE81006FFF756FFB0
:102C3000BDE8FE8F5AB1000838000020BE00002019
:102C400060B30008BAC000082DE9F04706460F46F9
:102C5000154607F1270083B206F1270082B23946F4
:102C6000304600F097F900240AE015F8149005EBBF
:102C7000440090F8018049EA082000F076F9641CCD
:102C8000B4F5C86FF1DB9B484088401E83B2994879
:102C90000088401E82B20021084600F07BF9BDE8A2
:102CA000F0872DE9F05F04460F4690469A46DDF81E
:102CB00028B0A14607F13F0083B204F13F0082B281
:102CC0003946204600F066F900253AE0002632E059
:102CD0000B9890B90BEB0B20874901EB4000801C4F
:102CE000405D80213141084018B1404600F03DF977
:102CF0001FE0504600F039F91BE08048A0F8008042
:102D00000BEB0B207C4901EB4000801C405D8021D7
:102D10003141084018B13946204600F06FF9601C77
:102D200084B2A4EB0900402803D14C46781C87B23A
:102D300003E0701C86B2082ECADB00BF00BF681C0F
:102D400085B2B5F5007FC1DB6A484088401E83B27A
:102D500068480088401E82B20021084600F01AF937
:102D6000BDE8F09F2DE9F05F04460F4690469A4675
:102D7000DDF828B0A14607F14F0083B204F1270027
:102D800082B23946204600F005F900253CE00026D5
:102D900034E00B9898B9C9200BFB00F0584901EBBF
:102DA0004000801C415D80203041014019B1404607
:102DB00000F0DBF820E0504600F0D7F81CE04F4868
:102DC000A0F80080C9200BFB00F04D4901EB40004A
:102DD000801C405D80213141084018B139462046B1
:102DE00000F00CF9601C84B2A4EB0900282803D180
:102DF0004C46781C87B203E0701C86B2082EC8DBF4
:102E000000BF00BF681C85B2B5F5C87FBFDB39487D
:102E10004088401E83B237480088401E82B200219D
:102E2000084600F0B7F8BDE8F09F2DE9F05F0446D2
:102E30000F4690469A46DDF828B0A14607F12F00CC
:102E400083B204F12F0082B23946204600F0A2F886
:102E500000253EE0002636E00B98A0B90BEB0B10E6
:102E600000EBCB10274901EB4000801C415D802026
:102E70003041014019B1404600F077F821E050465A
:102E800000F073F81DE01D48A0F800800BEB0B105C
:102E900000EBCB101B4901EB4000801C405D802102
:102EA0003141084018B13946204600F0A7F8601CAF
:102EB00084B2A4EB0900302803D14C46781C87B2B9
:102EC00003E0701C86B2082EC6DB00BF00BF681C82
:102ED00085B2B5F5907FBDDB06484088401E83B2C1
:102EE00004480088401E82B20021084600F052F8D3
:102EF000BDE8F09FBE000020BAC0000838000020E6
:102F000072BA0008EAB5000810B504460420FE496C
:102F10000860402008602146FC4801F005FB0420C1
:102F2000F949091F086010BD10B504460420F64990
:102F300008604020091F08602146F44801F0F4FAB7
:102F40000420F149091F086010BD70B505460C4604
:102F50002846FFF7D9FFE0B2FFF7E6FF70BD10B5D6
:102F6000EB49087AFFF7D0FF10BD10B504460420E6
:102F7000E54908604020091F08602112E34801F07C
:102F8000D3FAE1B2E14801F0CFFA0420DE49091F8B
:102F9000086010BD2DE9F04104460D4616461F4657
:102FA000DB49887AFFF7B0FF2012FFF7BDFFE0B2E0
:102FB000FFF7BAFF3012FFF7B7FFF0B2FFF7B4FF29
:102FC000D349087BFFF7A0FF2812FFF7ADFFE8B257
:102FD000FFF7AAFF3812FFF7A7FFF8B2FFF7A4FF29
:102FE000FFF7BDFFBDE8F08170B504460D462B46E6
:102FF000224629462046FFF7CDFF70BD70B5044636
:103000000D4629462046FFF7EFFFC2480088FFF72C
:10301000ACFF70BD70B50646BD484088401E83B207
:10302000BB480088401E82B200210846FFF7B2FF6D
:103030000420B54908604020091F086000240AE008
:10304000002503E03046FFF790FF6D1CB048008874
:10305000A842F7D8641CAE484088A042F0D80420AB
:10306000A949091F086070BD08B50121802002F040
:10307000A5FC5520ADF8000003208DF802001020BB
:103080008DF803006946A048143802F0DBF90121ED
:103090009D48143802F083FA08BD10B510209A49F3
:1030A0000860642003F0C3FF10209749091F0860DF
:1030B000322003F0BCFF10BD10B504462A2094490D
:1030C00048812B2088812C20088134B1012C0FD01D
:1030D000022C18D0032C2CD120E0F0208C49088041
:1030E0004FF4A070488008213620FFF72EFF21E022
:1030F0004FF4A07086490880F0204880682136206F
:10310000FFF723FF16E0F020814908804FF4A070FC
:103110004880C8213620FFF718FF0BE04FF4A0705D
:103120007B490880F0204880A8213620FFF70DFF5A
:1031300000E000BF00BF10BD10B501F019FAFFF7A5
:1031400093FFFFF7AAFFCF20FFF7DEFE0020FFF777
:10315000EBFEC920FFF7E8FE3020FFF7E5FEED208B
:10316000FFF7D2FE6420FFF7DFFE0320FFF7DCFE4F
:103170001220FFF7D9FE8120FFF7D6FEE820FFF7E7
:10318000C3FE8520FFF7D0FE1020FFF7CDFE7A208A
:10319000FFF7CAFECB20FFF7B7FE3920FFF7C4FECA
:1031A0002C20FFF7C1FE0020FFF7BEFE3420FFF702
:1031B000BBFE0220FFF7B8FEF720FFF7A5FE202098
:1031C000FFF7B2FEEA20FFF79FFE0020FFF7ACFEFC
:1031D0000020FFF7A9FEC020FFF796FE1B20FFF797
:1031E000A3FEC120FFF790FE0020FFF79DFEC52043
:1031F000FFF78AFE3020FFF797FE3020FFF794FE9E
:10320000C720FFF781FEB720FFF78EFE3620FFF7BD
:103210007BFE0820FFF788FE3A20FFF775FE552059
:10322000FFF782FEB120FFF76FFE0020FFF77CFE64
:103230001A20FFF779FEB620FFF766FE0A20FFF797
:1032400073FEA220FFF770FEF220FFF75DFE002064
:10325000FFF76AFE2620FFF757FE0120FFF764FE06
:10326000E020FFF751FE0F20FFF75EFE2A20FFF758
:103270005BFE2820FFF758FE0820FFF755FE0E20C2
:10328000FFF752FE0820FFF74FFE5420FFF74CFED9
:10329000A920FFF749FE4320FFF746FE0A20FFF76B
:1032A00043FE0F20FFF740FE0020FFF73DFE002009
:1032B000FFF73AFE0020FFF737FE0020FFF734FE4D
:1032C000E120FFF721FE0020FFF72EFE1520FFF77B
:1032D0002BFE1720FFF728FE0720FFF725FE112001
:1032E000FFF722FE0620FFF71FFE2B20FFF71CFE34
:1032F0005620FFF719FE3C20FFF716FE0520FFF7CA
:1033000013FE102008E00000141C014000380040AB
:10331000BE00002038000020FFF706FE0F20FFF758
:1033200003FE3F20FFF700FE3F20FFF7FDFD0F20CB
:10333000FFF7FAFD2B20FFF7E7FD0020FFF7F4FD74
:103340000020FFF7F1FD0120FFF7EEFD3F20FFF722
:10335000EBFD2A20FFF7D8FD0020FFF7E5FD002058
:10336000FFF7E2FD0020FFF7DFFDEF20FFF7DCFDB8
:103370001120FFF7C9FD782003F059FE2920FFF73F
:10338000C3FD0220FFF798FE4FF6FF70FFF742FEE5
:1033900010BD0000FD48FE49C1F87401FD49FC481C
:1033A000C0F87811FC49C0F87C110021C0F88011E8
:1033B000C0F88411C0F88811C0F88C11C0F89011C1
:1033C000C0F89411F549C0F89811F548F049C1F8D2
:1033D0009C010021EE48C0F8A011C0F8A411C0F86B
:1033E000A811C0F8AC11C0F8B011C0F8B411C0F801
:1033F000B811C0F8BC11EB49C0F8C011E848E44965
:10340000C1F8C4010021E248C0F8C811C0F8CC11CD
:10341000C0F88011C0F8D411C0F8D811C0F8DC1180
:10342000C0F8E011C0F8E411DE49C0F8E811DE4848
:10343000D749C1F8EC010021D548C0F8F011C0F817
:10344000F411C0F8F811C0F8FC11C0F80012C0F86F
:103450000412C0F80812C0F80C12D449C0F81012B7
:10346000D148CB49C1F814020021C948C0F818124C
:10347000C0F81C12C0F88011C0F82412C0F828123D
:10348000C0F82C12C0F83012C0F83412C749C0F886
:103490003812C748BE49C860C049BD480161002113
:1034A00041618161C161016241628162C162016306
:1034B000C0494163BE490165B84941650021816544
:1034C000C165016641668166C16601674167B949A8
:1034D0008167B749C0F89410B049C0F8981000212E
:1034E000C0F89C10C0F8A010C0F8A410C0F8A81034
:1034F000C0F8AC10C0F8B010C0F8B410C0F8B810E4
:10350000AC49C0F8BC10AA49C0F8D810A349C0F80B
:10351000DC100021C0F8E010C0F8E410C0F8E8109A
:10352000C0F8EC10C0F8F010C0F8F410C0F8F810B3
:10353000C0F8FC109F49C0F800110120944981F89F
:103540003C0200200860486088608863C8630864A3
:10355000486400218E488164C164C167C0F880104E
:10356000C0F8841000208A49C1F8880000218848EA
:10357000C0F88C10C0F89010C0F8C010C0F8C4108B
:10358000C0F8C81000208249C1F8CC000021804852
:10359000C0F8D010C0F8D410C0F80411C0F8081159
:1035A000C0F80C1100207A49C1F81001C1F81401CB
:1035B000C1F81801C1F81C010A46C2F83001C2F86E
:1035C0003401C2F83801C2F83C010021C2F82011D0
:1035D000C2F82411002278488260C26000206C4941
:1035E000C1F84001C1F84401C1F848010021684A0E
:1035F000C2F85011C2F8541100226F483030826076
:10360000C2600020624AC2F86001C2F86401C2F8D8
:103610006811C2F86C111146C1F870017047034679
:103620008B4201DA08467047934201DD1046FAE703
:103630001846F8E700B589B00121202002F0BEF954
:1036400010208DF823004FF47F40ADF820000320B8
:103650008DF8220008A9594801F0F4FE4FF480517A
:10366000564801F09EFF4FF48041544801F099FF05
:103670004FF48071514801F094FF4FF480614F483E
:1036800001F08FFF4FF400514C4801F08AFF4FF4D6
:1036900000414A4801F085FF4FF40071474801F0AE
:1036A00080FF4FF40061454801F07BFF0121480392
:1036B00002F084F90121102002F080F918208DF821
:1036C0001F004FF47070ADF81C0003208DF81E0031
:1036D00007A93B4801F0B6FE3A4802F0BDFF0020C2
:1036E000ADF81600ADF8120041F63F70ADF81400C9
:1036F0000020ADF810008DF8180004A9314802F040
:103700001BFC684602F04DFF6020ADF80000002071
:10371000ADF808000120ADF802000020ADF8060069
:103720006946284802F045FC684602F03AFF6020EE
:10373000ADF800000020ADF808000120ADF802004F
:103740000020ADF8060069461E4802F074FC684689
:1037500002F027FF6020ADF800000020ADF808005F
:103760000120ADF802000020ADF8060069461548BA
:1037700002F0AEFC684602F014FF6020ADF80000D5
:103780000020ADF8080001201EE000008FC2753D4A
:10379000D00000206F12833ACDCC4C3D0000404059
:1037A000CDCC4C3F000020429A99193E0000A04029
:1037B000000020410078BB45F001002000140140CA
:1037C0000010014000340140ADF802000020ADF8C7
:1037D00006006946FE4802F0C6FC0121FC4802F0E2
:1037E00007FF0121FA4802F00FFF09B000BD1FB525
:1037F000F8A103C9CDE90201F8A103C9CDE900018F
:10380000052202A9F74801F089F80A2003F00FFC0D
:1038100005226946F34801F081F80A2003F007FC0D
:103820001FBD70B505460C462146284606F01AFA1B
:1038300001D2204670BD84F000462946304606F08D
:1038400011FA02D284F00040F4E72846F2E72DE9AD
:10385000F04704460D4616460CB9BDE8F0873146E0
:10386000284606F03BFAA061D4E9060106F036FAD4
:103870008146A16806F02AF90746A169206806F08A
:1038800025F98046394605F041FF2062A06905F020
:1038900011FF21F0004107460022D34B05F0DEFD69
:1038A00002D20020E06001E00120E060E06806F064
:1038B000ADF88046A169606806F008F98146414686
:1038C00006F004F90746216905F020FF2061D4E9DC
:1038D0000401FFF7A6FF20612169206A05F016FFA9
:1038E0002062D4E90801FFF79CFF2062A069E06133
:1038F00000BFB2E72DE9F04704460D4616460CB965
:10390000BDE8F0873146284606F0E8F9A061D4E921
:10391000060106F0E3F90746216806F0D7F8E060F3
:10392000A169606806F0D2F820614FF08040E1693B
:1039300006F0CCF88146A16906F0C5F98046216AF7
:1039400005F0E4FE0746A16806F0C0F86061D4E91E
:10395000030105F0DBFE8046616905F0D7FE0746EE
:10396000616A05F0D3FE6062D4E90901FFF759FFEF
:103970006062E0692062A069E06100BFC0E72DE9F4
:10398000F0470546894616461C46DDE908A74FF074
:103990000008002C0BDDE0191FFA80F84946934817
:1039A00001F0FDFD3146914801F0FBFD19E0002CCE
:1039B0000CDA604238441FFA80F849468B4801F01F
:1039C000F0FD3146894801F0EAFD0AE04CB94FF0BC
:1039D00000084946854801F0E4FD3146834801F07E
:1039E000E0FD524600214046FFF719FE8046402D7B
:1039F00004D14146764803F093F815E0802D04D1B8
:103A00004146734803F08EF80EE0B5F5807F04D18F
:103A100041466F4803F088F806E0B5F5007F03D112
:103A200041466B4803F082F8BDE8F0872DE9F0418C
:103A300005460C4600276E480068052809DA6C48E0
:103A400001680068401C6A4A106044F821502F4603
:103A500017E00026B046201D0FC884E80F0025613E
:103A600000BF06E054F82610404605F04FFE8046A1
:103A7000761C052EF6DB5F49404605F0B5FE07468D
:103A800000BF3846BDE8F08110B55B48B0F90000D2
:103A90005A49C8635A48B0F900105848C0F8801015
:103AA0005848B0F900105548C0F8C4105648B0F94D
:103AB00000105248C0F80811806B5049C96B084487
:103AC0004E4988630846C16FD0F8800001444B48D6
:103AD000C167D0F8C010D0F8C40001444748C0F80E
:103AE000C010D0F80411D0F8080101444348C0F8D0
:103AF00004110146C86B05F089FF04464349FFF7EE
:103B000095FF3E490864D1F8800005F07FFF044628
:103B10003F49FFF78BFF3949C1F88400D1F8C40051
:103B200005F074FF04463B49FFF780FF3349C1F8B5
:103B3000C800D1F8080105F069FF04463649FFF7CF
:103B400075FF2E49C1F80C0110BD2DE9F047044660
:103B50003249206C05F048FE81464FF07E5105F059
:103B6000B5FF80464FF07E5105F03EFE07462C49DA
:103B700005F0ACFF06462B4905F0A8FF05462A498B
:103B800005F032FE6060BDE8F08700B593B01B48D9
:103B9000D0F8480122490C9005F098FF23490D9078
:103BA00005F022FE1549C1F8700157E01348D0F81E
:103BB00070011F490D9006F055F83DD80F48D0F818
:103BC00070011B490D9006F089F80C4932E00000A5
:103BD00000340140FFAA6988B5000000FFAA760002
:103BE000000000000048004000C072400014014086
:103BF000500000200000A04042000020D000002023
:103C00004000002044000020460000201003002057
:103C100024030020380300204C03002000005247FA
:103C2000DB0F49400000F0400AD7233C000034433A
:103C3000DB0FC940C1F87001FD48D0F870010021C8
:103C40000D9005F00FFF09D2F948D0F87001F9493D
:103C50000D9005F05BFDF649C1F87001F448D0F80D
:103C60007001F4490D9005F0FDFF9FD9F048D0F8A0
:103C7000700100210D9005F0F5FE97D3EE480E90EF
:103C8000EB48006C80F000400B90E948D0F88400CD
:103C900001460A900B9805F039FD4FF080410C90D9
:103CA00005F0A2FD0D900E9905F010FF1290E0486E
:103CB000D0F80C010B90DE48006C0A900B9905F0CF
:103CC00025FD4FF080410C9005F08EFD0D900E9972
:103CD00005F0FCFE1190D648D0F8700100210D903F
:103CE00005F0C0FF7ED8D248D0F87001D3490D90BE
:103CF00005F0B8FE76D2CE48D0F8700101460090AB
:103D0000CE4805F0EBFF019005F0D4FCCDE90201AF
:103D100004F000FFCDE90601119805F0CBFCCDE9D8
:103D20000401DDE9062305F09BFACDE90A01C0484C
:103D3000D0F8700101460090C04805F0CFFF019017
:103D400005F0B8FCCDE9020104F032FFCDE906012F
:103D5000129805F0AFFCCDE90401DDE9062305F07A
:103D60007FFACDE90801DDE90A2304F0CFFFCDE9B0
:103D70000C0104F099FF1090AD48D0F87001014695
:103D80000090AE4805F0AAFF019005F093FCCDE944
:103D9000020104F00DFFCDE90601119805F08AFC3F
:103DA000CDE90401DDE9062305F05AFACDE90A015F
:103DB0009F48D0F8700101460090A04805F08EFFA2
:103DC000019005F077FCCDE9020104F0A3FECDE9F6
:103DD0000601129880F00040039005F06BFCCDE9DD
:103DE000040100E00EE0DDE9062305F039FACDE933
:103DF0000801DDE90A2304F089FFCDE90C0104F094
:103E000053FF0F908A48D0F870018C490D9005F04F
:103E100029FF7DD88648D0F8700189490D9005F0BA
:103E200021FE75D28248D0F870018449009005F0D7
:103E300055FF019005F03EFCCDE9020104F06AFE59
:103E4000CDE90601119805F035FCCDE90401DDE965
:103E5000062305F005FACDE90A017548D0F870018E
:103E60007649009005F03AFF019005F023FCCDE97A
:103E7000020104F09DFECDE90601129880F0004099
:103E8000039005F017FCCDE90401DDE9062305F0F8
:103E9000E7F9CDE90801DDE90A2304F037FFCDE9B0
:103EA0000C0104F001FF10906148D0F870016349E3
:103EB000009005F013FF019005F0FCFBCDE9020135
:103EC00004F076FECDE90601119805F0F3FBCDE98B
:103ED0000401DDE9062305F0C3F9CDE90A015448E0
:103EE000D0F870015549009005F0F8FE019005F0FA
:103EF000E1FBCDE9020104F00DFECDE906011298C7
:103F000080F00040039005F0D5FBCDE9040100E00E
:103F10000EE0DDE9062305F0A3F9CDE90801DDE9AE
:103F20000A2305F0DDFACDE90C0104F0BDFE0F9087
:103F30003F48D0F8700142490D9005F093FE76D8C5
:103F40003B48D0F870013F490D9005F08BFD6ED2D3
:103F50003748D0F870013A49009005F0BFFE019053
:103F600005F0A8FBCDE9020104F022FECDE906012F
:103F7000119805F09FFBCDE90401DDE9062305F06A
:103F80006FF9CDE90A012A48D0F870012C49009058
:103F900005F0A4FE019005F08DFBCDE9020104F0CF
:103FA000B9FDCDE90601129880F00040039005F0BC
:103FB00081FBCDE90401DDE9062305F051F9CDE9E6
:103FC0000801DDE90A2305F08BFACDE90C0104F0C4
:103FD0006BFE10901648D0F870011949009005F05A
:103FE0007DFE019005F066FBCDE9020104F092FD33
:103FF000CDE90601119805F05DFBCDE90401DDE98D
:10400000062305F02DF9CDE90A010948D0F8700121
:104010000B49009005F062FE019005F04BFBCDE9E5
:10402000020104F0C5FDCDE9060112980CE01EE086
:10403000D0000020DB0FC940FBC8E539DB0FC93FCA
:10404000DB0F4940E4CB964005F034FBCDE9040199
:10405000DDE9062305F004F9CDE90801DDE90A23CD
:1040600005F03EFACDE90C0104F01EFE0F90CB489E
:10407000D0F87001CA490D9005F0F4FD7DD8C7480D
:10408000D0F87001C7490D9005F0ECFC7FD2C34811
:10409000D0F87001C249009005F020FE019005F0B3
:1040A00009FBCDE9020104F035FDCDE906011198C7
:1040B00005F000FBCDE90401DDE9062305F0D0F8A9
:1040C000CDE90A01B548D0F87001B549009005F076
:1040D00005FE019005F0EEFACDE9020104F068FD5D
:1040E000CDE90601129805F0E5FACDE90401DDE914
:1040F000062305F0B5F8CDE90801DDE90A2305F04E
:10410000EFF9CDE90C0104F0CFFD1090A348D0F8F1
:104110007001A349009005F0E1FD019005F0CAFA95
:10412000CDE9020104F044FDCDE90601119805F046
:10413000C1FACDE90401DDE9062305F091F8CDE9E6
:104140000A019648D0F870019549009005F0C6FD27
:10415000019005F0AFFACDE9020104F0DBFCCDE9F6
:104160000601129805F0A6FACDE90401DDE906235F
:1041700005F076F8CDE9080100E008E0DDE90A2362
:1041800004F0C4FDCDE90C0104F08EFD0F908649CA
:10419000109805F029FB8149C1F8400182490F9828
:1041A00005F022FB7D49C1F84401109805F082FA20
:1041B000CDE90C017949D1F86001D1F86411CDE95C
:1041C0000A01DDE90C2304F0A1FD744AC2F8600184
:1041D000C2F864110F9805F06DFACDE90C016F4932
:1041E000D1F86801D1F86C11CDE90A01DDE90C23A1
:1041F00004F08CFD694AC2F86801C2F86C111146DE
:10420000D1F86001D1F86411C2F85001C2F854111C
:104210001046D0F86811D0F86C2100F5A8708160C4
:10422000C26013B000BD2DE9F041604800685B49F1
:10423000C1F848010A46D2F84811D2F8100105F039
:104240004DFD04465A49204605F00CFD05D2214695
:10425000584805F05BFA044616E05749204605F039
:1042600001FC05D22146554805F050FA04460BE002
:10427000204605F01FFA21F0004105460022504B70
:1042800004F0B2FF00D800BF4448D0F848112046DF
:1042900005F03CFA07464148D0F84821394600F578
:1042A000BA70FFF7D4FA3D48D0F894013B49C1F801
:1042B0001C01BDE8F0812DE9FF5F04460D4616465E
:1042C0001F46DDE90E8900223E4B4046494604F078
:1042D000C7FF82468B4632463B462046294605F0BC
:1042E000FFF852465B46CDE9000104F00FFDCDE931
:1042F000020104F0D9FC294908600022314B4046F4
:10430000494604F0ADFF82468B4632463B46204686
:10431000294604F0FBFC52465B46CDE9000104F05F
:10432000F5FCCDE9020104F0BFFC1C494864002201
:10433000244B4046494604F093FF82468B46324662
:104340003B462046294605F0CBF852465B46CDE970
:10435000000105F0C5F8CDE9020104F0A5FC0F4904
:10436000C1F888000022174B4046494604F078FF08
:1043700032463B46CDE900012046294604F0C6FC02
:104380008246DDE9002305F0ABF8CDE9020104F037
:104390008BFC0249C1F8CC00BDE8FF9FD000002093
:1043A000E4CB9640DB0FC9400AD7233C48000020ED
:1043B000000034430000B4C3000034C30000B44321
:1043C000008066400000354003468B4201DA084613
:1043D0007047934201DD1046FAE71846F8E700B54A
:1043E00089B00121C80201F0E9FA0121042001F09D
:1043F000E5FA18208DF823004FF47060ADF8200026
:1044000003208DF8220008A9454801F01BF8454813
:1044100002F022F90020ADF81A00ADF8160047208E
:10442000ADF8140044F61F60ADF8180000208DF8B8
:104430001C0005A93B4801F07FFD01A802F0B1F87E
:104440006020ADF804000020ADF80C000120ADF8AC
:104450000600ADF80A0001A9324801F0AAFD01A842
:1044600002F09FF86020ADF804000020ADF80C00C9
:104470000120ADF80600ADF80A0001A9294801F0B5
:10448000DAFD01A802F08DF86020ADF804000020EC
:10449000ADF80C000120ADF80600ADF80A0001A946
:1044A000204801F060FE01211E4802F0A1F8012120
:1044B0001C4802F0A9F809B000BD70B504464FF4DD
:1044C000FA6060434FF4877190FBF1F000F5FA70E9
:1044D00085B22946134802F023FB70BD70B504462F
:1044E0004FF4FA6060434FF4877190FBF1F000F5F0
:1044F000FA7085B229460B4802F014FB70BD70B506
:1045000004464FF4FA6060434FF4877190FBF1F07A
:1045100000F5FA7085B22946024802F007FB70BD2B
:1045200000080140002C0140024600BF108900F045
:1045300002000028FAD0918100BF108900F001002C
:104540000028FAD09089C0B2704702884FF6C7732E
:104550001A400280012902D10288028003E0028809
:1045600042F020020280028842F04002028070473E
:1045700000B587B00121092001F020FA4FF4204056
:10458000ADF8040003208DF8060018208DF8070010
:1045900001A91C4800F056FF4FF48040ADF804001C
:1045A00048208DF8070003208DF8060001A9154862
:1045B00000F048FF0121880301F00DFA0020ADF85A
:1045C00008004FF48270ADF80A000020ADF80C002E
:1045D000ADF80E00ADF810004FF40070ADF8120009
:1045E0000020ADF81400ADF816000720ADF8180053
:1045F00002A9054801F06CFA0121034801F00DFB06
:1046000007B000BD000C01400038004010B586B076
:104610000446012144F2040001F0D0F94FF4007087
:10462000ADF8140003208DF8160018208DF817003F
:1046300005A9CF4800F006FF4FF48060ADF81400E4
:1046400004208DF8170005A9C94800F0FBFE2520BD
:104650008DF800000A208DF801008DF8020001207D
:104660008DF80300684600F024FE01940020ADF8A8
:104670000800ADF80A00ADF80C00ADF810000C20F1
:10468000ADF80E0001A9BB4802F0D3FA012240F2B6
:104690002551B84802F065FB0121B64802F055FBF0
:1046A00006B010BD10B586B004460121480401F0E3
:1046B00092F90121042001F081F90420ADF81400E1
:1046C00003208DF8160018208DF8170005A9A848BA
:1046D00000F0B8FE0820ADF8140004208DF8170093
:1046E00005A9A34800F0AEFE26208DF800000920A1
:1046F0008DF801008DF8020001208DF80300684656
:1047000000F0D7FD01940020ADF80800ADF80A00D4
:10471000ADF80C00ADF810000C20ADF80E0001A9AA
:10472000954802F086FA012240F22551924802F0A3
:1047300018FB0121904802F008FB06B010BD10B52F
:1047400086B004460121880401F045F901210820C2
:1047500001F034F94FF48060ADF8140003208DF8B7
:10476000160018208DF8170005A9844800F06AFE8D
:104770004FF40060ADF8140004208DF8170005A96F
:104780007E4800F05FFE27208DF8000008208DF89D
:1047900001008DF8020001208DF80300684600F04A
:1047A00088FD01940020ADF80800ADF80A00ADF8CE
:1047B0000C00ADF810000C20ADF80E0001A97048F7
:1047C00002F037FA012240F225516D4802F0C9FA91
:1047D00001216B4802F0B9FA06B010BD10B586B0E1
:1047E00004460121C80401F0F6F80121102001F06F
:1047F000E5F84FF48060ADF8140003208DF8160042
:1048000018208DF8170005A95E4800F01BFE4FF434
:104810000060ADF8140004208DF8170005A9594870
:1048200000F010FE34208DF8000007208DF8010004
:104830008DF8020001208DF80300684600F039FD74
:1048400001940020ADF80800ADF80A00ADF80C00A6
:10485000ADF810000C20ADF80E0001A94A4802F096
:10486000E8F9012240F22551474802F07AFA012185
:10487000454802F06AFA06B010BD10B586B004468D
:104880000121080501F0A7F80121102001F096F898
:104890000121202001F092F84FF48050ADF814006F
:1048A00003208DF8160018208DF8170005A935484B
:1048B00000F0C8FD0420ADF814008DF8170005A91C
:1048C000324800F0BFFD35208DF8000006208DF83D
:1048D00001008DF8020001208DF80300684600F009
:1048E000E8FC01940020ADF80800ADF80A00ADF82E
:1048F0000C00ADF810000C20ADF80E0001A9244802
:1049000002F097F9012240F22551214802F029FADC
:1049100001211F4802F019FA06B010BD70B5064615
:104920000C4615460DE02178304602F07BFA681EF1
:1049300085B2641C00BF4021304602F0E1FA012834
:10494000F9D1002DEFD170BD70B505460C460BE0D6
:1049500014F8011B284602F065FA00BF40212846E2
:1049600002F0CEFA0128F9D120780028F0D170BDEC
:10497000000801400038014000440040000C0140A4
:104980000048004000100140004C0040001401406D
:10499000005000401FB50121102001F01CF83A48DA
:1049A00001F05AFE0020ADF80A00ADF8060040F212
:1049B000E730ADF8080040F2CF20ADF80400002049
:1049C0008DF80C0001A9304801F0B6FA01212E48FB
:1049D00002F0D4F8012211462B4801F024FE4FF4D6
:1049E000A06000F061FC36208DF8000001208DF8F9
:1049F000030003208DF8010002208DF802006846B4
:104A000000F057FC0121204801F0F2FD1FBD1FB549
:104A10000121202000F0DFFF1C4801F01DFE0020D6
:104A2000ADF80A00ADF8060042F20F70ADF80800CC
:104A300040F2CF20ADF8040000208DF80C0001A951
:104A4000124801F079FA0121104802F097F801228A
:104A500011460E4801F0E7FD4FF4A06000F024FC81
:104A600037208DF8000001208DF8030005208DF817
:104A7000010004208DF80200684600F01AFC0121B4
:104A8000024801F0B5FD1FBD0010004000140040B9
:104A900008B50121482000F091FF4FF44870ADF8AF
:104AA000000010208DF8030003208DF802006946F5
:104AB0000E4800F0C7FC20210C4800F070FD4FF4B8
:104AC00080710A4800F06BFD4FF40071074800F058
:104AD00066FD2020ADF800006946054800F0B2FCF4
:104AE0002021034800F05BFD08BD0000000C0140E0
:104AF0000018014070B505460E461446314628465A
:104B000004F0B0FF01D2304670BD2146284605F0C2
:104B1000A9F801D22046F7E72846F5E700206549C5
:104B2000086048608860C860086148618861C86141
:104B3000086248628862C8625F49086048608860AD
:104B4000C860086148618861C8610862486288621B
:104B5000C8625A49086048608860C8600861486156
:104B60008861C861086248628862C8625449086006
:104B700048608860C860086148618861C8610862EF
:104B800048628862C862704770B504460D4629467F
:104B9000206A04F0BBFD2062E06880F00046024617
:104BA0003146206AFFF7A6FF20622946206804F0FC
:104BB0008DFF2061216A606804F088FF60612846EB
:104BC000616A05F08BF80646A16804F07FFFA061DA
:104BD0006562D4E9040104F099FD0646A16904F078
:104BE00095FDE061E06970BD2DE9F04104460D4698
:104BF0002846616A05F072F80646216804F066FFEF
:104C000020612946606804F061FF60612846616A9E
:104C100005F064F80746A16A05F060F80646A16849
:104C200004F054FFA0612846616A05F057F8A062BD
:104C30006562D4E9040104F069FD0746A16904F046
:104C400065FD0646E16904F061FDE061E069BDE8EB
:104C5000F0812DE9F04104460D462846616A05F0D1
:104C60003DF80646216804F031FF2061294660685E
:104C700004F02CFF60612846616A05F02FF80746B2
:104C8000A16A05F02BF80646A16804F01FFFA06199
:104C90002846616A05F022F8A0626562D4E9040141
:104CA00004F034FD0646A16904F030FDE061E069DE
:104CB000BDE8F08194030020C4030020F403002029
:104CC000240400207FB505460C460020009001908A
:104CD000029003908DF800400A208DF801006D20AD
:104CE0008DF802006B208DF80300042269462846E7
:104CF000FFF714FE7FBD7FB505460C4600200090EF
:104D00000190029003908DF800400E208DF8010074
:104D100052208DF802006B208DF8030004226946B2
:104D20002846FFF7FBFD7FBD2DE9FF4107460E46F4
:104D300015460024002000900190029003900DF889
:104D40000460641C112D68D2DFE805F0090F151B03
:104D5000672167272D33393F6745515C4B001F2082
:104D60000DF80400601CC4B258E020200DF80400C7
:104D7000601CC4B252E021200DF80400601CC4B2D3
:104D80004CE024200DF80400601CC4B246E027204B
:104D90000DF80400601CC4B240E031200DF804009E
:104DA000601CC4B23AE033200DF80400601CC4B2A9
:104DB00034E035200DF80400601CC4B22EE036202B
:104DC0000DF80400601CC4B228E037200DF8040080
:104DD000601CC4B222E03A200DF80400601CC4B28A
:104DE0001CE03B200DF80400601CC4B216E0422019
:104DF0000DF80400601CC4B26C200DF80400601CA7
:104E0000C4B20BE043200DF80400601CC4B27A2049
:104E10000DF80400601CC4B200E000BF00BF6B20AE
:104E20000DF80400601CC4B2224669463846FFF7FC
:104E300075FDBDE8FF812DE9FF4107460C4615468B
:104E40001E46002000900190029003908DF80040D3
:104E500046208DF8010069208DF802008DF803507E
:104E60008DF804606B208DF80500062269463846EF
:104E7000FFF754FDBDE8FF812DE9FF4107460C46D1
:104E800015461E46002000900190029003908DF878
:104E90000040F3208DF80100AB208DF802008DF862
:104EA00003508DF804606B208DF8050006226946DA
:104EB0003846FFF733FDBDE8FF812DE9FF47074680
:104EC0000D4616461C46DDE90C8900200090019035
:104ED000029003908DF80050F6208DF801008DF8B7
:104EE000026020128DF80300E0B28DF804008DF806
:104EF00005808DF806906B208DF807000822694622
:104F00003846FFF70BFDBDE8FF872DE9FF5F8046C0
:104F10000E4617461D46DDE910ABDDE90E94002074
:104F200000900190029003908DF80060FD208DF8B4
:104F300001008DF8027028128DF80300E8B28DF898
:104F400004008DF80590200E8DF80600200C8DF8D9
:104F50000700200A8DF80800E0B28DF809008DF8EE
:104F60000AA08DF80BB06B208DF80C000D2269465D
:104F70004046FFF7D3FCBDE8FF9F7FB506460C46D1
:104F80001546002000900190029003908DF800409B
:104F9000FE208DF8010098208DF802008DF8035056
:104FA0006B208DF80400052269463046FFF7B6FCF9
:104FB0007FBD7FB505460C46002000900190029011
:104FC00003908DF80040FF208DF8010066208DF8D9
:104FD00002006B208DF80300042269462846FFF783
:104FE0009DFC7FBD7FB506460C461546002000900F
:104FF0000190029003908DF8004093208DF80100FD
:1050000088208DF802008DF803506B208DF8040085
:10501000052269463046FFF781FC7FBD2DE9FF4F31
:1050200089B00D4616461F4618AC94E8100EDDF800
:105030005C80202101A802F05CF98DF804504C201E
:105040008DF80500AE208DF806008DF807608DF80C
:10505000087016988DF809004FEA28208DF80A008C
:1050600008F0FF008DF80B00200E8DF80C00200CCE
:105070008DF80D00200A8DF80E00E0B28DF80F00BB
:105080004FEA29208DF8100009F0FF008DF811007B
:105090004FEA2A208DF812000AF0FF008DF8130065
:1050A0004FEA2B208DF814000BF0FF008DF815004F
:1050B0001C988DF816006B208DF81700142201A99A
:1050C0000998FFF72BFC0DB0BDE8F08F2DE9FF41EB
:1050D00007460C4615461E4600200090019002909F
:1050E00003908DF800409A208DF801008DF8025051
:1050F0008DF803606B208DF8040005226946384660
:10510000FFF70CFCBDE8FF817FB505460C4600208B
:1051100000900190029003908DF800409C208DF843
:10512000010048208DF802006B208DF80300042256
:1051300069462846FFF7F2FB7FBD000008B5012154
:10514000402000F03BFC0720ADF8000048208DF81F
:1051500003006946354800F075F90121042000F08C
:105160002DFC0121084600F029FC0121304800F007
:105170003AFA48208DF8030002208DF802008003DF
:10518000ADF8000069462B4800F05CF908BD10B589
:105190002948007829490870294800782949087069
:1051A0002948007829490870294800782949087059
:1051B00001211E4800F0D9F91F49087002211B483F
:1051C00000F0D3F91E4908700421184800F0CDF909
:1051D0001D4908704FF40041164800F0C6F91C49FB
:1051E00008701548007828B11448007810B90120DB
:1051F000194908701248007828B11248007810B98F
:105200000120164908701048007828B10F4800782E
:1052100010B90120124908700D48007828B10D48D6
:10522000007810B901200F49087010BD0018014026
:1052300000023000000801407C00002082000020B5
:105240007D000020830000207E00002084000020DC
:105250007F000020850000208800002089000020B9
:105260008A0000208B000020094880470948004739
:10527000FEE7FEE7FEE7FEE7FEE7FEE7FEE7FEE706
:10528000FEE7FEE704480549054A064B7047000063
:10529000AF1B000831010008B8040020B80A002044
:1052A000B8060020B806002031490143314A116098
:1052B000704770B5002100230F22C47804B32D4C31
:1052C000246804F4E064C4F5E064210AC1F1040335
:1052D000CA40447804FA03F1847814402143090158
:1052E000254C0678A155047804F01F050124AC4034
:1052F00005786D11AD0005F1E025C5F8004109E024
:10530000047804F01F050124AC401C4D067876118A
:1053100045F8264070BD1A4A0A400243154B1B1F30
:105320001A60704739B1134A121D12680243114BBB
:105330001B1D1A6006E00F4A121D126882430D4BB6
:105340001B1D1A607047042808D14FF0E02109693D
:1053500041F004014FF0E022116107E04FF0E0213D
:10536000096921F004014FF0E0221161704700004B
:105370000000FA050CED00E000E400E080E100E050
:1053800080FFFF1F10B50446CC48844208D101219C
:10539000042000F02DFB0021042000F029FB46E052
:1053A000C748844208D10121082000F021FB0021D8
:1053B000082000F01DFB3AE0C248844208D10121D8
:1053C000102000F015FB0021102000F011FB2EE052
:1053D000BD48844208D10121202000F009FB0021B2
:1053E000202000F005FB22E0B848844208D10121CA
:1053F000402000F0FDFA0021402000F0F9FA16E00C
:10540000B348844208D10121802000F0F1FA002144
:10541000802000F0EDFA0AE0AE48844207D1012175
:10542000801500F0E5FA0021A01500F0E1FA10BDAA
:1054300010B50121084600F0DBFA0021012000F040
:10544000D7FA10BD2DE9F0410246002500260020C4
:1054500000230024002791F803C00CF00F0591F8F9
:1054600003C00CF0100CBCF1000F03D091F802C087
:105470004CEA050591F800C0BCF1000F31D014686A
:1054800000202BE04FF0010C0CFA00F3B1F800C043
:105490000CEA03069E4220D183004FF00F0C0CFA59
:1054A00003F7BC4305FA03FC4CEA040491F803C07B
:1054B000BCF1280F06D14FF0010C0CFA00FCC2F829
:1054C00014C00AE091F803C0BCF1480F05D14FF0B9
:1054D000010C0CFA00FCC2F810C0401C0828D1D303
:1054E0001460B1F800C0BCF1FF0F34DD5468002037
:1054F0002EE000F1080C4FF0010808FA0CF3B1F8A7
:1055000000C00CEA03069E4221D183004FF00F0C2D
:105510000CFA03F7BC4305FA03FC4CEA040491F8C7
:1055200003C0BCF1280F05D100F1080C08FA0CF8F3
:10553000C2F8148091F803C0BCF1480F07D100F104
:10554000080C4FF0010808FA0CF8C2F81080401C53
:105550000828CED35460BDE8F0814FF6FF7101807A
:10556000022181700421C1707047024600209368B7
:105570000B400BB1012000E0002070470146886815
:1055800080B2704702460020D3680B400BB1012067
:1055900000E0002070470146C86880B27047016192
:1055A0007047416170470AB1016100E04161704795
:1055B000C16070474FF480320A4382618161826129
:1055C00082698269704702460020434B18684FF693
:1055D0008073184040EA021008433F4B1860704740
:1055E0003E49C8617047F0B50A46002300240021F7
:1055F000002500F00046B6F1004F02D1364EF169A9
:1056000001E0354E7168C0F3034583B200F44016E3
:10561000B6F5401F08D121F070612F4E766826F054
:1056200070662D4F7E6012E000F48016B6F5801F84
:1056300006D1032606FA05F4A14341F0706106E0A5
:10564000460D360103FA06F6B14341F0706122B10E
:10565000460D360103FA06F6314300F00046B6F176
:10566000004F02D11C4EF16101E01B4E7160F0BD94
:1056700030B500228B071C0F0F2303FA04F2164BE0
:1056800008338C1053F824309343134C08348D1096
:1056900044F8253023468C1053F824308C07240F0F
:1056A00000FA04F423430C4C08348D1044F82530E0
:1056B00030BD0A49DC310860704700000008014035
:1056C000000C01400010014000140140001801408E
:1056D000001C014000200140000001400000204269
:1056E000DF48006840F00100DD4908600846406876
:1056F000DC490840DA49486008460068DA49084051
:10570000D74908600846006820F4802008600846F1
:10571000406820F4FE0048604FF41F008860704726
:10572000CF49096821F48031CD4A116011460968DA
:1057300021F480211160B0F5803F03D0B0F5802FB7
:105740000ED106E0C649096841F48031C44A1160AF
:1057500007E0C349096841F4A021C14A116000E093
:1057600000BF00BF704710B5014600220023002093
:105770004A11012A02D1BA4C236806E0022A02D15A
:10578000B74C236A01E0B64C636A01F01F020124A2
:1057900094401C400CB1012000E0002010BD38B541
:1057A000002000900024002500BF3120FFF7DBFF20
:1057B00005460098401C00900098B0F5A06F01D0FD
:1057C000002DF2D03120FFF7CEFF08B1012400E018
:1057D0000024204638BD01460020A14A106820F070
:1057E000F80040EAC10010607047A04908607047A7
:1057F000024600209A4B586820F47C1042EA0103CC
:105800001843974B5860704798490866704701469F
:105810000020934A506820F003000843506070470E
:105820008F48406800F00C007047014600208C4A09
:10583000506820F0F0000843506070470146002097
:10584000874A506820F4E060084350607047014682
:105850000020834A506820F4605040EAC100506044
:10586000704729B17E4A527A02437D4B5A7204E056
:105870007B4A527A82437A4B5A7270477B49D831BD
:105880000860704701460020754A506820F4404087
:105890000843506070470021714A20321170704AED
:1058A00082F82010012802D004280AD104E0012146
:1058B0006B4A2032117005E00521694A20321170CF
:1058C00000E000BF00BF7047694908607047644945
:1058D000096A0143624A11627047654944390860A8
:1058E000704730B500210022002400235C4D6D6814
:1058F00005F00C0121B1042905D0082923D105E0C8
:105900005C4D056022E05B4D05601FE0544D6D6805
:1059100005F47012524D6D6805F48034022505EBD4
:1059200092421CB9544D554305600BE04C4D6D68D7
:1059300005F400351DB1504D5543056002E04D4D55
:105940005543056002E04B4D056000BF00BF444D6C
:105950006D6805F0F0010909484D6B5C0568DD4094
:1059600045603F4D6D6805F4E061090A434D6B5C8D
:105970004568DD4085603A4D6D6805F46051C90A9F
:105980003E4D6B5C4568DD40C560354D6D6805F486
:105990004041890B3A4D6B5CC568B5FBF3F5056179
:1059A00030BD29B12E4A526902432D4B5A6104E0A1
:1059B0002B4A526982432A4B5A61704729B1284ABF
:1059C00092690243264B9A6104E0254A9269824318
:1059D000234B9A61704729B1214AD2690243204B77
:1059E000DA6104E01E4AD26982431D4BDA617047D6
:1059F00029B11B4AD2680243194BDA6004E0184A05
:105A0000D2688243164BDA60704729B1144A126992
:105A10000243134B1A6104E0114A12698243104B8E
:105A20001A61704712494039086070470F49C864CD
:105A300070470B49C87170470948406A40F0807050
:105A400007494862704701460020054A92680A40AB
:105A50000AB1012000E000207047014988727047B8
:105A6000001002400000FFF8FFFFF6FE0000424277
:105A70008004424200127A0000093D008E0000209E
:105A80009E00002010B50446BE48844208D1012182
:105A90008014FFF7ADFF0021A014FFF7A9FF16E067
:105AA000B948844208D101210014FFF7AEFF00215C
:105AB0002014FFF7AAFF0AE0B448844207D101216D
:105AC000C013FFF7A2FF0021E013FFF79EFF10BDF8
:105AD00010B50022028802F441520B884C882343FF
