:020000040800F2
:10000000B80A0020215300086D1B00086F1B000870
:10001000731B0008771B00087B1B00080000000012
:100020000000000000000000000000007F1B00082E
:10003000811B000800000000831B0008851B0008CE
:100040003B5300083B5300083B5300083B53000858
:100050003B5300083B5300083B5300083B53000848
:100060003B5300083B5300083B5300083B53000838
:100070003B5300083B5300083B5300083B53000828
:100080003B5300083B5300083B5300083B53000818
:100090003B5300083B5300083B5300083B53000808
:1000A0003B5300083B5300083B5300083B530008F8
:1000B0003B5300083B5300083B5300083B530008E8
:1000C0003B5300083B5300083B5300083B530008D8
:1000D0003B530008EB1600080F17000861170008D3
:1000E0003B5300083B5300083B5300083B530008B8
:1000F0003B5300083B5300083B5300083B530008A8
:100100003B5300083B5300083B5300083B53000897
:1001100057180008E71A0008D111000873100008EA
:100120003B5300083B5300083B5300083B53000877
:1001300000F002F800F053F80AA090E8000C8244A6
:100140008344AAF10107DA4501D100F048F8AFF283
:10015000090EBAE80F0013F0010F18BFFB1A43F0A5
:1001600001031847D0C90000F0C90000103A24BFAD
:1001700078C878C1FAD8520724BF30C830C144BF0C
:1001800004680C607047000000230024002500264E
:10019000103A28BF78C1FBD8520728BF30C148BFEA
:1001A0000B607047662909F06A86642907F00680AB
:1001B000632907F0C483002070471FB507F032FCA5
:1001C00004000020002108F0B5FD401C6060002004
:1001D000002108F099FDE0601FBD10B510BD07F0CB
:1001E0006DFD1146FFF7E9FF00F039FA07F099FDC0
:1001F00003B4FFF7F2FF03BC07F0DCFD2DE9F04F7D
:1002000087B0074617B907B0BDE8F08F3D46012417
:10021000612D05DB7A2D03DCA5F12000C5B204E0D9
:10022000412D02DB5A2D00DC0024FA48007809F049
:1002300061FCF949029009F0A5FCF849039009F026
:10024000C1FA0646F348007809F054FCF4490290DC
:1002500009F098FCF349039009F0B4FA80464FF096
:1002600000094FF0FA0A09EB0A0000EBD0714FEADF
:10027000610B2D200690E820059087200490A5F1C1
:100280002B0030287DD2DFE800F0317C3C7C7C7C88
:10029000181D22272C7C7C7C7C7C7C7C7C7C7C7C60
:1002A000BB6DF2D6F154F07CEFEEED897CECEBEA1D
:1002B000E9A348E8FFE67C47E5E414B10020D5490E
:1002C0000870C6E114B10120D2490870C1E114B12F
:1002D0000220D0490870BCE114B10320CD49087058
:1002E000B7E114B10420CB490870B2E144B1C94868
:1002F0000078042804DAC7480078401CC549087013
:10030000A7E144B1C3480078002804DDC148007863
:10031000401EC04908709CE100BF0020C24908602F
:10032000C2490860C24908600120C24981F83C0204
:100330008FE15CB10020BC490860BC480660002029
:10034000BB490860BB4981F83C020AE00020B6497D
:100350000860B6490860B64908600120B54981F8CF
:100360003C0276E174B10020AF49086086F000409D
:10037000AE4908600020AE490860AE4981F83C02F1
:100380000BE065E10020A8490860A8490860A84979
:1003900008600120A74981F83C025AE164B186F067
:1003A0000040A14908600020A0490860A0490860F9
:1003B000A04981F83C020AE000209B4908609B4963
:1003C00008609B49086001209A4981F83C0240E19D
:1003D00054B195480660002094490860944908602B
:1003E000944981F83C020AE000208F4908608F4957
:1003F00008608F49086001208E4981F83C0228E19D
:100400006CB10020884908608849086088F0004085
:10041000874908600020874981F83C020AE00020F3
:10042000814908608149086081490860012081494B
:1004300081F83C020DE1DCB100207B4908607B497A
:1004400008607B48C0F8008000207A4981F83C02AF
:1004500019E043E0D2E0BDE016E0C3E094E048E0FC
:1004600042E026E05DE049E082E075E09FE06BE07D
:1004700000206D4908606D4908606D4908600120E1
:100480006C4981F83C02E4E06CB1002042F6E06285
:10049000CDE90002029096230822012103906648CC
:1004A00004F08FFD04E000220121634804F0C1FD47
:1004B000CFE06CB1002040F6AC52CDE900020290D2
:1004C00096230246012103905B4804F07AFD04E084
:1004D00000220121584804F0ACFDBAE000220121BD
:1004E000554804F0A6FDB4E014B1962053490880A5
:1004F000AFE014B1B42051490880AAE06CB1504972
:1005000009880A3188B25246494603F0B9FF4C497E
:10051000088001204B49087002E00020494908701A
:1005200097E06CB1464909880A3988B25246494673
:1005300003F0A6FF42490880FF204249087002E00C
:1005400000204049087084E014B13D48A0F800B094
:1005500000203C4908707CE04CB139490988B4312D
:1005600088B25246494603F08BFF3549088070E057
:100570004CB133490988B43988B25246494603F030
:100580007FFF2F49088064E06CB12F490988491D1D
:1005900088B2DDE9052103F073FF2B4908800120B3
:1005A0002A49087002E000202849087051E06CB127
:1005B00025490988491F88B2DDE9052103F060FF5C
:1005C00021490880FF202149087002E000201F49CE
:1005D00008703EE014B11C490498088000201B49B3
:1005E000087036E04CB1184909885A3188B2DDE903
:1005F000052103F045FF144908802AE04CB1124957
:1006000009885A3988B2DDE9052103F039FF0E491E
:1006100008801EE005000020000020410000A041ED
:10062000CDCCCC3DCDCCCC3E080000200C00002031
:1006300010000020D00000200044004014000020E2
:100640005A000020200000205C0000202100002033
:1006500000BF00BF0020FE49087000BFD3E596B080
:1006600001F001FB06F002FD04F06EFA01F07CFBE4
:100670004FF4E13004F072F84FF4165004F0BBF878
:100680004FF4E13004F006F94FF4165004F051F93C
:1006900003F02CF803F0FFFE02F0AAFD04F0AAFD1F
:1006A00003F001F902F0D2FE002301221146E948CD
:1006B00004F03EFC0420E84908704FF4FA7006F09C
:1006C00012FD04F0C3F9072006F00DFD04F0FBF95C
:1006D0004FF47A7006F007FDFEE304200D90102021
:1006E0000C90DE48806C099009F040F8CDE90A01D1
:1006F00001460B98CDE90010D948B0F90020D9A1E6
:100700000EA806F01DFD002010210EAACDE9002143
:1007100002900D984FF6E0731F2201460B900220C5
:1007200002F038FADDE90C1008440D90CB48406C1B
:10073000099009F01BF802460B46CDE90A01CDA14C
:100740000EA806F0FDFC002010210EAACDE9002124
:1007500002900D984FF6E0731F2201460B90022085
:1007600002F018FADDE90C1008440D90BB4840680F
:10077000099008F0FBFFCDE90A0101460B98CDE98D
:100780000010BF48B0F90020BEA10EA806F0D8FCAA
:10079000002010210EAACDE9002102900D984FF6FD
:1007A000E0731F2201460B90022002F0F3F9DDE90D
:1007B0000C1008440D90A9480068099008F0D6FF75
:1007C00002460B46CDE90A01B2A10EA806F0B8FC1C
:1007D000002010210EAACDE9002102900D984FF6BD
:1007E000E0731F2201460B90022002F0D3F9DDE9ED
:1007F0000C1008440D909948D0F8D000099008F0EA
:10080000B5FFCDE90A0101460B98CDE90010A448D7
:10081000B0F90020A3A10EA806F092FC0020102140
:100820000EAACDE9002102900D984FF6E0731F2229
:1008300001460B90022002F0ADF9DDE90C100844EE
:100840000D908648D0F8CC00099008F08FFF024642
:100850000B46CDE90A0197A10EA806F071FC002015
:1008600010210EAACDE9002102900D984FF6E073F9
:100870001F2201460B90022002F08CF9DDE90C10DA
:1008800008440D907548D0F88C00099008F06EFF70
:10089000CDE90A01CDE900018948B0F9002089A11C
:1008A0000EA806F04DFC002010210EAACDE9002173
:1008B00002900D984FF6E0731F2201460B90022024
:1008C00002F068F9DDE90C1008440D906348D0F897
:1008D0008800099008F04AFF02460B46CDE90A015C
:1008E0007CA10EA806F02CFC002010210EAACDE958
:1008F000002102900D984FF6E0731F2201460B90E5
:10090000022002F047F9DDE90C1008440D9074480C
:10091000006808F02BFF02460B46CDE90A0171A1E1
:100920000EA806F00DFC002010210EAACDE9002132
:1009300002900D984FF6E0731F2201460B900220A3
:1009400002F028F94548D0F81001099008F00EFF90
:1009500002460B46CDE90A0165A10EA806F0F0FBA0
:10096000002010210EAACDE9002102900D984FF62B
:10097000E0731F2201460B90782002F00BF9DDE9AD
:100980000C1008440D903548D0F84001099008F04B
:10099000EDFE02460B46CDE90A0157A10EA806F06E
:1009A000CFFB002010210EAACDE9002102900D9866
:1009B0004FF6E0731F2201460B90022002F0EAF886
:1009C0002648D0F81401099008F0D0FE02460B46E4
:1009D000CDE90A0146A10EA806F0B2FB00201021C5
:1009E0000EAACDE9002102900D9880B24FF6E07377
:1009F0001F2201460B90782002F0CCF8DDE90C10A4
:100A000008440D901548D0F84401099008F0AEFE56
:100A100002460B46CDE90A013AA10EA806F090FB6A
:100A2000002010210EAACDE9002102900D9880B27D
:100A30004FF6E0731F2201460B90022002F0AAF845
:100A40000648D0F81801099008F090FE02465FE0D1
:100A5000040000200044004066000020D000002078
:100A600044000020565F464C3A2564202C25662021
:100A70002000000054464C5F563A256620200000B6
:100A800046000020565F46523A2564202C256620F9
:100A9000200000005446525F563A25662020000090
:100AA0004A000020565F42523A2564202C256620D9
:100AB000200000005442525F563A25662020000074
:100AC00048000020565F424C3A2564202C256620C1
:100AD0002000000054424C5F563A2566202000005A
:100AE0004C0000205941573A256620202000000084
:100AF000543A256620202000765F783A256620202B
:100B000020000000765F793A256620202000000052
:100B10000B46CDE90A01FEA10EA806F011FB00204C
:100B200010210EAACDE9002102900D9880B24FF657
:100B3000E0731F2201460B90782002F02BF8DDE9CC
:100B40000C1008440D90F449D1F86001D1F86411FB
:100B500002460B46CDE90A01F0A10EA806F0F0FA14
:100B6000002010210EAACDE9002102900D9880B23C
:100B70004FF6E0731F2201460B90022002F00AF8A4
:100B8000E549D1F83001D1F8341102460B46CDE9E0
:100B90000A01E5A10EA806F0D3FA002010210EAA42
:100BA000CDE9002102900D9880B24FF6E0731F222C
:100BB00001460B90962001F0EDFFDDE90C10084492
:100BC0000D90D549D1F86801D1F86C1102460B4659
:100BD000CDE90A01D6A10EA806F0B2FA0020102134
:100BE0000EAACDE9002102900D9880B24FF6E07375
:100BF0001F2201460B90022001F0CCFFC649D1F81C
:100C00003801D1F83C1102460B46CDE90A01C6A1D4
:100C10000EA806F095FA002010210EAACDE90021B9
:100C200002900D9880B24FF6E0731F2201460B90A0
:100C3000962001F0AFFFDDE90C1008440D90B64896
:100C4000D0F81C01099008F091FD02460B46CDE951
:100C50000A01BAA10EA806F073FA002010210EAA0C
:100C6000CDE9002102900D9880B24FF6E0731F226B
:100C700001460B90022001F08DFFDDE90C100844C5
:100C80000D90B14800680A21B0FBF1F201FB12009F
:100C90000B90AD480068B0FBF1F0B0FBF1F201FB46
:100CA00012000A90A84801686420B1FBF0F00A2104
:100CB000B0FBF1F201FB12000990A34800684FF469
:100CC0007A71B0FBF1F00A21B0FBF1F201FB1200E6
:100CD00008909D48006842F21071B0FBF1F20A20C2
:100CE000B2FBF0F100FB112007909748016897488C
:100CF000B1FBF0F00690DDE90823DDE90A10CDE94B
:100D00000123CDE90310079800908F48069B90A11E
:100D100002680EA806F014FA002010210EAACDE9F0
:100D2000002102900D9880B24FF6E0731F22014619
:100D30000B90022001F02EFFDDE90C1008440D900D
:100D40008A4802788AA10EA806F0FAF9002010213C
:100D50000EAACDE9002102900D9880B24FF6E07303
:100D60001F2201460B90022001F014FF824883A14C
:100D700002680EA806F0E4F9002010210EAACDE9C1
:100D8000002102900D9880B24FF6E0731F220146B9
:100D90000B90322001F0FEFE7A487BA102680EA87B
:100DA00006F0CEF9002010210EAACDE90021029014
:100DB0000D9880B24FF6E0731F2201460B90782009
:100DC00001F0E8FEDDE90C1008440D90704871A1B7
:100DD00002680EA806F0B4F9002010210EAACDE991
:100DE000002102900D9880B24FF6E0731F22014659
:100DF0000B90022001F0CEFEDDE90C1008440D90AE
:100E00006748027867A10EA806F09AF90020102121
:100E10000EAACDE9002102900D9880B24FF6E07342
:100E20001F2201460B90022001F0B4FE5F480278B9
:100E30005FA10EA806F084F9002010210EAACDE9CA
:100E4000002102900D9880B24FF6E0731F220146F8
:100E50000B902A2001F09EFE5748027857A10EA859
:100E600006F06EF9002010210EAACDE900210290B3
:100E70000D9880B24FF6E0731F2201460B9052206E
:100E800001F088FE4F4802784FA10EA806F058F9ED
:100E9000002010210EAACDE9002102900D9880B209
:100EA0004FF6E0731F2201460B907A2001F072FE8C
:100EB0004748027847A10EA806F042F90020102109
:100EC0000EAACDE9002102900D9880B24FF6E07392
:100ED0001F2201460B9000E0C9E0A22001F05AFE5B
:100EE000DDE90C1008440D903C48007801287DD1C4
:100EF000DDE90C1008440D900020102138A2CDE946
:100F0000002102900D9880B24FF6E0731F226EE030
:100F1000543A256620000000D00000206E6F775FF5
:100F2000783A256620200000543A252E32662000AB
:100F30006E6F775F793A256620202000765F773ADA
:100F400025662020200000006C000020A086010003
:100F500051525F636F64653A25642C2025642564D3
:100F60002564256425642564202020007900002064
:100F70006D763A256320000070000020583A256401
:100F80002020000074000020593A25642020000031
:100F9000000000207461736B3A256420000000009B
:100FA0006000002075313A256320000061000020B8
:100FB00075323A25632000006200002075333A251F
:100FC000632000006300002075343A256320000090
:100FD0006400002075353A25632000008C00002055
:100FE0006B6579315F666C61670000000EE0014659
:100FF0000B90022001F0CEFD02F055FC02F026FA23
:101000000020FE4981F83C02FD490870FD48007847
:10101000012820D1DDE90C1008440D90002010219A
:10102000F9A2CDE9002102900D9880B24FF6E0734D
:101030001F2201460B90022001F0ACFDEF4890F812
:101040003C0208B9012000E00020EC4981F83C0294
:101050000020EC490870EF48006808B9012000E062
:101060000020EC490860012006F03DF800BFFFF7C2
:1010700034BB10B50121E84805F0DFFD01287DD122
:10108000E6480068401CE549086008460068E449F5
:101090000968401A022807D34821E24805F01EFFDC
:1010A000DE480068DE490860DF480088DF490988BB
:1010B00088420ADADC490988891C88B2B422962160
:1010C00003F0DEF9D849088018E0D7480088D749EE
:1010D0000988884212DDD4480088022804DDD248FD
:1010E0000088801E80B200E096200446B42296213B
:1010F000204603F0C5F9CC49088000BFCC480078F1
:1011000028B1B420C84908800020C9490870C948DE
:10111000007818B9C848007800284AD0C748007835
:10112000401CC649087008460078012841DB0020B1
:101130000870C04890F9000000280ADDC0490988FD
:101140000A3188B2FA22002103F09AF9BC490880DA
:101150000EE0B84890F90000002809DAB84909887B
:101160000A3988B2FA22002103F08AF9B4490880CA
:10117000B14890F9000000280CDD00E027E0B149FB
:101180000988491D88B2E8222D2103F079F9AD497B
:1011900008800EE0A84890F90000002809DAA94963
:1011A0000988491F88B2E8222D2103F069F9A54971
:1011B000088098481030006808B9012000E000203D
:1011C0009449103108600121934805F047FD10BD96
:1011D0002DE9FC4701219C4805F02FFD01287CD119
:1011E0009A4805F018FD00B299490880994805F021
:1011F00012FD404200B2984908804FF0804005F04F
:101200000AFD00B295490880954805F004FD00B23A
:101210009449088000214FF0804005F0D9FC00215E
:101220008F4805F0D5FC0021884805F0D1FC00214D
:10123000884805F0CDFC02F083FC704802F0E1FC28
:101240006E48443002F0DDFC6C48883002F0D9FC76
:101250006A48CC3002F0D5FC02F0F3FC82480078FA
:1012600068B1824800686549C1F814018048006887
:10127000C1F818017F480068C1F81C0119E103F0AA
:101280002EF85E48D0F81C0180F000405B49C1F8A0
:101290001C010846D0F86021D0F86411104607F010
:1012A0005FFD04465548D0F83021D0F8341110467F
:1012B00007F056FD0546224629466F4802F023FBFB
:1012C0004E48D0F86821D0F86C11104607F048FD60
:1012D00004464A48D0F8382100E004E2D0F83C1136
:1012E000104607F03DFD0546224629466248283053
:1012F00002F009FB4148D0F8BC014049C1F8140193
:101300000846D0F8E401C1F81801D1F81001002115
:1013100008F088FB0BD13948D0F8E4013749C1F80F
:1013200018010846D0F8BC01C1F8140146E0334961
:10133000D1F81001514908F075FB0DD12F48D0F8B4
:10134000E40180F000402D49C1F814010846D0F8AE
:10135000BC01C1F8180131E02849D1F81001484911
:1013600008F060FB0DD12548D0F8E4012349C1F80D
:1013700014010846D0F8BC0180F00040C1F8180103
:101380001CE01E49D1F810013E4908F04BFB06D085
:101390001A49D1F810013C4908F044FB0ED1174816
:1013A000D0F8BC0180F000401449C1F8140108468F
:1013B000D0F8E40180F00040C1F81801334800780B
:1013C000012876D13248006808F07CFB04462246AA
:1013D00030492948783002F096FA2F48006808F022
:1013E00071FB044622462D492348503002F08BFA07
:1013F0000248D0F83402014952E05AE0D0000020FF
:101400008C0000208D0000206B6579325F666C6176
:101410006700000094812142001400407C000020FD
:101420001C00002000500040580000201400002044
:1014300023000020200000202100002022000020A6
:101440005A0000205C00002000100040000800400E
:1014500046000020000C0040440000204A0000200C
:101460000004004048000020060000200800002082
:101470000C000020100000206C0200200000B4428C
:101480000000B4C200003443000034C37A000020DE
:10149000740000200000704370000020008093431F
:1014A000C1F814010846D0F80C0280F00040C1F8E1
:1014B0001801F849D1F81C0108F058F904460D4606
:1014C000F449D1F8140108F051F906460F46F149E4
:1014D000D1F8180108F04AF9804632463B46CDE97A
:1014E000004502F044FFEB48426801680C3002F00E
:1014F0005DFAE848826C416C503002F057FAE548DA
:10150000D0F88C20D0F88810943002F04FFAE148DF
:10151000D0F8D020D0F8CC10D83002F047FADD480F
:1015200090F83C02012807D10021DA4801634167A5
:10153000C0F8B810C0F8FC10D748007851280BD17B
:10154000D6480078012807D10021D24801634167BD
:10155000C0F8B810C0F8FC10CE49D14A486FD14944
:1015600003F024FB0146CB4841670146CC4A086B97
:10157000CC4903F01BFBC7490863C94AD1F8B8003E
:10158000C84903F013FB0146C248C0F8B810014631
:10159000C34AD1F8FC00C34903F008FB0146BD482B
:1015A000C0F8FC100146086B08F070FAB949886071
:1015B000486F08F06BFAB749C864D1F8B80008F072
:1015C00065FAB449C1F89000D1F8FC0008F05EFA61
:1015D000B049C1F8D400C86C08F074FA0546B04AA6
:1015E000B04903F0E3FA044608F050FAA949C86488
:1015F000886808F067FA0546A94AAA4903F0D6FAAE
:10160000044608F043FAA3498860D1F8900008F036
:1016100059FA0546A24AA34903F0C8FA044608F05D
:1016200035FA9C49C1F89000D1F8D40008F04AFA84
:1016300005469B4A9B4903F0B9FA044608F026FA8E
:101640009449C1F8D400002041F26F71CDE9001037
:1016500090484FF400629110C36C084602F0EBF919
:10166000002041F26F71CDE900108A484FF48042AA
:1016700091108368402002F0DEF9002041F26F7182
:10168000CDE9001083484FF400429110D0F890301B
:10169000481102F0D0F9002041F26F71CDE900103D
:1016A0007C484FF480629110D0F8D430802002F052
:1016B000C2F97D48008802F05CFF7C48008802F097
:1016C0007AFF7B48008802F065FF03F0BCFD794893
:1016D000006808B9012000E0002076490860012177
:1016E000754805F0BBFABDE8FC8710B540F22551FE
:1016F000724805F077FC48B1704805F0F3FB70497B
:10170000087040F225516D4805F096FC10BD10B5EB
:1017100040F225516B4805F065FC00B3694805F0BF
:10172000E1FB69490870084600786849684A127800
:1017300088546748007867490978884205D10120B4
:101740006549087000206249087061480078401CB3
:101750005F49087040F225515A4805F06DFC10BDF4
:101760002DE9F04140F225515C4805F03BFC002892
:101770006FD05A4805F0B6FB594908700846007802
:101780005849594A127888545748007810B10128AE
:101790001CD10BE0534854490978405C552804D1CA
:1017A00051480078401C5049087015E04D484E499A
:1017B0000978405C522805D14B480078401C4A49C2
:1017C000087002E000204849087005E046480078AB
:1017D000401C4549087000BF00BF434800781528E9
:1017E00031D14048407C3F49897C40EA012004B225
:1017F000204608F067F907464FF08E4108F050F890
:1018000006463A4908F0BEF93949086008460068BA
:101810002049C1F84801334880793249C97940EA02
:10182000012005B2284608F04DF907464FF08E41D9
:1018300008F036F806462F4908F0A4F92E4908604A
:1018400000202949087040F22551244805F0F4FB96
:1018500000BFBDE8F08110B540F22551274805F0E2
:10186000C1FB01287CD1254805F03CFB24490870C8
:101870000846007841284DD10749087000202149C9
:1018800008700120204908700A48006808B9012042
:101890003DE03BE0D0000020790000207A000020ED
:1018A0000078BB450078BBC5580000205A000020D6
:1018B0005C000020A081214200100040003801405F
:1018C0006000002000440040610000206003002010
:1018D00065000020660000206700002000480040EE
:1018E00062000020AC0000202400002000003443EF
:1018F0004C0000200000FA4450000020004C004042
:101900006300002078000020230000200020894987
:101910000860E2E088480078422810D187490870C2
:1019200000208749087001208649087081480068B6
:1019300008B9012000E000207E490860CDE07E4823
:101940000078432811D17D49087000207C49087037
:1019500001207C4908707748006810B9012001E037
:10196000C0E0002073490860B7E07348007844285D
:1019700010D1724908700020714908700120714926
:1019800008706C48006808B9012000E0002069492F
:101990000860A2E068480078452810D167490870BF
:1019A0000020674908700120664908706148006896
:1019B00008B9012000E000205E4908608DE05E4823
:1019C0000078462810D15D49087000205C490870F5
:1019D00001205C4908705748006808B9012000E000
:1019E00000205449086078E053480078472810D117
:1019F000524908700020524908700120514908706E
:101A00004C48006808B9012000E0002049490860FE
:101A100063E049480078512811D1484908700020F6
:101A200047490870474908704248001D006808B9D6
:101A3000012000E000203F49091D08604DE03F48BB
:101A40000078E8B33C4800783F493D4A1278885412
:101A500008463B490978405C582812D10A203A4987
:101A6000374A12788854084605F06BFC37490860FD
:101A70000A2233480178344805F08FFC00203049B1
:101A8000087031482E490978405C592820D10A2035
:101A90002D492B4A12788854084605F052FC2C49EF
:101AA00008600A2226480178274805F076FC0020C5
:101AB00023490870214908701E480C38006800E06E
:101AC0000BE008B9012000E000201A490C39086039
:101AD0001B480078401C1A49087040F225511D48E7
:101AE00005F0AAFA10BD10B540F225511A4805F0CC
:101AF00079FA01281DD1184805F0F4F91749087042
:101B000008460078164908701648006816490860AB
:101B100012480078FEF772FB0020114908700F4848
:101B200001780D4805F0DAF940F225510A4805F030
:101B300083FA10BDA08121426300002079000020BB
:101B40007800002023000020800300207000002087
:101B500074000020004C0040005000406400002051
:101B6000040000207C00002018000020704700BF07
:101B7000FEE700BFFEE700BFFEE700BFFEE77047DD
:101B800070477047704700000CB50020019000902E
:101B90006C48006840F480306A49086000BF6948BA
:101BA000006800F4003000900198401C01900098FB
:101BB00018B90198B0F5A06FF1D16248006800F43F
:101BC000003010B10120009001E00020009000984A
:101BD000012843D15C48006840F010005A49086071
:101BE0000846006820F0030008600846006840F0DE
:101BF00002000860534840685249486008464068FF
:101C000048600846406840F4806048600846406884
:101C100020F47C1048600846406840F4E8104860B2
:101C20000846006840F08070086000BF45480068C2
:101C300000F000700028F9D04248406820F003000E
:101C4000404948600846406840F00200486000BFD4
:101C50003C48406800F00C000828F9D10CBD10B5D4
:101C6000FFF792FF10BD10B53648006840F0010044
:101C700034490860084640683449084031494860A2
:101C800008460068324908402E4908600846006846
:101C900020F4802008600846406820F4FE00486078
:101CA0004FF41F008860FFF7DAFF4FF0006029490A
:101CB000086010BD10B5002100200022214B5B6898
:101CC00003F00C0121B1042906D0082928D107E02E
:101CD000214B224C236027E01F4B204C236023E044
:101CE000184B5B6803F47010164B5B6803F480328A
:101CF000022303EB904022B9194B4343174C236056
:101D00000DE0104B5B6803F4003323B1144B4343E5
:101D1000124C236003E0104B4343104C236003E05C
:101D20000D4B0E4C236000BF00BF064B5B68C3F336
:101D300003130C4CE15C094B1B68CB40074C236040
:101D400010BD000000100240002002400000FFF81B
:101D5000FFFFF6FE08ED00E000127A0028000020E8
:101D600000093D002C00002000B587B00121084685
:101D700003F08DFE0121022003F089FE01210420E1
:101D800003F085FE0121082003F081FE01210420DB
:101D900003F070FE0121082003F06CFE01210846CB
:101DA00003F068FE01219E4803F079FC01219D4863
:101DB00003F075FC28208DF81B0048F2C300ADF835
:101DC000180003208DF81A0006A9974803F096FB27
:101DD000C820ADF8180006A9944803F08FFB03A8AB
:101DE00004F032FC4FF6FF70ADF810000020ADF8A3
:101DF0000C008DF8140003A94FF0804004F0F8F8AF
:101E000003A804F021FC4FF6FF70ADF8100000208D
:101E1000ADF80C008DF8140003A9854804F0E8F82B
:101E200003A804F011FC4FF6FF70ADF8100000207D
:101E3000ADF80C008DF8140003A97E4804F0D8F822
:101E400003A804F001FC4FF6FF70ADF8100000206D
:101E5000ADF80C008DF8140003A9774804F0C8F819
:101E6000684604F004FC0020ADF800000F20ADF837
:101E7000080069464FF0804004F04DFB0420ADF8A7
:101E800000000F20ADF8080069464FF0804004F0D4
:101E900042FB684604F0EBFB0020ADF800000F2089
:101EA000ADF808006946624804F035FB0420ADF83F
:101EB00000000F20ADF8080069465D4804F02BFBD8
:101EC000684604F0D4FB0020ADF800000F20ADF808
:101ED00008006946574804F01EFB0420ADF80000D6
:101EE0000F20ADF808006946524804F014FB68461C
:101EF00004F0BDFB0020ADF800000F20ADF8080095
:101F000069464D4804F007FB0420ADF800000F209F
:101F1000ADF808006946484804F0FDFA00231A4667
:101F200003214FF0804004F072FC00231A46032185
:101F30003F4804F06CFC00231A4603213D4804F09E
:101F400066FC00231A4603213B4804F060FC012193
:101F5000880704F0A9FB0121354804F0A5FB012105
:101F6000344804F0A1FB0121334804F09DFB07B085
:101F700000BD00B587B00121042003F07BFD0121E5
:101F8000084603F084FD04208DF81B000C20ADF8FA
:101F9000180006A9244803F0B1FA03A804F054FB82
:101FA0000020ADF81200ADF80E004FF6FF70ADF84E
:101FB00010000020ADF80C0003A94FF0804004F0A1
:101FC00017F800231A4603214FF0804004F01FFC4D
:101FD000684604F04CFB0820ADF800000A20ADF87C
:101FE00008006946400704F096FA0C20ADF800009E
:101FF0000A20ADF808006946400704F08CFA012277
:102000001146900704F06BFB00214FF0804004F074
:10201000DFFD0121880704F047FB07B000BD000089
:10202000000230000001180000080140000C0140CF
:102030000004004000080040000C004070B5054658
:102040000E4614463146284601F02AF8204600F094
:10205000E8FF70BD2DE9F05F04460D4616461F46A9
:10206000301B401C1FFA80FA781B401C1FFA80FBB3
:102070003B4632462946204600F0E8FF4FF0000874
:102080000FE04FF0000906E00A9800F0CAFF09F1DE
:1020900001001FFA80F9D145F6DB08F101001FFAB3
:1020A00080F8D845EDDBFE484088401E83B2FC48EE
:1020B0000088401E82B20021084600F0C7FFBDE83C
:1020C000F09F2DE9FF4F85B081468A46002004909D
:1020D00003900798A0EB09050898A0EB0A06CDF835
:1020E0000890CDF804A0002D01DD012705E00DB911
:1020F000002702E04FF0FF376D42002E02DD4FF067
:10210000010806E016B94FF0000802E04FF0FF3872
:102110007642B54201DD2C4600E034464FF0000B1C
:1021200021E0019A91B2029A90B200F0C3FF0498A4
:10213000284404900398304403900498A04205DD9D
:102140000498001B04900298384402900398A0421F
:1021500005DD0398001B03900198404401900BF1AA
:1021600001001FFA80FB601C8345DADD09B0BDE881
:10217000F08F2DE9F04104460D4616461F462B46CA
:10218000324629462046FFF79CFF3B462246294619
:102190002046FFF796FF3B46324639462046FFF77A
:1021A00090FF3B46324629463046FFF78AFFBDE89E
:1021B000F081F8B504460D4616461F46B94800881A
:1021C0003B463246294600902046FFF743FFF8BDC4
:1021D0002DE9F04104460D4616461F46DDF81880ED
:1021E000EA1991B2A21990B24246FFF727FFEA1905
:1021F00091B2A21B90B24246FFF720FFEA1B91B2B8
:10220000A21990B24246FFF719FFEA1B91B2A21B36
:1022100090B24246FFF712FFAA1991B2E21990B2AA
:102220004246FFF70BFFAA1991B2E21B90B2424659
:10223000FFF704FFAA1B91B2E21990B24246FFF7E2
:10224000FDFEAA1B91B2E21B90B24246FFF7F6FEDA
:10225000BDE8F0812DE9FF4F81B0824617469846D0
:10226000DDF838B0002445464FEA4800C0F10306C7
:10227000BBF1000F1FD01BE0A14608E04B462246F1
:10228000009750460299FFF7A3FF09F10109A945FC
:10229000F4DD002E04DA042000FB0460861D06E055
:1022A000601B042101FB006000F10A066D1E641C26
:1022B000AC42E1DD18E015E02B462246009750467F
:1022C0000299FFF785FF002E04DA042000FB04606A
:1022D000861D06E0601B042101FB006000F10A0678
:1022E0006D1E641CAC42E7DD05B0BDE8F08F2DE942
:1022F000F04704460D4616461F46DDE908893B4671
:10230000324629462046FFF7DCFE4B464246394618
:102310003046FFF7D6FE2B46224649464046FFF799
:10232000D0FEBDE8F08702880B8803800A807047E2
:102330002DE9FF4F85B000260027BDF81800BDF835
:102340002010884207DD08A906A8FFF7ECFF07A9BF
:1023500005A8FFF7E8FFBDF82000BDF84C10884243
:1023600007DD08A913A8FFF7DEFF07A912A8FFF7EA
:10237000DAFFBDF81800BDF82010884207DD08A973
:1023800006A8FFF7D0FF07A905A8FFF7CCFFBDF807
:102390001800BDF84C10884238D1BDF814000390E5
:1023A0000490BDF81C00BDF81010884203DABDF897
:1023B0001C00049008E0BDF81C00BDF80C10884219
:1023C00002DDBDF81C000390BDF84800BDF81010F8
:1023D000884203DABDF84800049008E0BDF84800E0
:1023E000BDF80C10884202DDBDF8480003902D486E
:1023F00000880090BDF81830BDF80C201946BDF8D3
:102400001000FFF727FE09B0BDE8F08FBDF81C00F3
:10241000BDF81410A0EB010BBDF82000BDF818109A
:10242000401A0290BDF84800BDF81410451ABDF8D6
:102430004C00BDF81810A0EB0109BDF84800BDF82C
:102440001C10A0EB010ABDF84C00BDF82010401A8A
:102450000190BDF82000BDF84C10884202D1BDF8B3
:10246000208004E0BDF82000401E1FFA80F8BDF86F
:1024700018402CE0029896FBF0F0BDF814100844C8
:1024800080B2049097FBF9F0BDF81410084480B2B4
:1024900003905E442F44BDF81000BDF80C1003E01B
:1024A000C20000203C000020884203DD03A904A8EC
:1024B000FFF739FFFE48008823460090BDF80C2046
:1024C0002146BDF81000FFF7C5FD601C84B24445ED
:1024D000D0DDBDF82000201A00FB0AF6BDF8180078
:1024E000201A00FB05F727E0019896FBF0F0BDF8F5
:1024F0001C10084480B2049097FBF9F0BDF814104A
:10250000084480B2039056442F44BDF81000BDF833
:102510000C10884203DD03A904A8FFF704FFE44878
:10252000008823460090BDF80C202146BDF810001D
:10253000FFF790FD601C84B2BDF84C008442D3DDEF
:1025400000BF60E72DE9FF4F83B081468A4693467E
:10255000DDE91064D64800880290A6F12000C6B2DA
:1025600004EBD47009EB6000401E82B20AEB040059
:10257000401E83B251464846019400F067FD129810
:1025800050BB002525E00C2C07D106EB4600C949BD
:1025900001EB800010F8058004E0C74800EB06104E
:1025A00010F8058000270DE008F0010018B158462A
:1025B00000F037FD02E0069800F033FD4FEA6808AE
:1025C000781CC7B204EBD471B7EB610FECDB681C6D
:1025D000C5B2A542D7DB2DE0002529E00C2C07D1A0
:1025E00006EB4600B34901EB800010F8058004E0DB
:1025F000B14800EB061010F80580002711E0AC4848
:10260000A0F800B008F0010038B10AEB050291B261
:1026100009EB070290B200F04DFD4FEA6808781C04
:10262000C7B204EBD471B7EB610FE8DB681CC5B22D
:10263000A542D3DB9E4902980880A0484088401EEE
:1026400083B29E480088401E82B20021084600F0F6
:10265000FDFC07B0BDE8F08F2DE9FE4306460F46AE
:1026600015461C46DDF828801DE094480088401E71
:10267000B04204DB91484088401EB84201DABDE810
:10268000FE8320788DE821018D48038888480288E0
:1026900039463046FFF756FF284605EBD07106EB6A
:1026A00061018EB2641C20787E2802DC207820280C
:1026B000DBDA00BFE3E710B50246012000E050433B
:1026C0000B1EA1F10104E1B2F9D110BD2DE9FF4FBC
:1026D00083B0074691461E46109C4FF0000A002525
:1026E00043E0701B401EC1B20A20FFF7E4FFB9FBB4
:1026F000F0F00A21B0FBF1F201FB1208BAF1000F71
:102700001BD1701EA84218DDB8F1000F13D10020B4
:102710002021A346CDE90014029004EBDB7149109F
:1027200001FB057188B266490B8861490A880499E2
:10273000FFF708FF17E04FF0010A002108F1300011
:10274000C0B2A346CDE90141009004EBDB71491012
:1027500001FB057188B25A490B8855490A880499CA
:10276000FFF7F0FE00BF681CC5B2B542B9DB07B089
:10277000BDE8F08F2DE9FC5F0546884691469A46F4
:10278000DDF830B000953E20019000245FE004EBBE
:1027900004104C4911F810009BF80010884253D1E6
:1027A00004EB0410474901EB400040789BF801100E
:1027B000884249D108F10F0083B205F10F0082B2BF
:1027C0004146284600F042FC00263BE0002734E06A
:1027D0000D9890B904EB04103A4901EB4000801CBD
:1027E000805D80213941084018B1484600F019FC4D
:1027F00021E0504600F015FC1DE02D48A0F80090A7
:1028000004EB04102F4901EB4000801C805D802107
:102810003941084018B14146284600F04BFC681C7D
:1028200085B20098281A102805D1009D08F10100F2
:102830001FFA80F803E0781CC7B2082FC8DB00BF7E
:10284000701CC6B2202EC1DB00BF601C84B2019890
:1028500084429CDB19484088401E83B21748008898
:10286000401E82B20021084600F0F0FBBDE8FC9F4C
:102870002DE9FC5F0546884691469A46DDF830B062
:10288000009507200190002476E004EB840000EB23
:1028900044100D4911F810009BF80010884268D1CF
:1028A00004EB840000EB4410074901EB40000DE00D
:1028B0003C000020729F0008E6A30008C200002030
:1028C0003E000020D6A9000812B2000840789BF80C
:1028D000011088424DD108F1170083B205F11700AD
:1028E00082B24146284600F0B1FB00263FE00027B7
:1028F00038E00D98A0B904EB840000EB4410FB49CC
:1029000001EB4000801C805D80213941084018B1F6
:10291000484600F086FB23E0504600F082FB1FE0B3
:10292000F348A0F8009004EB840000EB4410EF495A
:1029300001EB4000801C805D80213941084018B1C6
:102940004146284600F0B6FB681C85B20098281A5C
:10295000182805D1009D08F101001FFA80F803E056
:10296000781CC7B2082FC4DB00BF701CC6B2482E4B
:10297000BDDB00BF601C84B20198844285DBDD486A
:102980004088401E83B2DB480088401E82B200218E
:10299000084600F05BFBBDE8FC9F2DE9FC5F0546A7
:1029A000884691469A46DDF830B0009505200190A2
:1029B00000245FE004EB8410CF4911F810009BF86D
:1029C0000010884253D104EB8410CB4901EB400046
:1029D00040789BF80110884249D108F11F0083B26A
:1029E00005F11F0082B24146284600F02FFB002669
:1029F0003BE0002734E00D9890B904EB8410BE4909
:102A000001EB4000801C805D80213941084018B1F5
:102A1000484600F006FB21E0504600F002FB1DE0B6
:102A2000B348A0F8009004EB8410B34901EB4000D8
:102A3000801C805D80213941084018B141462846FC
:102A400000F038FB681C85B20098281A202805D1B0
:102A5000009D08F101001FFA80F803E0781CC7B25E
:102A6000082FC8DB00BF701CC6B2802EC1DB00BFC0
:102A7000601C84B2019884429CDB9E484088401EC2
:102A800083B29C480088401E82B20021084600F0B4
:102A9000DDFABDE8FC9F2DE9FC5F054688469146BE
:102AA0009A46DDF830B0009504200190002460E0E3
:102AB00004EB0420914911F810009BF800108842A3
:102AC00054D104EB04208D4901EB400040789BF881
:102AD000011088424AD108F13F0083B205F13F005E
:102AE00082B24146284600F0B1FA00263BE00027BA
:102AF00034E00D9890B904EB0420804901EB4000CC
:102B0000801C805D80213941084018B1484600F0A2
:102B100088FA21E0504600F084FA1DE07448A0F8DD
:102B2000009004EB0420754901EB4000801C805D9F
:102B300080213941084018B14146284600F0BAFAD0
:102B4000681C85B20098281A402805D1009D08F11C
:102B500001001FFA80F803E0781C87B2082FC8DB59
:102B600000BF701C86B2B6F5007FC0DB00BF601CE2
:102B700084B2019884429BDB5E484088401E83B249
:102B80005C480088401E82B20021084600F05EFAD0
:102B9000BDE8FC9F2DE9FF4F83B00646884691466D
:102BA000DDE91147109DB2464FF0000B7BE0BBF111
:102BB000000F40D104EBD4714E4A1288A2EB6101A0
:102BC000B14204DB4B494988091B414502DA07B091
:102BD000BDE8F08F2878802802DD4FF0010B62E01D
:102BE00028780D2806D108EB04001FFA80F8564615
:102BF0006D1C1EE0102C0DDD102128788DE883005F
:102C00004A4641463046069BFFF79CFC06F1080009
:102C100086B20EE028788DE891004A46414630465B
:102C2000069BFFF78FFC204604EBD07106EB610199
:102C30008EB26D1C37E02F480088001BB04204DBC9
:102C40002C484088001B404500DAC0E74FF0000BDD
:102C5000402C07D1CDE900574A4641463046069BF5
:102C6000FFF719FF202C08D1CDE900574A4641460D
:102C70003046069BFFF791FE12E0182C08D1CDE9F3
:102C800000574A4641463046069BFFF7F1FD07E0F4
:102C9000CDE900574A4641463046069BFFF76AFD9C
:102CA000AD1C301986B22878002880D100BF8EE78D
:102CB0002DE9FE4F0E4617469846DDE90D9A0C9C0D
:102CC000204604F04BFB85B20A490988A1EBC500F8
:102CD00000EBD071C1F34F0B43463A46314658469C
:102CE0008DE81006FFF756FFBDE8FE8F12B2000810
:102CF0003C000020C200002018B4000872C1000887
:102D00002DE9F04706460F46154607F1270083B226
:102D100006F1270082B23946304600F097F90024C8
:102D20000AE015F8149005EB440090F8018049EA98
:102D3000082000F076F9641CB4F5C86FF1DB9B48FD
:102D40004088401E83B299480088401E82B200210C
:102D5000084600F07BF9BDE8F0872DE9F05F0446F6
:102D60000F4690469A46DDF828B0A14607F13F008D
:102D700083B204F13F0082B23946204600F066F982
:102D800000253AE0002632E00B9890B90BEB0B20BF
:102D9000874901EB4000801C405D802131410840A3
:102DA00018B1404600F03DF91FE0504600F039F9F7
:102DB0001BE08048A0F800800BEB0B207C4901EB66
:102DC0004000801C405D80213141084018B13946E7
:102DD000204600F06FF9601C84B2A4EB0900402883
:102DE00003D14C46781C87B203E0701C86B2082ED3
:102DF000CADB00BF00BF681C85B2B5F5007FC1DB30
:102E00006A484088401E83B268480088401E82B2EB
:102E10000021084600F01AF9BDE8F09F2DE9F05FA7
:102E200004460F4690469A46DDF828B0A14607F1C1
:102E30004F0083B204F1270082B23946204600F0E9
:102E400005F900253CE0002634E00B9898B9C9202C
:102E50000BFB00F0584901EB4000801C415D8020D5
:102E60003041014019B1404600F0DBF820E0504607
:102E700000F0D7F81CE04F48A0F80080C9200BFBF9
:102E800000F04D4901EB4000801C405D8021314144
:102E9000084018B13946204600F00CF9601C84B295
:102EA000A4EB0900282803D14C46781C87B203E024
:102EB000701C86B2082EC8DB00BF00BF681C85B23C
:102EC000B5F5C87FBFDB39484088401E83B237481C
:102ED0000088401E82B20021084600F0B7F8BDE825
:102EE000F09F2DE9F05F04460F4690469A46DDF8C4
:102EF00028B0A14607F12F0083B204F12F0082B25F
:102F00003946204600F0A2F800253EE0002636E0D3
:102F10000B98A0B90BEB0B1000EBCB10274901EB82
:102F20004000801C415D80203041014019B1404685
:102F300000F077F821E0504600F073F81DE01D48DE
:102F4000A0F800800BEB0B1000EBCB101B4901EB42
:102F50004000801C405D80213141084018B1394655
:102F6000204600F0A7F8601C84B2A4EB09003028CA
:102F700003D14C46781C87B203E0701C86B2082E41
:102F8000C6DB00BF00BF681C85B2B5F5907FBDDB16
:102F900006484088401E83B204480088401E82B222
:102FA0000021084600F052F8BDE8F09FC200002062
:102FB00072C100083C0000202ABB0008A2B600082D
:102FC00010B504460420FE490860402008602146F0
:102FD000FC4801F005FB0420F949091F086010BDF9
:102FE00010B504460420F64908604020091F086017
:102FF0002146F44801F0F4FA0420F149091F086061
:1030000010BD70B505460C462846FFF7D9FFE0B263
:10301000FFF7E6FF70BD10B5EB49087AFFF7D0FF68
:1030200010BD10B504460420E54908604020091F82
:1030300008602112E34801F0D3FAE1B2E14801F05F
:10304000CFFA0420DE49091F086010BD2DE9F041C8
:1030500004460D4616461F46DB49887AFFF7B0FF47
:103060002012FFF7BDFFE0B2FFF7BAFF3012FFF703
:10307000B7FFF0B2FFF7B4FFD349087BFFF7A0FF1B
:103080002812FFF7ADFFE8B2FFF7AAFF3812FFF7EB
:10309000A7FFF8B2FFF7A4FFFFF7BDFFBDE8F0817F
:1030A00070B504460D462B46224629462046FFF7BA
:1030B000CDFF70BD70B504460D4629462046FFF78A
:1030C000EFFFC2480088FFF7ACFF70BD70B5064641
:1030D000BD484088401E83B2BB480088401E82B273
:1030E00000210846FFF7B2FF0420B54908604020E0
:1030F000091F086000240AE0002503E03046FFF7BE
:1031000090FF6D1CB0480088A842F7D8641CAE48F8
:103110004088A042F0D80420A949091F086070BD6A
:1031200008B50121802002F0A5FC5520ADF8000073
:1031300003208DF8020010208DF803006946A04896
:10314000143802F0DBF901219D48143802F083FAAB
:1031500008BD10B510209A490860642003F0C3FF31
:1031600010209749091F0860322003F0BCFF10BDF2
:1031700010B504462A20944948812B2088812C20B0
:10318000088134B1012C0FD0022C18D0032C2CD183
:1031900020E0F0208C4908804FF4A070488008217E
:1031A0003620FFF72EFF21E04FF4A07086490880FB
:1031B000F020488068213620FFF723FF16E0F0203A
:1031C000814908804FF4A0704880C8213620FFF75D
:1031D00018FF0BE04FF4A0707B490880F020488076
:1031E000A8213620FFF70DFF00E000BF00BF10BD93
:1031F00010B501F019FAFFF793FFFFF7AAFFCF20F0
:10320000FFF7DEFE0020FFF7EBFEC920FFF7E8FE28
:103210003020FFF7E5FEED20FFF7D2FE6420FFF738
:10322000DFFE0320FFF7DCFE1220FFF7D9FE81202E
:10323000FFF7D6FEE820FFF7C3FE8520FFF7D0FE9C
:103240001020FFF7CDFE7A20FFF7CAFECB20FFF754
:10325000B7FE3920FFF7C4FE2C20FFF7C1FE002087
:10326000FFF7BEFE3420FFF7BBFE0220FFF7B8FEDB
:10327000F720FFF7A5FE2020FFF7B2FEEA20FFF7B8
:103280009FFE0020FFF7ACFE0020FFF7A9FEC02044
:10329000FFF796FE1B20FFF7A3FEC120FFF790FE6D
:1032A0000020FFF79DFEC520FFF78AFE3020FFF7C4
:1032B00097FE3020FFF794FEC720FFF781FEB7206E
:1032C000FFF78EFE3620FFF77BFE0820FFF788FE13
:1032D0003A20FFF775FE5520FFF782FEB120FFF779
:1032E0006FFE0020FFF77CFE1A20FFF779FEB62064
:1032F000FFF766FE0A20FFF773FEA220FFF770FEBD
:10330000F220FFF75DFE0020FFF76AFE2620FFF7A0
:1033100057FE0120FFF764FEE020FFF751FE0F206B
:10332000FFF75EFE2A20FFF75BFE2820FFF758FE1E
:103330000820FFF755FE0E20FFF752FE0820FFF78A
:103340004FFE5420FFF74CFEA920FFF749FE432013
:10335000FFF746FE0A20FFF743FE0F20FFF740FE6F
:103360000020FFF73DFE0020FFF73AFE0020FFF7A8
:1033700037FE0020FFF734FEE120FFF721FE00209A
:10338000FFF72EFE1520FFF72BFE1720FFF728FE74
:103390000720FFF725FE1120FFF722FE0620FFF78A
:1033A0001FFE2B20FFF71CFE5620FFF719FE3C20C6
:1033B000FFF716FE0520FFF713FE102008E00000BF
:1033C000141C014000380040C20000203C000020D6
:1033D000FFF706FE0F20FFF703FE3F20FFF700FE7A
:1033E0003F20FFF7FDFD0F20FFF7FAFD2B20FFF731
:1033F000E7FD0020FFF7F4FD0020FFF7F1FD0120BD
:10340000FFF7EEFD3F20FFF7EBFD2A20FFF7D8FD89
:103410000020FFF7E5FD0020FFF7E2FD0020FFF7A9
:10342000DFFDEF20FFF7DCFD1120FFF7C9FD78205D
:1034300003F059FE2920FFF7C3FD0220FFF798FE95
:103440004FF6FF70FFF742FE10BD0000FD48FE4939
:10345000C1F87401FD49FC48C0F87811FC49C0F876
:103460007C110021C0F88011C0F88411C0F88811C7
:10347000C0F88C11C0F89011C0F89411F549C0F84B
:103480009811F548F049C1F89C010021EE48C0F8B8
:10349000A011C0F8A411C0F8A811C0F8AC11C0F870
:1034A000B011C0F8B411C0F8B811C0F8BC11EB49A4
:1034B000C0F8C011E848E449C1F8C4010021E2485D
:1034C000C0F8C811C0F8CC11C0F88011C0F8D411F0
:1034D000C0F8D811C0F8DC11C0F8E011C0F8E41150
:1034E000DE49C0F8E811DE48D749C1F8EC010021F7
:1034F000D548C0F8F011C0F8F411C0F8F811C0F8C0
:10350000FC11C0F80012C0F80412C0F80812C0F88C
:103510000C12D449C0F81012D148CB49C1F814029A
:103520000021C948C0F81812C0F81C12C0F8801158
:10353000C0F82412C0F82812C0F82C12C0F83012BB
:10354000C0F83412C749C0F83812C748BE49C8602D
:10355000C049BD480161002141618161C1610162D1
:1035600041628162C1620163C0494163BE49016534
:10357000B849416500218165C16501664166816682
:10358000C16601674167B9498167B749C0F89410BE
:10359000B049C0F898100021C0F89C10C0F8A010E5
:1035A000C0F8A410C0F8A810C0F8AC10C0F8B01053
:1035B000C0F8B410C0F8B810AC49C0F8BC10AA49A3
:1035C000C0F8D810A349C0F8DC100021C0F8E01002
:1035D000C0F8E410C0F8E810C0F8EC10C0F8F01023
:1035E000C0F8F410C0F8F810C0F8FC109F49C0F8FB
:1035F00000110120944981F83C02002008604860D5
:1036000088608863C8630864486400218E488164C8
:10361000C164C167C0F88010C0F8841000208A49D6
:10362000C1F8880000218848C0F88C10C0F89010BC
:10363000C0F8C010C0F8C410C0F8C81000208249FB
:10364000C1F8CC0000218048C0F8D010C0F8D410D8
:10365000C0F80411C0F80811C0F80C1100207A4914
:10366000C1F81001C1F81401C1F81801C1F81C011A
:103670000A46C2F83001C2F83401C2F83801C2F873
:103680003C010021C2F82011C2F824110022784820
:103690008260C26000206C49C1F84001C1F8440159
:1036A000C1F848010021684AC2F85011C2F854110B
:1036B00000226F4830308260C2600020624AC2F847
:1036C0006001C2F86401C2F86811C2F86C111146B9
:1036D000C1F87001704703468B4201DA0846704713
:1036E000934201DD1046FAE71846F8E700B589B0C5
:1036F0000121202002F0BEF910208DF823004FF4A4
:103700007F40ADF8200003208DF8220008A9594819
:1037100001F0F4FE4FF48051564801F09EFF4FF443
:103720008041544801F099FF4FF48071514801F0F5
:1037300094FF4FF480614F4801F08FFF4FF4005128
:103740004C4801F08AFF4FF400414A4801F085FFE0
:103750004FF40071474801F080FF4FF40061454885
:1037600001F07BFF0121480302F084F901211020C0
:1037700002F080F918208DF81F004FF47070ADF83A
:103780001C0003208DF81E0007A93B4801F0B6FE7F
:103790003A4802F0BDFF0020ADF81600ADF8120067
:1037A00041F63F70ADF814000020ADF810008DF820
:1037B000180004A9314802F01BFC684602F04DFFD6
:1037C0006020ADF800000020ADF808000120ADF841
:1037D00002000020ADF806006946284802F045FCCA
:1037E000684602F03AFF6020ADF800000020ADF816
:1037F00008000120ADF802000020ADF8060069467F
:103800001E4802F074FC684602F027FF6020ADF805
:1038100000000020ADF808000120ADF802000020F3
:10382000ADF806006946154802F0AEFC684602F0A5
:1038300014FF6020ADF800000020ADF80800012062
:103840001EE000008FC2753DD00000206F12833A49
:10385000CDCC4C3D00004040CDCC4C3F0000204240
:103860009A99193E0000A040000020410078BB4515
:10387000F00100200014014000100140003401401C
:10388000ADF802000020ADF806006946FE4802F0DF
:10389000C6FC0121FC4802F007FF0121FA4802F0B2
:1038A0000FFF09B000BD1FB5F8A103C9CDE90201A2
:1038B000F8A103C9CDE90001052202A9F74801F0EA
:1038C00089F80A2003F00FFC05226946F34801F04D
:1038D00081F80A2003F007FC1FBD70B505460C46B1
:1038E0002146284606F01AFA01D2204670BD84F01F
:1038F00000462946304606F011FA02D284F0004014
:10390000F4E72846F2E72DE9F04704460D4616464F
:103910000CB9BDE8F0873146284606F03BFAA061B5
:10392000D4E9060106F036FA8146A16806F02AF9C4
:103930000746A169206806F025F98046394605F05A
:1039400041FF2062A06905F011FF21F00041074608
:103950000022D34B05F0DEFD02D20020E06001E042
:103960000120E060E06806F0ADF88046A16960687B
:1039700006F008F98146414606F004F90746216938
:1039800005F020FF2061D4E90401FFF7A6FF2061C4
:103990002169206A05F016FF2062D4E90801FFF7CB
:1039A0009CFF2062A069E06100BFB2E72DE9F0470B
:1039B00004460D4616460CB9BDE8F0873146284648
:1039C00006F0E8F9A061D4E9060106F0E3F907463C
:1039D000216806F0D7F8E060A169606806F0D2F8C7
:1039E00020614FF08040E16906F0CCF88146A16982
:1039F00006F0C5F98046216A05F0E4FE0746A16895
:103A000006F0C0F86061D4E9030105F0DBFE8046F2
:103A1000616905F0D7FE0746616A05F0D3FE606272
:103A2000D4E90901FFF759FF6062E0692062A069EB
:103A3000E06100BFC0E72DE9F0470546894616461C
:103A40001C46DDE908A74FF00008002C0BDDE0194B
:103A50001FFA80F84946934801F0FDFD3146914830
:103A600001F0FBFD19E0002C0CDA604238441FFA2B
:103A700080F849468B4801F0F0FD3146894801F055
:103A8000EAFD0AE04CB94FF000084946854801F0CC
:103A9000E4FD3146834801F0E0FD524600214046F6
:103AA000FFF719FE8046402D04D14146764803F0C9
:103AB00093F815E0802D04D14146734803F08EF849
:103AC0000EE0B5F5807F04D141466F4803F088F8D9
:103AD00006E0B5F5007F03D141466B4803F082F85C
:103AE000BDE8F0872DE9F04105460C4600276E48F9
:103AF0000068052809DA6C4801680068401C6A4AB9
:103B0000106044F821502F4617E00026B046201DD3
:103B10000FC884E80F00256100BF06E054F82610A6
:103B2000404605F04FFE8046761C052EF6DB5F49C9
:103B3000404605F0B5FE074600BF3846BDE8F081B7
:103B400010B55B48B0F900005A49C8635A48B0F94B
:103B500000105848C0F880105848B0F90010554877
:103B6000C0F8C4105648B0F900105248C0F8081107
:103B7000806B5049C96B08444E4988630846C16F41
:103B8000D0F8800001444B48C167D0F8C010D0F88D
:103B9000C40001444748C0F8C010D0F80411D0F860
:103BA000080101444348C0F804110146C86B05F000
:103BB00089FF04464349FFF795FF3E490864D1F861
:103BC000800005F07FFF04463F49FFF78BFF39492E
:103BD000C1F88400D1F8C40005F074FF04463B49E5
:103BE000FFF780FF3349C1F8C800D1F8080105F09C
:103BF00069FF04463649FFF775FF2E49C1F80C01ED
:103C000010BD2DE9F04704463249206C05F048FE0E
:103C100081464FF07E5105F0B5FF80464FF07E5152
:103C200005F03EFE07462C4905F0ACFF06462B4941
:103C300005F0A8FF05462A4905F032FE6060BDE8A0
:103C4000F08700B593B01B48D0F8480122490C908A
:103C500005F098FF23490D9005F022FE1549C1F8A3
:103C6000700157E01348D0F870011F490D9006F01D
:103C700055F83DD80F48D0F870011B490D9006F05B
:103C800089F80C4932E0000000340140FFAA69883D
:103C9000B5000000FFAA76000000000000480040C8
:103CA00000C0724000140140540000200000A040F9
:103CB00046000020D00000204400002048000020E2
:103CC0004A000020100300202403002038030020B5
:103CD0004C03002000005247DB0F49400000F04039
:103CE0000AD7233C00003443DB0FC940C1F8700100
:103CF000FD48D0F8700100210D9005F00FFF09D2AA
:103D0000F948D0F87001F9490D9005F05BFDF649CE
:103D1000C1F87001F448D0F87001F4490D9005F035
:103D2000FDFF9FD9F048D0F8700100210D9005F0FB
:103D3000F5FE97D3EE480E90EB48006C80F0004003
:103D40000B90E948D0F8840001460A900B9805F0E2
:103D500039FD4FF080410C9005F0A2FD0D900E99B9
:103D600005F010FF1290E048D0F80C010B90DE48EF
:103D7000006C0A900B9905F025FD4FF080410C90E6
:103D800005F08EFD0D900E9905F0FCFE1190D648C1
:103D9000D0F8700100210D9005F0C0FF7ED8D24808
:103DA000D0F87001D3490D9005F0B8FE76D2CE4818
:103DB000D0F8700101460090CE4805F0EBFF01906D
:103DC00005F0D4FCCDE9020104F000FFCDE90601C5
:103DD000119805F0CBFCCDE90401DDE9062305F0DF
:103DE0009BFACDE90A01C048D0F870010146009065
:103DF000C04805F0CFFF019005F0B8FCCDE9020105
:103E000004F032FFCDE90601129805F0AFFCCDE9D0
:103E10000401DDE9062305F07FFACDE90801DDE9BB
:103E20000A2304F0CFFFCDE90C0104F099FF1090B4
:103E3000AD48D0F8700101460090AE4805F0AAFFE9
:103E4000019005F093FCCDE9020104F00DFFCDE9EE
:103E50000601119805F08AFCCDE90401DDE906238D
:103E600005F05AFACDE90A019F48D0F870010146E1
:103E70000090A04805F08EFF019005F077FCCDE999
:103E8000020104F0A3FECDE90601129880F0004083
:103E9000039005F06BFCCDE9040100E00EE0DDE9E4
:103EA000062305F039FACDE90801DDE90A2304F01B
:103EB00089FFCDE90C0104F053FF0F908A48D0F838
:103EC00070018C490D9005F029FF7DD88648D0F807
:103ED000700189490D9005F021FE75D28248D0F815
:103EE00070018449009005F055FF019005F03EFCFB
:103EF000CDE9020104F06AFECDE90601119805F052
:103F000035FCCDE90401DDE9062305F005FACDE92C
:103F10000A017548D0F870017649009005F03AFF23
:103F2000019005F023FCCDE9020104F09DFECDE9EE
:103F30000601129880F00040039005F017FCCDE9CF
:103F40000401DDE9062305F0E7F9CDE90801DDE923
:103F50000A2304F037FFCDE90C0104F001FF1090B3
:103F60006148D0F870016349009005F013FF01909B
:103F700005F0FCFBCDE9020104F076FECDE9060177
:103F8000119805F0F3FBCDE90401DDE9062305F006
:103F9000C3F9CDE90A015448D0F8700155490090A1
:103FA00005F0F8FE019005F0E1FBCDE9020104F017
:103FB0000DFECDE90601129880F00040039005F057
:103FC000D5FBCDE9040100E00EE0DDE9062305F0B4
:103FD000A3F9CDE90801DDE90A2305F0DDFACDE911
:103FE0000C0104F0BDFE0F903F48D0F8700142492B
:103FF0000D9005F093FE76D83B48D0F870013F490C
:104000000D9005F08BFD6ED23748D0F870013A491B
:10401000009005F0BFFE019005F0A8FBCDE902017C
:1040200004F022FECDE90601119805F09FFBCDE9D1
:104030000401DDE9062305F06FF9CDE90A012A48FC
:10404000D0F870012C49009005F0A4FE019005F015
:104050008DFBCDE9020104F0B9FDCDE9060112980E
:1040600080F00040039005F081FBCDE90401DDE91B
:10407000062305F051F9CDE90801DDE90A2305F031
:104080008BFACDE90C0104F06BFE10901648D0F8C5
:1040900070011949009005F07DFE019005F066FB66
:1040A000CDE9020104F092FDCDE90601119805F079
:1040B0005DFBCDE90401DDE9062305F02DF9CDE92D
:1040C0000A010948D0F870010B49009005F062FE22
:1040D000019005F04BFBCDE9020104F0C5FDCDE9EF
:1040E000060112980CE01EE0D0000020DB0FC94052
:1040F000FBC8E539DB0FC93FDB0F4940E4CB9640F5
:1041000005F034FBCDE90401DDE9062305F004F9EF
:10411000CDE90801DDE90A2305F03EFACDE90C01FD
:1041200004F01EFE0F90CB48D0F87001CA490D90E4
:1041300005F0F4FD7DD8C748D0F87001C7490D904F
:1041400005F0ECFC7FD2C348D0F87001C249009062
:1041500005F020FE019005F009FBCDE9020104F015
:1041600035FDCDE90601119805F000FBCDE904010C
:10417000DDE9062305F0D0F8CDE90A01B548D0F80D
:104180007001B549009005F005FE019005F0EEFACA
:10419000CDE9020104F068FDCDE90601129805F0B1
:1041A000E5FACDE90401DDE9062305F0B5F8CDE92E
:1041B0000801DDE90A2305F0EFF9CDE90C0104F06F
:1041C000CFFD1090A348D0F87001A349009005F0EE
:1041D000E1FD019005F0CAFACDE9020104F044FDC9
:1041E000CDE90601119805F0C1FACDE90401DDE938
:1041F000062305F091F8CDE90A019648D0F8700140
:104200009549009005F0C6FD019005F0AFFACDE9A3
:10421000020104F0DBFCCDE90601129805F0A6FAD4
:10422000CDE90401DDE9062305F076F8CDE90801C2
:1042300000E008E0DDE90A2304F0C4FDCDE90C014B
:1042400004F08EFD0F908649109805F029FB8149F6
:10425000C1F8400182490F9805F022FB7D49C1F861
:104260004401109805F082FACDE90C017949D1F8A2
:104270006001D1F86411CDE90A01DDE90C2304F0F5
:10428000A1FD744AC2F86001C2F864110F9805F0EC
:104290006DFACDE90C016F49D1F86801D1F86C11C4
:1042A000CDE90A01DDE90C2304F08CFD694AC2F86E
:1042B0006801C2F86C111146D1F86001D1F864119F
:1042C000C2F85001C2F854111046D0F86811D0F865
:1042D0006C2100F5A8708160C26013B000BD2DE9AB
:1042E000F041604800685B49C1F848010A46D2F8CD
:1042F0004811D2F8100105F04DFD04465A492046F8
:1043000005F00CFD05D22146584805F05BFA04463D
:1043100016E05749204605F001FC05D221465548D4
:1043200005F050FA04460BE0204605F01FFA21F094
:10433000004105460022504B04F0B2FF00D800BFF8
:104340004448D0F84811204605F03CFA0746414859
:10435000D0F84821394600F5BA70FFF7D4FA3D4845
:10436000D0F894013B49C1F81C01BDE8F0812DE96A
:10437000FF5F04460D4616461F46DDE90E89002202
:104380003E4B4046494604F0C7FF82468B463246C4
:104390003B462046294605F0FFF852465B46CDE9EC
:1043A000000104F00FFDCDE9020104F0D9FC294918
:1043B00008600022314B4046494604F0ADFF82467A
:1043C0008B4632463B462046294604F0FBFC5246CB
:1043D0005B46CDE9000104F0F5FCCDE9020104F0F3
:1043E000BFFC1C4948640022244B4046494604F067
:1043F00093FF82468B4632463B462046294605F0CF
:10440000CBF852465B46CDE9000105F0C5F8CDE991
:10441000020104F0A5FC0F49C1F888000022174BE7
:104420004046494604F078FF32463B46CDE900015C
:104430002046294604F0C6FC8246DDE9002305F04B
:10444000ABF8CDE9020104F08BFC0249C1F8CC00C5
:10445000BDE8FF9FD0000020E4CB9640DB0FC940B1
:104460000AD7233C4C000020000034430000B4C3B2
:10447000000034C30000B4430080664000003540B3
:1044800003468B4201DA08467047934201DD10462D
:10449000FAE71846F8E700B589B00121C80201F033
:1044A000E9FA0121042001F0E5FA18208DF8230033
:1044B0004FF47060ADF8200003208DF8220008A9A9
:1044C000454801F01BF8454802F022F90020ADF8FC
:1044D0001A00ADF816004720ADF8140044F61F602E
:1044E000ADF8180000208DF81C0005A93B4801F02C
:1044F0007FFD01A802F0B1F86020ADF804000020B3
:10450000ADF80C000120ADF80600ADF80A0001A9D5
:10451000324801F0AAFD01A802F09FF86020ADF832
:1045200004000020ADF80C000120ADF80600ADF845
:104530000A0001A9294801F0DAFD01A802F08DF86E
:104540006020ADF804000020ADF80C000120ADF8AB
:104550000600ADF80A0001A9204801F060FE012123
:104560001E4802F0A1F801211C4802F0A9F809B088
:1045700000BD70B504464FF4FA6060434FF4877194
:1045800090FBF1F000F5FA7085B22946134802F06D
:1045900023FB70BD70B504464FF4FA6060434FF4DE
:1045A000877190FBF1F000F5FA7085B229460B484F
:1045B00002F014FB70BD70B504464FF4FA6060431E
:1045C0004FF4877190FBF1F000F5FA7085B229463F
:1045D000024802F007FB70BD00080140002C0140BA
:1045E000024600BF108900F002000028FAD0918135
:1045F00000BF108900F001000028FAD09089C0B2F5
:10460000704702884FF6C7731A400280012902D111
:104610000288028003E0028842F0200202800288C1
:1046200042F040020280704700B587B001210920A6
:1046300001F020FA4FF42040ADF8040003208DF87B
:10464000060018208DF8070001A91C4800F056FF4D
:104650004FF48040ADF8040048208DF80700032097
:104660008DF8060001A9154800F048FF01218803D4
:1046700001F00DFA0020ADF808004FF48270ADF89B
:104680000A000020ADF80C00ADF80E00ADF81000E7
:104690004FF40070ADF812000020ADF81400ADF832
:1046A00016000720ADF8180002A9054801F06CFAC1
:1046B0000121034801F00DFB07B000BD000C0140D3
:1046C0000038004010B586B00446012144F20400D1
:1046D00001F0D0F94FF40070ADF8140003208DF80C
:1046E000160018208DF8170005A9CF4800F006FF26
:1046F0004FF48060ADF8140004208DF8170005A970
:10470000C94800F0FBFE25208DF800000A208DF836
:1047100001008DF8020001208DF80300684600F0CA
:1047200024FE01940020ADF80800ADF80A00ADF8B1
:104730000C00ADF810000C20ADF80E0001A9BB482C
:1047400002F0D3FA012240F22551B84802F065FB8D
:104750000121B64802F055FB06B010BD10B586B079
:1047600004460121480401F092F90121042001F0DE
:1047700081F90420ADF8140003208DF816001820EC
:104780008DF8170005A9A84800F0B8FE0820ADF87C
:10479000140004208DF8170005A9A34800F0AEFE10
:1047A00026208DF8000009208DF801008DF8020008
:1047B00001208DF80300684600F0D7FD0194002029
:1047C000ADF80800ADF80A00ADF80C00ADF8100027
:1047D0000C20ADF80E0001A9954802F086FA0122DE
:1047E00040F22551924802F018FB0121904802F056
:1047F00008FB06B010BD10B586B004460121880440
:1048000001F045F90121082001F034F94FF48060EE
:10481000ADF8140003208DF8160018208DF817004D
:1048200005A9844800F06AFE4FF40060ADF814005A
:1048300004208DF8170005A97E4800F05FFE2720B0
:104840008DF8000008208DF801008DF8020001208D
:104850008DF80300684600F088FD01940020ADF853
:104860000800ADF80A00ADF80C00ADF810000C20FF
:10487000ADF80E0001A9704802F037FA012240F2AB
:1048800025516D4802F0C9FA01216B4802F0B9FACE
:1048900006B010BD10B586B004460121C80401F071
:1048A000F6F80121102001F0E5F84FF48060ADF832
:1048B000140003208DF8160018208DF8170005A9A4
:1048C0005E4800F01BFE4FF40060ADF814000420B9
:1048D0008DF8170005A9594800F010FE34208DF816
:1048E000000007208DF801008DF8020001208DF8EE
:1048F0000300684600F039FD01940020ADF808007F
:10490000ADF80A00ADF80C00ADF810000C20ADF8C1
:104910000E0001A94A4802F0E8F9012240F22551AF
:10492000474802F07AFA0121454802F06AFA06B0D7
:1049300010BD10B586B004460121080501F0A7F8A6
:104940000121102001F096F80121202001F092F8B9
:104950004FF48050ADF8140003208DF81600182095
:104960008DF8170005A9354800F0C8FD0420ADF802
:1049700014008DF8170005A9324800F0BFFD35205E
:104980008DF8000006208DF801008DF8020001204E
:104990008DF80300684600F0E8FC01940020ADF8B3
:1049A0000800ADF80A00ADF80C00ADF810000C20BE
:1049B000ADF80E0001A9244802F097F9012240F257
:1049C0002551214802F029FA01211F4802F019FA65
:1049D00006B010BD70B506460C4615460DE02178B0
:1049E000304602F07BFA681E85B2641C00BF40218D
:1049F000304602F0E1FA0128F9D1002DEFD170BD67
:104A000070B505460C460BE014F8011B284602F071
:104A100065FA00BF4021284602F0CEFA0128F9D1FC
:104A200020780028F0D170BD000801400038014016
:104A300000440040000C01400048004000100140CC
:104A4000004C004000140140005000401FB50121FF
:104A5000102001F01CF83A4801F05AFE0020ADF891
:104A60000A00ADF8060040F2E730ADF8080040F269
:104A7000CF20ADF8040000208DF80C0001A93048CB
:104A800001F0B6FA01212E4802F0D4F801221146B5
:104A90002B4801F024FE4FF4A06000F061FC3620AA
:104AA0008DF8000001208DF8030003208DF801002F
:104AB00002208DF80200684600F057FC01212048D2
:104AC00001F0F2FD1FBD1FB50121202000F0DFFF26
:104AD0001C4801F01DFE0020ADF80A00ADF80600EC
:104AE00042F20F70ADF8080040F2CF20ADF804009C
:104AF00000208DF80C0001A9124801F079FA01217B
:104B0000104802F097F8012211460E4801F0E7FD27
:104B10004FF4A06000F024FC37208DF80000012045
:104B20008DF8030005208DF8010004208DF80200A7
:104B3000684600F01AFC0121024801F0B5FD1FBDD6
:104B4000001000400014004008B50121482000F08A
:104B500091FF4FF44870ADF8000010208DF803006D
:104B600003208DF8020069460E4800F0C7FC2021A2
:104B70000C4800F070FD4FF480710A4800F06BFDA6
:104B80004FF40071074800F066FD2020ADF80000EA
:104B90006946054800F0B2FC2021034800F05BFDA7
:104BA00008BD0000000C01400018014070B505462A
:104BB0000E4614463146284604F0B0FF01D2304676
:104BC00070BD2146284605F0A9F801D22046F7E736
:104BD0002846F5E700206549086048608860C8609D
:104BE000086148618861C861086248628862C86279
:104BF0005F49086048608860C860086148618861F2
:104C0000C861086248628862C8625A4908604860A0
:104C10008860C860086148618861C861086248624C
:104C20008862C8625449086048608860C86008614A
:104C300048618861C861086248628862C8627047DA
:104C400070B504460D462946206A04F0BBFD20627B
:104C5000E06880F0004602463146206AFFF7A6FF72
:104C600020622946206804F08DFF2061216A606877
:104C700004F088FF60612846616A05F08BF80646FB
:104C8000A16804F07FFFA0616562D4E9040104F02B
:104C900099FD0646A16904F095FDE061E06970BDEB
:104CA0002DE9F04104460D462846616A05F072F888
:104CB0000646216804F066FF20612946606804F01A
:104CC00061FF60612846616A05F064F80746A16AE1
:104CD00005F060F80646A16804F054FFA06128467C
:104CE000616A05F057F8A0626562D4E9040104F036
:104CF00069FD0746A16904F065FD0646E16904F017
:104D000061FDE061E069BDE8F0812DE9F041044614
:104D10000D462846616A05F03DF80646216804F014
:104D200031FF20612946606804F02CFF606128464D
:104D3000616A05F02FF80746A16A05F02BF80646D0
:104D4000A16804F01FFFA0612846616A05F022F8FF
:104D5000A0626562D4E9040104F034FD0646A1694D
:104D600004F030FDE061E069BDE8F08194030020CB
:104D7000C4030020F4030020240400207FB505466E
:104D80000C46002000900190029003908DF80040A6
:104D90000A208DF801006D208DF802006B208DF83F
:104DA0000300042269462846FFF714FE7FBD7FB545
:104DB00005460C46002000900190029003908DF86B
:104DC00000400E208DF8010052208DF802006B206B
:104DD0008DF80300042269462846FFF7FBFD7FBDDE
:104DE0002DE9FF4107460E4615460024002000909D
:104DF0000190029003900DF80460641C112D68D29C
:104E0000DFE805F0090F151B672167272D33393FB0
:104E10006745515C4B001F200DF80400601CC4B2B4
:104E200058E020200DF80400601CC4B252E021209C
:104E30000DF80400601CC4B24CE024200DF80400FE
:104E4000601CC4B246E027200DF80400601CC4B208
:104E500040E031200DF80400601CC4B23AE0332079
:104E60000DF80400601CC4B234E035200DF80400D5
:104E7000601CC4B22EE036200DF80400601CC4B2E1
:104E800028E037200DF80400601CC4B222E03A206C
:104E90000DF80400601CC4B21CE03B200DF80400B7
:104EA000601CC4B216E042200DF80400601CC4B2BD
:104EB0006C200DF80400601CC4B20BE043200DF818
:104EC0000400601CC4B27A200DF80400601CC4B257
:104ED00000E000BF00BF6B200DF80400601CC4B2EE
:104EE000224669463846FFF775FDBDE8FF812DE98A
:104EF000FF4107460C4615461E46002000900190D3
:104F0000029003908DF8004046208DF80100692042
:104F10008DF802008DF803508DF804606B208DF839
:104F20000500062269463846FFF754FDBDE8FF81BB
:104F30002DE9FF4107460C4615461E46002000900D
:104F40000190029003908DF80040F3208DF801004D
:104F5000AB208DF802008DF803508DF804606B20B3
:104F60008DF80500062269463846FFF733FDBDE897
:104F7000FF812DE9FF4707460D4616461C46DDE931
:104F80000C89002000900190029003908DF8005051
:104F9000F6208DF801008DF8026020128DF80300D4
:104FA000E0B28DF804008DF805808DF806906B2036
:104FB0008DF80700082269463846FFF70BFDBDE86B
:104FC000FF872DE9FF5F80460E4617461D46DDE947
:104FD00010ABDDE90E940020009001900290039048
:104FE0008DF80060FD208DF801008DF80270281208
:104FF0008DF80300E8B28DF804008DF80590200EBE
:105000008DF80600200C8DF80700200A8DF80800A6
:10501000E0B28DF809008DF80AA08DF80BB06B2076
:105020008DF80C000D2269464046FFF7D3FCBDE821
:10503000FF9F7FB506460C46154600200090019064
:10504000029003908DF80040FE208DF8010098201A
:105050008DF802008DF803506B208DF804000522B6
:1050600069463046FFF7B6FC7FBD7FB505460C4666
:10507000002000900190029003908DF80040FF20E6
:105080008DF8010066208DF802006B208DF803007A
:10509000042269462846FFF79DFC7FBD7FB5064682
:1050A0000C461546002000900190029003908DF868
:1050B000004093208DF8010088208DF802008DF8C3
:1050C00003506B208DF80400052269463046FFF737
:1050D00081FC7FBD2DE9FF4F89B00D4616461F4666
:1050E00018AC94E8100EDDF85C80202101A802F0D5
:1050F0005CF98DF804504C208DF80500AE208DF839
:1051000006008DF807608DF8087016988DF8090074
:105110004FEA28208DF80A0008F0FF008DF80B00F8
:10512000200E8DF80C00200C8DF80D00200A8DF853
:105130000E00E0B28DF80F004FEA29208DF8100024
:1051400009F0FF008DF811004FEA2A208DF81200B7
:105150000AF0FF008DF813004FEA2B208DF81400A1
:105160000BF0FF008DF815001C988DF816006B20D1
:105170008DF81700142201A90998FFF72BFC0DB038
:10518000BDE8F08F2DE9FF4107460C4615461E4647
:10519000002000900190029003908DF800409A202A
:1051A0008DF801008DF802508DF803606B208DF8AA
:1051B0000400052269463846FFF70CFCBDE8FF8174
:1051C0007FB505460C4600200090019002900390A8
:1051D0008DF800409C208DF8010048208DF80200D9
:1051E0006B208DF80300042269462846FFF7F2FB86
:1051F0007FBD000008B50121402000F03BFC0720E6
:10520000ADF8000048208DF803006946354800F0ED
:1052100075F90121042000F02DFC0121084600F061
:1052200029FC0121304800F03AFA48208DF80300AB
:1052300002208DF802008003ADF8000069462B487B
:1052400000F05CF908BD10B52948007829490870BC
:1052500029480078294908702948007829490870A8
:10526000294800782949087001211E4800F0D9F921
:105270001F49087002211B4800F0D3F91E4908702D
:105280000421184800F0CDF91D4908704FF4004181
:10529000164800F0C6F91C4908701548007828B176
:1052A0001448007810B90120194908701248007894
:1052B00028B11248007810B901201649087010482A
:1052C000007828B10F48007810B901201249087001
:1052D0000D48007828B10D48007810B901200F4919
:1052E000087010BD001801400002300000080140A5
:1052F0008000002086000020810000208700002020
:105300008200002088000020830000208900002007
:105310008C0000208D0000208E0000208F000020D7
:105320000948804709480047FEE7FEE7FEE7FEE739
:10533000FEE7FEE7FEE7FEE7FEE7FEE70448054975
:10534000054A064B70470000671C00083101000841
:10535000B8040020B80A0020B8060020B8060020D3
:1053600031490143314A1160704770B50021002373
:105370000F22C47804B32D4C246804F4E064C4F50F
:10538000E064210AC1F10403CA40447804FA03F13D
:105390008478144021430901254C0678A1550478EE
:1053A00004F01F050124AC4005786D11AD0005F136
:1053B000E025C5F8004109E0047804F01F05012448
:1053C000AC401C4D0678761145F8264070BD1A4A4F
:1053D0000A400243154B1B1F1A60704739B1134A2C
:1053E000121D12680243114B1B1D1A6006E00F4A82
:1053F000121D126882430D4B1B1D1A607047042852
:1054000008D14FF0E021096941F004014FF0E0229A
:10541000116107E04FF0E021096921F004014FF02C
:10542000E0221161704700000000FA050CED00E079
:1054300000E400E080E100E080FFFF1F10B50446BB
:10544000CC48844208D10121042000F02DFB00212A
:10545000042000F029FB46E0C748844208D101211E
:10546000082000F021FB0021082000F01DFB3AE09D
:10547000C248844208D10121102000F015FB002110
:10548000102000F011FB2EE0BD48844208D101211C
:10549000202000F009FB0021202000F005FB22E085
:1054A000B848844208D10121402000F0FDFA0021D3
:1054B000402000F0F9FA16E0B348844208D10121F7
:1054C000802000F0F1FA0021802000F0EDFA0AE0DF
:1054D000AE48844207D10121801500F0E5FA002191
:1054E000A01500F0E1FA10BD10B50121084600F04A
:1054F000DBFA0021012000F0D7FA10BD2DE9F041C0
:10550000024600250026002000230024002791F8F1
:1055100003C00CF00F0591F803C00CF0100CBCF1A7
:10552000000F03D091F802C04CEA050591F800C0C5
:10553000BCF1000F31D0146800202BE04FF0010CBB
:105540000CFA00F3B1F800C00CEA03069E4220D129
:1055500083004FF00F0C0CFA03F7BC4305FA03FC71
:105560004CEA040491F803C0BCF1280F06D14FF0B7
:10557000010C0CFA00FCC2F814C00AE091F803C058
:10558000BCF1480F05D14FF0010C0CFA00FCC2F839
:1055900010C0401C0828D1D31460B1F800C0BCF181
:1055A000FF0F34DD546800202EE000F1080C4FF0AE
:1055B000010808FA0CF3B1F800C00CEA03069E4299
:1055C00021D183004FF00F0C0CFA03F7BC4305FA0E
:1055D00003FC4CEA040491F803C0BCF1280F05D188
:1055E00000F1080C08FA0CF8C2F8148091F803C016
:1055F000BCF1480F07D100F1080C4FF0010808FA80
:105600000CF8C2F81080401C0828CED35460BDE8C6
:10561000F0814FF6FF710180022181700421C17079
:1056200070470246002093680B400BB1012000E058
:10563000002070470146886880B27047024600200B
:10564000D3680B400BB1012000E0002070470146F9
:10565000C86880B2704701617047416170470AB104
:10566000016100E041617047C16070474FF48032D2
:105670000A43826181618261826982697047024660
:105680000020434B18684FF68073184040EA021020
:1056900008433F4B186070473E49C8617047F0B5FA
:1056A0000A46002300240021002500F00046B6F140
:1056B000004F02D1364EF16901E0354E7168C0F3FA
:1056C000034583B200F44016B6F5401F08D121F01F
:1056D00070612F4E766826F070662D4F7E6012E066
:1056E00000F48016B6F5801F06D1032606FA05F4ED
:1056F000A14341F0706106E0460D360103FA06F65B
:10570000B14341F0706122B1460D360103FA06F64D
:10571000314300F00046B6F1004F02D11C4EF1615A
:1057200001E01B4E7160F0BD30B500228B071C0FED
:105730000F2303FA04F2164B08338C1053F824306D
:105740009343134C08348D1044F8253023468C10B5
:1057500053F824308C07240F00FA04F423430C4C34
:1057600008348D1044F8253030BD0A49DC3108601A
:105770007047000000080140000C0140001001408B
:105780000014014000180140001C014000200140AD
:105790000000014000002042DF48006840F00100A6
:1057A000DD49086008464068DC490840DA4948603D
:1057B00008460068DA490840D7490860084600688A
:1057C00020F4802008600846406820F4FE0048600D
:1057D0004FF41F0088607047CF49096821F4803179
:1057E000CD4A11601146096821F480211160B0F59D
:1057F000803F03D0B0F5802F0ED106E0C64909687E
:1058000041F48031C44A116007E0C349096841F49A
:10581000A021C14A116000E000BF00BF704710B571
:1058200001460022002300204A11012A02D1BA4C6D
:10583000236806E0022A02D1B74C236A01E0B64C85
:10584000636A01F01F02012494401C400CB1012046
:1058500000E0002010BD38B5002000900024002595
:1058600000BF3120FFF7DBFF05460098401C009089
:105870000098B0F5A06F01D0002DF2D03120FFF7D5
:10588000CEFF08B1012400E00024204638BD0146C7
:105890000020A14A106820F0F80040EAC100106022
:1058A0007047A04908607047024600209A4B58682C
:1058B00020F47C1042EA01031843974B586070476C
:1058C00098490866704701460020934A506820F0C6
:1058D00003000843506070478F48406800F00C0098
:1058E0007047014600208C4A506820F0F0000843C1
:1058F0005060704701460020874A506820F4E060FD
:1059000008435060704701460020834A506820F4E5
:10591000605040EAC1005060704729B17E4A527A17
:1059200002437D4B5A7204E07B4A527A82437A4B9F
:105930005A7270477B49D831086070470146002091
:10594000754A506820F44040084350607047002179
:10595000714A20321170704A82F82010012802D05A
:1059600004280AD104E001216B4A2032117005E0BD
:105970000521694A2032117000E000BF00BF704766
:105980006949086070476449096A0143624A1162C3
:105990007047654944390860704730B500210022DE
:1059A000002400235C4D6D6805F00C0121B1042931
:1059B00005D0082923D105E05C4D056022E05B4D50
:1059C00005601FE0544D6D6805F47012524D6D680E
:1059D00005F48034022505EB92421CB9544D554321
:1059E00005600BE04C4D6D6805F400351DB1504D60
:1059F0005543056002E04D4D5543056002E04B4DB7
:105A0000056000BF00BF444D6D6805F0F001090955
:105A1000484D6B5C0568DD4045603F4D6D6805F4A1
:105A2000E061090A434D6B5C4568DD4085603A4D95
:105A30006D6805F46051C90A3E4D6B5C4568DD40F8
:105A4000C560354D6D6805F44041890B3A4D6B5C7E
:105A5000C568B5FBF3F5056130BD29B12E4A526921
:105A600002432D4B5A6104E02B4A526982432A4B70
:105A70005A61704729B1284A92690243264B9A61BC
:105A800004E0254A92698243234B9A61704729B109
:105A9000214AD2690243204BDA6104E01E4AD269EE
:105AA00082431D4BDA61704729B11B4AD268024319
:105AB000194BDA6004E0184AD2688243164BDA6068
:105AC000704729B1144A12690243134B1A6104E06A
:105AD000114A12698243104B1A61704712494039CA
